{
	"storage.sol": {
		"VotingDApp": {
			"abi": [
				{
					"inputs": [],
					"stateMutability": "nonpayable",
					"type": "constructor"
				},
				{
					"anonymous": false,
					"inputs": [
						{
							"indexed": false,
							"internalType": "uint256",
							"name": "pollId",
							"type": "uint256"
						},
						{
							"indexed": false,
							"internalType": "address",
							"name": "candidateAddress",
							"type": "address"
						},
						{
							"indexed": false,
							"internalType": "string",
							"name": "candidateName",
							"type": "string"
						},
						{
							"indexed": false,
							"internalType": "string",
							"name": "imageUrl",
							"type": "string"
						}
					],
					"name": "CandidateRegistered",
					"type": "event"
				},
				{
					"anonymous": false,
					"inputs": [
						{
							"indexed": false,
							"internalType": "uint256",
							"name": "pollId",
							"type": "uint256"
						},
						{
							"indexed": false,
							"internalType": "string",
							"name": "name",
							"type": "string"
						},
						{
							"indexed": false,
							"internalType": "string",
							"name": "imageUrl",
							"type": "string"
						},
						{
							"indexed": false,
							"internalType": "uint256",
							"name": "startTime",
							"type": "uint256"
						},
						{
							"indexed": false,
							"internalType": "uint256",
							"name": "endTime",
							"type": "uint256"
						}
					],
					"name": "PollCreated",
					"type": "event"
				},
				{
					"anonymous": false,
					"inputs": [
						{
							"indexed": false,
							"internalType": "uint256",
							"name": "pollId",
							"type": "uint256"
						},
						{
							"indexed": false,
							"internalType": "address",
							"name": "winner",
							"type": "address"
						}
					],
					"name": "PollEnded",
					"type": "event"
				},
				{
					"anonymous": false,
					"inputs": [
						{
							"indexed": false,
							"internalType": "uint256",
							"name": "pollId",
							"type": "uint256"
						},
						{
							"indexed": false,
							"internalType": "address",
							"name": "voter",
							"type": "address"
						},
						{
							"indexed": false,
							"internalType": "address",
							"name": "candidate",
							"type": "address"
						}
					],
					"name": "VoteCasted",
					"type": "event"
				},
				{
					"inputs": [
						{
							"internalType": "uint256",
							"name": "",
							"type": "uint256"
						},
						{
							"internalType": "uint256",
							"name": "",
							"type": "uint256"
						}
					],
					"name": "allCandidates",
					"outputs": [
						{
							"internalType": "address",
							"name": "",
							"type": "address"
						}
					],
					"stateMutability": "view",
					"type": "function"
				},
				{
					"inputs": [
						{
							"internalType": "string",
							"name": "name",
							"type": "string"
						},
						{
							"internalType": "string",
							"name": "imageUrl",
							"type": "string"
						},
						{
							"internalType": "uint256",
							"name": "startTime",
							"type": "uint256"
						},
						{
							"internalType": "uint256",
							"name": "endTime",
							"type": "uint256"
						}
					],
					"name": "createPoll",
					"outputs": [],
					"stateMutability": "nonpayable",
					"type": "function"
				},
				{
					"inputs": [
						{
							"internalType": "uint256",
							"name": "pollId",
							"type": "uint256"
						}
					],
					"name": "endPoll",
					"outputs": [],
					"stateMutability": "nonpayable",
					"type": "function"
				},
				{
					"inputs": [],
					"name": "owner",
					"outputs": [
						{
							"internalType": "address",
							"name": "",
							"type": "address"
						}
					],
					"stateMutability": "view",
					"type": "function"
				},
				{
					"inputs": [
						{
							"internalType": "uint256",
							"name": "",
							"type": "uint256"
						},
						{
							"internalType": "address",
							"name": "",
							"type": "address"
						}
					],
					"name": "pollCandidates",
					"outputs": [
						{
							"internalType": "address",
							"name": "candidateAddress",
							"type": "address"
						},
						{
							"internalType": "string",
							"name": "name",
							"type": "string"
						},
						{
							"internalType": "string",
							"name": "imageUrl",
							"type": "string"
						},
						{
							"internalType": "bool",
							"name": "approved",
							"type": "bool"
						},
						{
							"internalType": "uint256",
							"name": "votesReceived",
							"type": "uint256"
						}
					],
					"stateMutability": "view",
					"type": "function"
				},
				{
					"inputs": [],
					"name": "pollCount",
					"outputs": [
						{
							"internalType": "uint256",
							"name": "",
							"type": "uint256"
						}
					],
					"stateMutability": "view",
					"type": "function"
				},
				{
					"inputs": [
						{
							"internalType": "uint256",
							"name": "",
							"type": "uint256"
						}
					],
					"name": "polls",
					"outputs": [
						{
							"internalType": "string",
							"name": "name",
							"type": "string"
						},
						{
							"internalType": "string",
							"name": "imageUrl",
							"type": "string"
						},
						{
							"internalType": "bool",
							"name": "active",
							"type": "bool"
						},
						{
							"internalType": "uint256",
							"name": "startTime",
							"type": "uint256"
						},
						{
							"internalType": "uint256",
							"name": "endTime",
							"type": "uint256"
						},
						{
							"internalType": "uint256",
							"name": "totalVotes",
							"type": "uint256"
						},
						{
							"internalType": "uint256",
							"name": "highestVotes",
							"type": "uint256"
						},
						{
							"internalType": "address",
							"name": "winner",
							"type": "address"
						}
					],
					"stateMutability": "view",
					"type": "function"
				},
				{
					"inputs": [
						{
							"internalType": "uint256",
							"name": "pollId",
							"type": "uint256"
						},
						{
							"internalType": "string",
							"name": "candidateName",
							"type": "string"
						},
						{
							"internalType": "string",
							"name": "imageUrl",
							"type": "string"
						}
					],
					"name": "registerAsCandidate",
					"outputs": [],
					"stateMutability": "nonpayable",
					"type": "function"
				},
				{
					"inputs": [
						{
							"internalType": "address",
							"name": "",
							"type": "address"
						}
					],
					"name": "registeredCandidates",
					"outputs": [
						{
							"internalType": "bool",
							"name": "",
							"type": "bool"
						}
					],
					"stateMutability": "view",
					"type": "function"
				},
				{
					"inputs": [
						{
							"internalType": "uint256",
							"name": "pollId",
							"type": "uint256"
						},
						{
							"internalType": "address",
							"name": "candidate",
							"type": "address"
						}
					],
					"name": "vote",
					"outputs": [],
					"stateMutability": "nonpayable",
					"type": "function"
				}
			],
			"devdoc": {
				"kind": "dev",
				"methods": {},
				"version": 1
			},
			"evm": {
				"assembly": "    /* \"storage.sol\":57:4480  contract VotingDApp {... */\n  mstore(0x40, 0x80)\n    /* \"storage.sol\":1558:1607  constructor() {... */\n  callvalue\n  dup1\n  iszero\n  tag_1\n  jumpi\n  0x00\n  dup1\n  revert\ntag_1:\n  pop\n    /* \"storage.sol\":1590:1600  msg.sender */\n  caller\n    /* \"storage.sol\":1582:1587  owner */\n  0x00\n  dup1\n    /* \"storage.sol\":1582:1600  owner = msg.sender */\n  0x0100\n  exp\n  dup2\n  sload\n  dup2\n  0xffffffffffffffffffffffffffffffffffffffff\n  mul\n  not\n  and\n  swap1\n  dup4\n  0xffffffffffffffffffffffffffffffffffffffff\n  and\n  mul\n  or\n  swap1\n  sstore\n  pop\n    /* \"storage.sol\":57:4480  contract VotingDApp {... */\n  dataSize(sub_0)\n  dup1\n  dataOffset(sub_0)\n  0x00\n  codecopy\n  0x00\n  return\nstop\n\nsub_0: assembly {\n        /* \"storage.sol\":57:4480  contract VotingDApp {... */\n      mstore(0x40, 0x80)\n      callvalue\n      dup1\n      iszero\n      tag_1\n      jumpi\n      0x00\n      dup1\n      revert\n    tag_1:\n      pop\n      jumpi(tag_2, lt(calldatasize, 0x04))\n      shr(0xe0, calldataload(0x00))\n      dup1\n      0x8da5cb5b\n      gt\n      tag_13\n      jumpi\n      dup1\n      0x8da5cb5b\n      eq\n      tag_8\n      jumpi\n      dup1\n      0x9207891d\n      eq\n      tag_9\n      jumpi\n      dup1\n      0x93264baa\n      eq\n      tag_10\n      jumpi\n      dup1\n      0xac2f0074\n      eq\n      tag_11\n      jumpi\n      dup1\n      0xf43b8778\n      eq\n      tag_12\n      jumpi\n      jump(tag_2)\n    tag_13:\n      dup1\n      0x02d947ef\n      eq\n      tag_3\n      jumpi\n      dup1\n      0x06aceddc\n      eq\n      tag_4\n      jumpi\n      dup1\n      0x291d9569\n      eq\n      tag_5\n      jumpi\n      dup1\n      0x4ea05fe0\n      eq\n      tag_6\n      jumpi\n      dup1\n      0x5c1e7bec\n      eq\n      tag_7\n      jumpi\n    tag_2:\n      0x00\n      dup1\n      revert\n        /* \"storage.sol\":3025:3730  function vote(uint256 pollId, address candidate) public pollExists(pollId) {... */\n    tag_3:\n      tag_14\n      0x04\n      dup1\n      calldatasize\n      sub\n      dup2\n      add\n      swap1\n      tag_15\n      swap2\n      swap1\n      tag_16\n      jump\t// in\n    tag_15:\n      tag_17\n      jump\t// in\n    tag_14:\n      stop\n        /* \"storage.sol\":1650:2174  function createPoll(... */\n    tag_4:\n      tag_18\n      0x04\n      dup1\n      calldatasize\n      sub\n      dup2\n      add\n      swap1\n      tag_19\n      swap2\n      swap1\n      tag_20\n      jump\t// in\n    tag_19:\n      tag_21\n      jump\t// in\n    tag_18:\n      stop\n        /* \"storage.sol\":2231:2972  function registerAsCandidate(... */\n    tag_5:\n      tag_22\n      0x04\n      dup1\n      calldatasize\n      sub\n      dup2\n      add\n      swap1\n      tag_23\n      swap2\n      swap1\n      tag_24\n      jump\t// in\n    tag_23:\n      tag_25\n      jump\t// in\n    tag_22:\n      stop\n        /* \"storage.sol\":790:861  mapping(uint256 => mapping(address => Candidate)) public pollCandidates */\n    tag_6:\n      tag_26\n      0x04\n      dup1\n      calldatasize\n      sub\n      dup2\n      add\n      swap1\n      tag_27\n      swap2\n      swap1\n      tag_16\n      jump\t// in\n    tag_27:\n      tag_28\n      jump\t// in\n    tag_26:\n      mload(0x40)\n      tag_29\n      swap6\n      swap5\n      swap4\n      swap3\n      swap2\n      swap1\n      tag_30\n      jump\t// in\n    tag_29:\n      mload(0x40)\n      dup1\n      swap2\n      sub\n      swap1\n      return\n        /* \"storage.sol\":732:784  mapping(address => bool) public registeredCandidates */\n    tag_7:\n      tag_31\n      0x04\n      dup1\n      calldatasize\n      sub\n      dup2\n      add\n      swap1\n      tag_32\n      swap2\n      swap1\n      tag_33\n      jump\t// in\n    tag_32:\n      tag_34\n      jump\t// in\n    tag_31:\n      mload(0x40)\n      tag_35\n      swap2\n      swap1\n      tag_36\n      jump\t// in\n    tag_35:\n      mload(0x40)\n      dup1\n      swap2\n      sub\n      swap1\n      return\n        /* \"storage.sol\":83:103  address public owner */\n    tag_8:\n      tag_37\n      tag_38\n      jump\t// in\n    tag_37:\n      mload(0x40)\n      tag_39\n      swap2\n      swap1\n      tag_40\n      jump\t// in\n    tag_39:\n      mload(0x40)\n      dup1\n      swap2\n      sub\n      swap1\n      return\n        /* \"storage.sol\":109:133  uint256 public pollCount */\n    tag_9:\n      tag_41\n      tag_42\n      jump\t// in\n    tag_41:\n      mload(0x40)\n      tag_43\n      swap2\n      swap1\n      tag_44\n      jump\t// in\n    tag_43:\n      mload(0x40)\n      dup1\n      swap2\n      sub\n      swap1\n      return\n        /* \"storage.sol\":867:917  mapping(uint256 => address[]) public allCandidates */\n    tag_10:\n      tag_45\n      0x04\n      dup1\n      calldatasize\n      sub\n      dup2\n      add\n      swap1\n      tag_46\n      swap2\n      swap1\n      tag_47\n      jump\t// in\n    tag_46:\n      tag_48\n      jump\t// in\n    tag_45:\n      mload(0x40)\n      tag_49\n      swap2\n      swap1\n      tag_40\n      jump\t// in\n    tag_49:\n      mload(0x40)\n      dup1\n      swap2\n      sub\n      swap1\n      return\n        /* \"storage.sol\":689:726  mapping(uint256 => Poll) public polls */\n    tag_11:\n      tag_50\n      0x04\n      dup1\n      calldatasize\n      sub\n      dup2\n      add\n      swap1\n      tag_51\n      swap2\n      swap1\n      tag_52\n      jump\t// in\n    tag_51:\n      tag_53\n      jump\t// in\n    tag_50:\n      mload(0x40)\n      tag_54\n      swap9\n      swap8\n      swap7\n      swap6\n      swap5\n      swap4\n      swap3\n      swap2\n      swap1\n      tag_55\n      jump\t// in\n    tag_54:\n      mload(0x40)\n      dup1\n      swap2\n      sub\n      swap1\n      return\n        /* \"storage.sol\":3768:3999  function endPoll(uint256 pollId) public onlyOwner pollExists(pollId) {... */\n    tag_12:\n      tag_56\n      0x04\n      dup1\n      calldatasize\n      sub\n      dup2\n      add\n      swap1\n      tag_57\n      swap2\n      swap1\n      tag_52\n      jump\t// in\n    tag_57:\n      tag_58\n      jump\t// in\n    tag_56:\n      stop\n        /* \"storage.sol\":3025:3730  function vote(uint256 pollId, address candidate) public pollExists(pollId) {... */\n    tag_17:\n        /* \"storage.sol\":3092:3098  pollId */\n      dup2\n        /* \"storage.sol\":1486:1487  0 */\n      0x00\n        /* \"storage.sol\":1477:1483  pollId */\n      dup2\n        /* \"storage.sol\":1477:1487  pollId > 0 */\n      gt\n        /* \"storage.sol\":1477:1510  pollId > 0 && pollId <= pollCount */\n      dup1\n      iszero\n      tag_60\n      jumpi\n      pop\n        /* \"storage.sol\":1501:1510  pollCount */\n      sload(0x01)\n        /* \"storage.sol\":1491:1497  pollId */\n      dup2\n        /* \"storage.sol\":1491:1510  pollId <= pollCount */\n      gt\n      iszero\n        /* \"storage.sol\":1477:1510  pollId > 0 && pollId <= pollCount */\n    tag_60:\n        /* \"storage.sol\":1469:1534  require(pollId > 0 && pollId <= pollCount, \"Poll does not exist\") */\n      tag_61\n      jumpi\n      mload(0x40)\n      0x08c379a000000000000000000000000000000000000000000000000000000000\n      dup2\n      mstore\n      0x04\n      add\n      tag_62\n      swap1\n      tag_63\n      jump\t// in\n    tag_62:\n      mload(0x40)\n      dup1\n      swap2\n      sub\n      swap1\n      revert\n    tag_61:\n        /* \"storage.sol\":3110:3127  Poll storage poll */\n      0x00\n        /* \"storage.sol\":3130:3135  polls */\n      0x02\n        /* \"storage.sol\":3130:3143  polls[pollId] */\n      0x00\n        /* \"storage.sol\":3136:3142  pollId */\n      dup6\n        /* \"storage.sol\":3130:3143  polls[pollId] */\n      dup2\n      mstore\n      0x20\n      add\n      swap1\n      dup2\n      mstore\n      0x20\n      add\n      0x00\n      keccak256\n        /* \"storage.sol\":3110:3143  Poll storage poll = polls[pollId] */\n      swap1\n      pop\n        /* \"storage.sol\":3161:3165  poll */\n      dup1\n        /* \"storage.sol\":3161:3172  poll.active */\n      0x02\n      add\n      0x00\n      swap1\n      sload\n      swap1\n      0x0100\n      exp\n      swap1\n      div\n      0xff\n      and\n        /* \"storage.sol\":3153:3195  require(poll.active, \"Poll is not active\") */\n      tag_65\n      jumpi\n      mload(0x40)\n      0x08c379a000000000000000000000000000000000000000000000000000000000\n      dup2\n      mstore\n      0x04\n      add\n      tag_66\n      swap1\n      tag_67\n      jump\t// in\n    tag_66:\n      mload(0x40)\n      dup1\n      swap2\n      sub\n      swap1\n      revert\n    tag_65:\n        /* \"storage.sol\":3214:3218  poll */\n      dup1\n        /* \"storage.sol\":3214:3227  poll.hasVoted */\n      0x05\n      add\n        /* \"storage.sol\":3214:3239  poll.hasVoted[msg.sender] */\n      0x00\n        /* \"storage.sol\":3228:3238  msg.sender */\n      caller\n        /* \"storage.sol\":3214:3239  poll.hasVoted[msg.sender] */\n      0xffffffffffffffffffffffffffffffffffffffff\n      and\n      0xffffffffffffffffffffffffffffffffffffffff\n      and\n      dup2\n      mstore\n      0x20\n      add\n      swap1\n      dup2\n      mstore\n      0x20\n      add\n      0x00\n      keccak256\n      0x00\n      swap1\n      sload\n      swap1\n      0x0100\n      exp\n      swap1\n      div\n      0xff\n      and\n        /* \"storage.sol\":3213:3239  !poll.hasVoted[msg.sender] */\n      iszero\n        /* \"storage.sol\":3205:3257  require(!poll.hasVoted[msg.sender], \"Already voted\") */\n      tag_68\n      jumpi\n      mload(0x40)\n      0x08c379a000000000000000000000000000000000000000000000000000000000\n      dup2\n      mstore\n      0x04\n      add\n      tag_69\n      swap1\n      tag_70\n      jump\t// in\n    tag_69:\n      mload(0x40)\n      dup1\n      swap2\n      sub\n      swap1\n      revert\n    tag_68:\n        /* \"storage.sol\":3275:3289  pollCandidates */\n      0x04\n        /* \"storage.sol\":3275:3297  pollCandidates[pollId] */\n      0x00\n        /* \"storage.sol\":3290:3296  pollId */\n      dup6\n        /* \"storage.sol\":3275:3297  pollCandidates[pollId] */\n      dup2\n      mstore\n      0x20\n      add\n      swap1\n      dup2\n      mstore\n      0x20\n      add\n      0x00\n      keccak256\n        /* \"storage.sol\":3275:3308  pollCandidates[pollId][candidate] */\n      0x00\n        /* \"storage.sol\":3298:3307  candidate */\n      dup5\n        /* \"storage.sol\":3275:3308  pollCandidates[pollId][candidate] */\n      0xffffffffffffffffffffffffffffffffffffffff\n      and\n      0xffffffffffffffffffffffffffffffffffffffff\n      and\n      dup2\n      mstore\n      0x20\n      add\n      swap1\n      dup2\n      mstore\n      0x20\n      add\n      0x00\n      keccak256\n        /* \"storage.sol\":3275:3317  pollCandidates[pollId][candidate].approved */\n      0x03\n      add\n      0x00\n      swap1\n      sload\n      swap1\n      0x0100\n      exp\n      swap1\n      div\n      0xff\n      and\n        /* \"storage.sol\":3267:3344  require(pollCandidates[pollId][candidate].approved, \"Candidate not approved\") */\n      tag_71\n      jumpi\n      mload(0x40)\n      0x08c379a000000000000000000000000000000000000000000000000000000000\n      dup2\n      mstore\n      0x04\n      add\n      tag_72\n      swap1\n      tag_73\n      jump\t// in\n    tag_72:\n      mload(0x40)\n      dup1\n      swap2\n      sub\n      swap1\n      revert\n    tag_71:\n        /* \"storage.sol\":3383:3387  true */\n      0x01\n        /* \"storage.sol\":3355:3359  poll */\n      dup2\n        /* \"storage.sol\":3355:3368  poll.hasVoted */\n      0x05\n      add\n        /* \"storage.sol\":3355:3380  poll.hasVoted[msg.sender] */\n      0x00\n        /* \"storage.sol\":3369:3379  msg.sender */\n      caller\n        /* \"storage.sol\":3355:3380  poll.hasVoted[msg.sender] */\n      0xffffffffffffffffffffffffffffffffffffffff\n      and\n      0xffffffffffffffffffffffffffffffffffffffff\n      and\n      dup2\n      mstore\n      0x20\n      add\n      swap1\n      dup2\n      mstore\n      0x20\n      add\n      0x00\n      keccak256\n      0x00\n        /* \"storage.sol\":3355:3387  poll.hasVoted[msg.sender] = true */\n      0x0100\n      exp\n      dup2\n      sload\n      dup2\n      0xff\n      mul\n      not\n      and\n      swap1\n      dup4\n      iszero\n      iszero\n      mul\n      or\n      swap1\n      sstore\n      pop\n        /* \"storage.sol\":3397:3401  poll */\n      dup1\n        /* \"storage.sol\":3397:3407  poll.votes */\n      0x06\n      add\n        /* \"storage.sol\":3397:3418  poll.votes[candidate] */\n      0x00\n        /* \"storage.sol\":3408:3417  candidate */\n      dup5\n        /* \"storage.sol\":3397:3418  poll.votes[candidate] */\n      0xffffffffffffffffffffffffffffffffffffffff\n      and\n      0xffffffffffffffffffffffffffffffffffffffff\n      and\n      dup2\n      mstore\n      0x20\n      add\n      swap1\n      dup2\n      mstore\n      0x20\n      add\n      0x00\n      keccak256\n      0x00\n        /* \"storage.sol\":3397:3420  poll.votes[candidate]++ */\n      dup2\n      sload\n      dup1\n      swap3\n      swap2\n      swap1\n      tag_74\n      swap1\n      tag_75\n      jump\t// in\n    tag_74:\n      swap2\n      swap1\n      pop\n      sstore\n      pop\n        /* \"storage.sol\":3430:3434  poll */\n      dup1\n        /* \"storage.sol\":3430:3445  poll.totalVotes */\n      0x07\n      add\n      0x00\n        /* \"storage.sol\":3430:3447  poll.totalVotes++ */\n      dup2\n      sload\n      dup1\n      swap3\n      swap2\n      swap1\n      tag_76\n      swap1\n      tag_75\n      jump\t// in\n    tag_76:\n      swap2\n      swap1\n      pop\n      sstore\n      pop\n        /* \"storage.sol\":3457:3471  pollCandidates */\n      0x04\n        /* \"storage.sol\":3457:3479  pollCandidates[pollId] */\n      0x00\n        /* \"storage.sol\":3472:3478  pollId */\n      dup6\n        /* \"storage.sol\":3457:3479  pollCandidates[pollId] */\n      dup2\n      mstore\n      0x20\n      add\n      swap1\n      dup2\n      mstore\n      0x20\n      add\n      0x00\n      keccak256\n        /* \"storage.sol\":3457:3490  pollCandidates[pollId][candidate] */\n      0x00\n        /* \"storage.sol\":3480:3489  candidate */\n      dup5\n        /* \"storage.sol\":3457:3490  pollCandidates[pollId][candidate] */\n      0xffffffffffffffffffffffffffffffffffffffff\n      and\n      0xffffffffffffffffffffffffffffffffffffffff\n      and\n      dup2\n      mstore\n      0x20\n      add\n      swap1\n      dup2\n      mstore\n      0x20\n      add\n      0x00\n      keccak256\n        /* \"storage.sol\":3457:3504  pollCandidates[pollId][candidate].votesReceived */\n      0x04\n      add\n      0x00\n        /* \"storage.sol\":3457:3506  pollCandidates[pollId][candidate].votesReceived++ */\n      dup2\n      sload\n      dup1\n      swap3\n      swap2\n      swap1\n      tag_77\n      swap1\n      tag_75\n      jump\t// in\n    tag_77:\n      swap2\n      swap1\n      pop\n      sstore\n      pop\n        /* \"storage.sol\":3545:3549  poll */\n      dup1\n        /* \"storage.sol\":3545:3562  poll.highestVotes */\n      0x08\n      add\n      sload\n        /* \"storage.sol\":3521:3525  poll */\n      dup2\n        /* \"storage.sol\":3521:3531  poll.votes */\n      0x06\n      add\n        /* \"storage.sol\":3521:3542  poll.votes[candidate] */\n      0x00\n        /* \"storage.sol\":3532:3541  candidate */\n      dup6\n        /* \"storage.sol\":3521:3542  poll.votes[candidate] */\n      0xffffffffffffffffffffffffffffffffffffffff\n      and\n      0xffffffffffffffffffffffffffffffffffffffff\n      and\n      dup2\n      mstore\n      0x20\n      add\n      swap1\n      dup2\n      mstore\n      0x20\n      add\n      0x00\n      keccak256\n      sload\n        /* \"storage.sol\":3521:3562  poll.votes[candidate] > poll.highestVotes */\n      gt\n        /* \"storage.sol\":3517:3667  if (poll.votes[candidate] > poll.highestVotes) {... */\n      iszero\n      tag_78\n      jumpi\n        /* \"storage.sol\":3598:3602  poll */\n      dup1\n        /* \"storage.sol\":3598:3608  poll.votes */\n      0x06\n      add\n        /* \"storage.sol\":3598:3619  poll.votes[candidate] */\n      0x00\n        /* \"storage.sol\":3609:3618  candidate */\n      dup5\n        /* \"storage.sol\":3598:3619  poll.votes[candidate] */\n      0xffffffffffffffffffffffffffffffffffffffff\n      and\n      0xffffffffffffffffffffffffffffffffffffffff\n      and\n      dup2\n      mstore\n      0x20\n      add\n      swap1\n      dup2\n      mstore\n      0x20\n      add\n      0x00\n      keccak256\n      sload\n        /* \"storage.sol\":3578:3582  poll */\n      dup2\n        /* \"storage.sol\":3578:3595  poll.highestVotes */\n      0x08\n      add\n        /* \"storage.sol\":3578:3619  poll.highestVotes = poll.votes[candidate] */\n      dup2\n      swap1\n      sstore\n      pop\n        /* \"storage.sol\":3647:3656  candidate */\n      dup3\n        /* \"storage.sol\":3633:3637  poll */\n      dup2\n        /* \"storage.sol\":3633:3644  poll.winner */\n      0x09\n      add\n      0x00\n        /* \"storage.sol\":3633:3656  poll.winner = candidate */\n      0x0100\n      exp\n      dup2\n      sload\n      dup2\n      0xffffffffffffffffffffffffffffffffffffffff\n      mul\n      not\n      and\n      swap1\n      dup4\n      0xffffffffffffffffffffffffffffffffffffffff\n      and\n      mul\n      or\n      swap1\n      sstore\n      pop\n        /* \"storage.sol\":3517:3667  if (poll.votes[candidate] > poll.highestVotes) {... */\n    tag_78:\n        /* \"storage.sol\":3682:3723  VoteCasted(pollId, msg.sender, candidate) */\n      0x6bb852dd4b5b42efdae2712671afd5e0543546344271c4eaae3cff0432909064\n        /* \"storage.sol\":3693:3699  pollId */\n      dup5\n        /* \"storage.sol\":3701:3711  msg.sender */\n      caller\n        /* \"storage.sol\":3713:3722  candidate */\n      dup6\n        /* \"storage.sol\":3682:3723  VoteCasted(pollId, msg.sender, candidate) */\n      mload(0x40)\n      tag_79\n      swap4\n      swap3\n      swap2\n      swap1\n      tag_80\n      jump\t// in\n    tag_79:\n      mload(0x40)\n      dup1\n      swap2\n      sub\n      swap1\n      log1\n        /* \"storage.sol\":3100:3730  {... */\n      pop\n        /* \"storage.sol\":3025:3730  function vote(uint256 pollId, address candidate) public pollExists(pollId) {... */\n      pop\n      pop\n      pop\n      jump\t// out\n        /* \"storage.sol\":1650:2174  function createPoll(... */\n    tag_21:\n        /* \"storage.sol\":1351:1356  owner */\n      0x00\n      dup1\n      sload\n      swap1\n      0x0100\n      exp\n      swap1\n      div\n      0xffffffffffffffffffffffffffffffffffffffff\n      and\n        /* \"storage.sol\":1337:1356  msg.sender == owner */\n      0xffffffffffffffffffffffffffffffffffffffff\n      and\n        /* \"storage.sol\":1337:1347  msg.sender */\n      caller\n        /* \"storage.sol\":1337:1356  msg.sender == owner */\n      0xffffffffffffffffffffffffffffffffffffffff\n      and\n      eq\n        /* \"storage.sol\":1329:1399  require(msg.sender == owner, \"Only the owner can perform this action\") */\n      tag_82\n      jumpi\n      mload(0x40)\n      0x08c379a000000000000000000000000000000000000000000000000000000000\n      dup2\n      mstore\n      0x04\n      add\n      tag_83\n      swap1\n      tag_84\n      jump\t// in\n    tag_83:\n      mload(0x40)\n      dup1\n      swap2\n      sub\n      swap1\n      revert\n    tag_82:\n        /* \"storage.sol\":1835:1842  endTime */\n      dup1\n        /* \"storage.sol\":1823:1832  startTime */\n      dup3\n        /* \"storage.sol\":1823:1842  startTime < endTime */\n      lt\n        /* \"storage.sol\":1815:1868  require(startTime < endTime, \"Invalid poll duration\") */\n      tag_86\n      jumpi\n      mload(0x40)\n      0x08c379a000000000000000000000000000000000000000000000000000000000\n      dup2\n      mstore\n      0x04\n      add\n      tag_87\n      swap1\n      tag_88\n      jump\t// in\n    tag_87:\n      mload(0x40)\n      dup1\n      swap2\n      sub\n      swap1\n      revert\n    tag_86:\n        /* \"storage.sol\":1879:1888  pollCount */\n      0x01\n      0x00\n        /* \"storage.sol\":1879:1890  pollCount++ */\n      dup2\n      sload\n      dup1\n      swap3\n      swap2\n      swap1\n      tag_89\n      swap1\n      tag_75\n      jump\t// in\n    tag_89:\n      swap2\n      swap1\n      pop\n      sstore\n      pop\n        /* \"storage.sol\":1900:1917  Poll storage poll */\n      0x00\n        /* \"storage.sol\":1920:1925  polls */\n      0x02\n        /* \"storage.sol\":1920:1936  polls[pollCount] */\n      0x00\n        /* \"storage.sol\":1926:1935  pollCount */\n      sload(0x01)\n        /* \"storage.sol\":1920:1936  polls[pollCount] */\n      dup2\n      mstore\n      0x20\n      add\n      swap1\n      dup2\n      mstore\n      0x20\n      add\n      0x00\n      keccak256\n        /* \"storage.sol\":1900:1936  Poll storage poll = polls[pollCount] */\n      swap1\n      pop\n        /* \"storage.sol\":1958:1962  name */\n      dup5\n        /* \"storage.sol\":1946:1950  poll */\n      dup2\n        /* \"storage.sol\":1946:1955  poll.name */\n      0x00\n      add\n        /* \"storage.sol\":1946:1962  poll.name = name */\n      swap1\n      dup2\n      tag_90\n      swap2\n      swap1\n      tag_91\n      jump\t// in\n    tag_90:\n      pop\n        /* \"storage.sol\":1988:1996  imageUrl */\n      dup4\n        /* \"storage.sol\":1972:1976  poll */\n      dup2\n        /* \"storage.sol\":1972:1985  poll.imageUrl */\n      0x01\n      add\n        /* \"storage.sol\":1972:1996  poll.imageUrl = imageUrl */\n      swap1\n      dup2\n      tag_92\n      swap2\n      swap1\n      tag_91\n      jump\t// in\n    tag_92:\n      pop\n        /* \"storage.sol\":2020:2025  false */\n      0x00\n        /* \"storage.sol\":2006:2010  poll */\n      dup2\n        /* \"storage.sol\":2006:2017  poll.active */\n      0x02\n      add\n      0x00\n        /* \"storage.sol\":2006:2025  poll.active = false */\n      0x0100\n      exp\n      dup2\n      sload\n      dup2\n      0xff\n      mul\n      not\n      and\n      swap1\n      dup4\n      iszero\n      iszero\n      mul\n      or\n      swap1\n      sstore\n      pop\n        /* \"storage.sol\":2052:2061  startTime */\n      dup3\n        /* \"storage.sol\":2035:2039  poll */\n      dup2\n        /* \"storage.sol\":2035:2049  poll.startTime */\n      0x03\n      add\n        /* \"storage.sol\":2035:2061  poll.startTime = startTime */\n      dup2\n      swap1\n      sstore\n      pop\n        /* \"storage.sol\":2086:2093  endTime */\n      dup2\n        /* \"storage.sol\":2071:2075  poll */\n      dup2\n        /* \"storage.sol\":2071:2083  poll.endTime */\n      0x04\n      add\n        /* \"storage.sol\":2071:2093  poll.endTime = endTime */\n      dup2\n      swap1\n      sstore\n      pop\n        /* \"storage.sol\":2109:2167  PollCreated(pollCount, name, imageUrl, startTime, endTime) */\n      0xbdfea2c5fde3fa58c80eb0c5469e2934e50a8d40751384d5001668c4bcea5acb\n        /* \"storage.sol\":2121:2130  pollCount */\n      sload(0x01)\n        /* \"storage.sol\":2132:2136  name */\n      dup7\n        /* \"storage.sol\":2138:2146  imageUrl */\n      dup7\n        /* \"storage.sol\":2148:2157  startTime */\n      dup7\n        /* \"storage.sol\":2159:2166  endTime */\n      dup7\n        /* \"storage.sol\":2109:2167  PollCreated(pollCount, name, imageUrl, startTime, endTime) */\n      mload(0x40)\n      tag_93\n      swap6\n      swap5\n      swap4\n      swap3\n      swap2\n      swap1\n      tag_94\n      jump\t// in\n    tag_93:\n      mload(0x40)\n      dup1\n      swap2\n      sub\n      swap1\n      log1\n        /* \"storage.sol\":1805:2174  {... */\n      pop\n        /* \"storage.sol\":1650:2174  function createPoll(... */\n      pop\n      pop\n      pop\n      pop\n      jump\t// out\n        /* \"storage.sol\":2231:2972  function registerAsCandidate(... */\n    tag_25:\n        /* \"storage.sol\":2377:2383  pollId */\n      dup3\n        /* \"storage.sol\":1486:1487  0 */\n      0x00\n        /* \"storage.sol\":1477:1483  pollId */\n      dup2\n        /* \"storage.sol\":1477:1487  pollId > 0 */\n      gt\n        /* \"storage.sol\":1477:1510  pollId > 0 && pollId <= pollCount */\n      dup1\n      iszero\n      tag_96\n      jumpi\n      pop\n        /* \"storage.sol\":1501:1510  pollCount */\n      sload(0x01)\n        /* \"storage.sol\":1491:1497  pollId */\n      dup2\n        /* \"storage.sol\":1491:1510  pollId <= pollCount */\n      gt\n      iszero\n        /* \"storage.sol\":1477:1510  pollId > 0 && pollId <= pollCount */\n    tag_96:\n        /* \"storage.sol\":1469:1534  require(pollId > 0 && pollId <= pollCount, \"Poll does not exist\") */\n      tag_97\n      jumpi\n      mload(0x40)\n      0x08c379a000000000000000000000000000000000000000000000000000000000\n      dup2\n      mstore\n      0x04\n      add\n      tag_98\n      swap1\n      tag_63\n      jump\t// in\n    tag_98:\n      mload(0x40)\n      dup1\n      swap2\n      sub\n      swap1\n      revert\n    tag_97:\n        /* \"storage.sol\":2466:2467  0 */\n      0x00\n        /* \"storage.sol\":2403:2468  pollCandidates[pollId][msg.sender].candidateAddress == address(0) */\n      0xffffffffffffffffffffffffffffffffffffffff\n      and\n        /* \"storage.sol\":2403:2417  pollCandidates */\n      0x04\n        /* \"storage.sol\":2403:2425  pollCandidates[pollId] */\n      0x00\n        /* \"storage.sol\":2418:2424  pollId */\n      dup7\n        /* \"storage.sol\":2403:2425  pollCandidates[pollId] */\n      dup2\n      mstore\n      0x20\n      add\n      swap1\n      dup2\n      mstore\n      0x20\n      add\n      0x00\n      keccak256\n        /* \"storage.sol\":2403:2437  pollCandidates[pollId][msg.sender] */\n      0x00\n        /* \"storage.sol\":2426:2436  msg.sender */\n      caller\n        /* \"storage.sol\":2403:2437  pollCandidates[pollId][msg.sender] */\n      0xffffffffffffffffffffffffffffffffffffffff\n      and\n      0xffffffffffffffffffffffffffffffffffffffff\n      and\n      dup2\n      mstore\n      0x20\n      add\n      swap1\n      dup2\n      mstore\n      0x20\n      add\n      0x00\n      keccak256\n        /* \"storage.sol\":2403:2454  pollCandidates[pollId][msg.sender].candidateAddress */\n      0x00\n      add\n      0x00\n      swap1\n      sload\n      swap1\n      0x0100\n      exp\n      swap1\n      div\n      0xffffffffffffffffffffffffffffffffffffffff\n      and\n        /* \"storage.sol\":2403:2468  pollCandidates[pollId][msg.sender].candidateAddress == address(0) */\n      0xffffffffffffffffffffffffffffffffffffffff\n      and\n      eq\n        /* \"storage.sol\":2395:2506  require(pollCandidates[pollId][msg.sender].candidateAddress == address(0), \"Already registered as a candidate\") */\n      tag_100\n      jumpi\n      mload(0x40)\n      0x08c379a000000000000000000000000000000000000000000000000000000000\n      dup2\n      mstore\n      0x04\n      add\n      tag_101\n      swap1\n      tag_102\n      jump\t// in\n    tag_101:\n      mload(0x40)\n      dup1\n      swap2\n      sub\n      swap1\n      revert\n    tag_100:\n        /* \"storage.sol\":2525:2568  isCandidateNameTaken(pollId, candidateName) */\n      tag_103\n        /* \"storage.sol\":2546:2552  pollId */\n      dup5\n        /* \"storage.sol\":2554:2567  candidateName */\n      dup5\n        /* \"storage.sol\":2525:2545  isCandidateNameTaken */\n      tag_104\n        /* \"storage.sol\":2525:2568  isCandidateNameTaken(pollId, candidateName) */\n      jump\t// in\n    tag_103:\n        /* \"storage.sol\":2524:2568  !isCandidateNameTaken(pollId, candidateName) */\n      iszero\n        /* \"storage.sol\":2516:2601  require(!isCandidateNameTaken(pollId, candidateName), \"Candidate name already taken\") */\n      tag_105\n      jumpi\n      mload(0x40)\n      0x08c379a000000000000000000000000000000000000000000000000000000000\n      dup2\n      mstore\n      0x04\n      add\n      tag_106\n      swap1\n      tag_107\n      jump\t// in\n    tag_106:\n      mload(0x40)\n      dup1\n      swap2\n      sub\n      swap1\n      revert\n    tag_105:\n        /* \"storage.sol\":2649:2836  Candidate({... */\n      mload(0x40)\n      dup1\n      0xa0\n      add\n      0x40\n      mstore\n      dup1\n        /* \"storage.sol\":2691:2701  msg.sender */\n      caller\n        /* \"storage.sol\":2649:2836  Candidate({... */\n      0xffffffffffffffffffffffffffffffffffffffff\n      and\n      dup2\n      mstore\n      0x20\n      add\n        /* \"storage.sol\":2721:2734  candidateName */\n      dup5\n        /* \"storage.sol\":2649:2836  Candidate({... */\n      dup2\n      mstore\n      0x20\n      add\n        /* \"storage.sol\":2758:2766  imageUrl */\n      dup4\n        /* \"storage.sol\":2649:2836  Candidate({... */\n      dup2\n      mstore\n      0x20\n      add\n        /* \"storage.sol\":2790:2795  false */\n      0x00\n        /* \"storage.sol\":2649:2836  Candidate({... */\n      iszero\n      iszero\n      dup2\n      mstore\n      0x20\n      add\n        /* \"storage.sol\":2824:2825  0 */\n      0x00\n        /* \"storage.sol\":2649:2836  Candidate({... */\n      dup2\n      mstore\n      pop\n        /* \"storage.sol\":2612:2626  pollCandidates */\n      0x04\n        /* \"storage.sol\":2612:2634  pollCandidates[pollId] */\n      0x00\n        /* \"storage.sol\":2627:2633  pollId */\n      dup7\n        /* \"storage.sol\":2612:2634  pollCandidates[pollId] */\n      dup2\n      mstore\n      0x20\n      add\n      swap1\n      dup2\n      mstore\n      0x20\n      add\n      0x00\n      keccak256\n        /* \"storage.sol\":2612:2646  pollCandidates[pollId][msg.sender] */\n      0x00\n        /* \"storage.sol\":2635:2645  msg.sender */\n      caller\n        /* \"storage.sol\":2612:2646  pollCandidates[pollId][msg.sender] */\n      0xffffffffffffffffffffffffffffffffffffffff\n      and\n      0xffffffffffffffffffffffffffffffffffffffff\n      and\n      dup2\n      mstore\n      0x20\n      add\n      swap1\n      dup2\n      mstore\n      0x20\n      add\n      0x00\n      keccak256\n        /* \"storage.sol\":2612:2836  pollCandidates[pollId][msg.sender] = Candidate({... */\n      0x00\n      dup3\n      add\n      mload\n      dup2\n      0x00\n      add\n      exp(0x0100, 0x00)\n      dup2\n      sload\n      dup2\n      0xffffffffffffffffffffffffffffffffffffffff\n      mul\n      not\n      and\n      swap1\n      dup4\n      0xffffffffffffffffffffffffffffffffffffffff\n      and\n      mul\n      or\n      swap1\n      sstore\n      pop\n      0x20\n      dup3\n      add\n      mload\n      dup2\n      0x01\n      add\n      swap1\n      dup2\n      tag_108\n      swap2\n      swap1\n      tag_91\n      jump\t// in\n    tag_108:\n      pop\n      0x40\n      dup3\n      add\n      mload\n      dup2\n      0x02\n      add\n      swap1\n      dup2\n      tag_109\n      swap2\n      swap1\n      tag_91\n      jump\t// in\n    tag_109:\n      pop\n      0x60\n      dup3\n      add\n      mload\n      dup2\n      0x03\n      add\n      exp(0x0100, 0x00)\n      dup2\n      sload\n      dup2\n      0xff\n      mul\n      not\n      and\n      swap1\n      dup4\n      iszero\n      iszero\n      mul\n      or\n      swap1\n      sstore\n      pop\n      0x80\n      dup3\n      add\n      mload\n      dup2\n      0x04\n      add\n      sstore\n      swap1\n      pop\n      pop\n        /* \"storage.sol\":2847:2860  allCandidates */\n      0x05\n        /* \"storage.sol\":2847:2868  allCandidates[pollId] */\n      0x00\n        /* \"storage.sol\":2861:2867  pollId */\n      dup6\n        /* \"storage.sol\":2847:2868  allCandidates[pollId] */\n      dup2\n      mstore\n      0x20\n      add\n      swap1\n      dup2\n      mstore\n      0x20\n      add\n      0x00\n      keccak256\n        /* \"storage.sol\":2874:2884  msg.sender */\n      caller\n        /* \"storage.sol\":2847:2885  allCandidates[pollId].push(msg.sender) */\n      swap1\n      dup1\n      0x01\n      dup2\n      sload\n      add\n      dup1\n      dup3\n      sstore\n      dup1\n      swap2\n      pop\n      pop\n      0x01\n      swap1\n      sub\n      swap1\n      0x00\n      mstore\n      keccak256(0x00, 0x20)\n      add\n      0x00\n      swap1\n      swap2\n      swap1\n      swap2\n      swap1\n      swap2\n      0x0100\n      exp\n      dup2\n      sload\n      dup2\n      0xffffffffffffffffffffffffffffffffffffffff\n      mul\n      not\n      and\n      swap1\n      dup4\n      0xffffffffffffffffffffffffffffffffffffffff\n      and\n      mul\n      or\n      swap1\n      sstore\n      pop\n        /* \"storage.sol\":2901:2965  CandidateRegistered(pollId, msg.sender, candidateName, imageUrl) */\n      0xb9bf1e4934119a96dc7e3cd24118c4c07625b5606309b9c26c82573197abfaa2\n        /* \"storage.sol\":2921:2927  pollId */\n      dup5\n        /* \"storage.sol\":2929:2939  msg.sender */\n      caller\n        /* \"storage.sol\":2941:2954  candidateName */\n      dup6\n        /* \"storage.sol\":2956:2964  imageUrl */\n      dup6\n        /* \"storage.sol\":2901:2965  CandidateRegistered(pollId, msg.sender, candidateName, imageUrl) */\n      mload(0x40)\n      tag_111\n      swap5\n      swap4\n      swap3\n      swap2\n      swap1\n      tag_112\n      jump\t// in\n    tag_111:\n      mload(0x40)\n      dup1\n      swap2\n      sub\n      swap1\n      log1\n        /* \"storage.sol\":2231:2972  function registerAsCandidate(... */\n      pop\n      pop\n      pop\n      pop\n      jump\t// out\n        /* \"storage.sol\":790:861  mapping(uint256 => mapping(address => Candidate)) public pollCandidates */\n    tag_28:\n      mstore(0x20, 0x04)\n      dup2\n      0x00\n      mstore\n      mstore(0x20, keccak256(0x00, 0x40))\n      dup1\n      0x00\n      mstore\n      keccak256(0x00, 0x40)\n      0x00\n      swap2\n      pop\n      swap2\n      pop\n      pop\n      dup1\n      0x00\n      add\n      0x00\n      swap1\n      sload\n      swap1\n      0x0100\n      exp\n      swap1\n      div\n      0xffffffffffffffffffffffffffffffffffffffff\n      and\n      swap1\n      dup1\n      0x01\n      add\n      dup1\n      sload\n      tag_113\n      swap1\n      tag_114\n      jump\t// in\n    tag_113:\n      dup1\n      0x1f\n      add\n      0x20\n      dup1\n      swap2\n      div\n      mul\n      0x20\n      add\n      mload(0x40)\n      swap1\n      dup2\n      add\n      0x40\n      mstore\n      dup1\n      swap3\n      swap2\n      swap1\n      dup2\n      dup2\n      mstore\n      0x20\n      add\n      dup3\n      dup1\n      sload\n      tag_115\n      swap1\n      tag_114\n      jump\t// in\n    tag_115:\n      dup1\n      iszero\n      tag_116\n      jumpi\n      dup1\n      0x1f\n      lt\n      tag_117\n      jumpi\n      0x0100\n      dup1\n      dup4\n      sload\n      div\n      mul\n      dup4\n      mstore\n      swap2\n      0x20\n      add\n      swap2\n      jump(tag_116)\n    tag_117:\n      dup3\n      add\n      swap2\n      swap1\n      0x00\n      mstore\n      keccak256(0x00, 0x20)\n      swap1\n    tag_118:\n      dup2\n      sload\n      dup2\n      mstore\n      swap1\n      0x01\n      add\n      swap1\n      0x20\n      add\n      dup1\n      dup4\n      gt\n      tag_118\n      jumpi\n      dup3\n      swap1\n      sub\n      0x1f\n      and\n      dup3\n      add\n      swap2\n    tag_116:\n      pop\n      pop\n      pop\n      pop\n      pop\n      swap1\n      dup1\n      0x02\n      add\n      dup1\n      sload\n      tag_119\n      swap1\n      tag_114\n      jump\t// in\n    tag_119:\n      dup1\n      0x1f\n      add\n      0x20\n      dup1\n      swap2\n      div\n      mul\n      0x20\n      add\n      mload(0x40)\n      swap1\n      dup2\n      add\n      0x40\n      mstore\n      dup1\n      swap3\n      swap2\n      swap1\n      dup2\n      dup2\n      mstore\n      0x20\n      add\n      dup3\n      dup1\n      sload\n      tag_120\n      swap1\n      tag_114\n      jump\t// in\n    tag_120:\n      dup1\n      iszero\n      tag_121\n      jumpi\n      dup1\n      0x1f\n      lt\n      tag_122\n      jumpi\n      0x0100\n      dup1\n      dup4\n      sload\n      div\n      mul\n      dup4\n      mstore\n      swap2\n      0x20\n      add\n      swap2\n      jump(tag_121)\n    tag_122:\n      dup3\n      add\n      swap2\n      swap1\n      0x00\n      mstore\n      keccak256(0x00, 0x20)\n      swap1\n    tag_123:\n      dup2\n      sload\n      dup2\n      mstore\n      swap1\n      0x01\n      add\n      swap1\n      0x20\n      add\n      dup1\n      dup4\n      gt\n      tag_123\n      jumpi\n      dup3\n      swap1\n      sub\n      0x1f\n      and\n      dup3\n      add\n      swap2\n    tag_121:\n      pop\n      pop\n      pop\n      pop\n      pop\n      swap1\n      dup1\n      0x03\n      add\n      0x00\n      swap1\n      sload\n      swap1\n      0x0100\n      exp\n      swap1\n      div\n      0xff\n      and\n      swap1\n      dup1\n      0x04\n      add\n      sload\n      swap1\n      pop\n      dup6\n      jump\t// out\n        /* \"storage.sol\":732:784  mapping(address => bool) public registeredCandidates */\n    tag_34:\n      mstore(0x20, 0x03)\n      dup1\n      0x00\n      mstore\n      keccak256(0x00, 0x40)\n      0x00\n      swap2\n      pop\n      sload\n      swap1\n      0x0100\n      exp\n      swap1\n      div\n      0xff\n      and\n      dup2\n      jump\t// out\n        /* \"storage.sol\":83:103  address public owner */\n    tag_38:\n      0x00\n      dup1\n      sload\n      swap1\n      0x0100\n      exp\n      swap1\n      div\n      0xffffffffffffffffffffffffffffffffffffffff\n      and\n      dup2\n      jump\t// out\n        /* \"storage.sol\":109:133  uint256 public pollCount */\n    tag_42:\n      sload(0x01)\n      dup2\n      jump\t// out\n        /* \"storage.sol\":867:917  mapping(uint256 => address[]) public allCandidates */\n    tag_48:\n      mstore(0x20, 0x05)\n      dup2\n      0x00\n      mstore\n      keccak256(0x00, 0x40)\n      dup2\n      dup2\n      sload\n      dup2\n      lt\n      tag_124\n      jumpi\n      0x00\n      dup1\n      revert\n    tag_124:\n      swap1\n      0x00\n      mstore\n      keccak256(0x00, 0x20)\n      add\n      0x00\n      swap2\n      pop\n      swap2\n      pop\n      swap1\n      sload\n      swap1\n      0x0100\n      exp\n      swap1\n      div\n      0xffffffffffffffffffffffffffffffffffffffff\n      and\n      dup2\n      jump\t// out\n        /* \"storage.sol\":689:726  mapping(uint256 => Poll) public polls */\n    tag_53:\n      mstore(0x20, 0x02)\n      dup1\n      0x00\n      mstore\n      keccak256(0x00, 0x40)\n      0x00\n      swap2\n      pop\n      swap1\n      pop\n      dup1\n      0x00\n      add\n      dup1\n      sload\n      tag_126\n      swap1\n      tag_114\n      jump\t// in\n    tag_126:\n      dup1\n      0x1f\n      add\n      0x20\n      dup1\n      swap2\n      div\n      mul\n      0x20\n      add\n      mload(0x40)\n      swap1\n      dup2\n      add\n      0x40\n      mstore\n      dup1\n      swap3\n      swap2\n      swap1\n      dup2\n      dup2\n      mstore\n      0x20\n      add\n      dup3\n      dup1\n      sload\n      tag_127\n      swap1\n      tag_114\n      jump\t// in\n    tag_127:\n      dup1\n      iszero\n      tag_128\n      jumpi\n      dup1\n      0x1f\n      lt\n      tag_129\n      jumpi\n      0x0100\n      dup1\n      dup4\n      sload\n      div\n      mul\n      dup4\n      mstore\n      swap2\n      0x20\n      add\n      swap2\n      jump(tag_128)\n    tag_129:\n      dup3\n      add\n      swap2\n      swap1\n      0x00\n      mstore\n      keccak256(0x00, 0x20)\n      swap1\n    tag_130:\n      dup2\n      sload\n      dup2\n      mstore\n      swap1\n      0x01\n      add\n      swap1\n      0x20\n      add\n      dup1\n      dup4\n      gt\n      tag_130\n      jumpi\n      dup3\n      swap1\n      sub\n      0x1f\n      and\n      dup3\n      add\n      swap2\n    tag_128:\n      pop\n      pop\n      pop\n      pop\n      pop\n      swap1\n      dup1\n      0x01\n      add\n      dup1\n      sload\n      tag_131\n      swap1\n      tag_114\n      jump\t// in\n    tag_131:\n      dup1\n      0x1f\n      add\n      0x20\n      dup1\n      swap2\n      div\n      mul\n      0x20\n      add\n      mload(0x40)\n      swap1\n      dup2\n      add\n      0x40\n      mstore\n      dup1\n      swap3\n      swap2\n      swap1\n      dup2\n      dup2\n      mstore\n      0x20\n      add\n      dup3\n      dup1\n      sload\n      tag_132\n      swap1\n      tag_114\n      jump\t// in\n    tag_132:\n      dup1\n      iszero\n      tag_133\n      jumpi\n      dup1\n      0x1f\n      lt\n      tag_134\n      jumpi\n      0x0100\n      dup1\n      dup4\n      sload\n      div\n      mul\n      dup4\n      mstore\n      swap2\n      0x20\n      add\n      swap2\n      jump(tag_133)\n    tag_134:\n      dup3\n      add\n      swap2\n      swap1\n      0x00\n      mstore\n      keccak256(0x00, 0x20)\n      swap1\n    tag_135:\n      dup2\n      sload\n      dup2\n      mstore\n      swap1\n      0x01\n      add\n      swap1\n      0x20\n      add\n      dup1\n      dup4\n      gt\n      tag_135\n      jumpi\n      dup3\n      swap1\n      sub\n      0x1f\n      and\n      dup3\n      add\n      swap2\n    tag_133:\n      pop\n      pop\n      pop\n      pop\n      pop\n      swap1\n      dup1\n      0x02\n      add\n      0x00\n      swap1\n      sload\n      swap1\n      0x0100\n      exp\n      swap1\n      div\n      0xff\n      and\n      swap1\n      dup1\n      0x03\n      add\n      sload\n      swap1\n      dup1\n      0x04\n      add\n      sload\n      swap1\n      dup1\n      0x07\n      add\n      sload\n      swap1\n      dup1\n      0x08\n      add\n      sload\n      swap1\n      dup1\n      0x09\n      add\n      0x00\n      swap1\n      sload\n      swap1\n      0x0100\n      exp\n      swap1\n      div\n      0xffffffffffffffffffffffffffffffffffffffff\n      and\n      swap1\n      pop\n      dup9\n      jump\t// out\n        /* \"storage.sol\":3768:3999  function endPoll(uint256 pollId) public onlyOwner pollExists(pollId) {... */\n    tag_58:\n        /* \"storage.sol\":1351:1356  owner */\n      0x00\n      dup1\n      sload\n      swap1\n      0x0100\n      exp\n      swap1\n      div\n      0xffffffffffffffffffffffffffffffffffffffff\n      and\n        /* \"storage.sol\":1337:1356  msg.sender == owner */\n      0xffffffffffffffffffffffffffffffffffffffff\n      and\n        /* \"storage.sol\":1337:1347  msg.sender */\n      caller\n        /* \"storage.sol\":1337:1356  msg.sender == owner */\n      0xffffffffffffffffffffffffffffffffffffffff\n      and\n      eq\n        /* \"storage.sol\":1329:1399  require(msg.sender == owner, \"Only the owner can perform this action\") */\n      tag_137\n      jumpi\n      mload(0x40)\n      0x08c379a000000000000000000000000000000000000000000000000000000000\n      dup2\n      mstore\n      0x04\n      add\n      tag_138\n      swap1\n      tag_84\n      jump\t// in\n    tag_138:\n      mload(0x40)\n      dup1\n      swap2\n      sub\n      swap1\n      revert\n    tag_137:\n        /* \"storage.sol\":3829:3835  pollId */\n      dup1\n        /* \"storage.sol\":1486:1487  0 */\n      0x00\n        /* \"storage.sol\":1477:1483  pollId */\n      dup2\n        /* \"storage.sol\":1477:1487  pollId > 0 */\n      gt\n        /* \"storage.sol\":1477:1510  pollId > 0 && pollId <= pollCount */\n      dup1\n      iszero\n      tag_140\n      jumpi\n      pop\n        /* \"storage.sol\":1501:1510  pollCount */\n      sload(0x01)\n        /* \"storage.sol\":1491:1497  pollId */\n      dup2\n        /* \"storage.sol\":1491:1510  pollId <= pollCount */\n      gt\n      iszero\n        /* \"storage.sol\":1477:1510  pollId > 0 && pollId <= pollCount */\n    tag_140:\n        /* \"storage.sol\":1469:1534  require(pollId > 0 && pollId <= pollCount, \"Poll does not exist\") */\n      tag_141\n      jumpi\n      mload(0x40)\n      0x08c379a000000000000000000000000000000000000000000000000000000000\n      dup2\n      mstore\n      0x04\n      add\n      tag_142\n      swap1\n      tag_63\n      jump\t// in\n    tag_142:\n      mload(0x40)\n      dup1\n      swap2\n      sub\n      swap1\n      revert\n    tag_141:\n        /* \"storage.sol\":3855:3860  polls */\n      0x02\n        /* \"storage.sol\":3855:3868  polls[pollId] */\n      0x00\n        /* \"storage.sol\":3861:3867  pollId */\n      dup4\n        /* \"storage.sol\":3855:3868  polls[pollId] */\n      dup2\n      mstore\n      0x20\n      add\n      swap1\n      dup2\n      mstore\n      0x20\n      add\n      0x00\n      keccak256\n        /* \"storage.sol\":3855:3875  polls[pollId].active */\n      0x02\n      add\n      0x00\n      swap1\n      sload\n      swap1\n      0x0100\n      exp\n      swap1\n      div\n      0xff\n      and\n        /* \"storage.sol\":3847:3898  require(polls[pollId].active, \"Poll is not active\") */\n      tag_144\n      jumpi\n      mload(0x40)\n      0x08c379a000000000000000000000000000000000000000000000000000000000\n      dup2\n      mstore\n      0x04\n      add\n      tag_145\n      swap1\n      tag_67\n      jump\t// in\n    tag_145:\n      mload(0x40)\n      dup1\n      swap2\n      sub\n      swap1\n      revert\n    tag_144:\n        /* \"storage.sol\":3932:3937  false */\n      0x00\n        /* \"storage.sol\":3909:3914  polls */\n      0x02\n        /* \"storage.sol\":3909:3922  polls[pollId] */\n      0x00\n        /* \"storage.sol\":3915:3921  pollId */\n      dup5\n        /* \"storage.sol\":3909:3922  polls[pollId] */\n      dup2\n      mstore\n      0x20\n      add\n      swap1\n      dup2\n      mstore\n      0x20\n      add\n      0x00\n      keccak256\n        /* \"storage.sol\":3909:3929  polls[pollId].active */\n      0x02\n      add\n      0x00\n        /* \"storage.sol\":3909:3937  polls[pollId].active = false */\n      0x0100\n      exp\n      dup2\n      sload\n      dup2\n      0xff\n      mul\n      not\n      and\n      swap1\n      dup4\n      iszero\n      iszero\n      mul\n      or\n      swap1\n      sstore\n      pop\n        /* \"storage.sol\":3953:3992  PollEnded(pollId, polls[pollId].winner) */\n      0xce994ead15e72a77a86ddf3b0184783c61c9af7e3aae02d7c0bdf3b4268fa188\n        /* \"storage.sol\":3963:3969  pollId */\n      dup3\n        /* \"storage.sol\":3971:3976  polls */\n      0x02\n        /* \"storage.sol\":3971:3984  polls[pollId] */\n      0x00\n        /* \"storage.sol\":3977:3983  pollId */\n      dup6\n        /* \"storage.sol\":3971:3984  polls[pollId] */\n      dup2\n      mstore\n      0x20\n      add\n      swap1\n      dup2\n      mstore\n      0x20\n      add\n      0x00\n      keccak256\n        /* \"storage.sol\":3971:3991  polls[pollId].winner */\n      0x09\n      add\n      0x00\n      swap1\n      sload\n      swap1\n      0x0100\n      exp\n      swap1\n      div\n      0xffffffffffffffffffffffffffffffffffffffff\n      and\n        /* \"storage.sol\":3953:3992  PollEnded(pollId, polls[pollId].winner) */\n      mload(0x40)\n      tag_146\n      swap3\n      swap2\n      swap1\n      tag_147\n      jump\t// in\n    tag_146:\n      mload(0x40)\n      dup1\n      swap2\n      sub\n      swap1\n      log1\n        /* \"storage.sol\":1409:1410  _ */\n      pop\n        /* \"storage.sol\":3768:3999  function endPoll(uint256 pollId) public onlyOwner pollExists(pollId) {... */\n      pop\n      jump\t// out\n        /* \"storage.sol\":4075:4478  function isCandidateNameTaken(uint256 pollId, string memory candidateName) internal view returns (bool) {... */\n    tag_104:\n        /* \"storage.sol\":4173:4177  bool */\n      0x00\n        /* \"storage.sol\":4194:4203  uint256 i */\n      dup1\n        /* \"storage.sol\":4206:4207  0 */\n      0x00\n        /* \"storage.sol\":4194:4207  uint256 i = 0 */\n      swap1\n      pop\n        /* \"storage.sol\":4189:4450  for (uint256 i = 0; i < allCandidates[pollId].length; i++) {... */\n    tag_149:\n        /* \"storage.sol\":4213:4226  allCandidates */\n      0x05\n        /* \"storage.sol\":4213:4234  allCandidates[pollId] */\n      0x00\n        /* \"storage.sol\":4227:4233  pollId */\n      dup6\n        /* \"storage.sol\":4213:4234  allCandidates[pollId] */\n      dup2\n      mstore\n      0x20\n      add\n      swap1\n      dup2\n      mstore\n      0x20\n      add\n      0x00\n      keccak256\n        /* \"storage.sol\":4213:4241  allCandidates[pollId].length */\n      dup1\n      sload\n      swap1\n      pop\n        /* \"storage.sol\":4209:4210  i */\n      dup2\n        /* \"storage.sol\":4209:4241  i < allCandidates[pollId].length */\n      lt\n        /* \"storage.sol\":4189:4450  for (uint256 i = 0; i < allCandidates[pollId].length; i++) {... */\n      iszero\n      tag_150\n      jumpi\n        /* \"storage.sol\":4379:4392  candidateName */\n      dup3\n        /* \"storage.sol\":4362:4393  abi.encodePacked(candidateName) */\n      add(0x20, mload(0x40))\n      tag_152\n      swap2\n      swap1\n      tag_153\n      jump\t// in\n    tag_152:\n      mload(0x40)\n      0x20\n      dup2\n      dup4\n      sub\n      sub\n      dup2\n      mstore\n      swap1\n      0x40\n      mstore\n        /* \"storage.sol\":4352:4394  keccak256(abi.encodePacked(candidateName)) */\n      dup1\n      mload\n      swap1\n      0x20\n      add\n      keccak256\n        /* \"storage.sol\":4293:4307  pollCandidates */\n      0x04\n        /* \"storage.sol\":4293:4315  pollCandidates[pollId] */\n      0x00\n        /* \"storage.sol\":4308:4314  pollId */\n      dup7\n        /* \"storage.sol\":4293:4315  pollCandidates[pollId] */\n      dup2\n      mstore\n      0x20\n      add\n      swap1\n      dup2\n      mstore\n      0x20\n      add\n      0x00\n      keccak256\n        /* \"storage.sol\":4293:4341  pollCandidates[pollId][allCandidates[pollId][i]] */\n      0x00\n        /* \"storage.sol\":4316:4329  allCandidates */\n      0x05\n        /* \"storage.sol\":4316:4337  allCandidates[pollId] */\n      0x00\n        /* \"storage.sol\":4330:4336  pollId */\n      dup9\n        /* \"storage.sol\":4316:4337  allCandidates[pollId] */\n      dup2\n      mstore\n      0x20\n      add\n      swap1\n      dup2\n      mstore\n      0x20\n      add\n      0x00\n      keccak256\n        /* \"storage.sol\":4338:4339  i */\n      dup5\n        /* \"storage.sol\":4316:4340  allCandidates[pollId][i] */\n      dup2\n      sload\n      dup2\n      lt\n      tag_154\n      jumpi\n      tag_155\n      tag_156\n      jump\t// in\n    tag_155:\n    tag_154:\n      swap1\n      0x00\n      mstore\n      keccak256(0x00, 0x20)\n      add\n      0x00\n      swap1\n      sload\n      swap1\n      0x0100\n      exp\n      swap1\n      div\n      0xffffffffffffffffffffffffffffffffffffffff\n      and\n        /* \"storage.sol\":4293:4341  pollCandidates[pollId][allCandidates[pollId][i]] */\n      0xffffffffffffffffffffffffffffffffffffffff\n      and\n      0xffffffffffffffffffffffffffffffffffffffff\n      and\n      dup2\n      mstore\n      0x20\n      add\n      swap1\n      dup2\n      mstore\n      0x20\n      add\n      0x00\n      keccak256\n        /* \"storage.sol\":4293:4346  pollCandidates[pollId][allCandidates[pollId][i]].name */\n      0x01\n      add\n        /* \"storage.sol\":4276:4347  abi.encodePacked(pollCandidates[pollId][allCandidates[pollId][i]].name) */\n      add(0x20, mload(0x40))\n      tag_158\n      swap2\n      swap1\n      tag_159\n      jump\t// in\n    tag_158:\n      mload(0x40)\n      0x20\n      dup2\n      dup4\n      sub\n      sub\n      dup2\n      mstore\n      swap1\n      0x40\n      mstore\n        /* \"storage.sol\":4266:4348  keccak256(abi.encodePacked(pollCandidates[pollId][allCandidates[pollId][i]].name)) */\n      dup1\n      mload\n      swap1\n      0x20\n      add\n      keccak256\n        /* \"storage.sol\":4266:4394  keccak256(abi.encodePacked(pollCandidates[pollId][allCandidates[pollId][i]].name)) == keccak256(abi.encodePacked(candidateName)) */\n      sub\n        /* \"storage.sol\":4262:4440  if (keccak256(abi.encodePacked(pollCandidates[pollId][allCandidates[pollId][i]].name)) == keccak256(abi.encodePacked(candidateName))) {... */\n      tag_160\n      jumpi\n        /* \"storage.sol\":4421:4425  true */\n      0x01\n        /* \"storage.sol\":4414:4425  return true */\n      swap2\n      pop\n      pop\n      jump(tag_148)\n        /* \"storage.sol\":4262:4440  if (keccak256(abi.encodePacked(pollCandidates[pollId][allCandidates[pollId][i]].name)) == keccak256(abi.encodePacked(candidateName))) {... */\n    tag_160:\n        /* \"storage.sol\":4243:4246  i++ */\n      dup1\n      dup1\n      0x01\n      add\n      swap2\n      pop\n      pop\n        /* \"storage.sol\":4189:4450  for (uint256 i = 0; i < allCandidates[pollId].length; i++) {... */\n      jump(tag_149)\n    tag_150:\n      pop\n        /* \"storage.sol\":4466:4471  false */\n      0x00\n        /* \"storage.sol\":4459:4471  return false */\n      swap1\n      pop\n        /* \"storage.sol\":4075:4478  function isCandidateNameTaken(uint256 pollId, string memory candidateName) internal view returns (bool) {... */\n    tag_148:\n      swap3\n      swap2\n      pop\n      pop\n      jump\t// out\n        /* \"#utility.yul\":7:82   */\n    tag_161:\n        /* \"#utility.yul\":40:46   */\n      0x00\n        /* \"#utility.yul\":73:75   */\n      0x40\n        /* \"#utility.yul\":67:76   */\n      mload\n        /* \"#utility.yul\":57:76   */\n      swap1\n      pop\n        /* \"#utility.yul\":7:82   */\n      swap1\n      jump\t// out\n        /* \"#utility.yul\":88:205   */\n    tag_162:\n        /* \"#utility.yul\":197:198   */\n      0x00\n        /* \"#utility.yul\":194:195   */\n      dup1\n        /* \"#utility.yul\":187:199   */\n      revert\n        /* \"#utility.yul\":211:328   */\n    tag_163:\n        /* \"#utility.yul\":320:321   */\n      0x00\n        /* \"#utility.yul\":317:318   */\n      dup1\n        /* \"#utility.yul\":310:322   */\n      revert\n        /* \"#utility.yul\":334:411   */\n    tag_164:\n        /* \"#utility.yul\":371:378   */\n      0x00\n        /* \"#utility.yul\":400:405   */\n      dup2\n        /* \"#utility.yul\":389:405   */\n      swap1\n      pop\n        /* \"#utility.yul\":334:411   */\n      swap2\n      swap1\n      pop\n      jump\t// out\n        /* \"#utility.yul\":417:539   */\n    tag_165:\n        /* \"#utility.yul\":490:514   */\n      tag_231\n        /* \"#utility.yul\":508:513   */\n      dup2\n        /* \"#utility.yul\":490:514   */\n      tag_164\n      jump\t// in\n    tag_231:\n        /* \"#utility.yul\":483:488   */\n      dup2\n        /* \"#utility.yul\":480:515   */\n      eq\n        /* \"#utility.yul\":470:533   */\n      tag_232\n      jumpi\n        /* \"#utility.yul\":529:530   */\n      0x00\n        /* \"#utility.yul\":526:527   */\n      dup1\n        /* \"#utility.yul\":519:531   */\n      revert\n        /* \"#utility.yul\":470:533   */\n    tag_232:\n        /* \"#utility.yul\":417:539   */\n      pop\n      jump\t// out\n        /* \"#utility.yul\":545:684   */\n    tag_166:\n        /* \"#utility.yul\":591:596   */\n      0x00\n        /* \"#utility.yul\":629:635   */\n      dup2\n        /* \"#utility.yul\":616:636   */\n      calldataload\n        /* \"#utility.yul\":607:636   */\n      swap1\n      pop\n        /* \"#utility.yul\":645:678   */\n      tag_234\n        /* \"#utility.yul\":672:677   */\n      dup2\n        /* \"#utility.yul\":645:678   */\n      tag_165\n      jump\t// in\n    tag_234:\n        /* \"#utility.yul\":545:684   */\n      swap3\n      swap2\n      pop\n      pop\n      jump\t// out\n        /* \"#utility.yul\":690:816   */\n    tag_167:\n        /* \"#utility.yul\":727:734   */\n      0x00\n        /* \"#utility.yul\":767:809   */\n      0xffffffffffffffffffffffffffffffffffffffff\n        /* \"#utility.yul\":760:765   */\n      dup3\n        /* \"#utility.yul\":756:810   */\n      and\n        /* \"#utility.yul\":745:810   */\n      swap1\n      pop\n        /* \"#utility.yul\":690:816   */\n      swap2\n      swap1\n      pop\n      jump\t// out\n        /* \"#utility.yul\":822:918   */\n    tag_168:\n        /* \"#utility.yul\":859:866   */\n      0x00\n        /* \"#utility.yul\":888:912   */\n      tag_237\n        /* \"#utility.yul\":906:911   */\n      dup3\n        /* \"#utility.yul\":888:912   */\n      tag_167\n      jump\t// in\n    tag_237:\n        /* \"#utility.yul\":877:912   */\n      swap1\n      pop\n        /* \"#utility.yul\":822:918   */\n      swap2\n      swap1\n      pop\n      jump\t// out\n        /* \"#utility.yul\":924:1046   */\n    tag_169:\n        /* \"#utility.yul\":997:1021   */\n      tag_239\n        /* \"#utility.yul\":1015:1020   */\n      dup2\n        /* \"#utility.yul\":997:1021   */\n      tag_168\n      jump\t// in\n    tag_239:\n        /* \"#utility.yul\":990:995   */\n      dup2\n        /* \"#utility.yul\":987:1022   */\n      eq\n        /* \"#utility.yul\":977:1040   */\n      tag_240\n      jumpi\n        /* \"#utility.yul\":1036:1037   */\n      0x00\n        /* \"#utility.yul\":1033:1034   */\n      dup1\n        /* \"#utility.yul\":1026:1038   */\n      revert\n        /* \"#utility.yul\":977:1040   */\n    tag_240:\n        /* \"#utility.yul\":924:1046   */\n      pop\n      jump\t// out\n        /* \"#utility.yul\":1052:1191   */\n    tag_170:\n        /* \"#utility.yul\":1098:1103   */\n      0x00\n        /* \"#utility.yul\":1136:1142   */\n      dup2\n        /* \"#utility.yul\":1123:1143   */\n      calldataload\n        /* \"#utility.yul\":1114:1143   */\n      swap1\n      pop\n        /* \"#utility.yul\":1152:1185   */\n      tag_242\n        /* \"#utility.yul\":1179:1184   */\n      dup2\n        /* \"#utility.yul\":1152:1185   */\n      tag_169\n      jump\t// in\n    tag_242:\n        /* \"#utility.yul\":1052:1191   */\n      swap3\n      swap2\n      pop\n      pop\n      jump\t// out\n        /* \"#utility.yul\":1197:1671   */\n    tag_16:\n        /* \"#utility.yul\":1265:1271   */\n      0x00\n        /* \"#utility.yul\":1273:1279   */\n      dup1\n        /* \"#utility.yul\":1322:1324   */\n      0x40\n        /* \"#utility.yul\":1310:1319   */\n      dup4\n        /* \"#utility.yul\":1301:1308   */\n      dup6\n        /* \"#utility.yul\":1297:1320   */\n      sub\n        /* \"#utility.yul\":1293:1325   */\n      slt\n        /* \"#utility.yul\":1290:1409   */\n      iszero\n      tag_244\n      jumpi\n        /* \"#utility.yul\":1328:1407   */\n      tag_245\n      tag_162\n      jump\t// in\n    tag_245:\n        /* \"#utility.yul\":1290:1409   */\n    tag_244:\n        /* \"#utility.yul\":1448:1449   */\n      0x00\n        /* \"#utility.yul\":1473:1526   */\n      tag_246\n        /* \"#utility.yul\":1518:1525   */\n      dup6\n        /* \"#utility.yul\":1509:1515   */\n      dup3\n        /* \"#utility.yul\":1498:1507   */\n      dup7\n        /* \"#utility.yul\":1494:1516   */\n      add\n        /* \"#utility.yul\":1473:1526   */\n      tag_166\n      jump\t// in\n    tag_246:\n        /* \"#utility.yul\":1463:1526   */\n      swap3\n      pop\n        /* \"#utility.yul\":1419:1536   */\n      pop\n        /* \"#utility.yul\":1575:1577   */\n      0x20\n        /* \"#utility.yul\":1601:1654   */\n      tag_247\n        /* \"#utility.yul\":1646:1653   */\n      dup6\n        /* \"#utility.yul\":1637:1643   */\n      dup3\n        /* \"#utility.yul\":1626:1635   */\n      dup7\n        /* \"#utility.yul\":1622:1644   */\n      add\n        /* \"#utility.yul\":1601:1654   */\n      tag_170\n      jump\t// in\n    tag_247:\n        /* \"#utility.yul\":1591:1654   */\n      swap2\n      pop\n        /* \"#utility.yul\":1546:1664   */\n      pop\n        /* \"#utility.yul\":1197:1671   */\n      swap3\n      pop\n      swap3\n      swap1\n      pop\n      jump\t// out\n        /* \"#utility.yul\":1677:1794   */\n    tag_171:\n        /* \"#utility.yul\":1786:1787   */\n      0x00\n        /* \"#utility.yul\":1783:1784   */\n      dup1\n        /* \"#utility.yul\":1776:1788   */\n      revert\n        /* \"#utility.yul\":1800:1917   */\n    tag_172:\n        /* \"#utility.yul\":1909:1910   */\n      0x00\n        /* \"#utility.yul\":1906:1907   */\n      dup1\n        /* \"#utility.yul\":1899:1911   */\n      revert\n        /* \"#utility.yul\":1923:2025   */\n    tag_173:\n        /* \"#utility.yul\":1964:1970   */\n      0x00\n        /* \"#utility.yul\":2015:2017   */\n      0x1f\n        /* \"#utility.yul\":2011:2018   */\n      not\n        /* \"#utility.yul\":2006:2008   */\n      0x1f\n        /* \"#utility.yul\":1999:2004   */\n      dup4\n        /* \"#utility.yul\":1995:2009   */\n      add\n        /* \"#utility.yul\":1991:2019   */\n      and\n        /* \"#utility.yul\":1981:2019   */\n      swap1\n      pop\n        /* \"#utility.yul\":1923:2025   */\n      swap2\n      swap1\n      pop\n      jump\t// out\n        /* \"#utility.yul\":2031:2211   */\n    tag_174:\n        /* \"#utility.yul\":2079:2156   */\n      0x4e487b7100000000000000000000000000000000000000000000000000000000\n        /* \"#utility.yul\":2076:2077   */\n      0x00\n        /* \"#utility.yul\":2069:2157   */\n      mstore\n        /* \"#utility.yul\":2176:2180   */\n      0x41\n        /* \"#utility.yul\":2173:2174   */\n      0x04\n        /* \"#utility.yul\":2166:2181   */\n      mstore\n        /* \"#utility.yul\":2200:2204   */\n      0x24\n        /* \"#utility.yul\":2197:2198   */\n      0x00\n        /* \"#utility.yul\":2190:2205   */\n      revert\n        /* \"#utility.yul\":2217:2498   */\n    tag_175:\n        /* \"#utility.yul\":2300:2327   */\n      tag_253\n        /* \"#utility.yul\":2322:2326   */\n      dup3\n        /* \"#utility.yul\":2300:2327   */\n      tag_173\n      jump\t// in\n    tag_253:\n        /* \"#utility.yul\":2292:2298   */\n      dup2\n        /* \"#utility.yul\":2288:2328   */\n      add\n        /* \"#utility.yul\":2430:2436   */\n      dup2\n        /* \"#utility.yul\":2418:2428   */\n      dup2\n        /* \"#utility.yul\":2415:2437   */\n      lt\n        /* \"#utility.yul\":2394:2412   */\n      0xffffffffffffffff\n        /* \"#utility.yul\":2382:2392   */\n      dup3\n        /* \"#utility.yul\":2379:2413   */\n      gt\n        /* \"#utility.yul\":2376:2438   */\n      or\n        /* \"#utility.yul\":2373:2461   */\n      iszero\n      tag_254\n      jumpi\n        /* \"#utility.yul\":2441:2459   */\n      tag_255\n      tag_174\n      jump\t// in\n    tag_255:\n        /* \"#utility.yul\":2373:2461   */\n    tag_254:\n        /* \"#utility.yul\":2481:2491   */\n      dup1\n        /* \"#utility.yul\":2477:2479   */\n      0x40\n        /* \"#utility.yul\":2470:2492   */\n      mstore\n        /* \"#utility.yul\":2260:2498   */\n      pop\n        /* \"#utility.yul\":2217:2498   */\n      pop\n      pop\n      jump\t// out\n        /* \"#utility.yul\":2504:2633   */\n    tag_176:\n        /* \"#utility.yul\":2538:2544   */\n      0x00\n        /* \"#utility.yul\":2565:2585   */\n      tag_257\n      tag_161\n      jump\t// in\n    tag_257:\n        /* \"#utility.yul\":2555:2585   */\n      swap1\n      pop\n        /* \"#utility.yul\":2594:2627   */\n      tag_258\n        /* \"#utility.yul\":2622:2626   */\n      dup3\n        /* \"#utility.yul\":2614:2620   */\n      dup3\n        /* \"#utility.yul\":2594:2627   */\n      tag_175\n      jump\t// in\n    tag_258:\n        /* \"#utility.yul\":2504:2633   */\n      swap2\n      swap1\n      pop\n      jump\t// out\n        /* \"#utility.yul\":2639:2947   */\n    tag_177:\n        /* \"#utility.yul\":2701:2705   */\n      0x00\n        /* \"#utility.yul\":2791:2809   */\n      0xffffffffffffffff\n        /* \"#utility.yul\":2783:2789   */\n      dup3\n        /* \"#utility.yul\":2780:2810   */\n      gt\n        /* \"#utility.yul\":2777:2833   */\n      iszero\n      tag_260\n      jumpi\n        /* \"#utility.yul\":2813:2831   */\n      tag_261\n      tag_174\n      jump\t// in\n    tag_261:\n        /* \"#utility.yul\":2777:2833   */\n    tag_260:\n        /* \"#utility.yul\":2851:2880   */\n      tag_262\n        /* \"#utility.yul\":2873:2879   */\n      dup3\n        /* \"#utility.yul\":2851:2880   */\n      tag_173\n      jump\t// in\n    tag_262:\n        /* \"#utility.yul\":2843:2880   */\n      swap1\n      pop\n        /* \"#utility.yul\":2935:2939   */\n      0x20\n        /* \"#utility.yul\":2929:2933   */\n      dup2\n        /* \"#utility.yul\":2925:2940   */\n      add\n        /* \"#utility.yul\":2917:2940   */\n      swap1\n      pop\n        /* \"#utility.yul\":2639:2947   */\n      swap2\n      swap1\n      pop\n      jump\t// out\n        /* \"#utility.yul\":2953:3101   */\n    tag_178:\n        /* \"#utility.yul\":3051:3057   */\n      dup3\n        /* \"#utility.yul\":3046:3049   */\n      dup2\n        /* \"#utility.yul\":3041:3044   */\n      dup4\n        /* \"#utility.yul\":3028:3058   */\n      calldatacopy\n        /* \"#utility.yul\":3092:3093   */\n      0x00\n        /* \"#utility.yul\":3083:3089   */\n      dup4\n        /* \"#utility.yul\":3078:3081   */\n      dup4\n        /* \"#utility.yul\":3074:3090   */\n      add\n        /* \"#utility.yul\":3067:3094   */\n      mstore\n        /* \"#utility.yul\":2953:3101   */\n      pop\n      pop\n      pop\n      jump\t// out\n        /* \"#utility.yul\":3107:3532   */\n    tag_179:\n        /* \"#utility.yul\":3185:3190   */\n      0x00\n        /* \"#utility.yul\":3210:3276   */\n      tag_265\n        /* \"#utility.yul\":3226:3275   */\n      tag_266\n        /* \"#utility.yul\":3268:3274   */\n      dup5\n        /* \"#utility.yul\":3226:3275   */\n      tag_177\n      jump\t// in\n    tag_266:\n        /* \"#utility.yul\":3210:3276   */\n      tag_176\n      jump\t// in\n    tag_265:\n        /* \"#utility.yul\":3201:3276   */\n      swap1\n      pop\n        /* \"#utility.yul\":3299:3305   */\n      dup3\n        /* \"#utility.yul\":3292:3297   */\n      dup2\n        /* \"#utility.yul\":3285:3306   */\n      mstore\n        /* \"#utility.yul\":3337:3341   */\n      0x20\n        /* \"#utility.yul\":3330:3335   */\n      dup2\n        /* \"#utility.yul\":3326:3342   */\n      add\n        /* \"#utility.yul\":3375:3378   */\n      dup5\n        /* \"#utility.yul\":3366:3372   */\n      dup5\n        /* \"#utility.yul\":3361:3364   */\n      dup5\n        /* \"#utility.yul\":3357:3373   */\n      add\n        /* \"#utility.yul\":3354:3379   */\n      gt\n        /* \"#utility.yul\":3351:3463   */\n      iszero\n      tag_267\n      jumpi\n        /* \"#utility.yul\":3382:3461   */\n      tag_268\n      tag_172\n      jump\t// in\n    tag_268:\n        /* \"#utility.yul\":3351:3463   */\n    tag_267:\n        /* \"#utility.yul\":3472:3526   */\n      tag_269\n        /* \"#utility.yul\":3519:3525   */\n      dup5\n        /* \"#utility.yul\":3514:3517   */\n      dup3\n        /* \"#utility.yul\":3509:3512   */\n      dup6\n        /* \"#utility.yul\":3472:3526   */\n      tag_178\n      jump\t// in\n    tag_269:\n        /* \"#utility.yul\":3191:3532   */\n      pop\n        /* \"#utility.yul\":3107:3532   */\n      swap4\n      swap3\n      pop\n      pop\n      pop\n      jump\t// out\n        /* \"#utility.yul\":3552:3892   */\n    tag_180:\n        /* \"#utility.yul\":3608:3613   */\n      0x00\n        /* \"#utility.yul\":3657:3660   */\n      dup3\n        /* \"#utility.yul\":3650:3654   */\n      0x1f\n        /* \"#utility.yul\":3642:3648   */\n      dup4\n        /* \"#utility.yul\":3638:3655   */\n      add\n        /* \"#utility.yul\":3634:3661   */\n      slt\n        /* \"#utility.yul\":3624:3746   */\n      tag_271\n      jumpi\n        /* \"#utility.yul\":3665:3744   */\n      tag_272\n      tag_171\n      jump\t// in\n    tag_272:\n        /* \"#utility.yul\":3624:3746   */\n    tag_271:\n        /* \"#utility.yul\":3782:3788   */\n      dup2\n        /* \"#utility.yul\":3769:3789   */\n      calldataload\n        /* \"#utility.yul\":3807:3886   */\n      tag_273\n        /* \"#utility.yul\":3882:3885   */\n      dup5\n        /* \"#utility.yul\":3874:3880   */\n      dup3\n        /* \"#utility.yul\":3867:3871   */\n      0x20\n        /* \"#utility.yul\":3859:3865   */\n      dup7\n        /* \"#utility.yul\":3855:3872   */\n      add\n        /* \"#utility.yul\":3807:3886   */\n      tag_179\n      jump\t// in\n    tag_273:\n        /* \"#utility.yul\":3798:3886   */\n      swap2\n      pop\n        /* \"#utility.yul\":3614:3892   */\n      pop\n        /* \"#utility.yul\":3552:3892   */\n      swap3\n      swap2\n      pop\n      pop\n      jump\t// out\n        /* \"#utility.yul\":3898:5023   */\n    tag_20:\n        /* \"#utility.yul\":4004:4010   */\n      0x00\n        /* \"#utility.yul\":4012:4018   */\n      dup1\n        /* \"#utility.yul\":4020:4026   */\n      0x00\n        /* \"#utility.yul\":4028:4034   */\n      dup1\n        /* \"#utility.yul\":4077:4080   */\n      0x80\n        /* \"#utility.yul\":4065:4074   */\n      dup6\n        /* \"#utility.yul\":4056:4063   */\n      dup8\n        /* \"#utility.yul\":4052:4075   */\n      sub\n        /* \"#utility.yul\":4048:4081   */\n      slt\n        /* \"#utility.yul\":4045:4165   */\n      iszero\n      tag_275\n      jumpi\n        /* \"#utility.yul\":4084:4163   */\n      tag_276\n      tag_162\n      jump\t// in\n    tag_276:\n        /* \"#utility.yul\":4045:4165   */\n    tag_275:\n        /* \"#utility.yul\":4232:4233   */\n      0x00\n        /* \"#utility.yul\":4221:4230   */\n      dup6\n        /* \"#utility.yul\":4217:4234   */\n      add\n        /* \"#utility.yul\":4204:4235   */\n      calldataload\n        /* \"#utility.yul\":4262:4280   */\n      0xffffffffffffffff\n        /* \"#utility.yul\":4254:4260   */\n      dup2\n        /* \"#utility.yul\":4251:4281   */\n      gt\n        /* \"#utility.yul\":4248:4365   */\n      iszero\n      tag_277\n      jumpi\n        /* \"#utility.yul\":4284:4363   */\n      tag_278\n      tag_163\n      jump\t// in\n    tag_278:\n        /* \"#utility.yul\":4248:4365   */\n    tag_277:\n        /* \"#utility.yul\":4389:4452   */\n      tag_279\n        /* \"#utility.yul\":4444:4451   */\n      dup8\n        /* \"#utility.yul\":4435:4441   */\n      dup3\n        /* \"#utility.yul\":4424:4433   */\n      dup9\n        /* \"#utility.yul\":4420:4442   */\n      add\n        /* \"#utility.yul\":4389:4452   */\n      tag_180\n      jump\t// in\n    tag_279:\n        /* \"#utility.yul\":4379:4452   */\n      swap5\n      pop\n        /* \"#utility.yul\":4175:4462   */\n      pop\n        /* \"#utility.yul\":4529:4531   */\n      0x20\n        /* \"#utility.yul\":4518:4527   */\n      dup6\n        /* \"#utility.yul\":4514:4532   */\n      add\n        /* \"#utility.yul\":4501:4533   */\n      calldataload\n        /* \"#utility.yul\":4560:4578   */\n      0xffffffffffffffff\n        /* \"#utility.yul\":4552:4558   */\n      dup2\n        /* \"#utility.yul\":4549:4579   */\n      gt\n        /* \"#utility.yul\":4546:4663   */\n      iszero\n      tag_280\n      jumpi\n        /* \"#utility.yul\":4582:4661   */\n      tag_281\n      tag_163\n      jump\t// in\n    tag_281:\n        /* \"#utility.yul\":4546:4663   */\n    tag_280:\n        /* \"#utility.yul\":4687:4750   */\n      tag_282\n        /* \"#utility.yul\":4742:4749   */\n      dup8\n        /* \"#utility.yul\":4733:4739   */\n      dup3\n        /* \"#utility.yul\":4722:4731   */\n      dup9\n        /* \"#utility.yul\":4718:4740   */\n      add\n        /* \"#utility.yul\":4687:4750   */\n      tag_180\n      jump\t// in\n    tag_282:\n        /* \"#utility.yul\":4677:4750   */\n      swap4\n      pop\n        /* \"#utility.yul\":4472:4760   */\n      pop\n        /* \"#utility.yul\":4799:4801   */\n      0x40\n        /* \"#utility.yul\":4825:4878   */\n      tag_283\n        /* \"#utility.yul\":4870:4877   */\n      dup8\n        /* \"#utility.yul\":4861:4867   */\n      dup3\n        /* \"#utility.yul\":4850:4859   */\n      dup9\n        /* \"#utility.yul\":4846:4868   */\n      add\n        /* \"#utility.yul\":4825:4878   */\n      tag_166\n      jump\t// in\n    tag_283:\n        /* \"#utility.yul\":4815:4878   */\n      swap3\n      pop\n        /* \"#utility.yul\":4770:4888   */\n      pop\n        /* \"#utility.yul\":4927:4929   */\n      0x60\n        /* \"#utility.yul\":4953:5006   */\n      tag_284\n        /* \"#utility.yul\":4998:5005   */\n      dup8\n        /* \"#utility.yul\":4989:4995   */\n      dup3\n        /* \"#utility.yul\":4978:4987   */\n      dup9\n        /* \"#utility.yul\":4974:4996   */\n      add\n        /* \"#utility.yul\":4953:5006   */\n      tag_166\n      jump\t// in\n    tag_284:\n        /* \"#utility.yul\":4943:5006   */\n      swap2\n      pop\n        /* \"#utility.yul\":4898:5016   */\n      pop\n        /* \"#utility.yul\":3898:5023   */\n      swap3\n      swap6\n      swap2\n      swap5\n      pop\n      swap3\n      pop\n      jump\t// out\n        /* \"#utility.yul\":5029:6008   */\n    tag_24:\n        /* \"#utility.yul\":5126:5132   */\n      0x00\n        /* \"#utility.yul\":5134:5140   */\n      dup1\n        /* \"#utility.yul\":5142:5148   */\n      0x00\n        /* \"#utility.yul\":5191:5193   */\n      0x60\n        /* \"#utility.yul\":5179:5188   */\n      dup5\n        /* \"#utility.yul\":5170:5177   */\n      dup7\n        /* \"#utility.yul\":5166:5189   */\n      sub\n        /* \"#utility.yul\":5162:5194   */\n      slt\n        /* \"#utility.yul\":5159:5278   */\n      iszero\n      tag_286\n      jumpi\n        /* \"#utility.yul\":5197:5276   */\n      tag_287\n      tag_162\n      jump\t// in\n    tag_287:\n        /* \"#utility.yul\":5159:5278   */\n    tag_286:\n        /* \"#utility.yul\":5317:5318   */\n      0x00\n        /* \"#utility.yul\":5342:5395   */\n      tag_288\n        /* \"#utility.yul\":5387:5394   */\n      dup7\n        /* \"#utility.yul\":5378:5384   */\n      dup3\n        /* \"#utility.yul\":5367:5376   */\n      dup8\n        /* \"#utility.yul\":5363:5385   */\n      add\n        /* \"#utility.yul\":5342:5395   */\n      tag_166\n      jump\t// in\n    tag_288:\n        /* \"#utility.yul\":5332:5395   */\n      swap4\n      pop\n        /* \"#utility.yul\":5288:5405   */\n      pop\n        /* \"#utility.yul\":5472:5474   */\n      0x20\n        /* \"#utility.yul\":5461:5470   */\n      dup5\n        /* \"#utility.yul\":5457:5475   */\n      add\n        /* \"#utility.yul\":5444:5476   */\n      calldataload\n        /* \"#utility.yul\":5503:5521   */\n      0xffffffffffffffff\n        /* \"#utility.yul\":5495:5501   */\n      dup2\n        /* \"#utility.yul\":5492:5522   */\n      gt\n        /* \"#utility.yul\":5489:5606   */\n      iszero\n      tag_289\n      jumpi\n        /* \"#utility.yul\":5525:5604   */\n      tag_290\n      tag_163\n      jump\t// in\n    tag_290:\n        /* \"#utility.yul\":5489:5606   */\n    tag_289:\n        /* \"#utility.yul\":5630:5693   */\n      tag_291\n        /* \"#utility.yul\":5685:5692   */\n      dup7\n        /* \"#utility.yul\":5676:5682   */\n      dup3\n        /* \"#utility.yul\":5665:5674   */\n      dup8\n        /* \"#utility.yul\":5661:5683   */\n      add\n        /* \"#utility.yul\":5630:5693   */\n      tag_180\n      jump\t// in\n    tag_291:\n        /* \"#utility.yul\":5620:5693   */\n      swap3\n      pop\n        /* \"#utility.yul\":5415:5703   */\n      pop\n        /* \"#utility.yul\":5770:5772   */\n      0x40\n        /* \"#utility.yul\":5759:5768   */\n      dup5\n        /* \"#utility.yul\":5755:5773   */\n      add\n        /* \"#utility.yul\":5742:5774   */\n      calldataload\n        /* \"#utility.yul\":5801:5819   */\n      0xffffffffffffffff\n        /* \"#utility.yul\":5793:5799   */\n      dup2\n        /* \"#utility.yul\":5790:5820   */\n      gt\n        /* \"#utility.yul\":5787:5904   */\n      iszero\n      tag_292\n      jumpi\n        /* \"#utility.yul\":5823:5902   */\n      tag_293\n      tag_163\n      jump\t// in\n    tag_293:\n        /* \"#utility.yul\":5787:5904   */\n    tag_292:\n        /* \"#utility.yul\":5928:5991   */\n      tag_294\n        /* \"#utility.yul\":5983:5990   */\n      dup7\n        /* \"#utility.yul\":5974:5980   */\n      dup3\n        /* \"#utility.yul\":5963:5972   */\n      dup8\n        /* \"#utility.yul\":5959:5981   */\n      add\n        /* \"#utility.yul\":5928:5991   */\n      tag_180\n      jump\t// in\n    tag_294:\n        /* \"#utility.yul\":5918:5991   */\n      swap2\n      pop\n        /* \"#utility.yul\":5713:6001   */\n      pop\n        /* \"#utility.yul\":5029:6008   */\n      swap3\n      pop\n      swap3\n      pop\n      swap3\n      jump\t// out\n        /* \"#utility.yul\":6014:6132   */\n    tag_181:\n        /* \"#utility.yul\":6101:6125   */\n      tag_296\n        /* \"#utility.yul\":6119:6124   */\n      dup2\n        /* \"#utility.yul\":6101:6125   */\n      tag_168\n      jump\t// in\n    tag_296:\n        /* \"#utility.yul\":6096:6099   */\n      dup3\n        /* \"#utility.yul\":6089:6126   */\n      mstore\n        /* \"#utility.yul\":6014:6132   */\n      pop\n      pop\n      jump\t// out\n        /* \"#utility.yul\":6138:6237   */\n    tag_182:\n        /* \"#utility.yul\":6190:6196   */\n      0x00\n        /* \"#utility.yul\":6224:6229   */\n      dup2\n        /* \"#utility.yul\":6218:6230   */\n      mload\n        /* \"#utility.yul\":6208:6230   */\n      swap1\n      pop\n        /* \"#utility.yul\":6138:6237   */\n      swap2\n      swap1\n      pop\n      jump\t// out\n        /* \"#utility.yul\":6243:6412   */\n    tag_183:\n        /* \"#utility.yul\":6327:6338   */\n      0x00\n        /* \"#utility.yul\":6361:6367   */\n      dup3\n        /* \"#utility.yul\":6356:6359   */\n      dup3\n        /* \"#utility.yul\":6349:6368   */\n      mstore\n        /* \"#utility.yul\":6401:6405   */\n      0x20\n        /* \"#utility.yul\":6396:6399   */\n      dup3\n        /* \"#utility.yul\":6392:6406   */\n      add\n        /* \"#utility.yul\":6377:6406   */\n      swap1\n      pop\n        /* \"#utility.yul\":6243:6412   */\n      swap3\n      swap2\n      pop\n      pop\n      jump\t// out\n        /* \"#utility.yul\":6418:6557   */\n    tag_184:\n        /* \"#utility.yul\":6507:6513   */\n      dup3\n        /* \"#utility.yul\":6502:6505   */\n      dup2\n        /* \"#utility.yul\":6497:6500   */\n      dup4\n        /* \"#utility.yul\":6491:6514   */\n      mcopy\n        /* \"#utility.yul\":6548:6549   */\n      0x00\n        /* \"#utility.yul\":6539:6545   */\n      dup4\n        /* \"#utility.yul\":6534:6537   */\n      dup4\n        /* \"#utility.yul\":6530:6546   */\n      add\n        /* \"#utility.yul\":6523:6550   */\n      mstore\n        /* \"#utility.yul\":6418:6557   */\n      pop\n      pop\n      pop\n      jump\t// out\n        /* \"#utility.yul\":6563:6940   */\n    tag_185:\n        /* \"#utility.yul\":6651:6654   */\n      0x00\n        /* \"#utility.yul\":6679:6718   */\n      tag_301\n        /* \"#utility.yul\":6712:6717   */\n      dup3\n        /* \"#utility.yul\":6679:6718   */\n      tag_182\n      jump\t// in\n    tag_301:\n        /* \"#utility.yul\":6734:6805   */\n      tag_302\n        /* \"#utility.yul\":6798:6804   */\n      dup2\n        /* \"#utility.yul\":6793:6796   */\n      dup6\n        /* \"#utility.yul\":6734:6805   */\n      tag_183\n      jump\t// in\n    tag_302:\n        /* \"#utility.yul\":6727:6805   */\n      swap4\n      pop\n        /* \"#utility.yul\":6814:6879   */\n      tag_303\n        /* \"#utility.yul\":6872:6878   */\n      dup2\n        /* \"#utility.yul\":6867:6870   */\n      dup6\n        /* \"#utility.yul\":6860:6864   */\n      0x20\n        /* \"#utility.yul\":6853:6858   */\n      dup7\n        /* \"#utility.yul\":6849:6865   */\n      add\n        /* \"#utility.yul\":6814:6879   */\n      tag_184\n      jump\t// in\n    tag_303:\n        /* \"#utility.yul\":6904:6933   */\n      tag_304\n        /* \"#utility.yul\":6926:6932   */\n      dup2\n        /* \"#utility.yul\":6904:6933   */\n      tag_173\n      jump\t// in\n    tag_304:\n        /* \"#utility.yul\":6899:6902   */\n      dup5\n        /* \"#utility.yul\":6895:6934   */\n      add\n        /* \"#utility.yul\":6888:6934   */\n      swap2\n      pop\n        /* \"#utility.yul\":6655:6940   */\n      pop\n        /* \"#utility.yul\":6563:6940   */\n      swap3\n      swap2\n      pop\n      pop\n      jump\t// out\n        /* \"#utility.yul\":6946:7036   */\n    tag_186:\n        /* \"#utility.yul\":6980:6987   */\n      0x00\n        /* \"#utility.yul\":7023:7028   */\n      dup2\n        /* \"#utility.yul\":7016:7029   */\n      iszero\n        /* \"#utility.yul\":7009:7030   */\n      iszero\n        /* \"#utility.yul\":6998:7030   */\n      swap1\n      pop\n        /* \"#utility.yul\":6946:7036   */\n      swap2\n      swap1\n      pop\n      jump\t// out\n        /* \"#utility.yul\":7042:7151   */\n    tag_187:\n        /* \"#utility.yul\":7123:7144   */\n      tag_307\n        /* \"#utility.yul\":7138:7143   */\n      dup2\n        /* \"#utility.yul\":7123:7144   */\n      tag_186\n      jump\t// in\n    tag_307:\n        /* \"#utility.yul\":7118:7121   */\n      dup3\n        /* \"#utility.yul\":7111:7145   */\n      mstore\n        /* \"#utility.yul\":7042:7151   */\n      pop\n      pop\n      jump\t// out\n        /* \"#utility.yul\":7157:7275   */\n    tag_188:\n        /* \"#utility.yul\":7244:7268   */\n      tag_309\n        /* \"#utility.yul\":7262:7267   */\n      dup2\n        /* \"#utility.yul\":7244:7268   */\n      tag_164\n      jump\t// in\n    tag_309:\n        /* \"#utility.yul\":7239:7242   */\n      dup3\n        /* \"#utility.yul\":7232:7269   */\n      mstore\n        /* \"#utility.yul\":7157:7275   */\n      pop\n      pop\n      jump\t// out\n        /* \"#utility.yul\":7281:8115   */\n    tag_30:\n        /* \"#utility.yul\":7520:7524   */\n      0x00\n        /* \"#utility.yul\":7558:7561   */\n      0xa0\n        /* \"#utility.yul\":7547:7556   */\n      dup3\n        /* \"#utility.yul\":7543:7562   */\n      add\n        /* \"#utility.yul\":7535:7562   */\n      swap1\n      pop\n        /* \"#utility.yul\":7572:7643   */\n      tag_311\n        /* \"#utility.yul\":7640:7641   */\n      0x00\n        /* \"#utility.yul\":7629:7638   */\n      dup4\n        /* \"#utility.yul\":7625:7642   */\n      add\n        /* \"#utility.yul\":7616:7622   */\n      dup9\n        /* \"#utility.yul\":7572:7643   */\n      tag_181\n      jump\t// in\n    tag_311:\n        /* \"#utility.yul\":7690:7699   */\n      dup2\n        /* \"#utility.yul\":7684:7688   */\n      dup2\n        /* \"#utility.yul\":7680:7700   */\n      sub\n        /* \"#utility.yul\":7675:7677   */\n      0x20\n        /* \"#utility.yul\":7664:7673   */\n      dup4\n        /* \"#utility.yul\":7660:7678   */\n      add\n        /* \"#utility.yul\":7653:7701   */\n      mstore\n        /* \"#utility.yul\":7718:7796   */\n      tag_312\n        /* \"#utility.yul\":7791:7795   */\n      dup2\n        /* \"#utility.yul\":7782:7788   */\n      dup8\n        /* \"#utility.yul\":7718:7796   */\n      tag_185\n      jump\t// in\n    tag_312:\n        /* \"#utility.yul\":7710:7796   */\n      swap1\n      pop\n        /* \"#utility.yul\":7843:7852   */\n      dup2\n        /* \"#utility.yul\":7837:7841   */\n      dup2\n        /* \"#utility.yul\":7833:7853   */\n      sub\n        /* \"#utility.yul\":7828:7830   */\n      0x40\n        /* \"#utility.yul\":7817:7826   */\n      dup4\n        /* \"#utility.yul\":7813:7831   */\n      add\n        /* \"#utility.yul\":7806:7854   */\n      mstore\n        /* \"#utility.yul\":7871:7949   */\n      tag_313\n        /* \"#utility.yul\":7944:7948   */\n      dup2\n        /* \"#utility.yul\":7935:7941   */\n      dup7\n        /* \"#utility.yul\":7871:7949   */\n      tag_185\n      jump\t// in\n    tag_313:\n        /* \"#utility.yul\":7863:7949   */\n      swap1\n      pop\n        /* \"#utility.yul\":7959:8025   */\n      tag_314\n        /* \"#utility.yul\":8021:8023   */\n      0x60\n        /* \"#utility.yul\":8010:8019   */\n      dup4\n        /* \"#utility.yul\":8006:8024   */\n      add\n        /* \"#utility.yul\":7997:8003   */\n      dup6\n        /* \"#utility.yul\":7959:8025   */\n      tag_187\n      jump\t// in\n    tag_314:\n        /* \"#utility.yul\":8035:8108   */\n      tag_315\n        /* \"#utility.yul\":8103:8106   */\n      0x80\n        /* \"#utility.yul\":8092:8101   */\n      dup4\n        /* \"#utility.yul\":8088:8107   */\n      add\n        /* \"#utility.yul\":8079:8085   */\n      dup5\n        /* \"#utility.yul\":8035:8108   */\n      tag_188\n      jump\t// in\n    tag_315:\n        /* \"#utility.yul\":7281:8115   */\n      swap7\n      swap6\n      pop\n      pop\n      pop\n      pop\n      pop\n      pop\n      jump\t// out\n        /* \"#utility.yul\":8121:8450   */\n    tag_33:\n        /* \"#utility.yul\":8180:8186   */\n      0x00\n        /* \"#utility.yul\":8229:8231   */\n      0x20\n        /* \"#utility.yul\":8217:8226   */\n      dup3\n        /* \"#utility.yul\":8208:8215   */\n      dup5\n        /* \"#utility.yul\":8204:8227   */\n      sub\n        /* \"#utility.yul\":8200:8232   */\n      slt\n        /* \"#utility.yul\":8197:8316   */\n      iszero\n      tag_317\n      jumpi\n        /* \"#utility.yul\":8235:8314   */\n      tag_318\n      tag_162\n      jump\t// in\n    tag_318:\n        /* \"#utility.yul\":8197:8316   */\n    tag_317:\n        /* \"#utility.yul\":8355:8356   */\n      0x00\n        /* \"#utility.yul\":8380:8433   */\n      tag_319\n        /* \"#utility.yul\":8425:8432   */\n      dup5\n        /* \"#utility.yul\":8416:8422   */\n      dup3\n        /* \"#utility.yul\":8405:8414   */\n      dup6\n        /* \"#utility.yul\":8401:8423   */\n      add\n        /* \"#utility.yul\":8380:8433   */\n      tag_170\n      jump\t// in\n    tag_319:\n        /* \"#utility.yul\":8370:8433   */\n      swap2\n      pop\n        /* \"#utility.yul\":8326:8443   */\n      pop\n        /* \"#utility.yul\":8121:8450   */\n      swap3\n      swap2\n      pop\n      pop\n      jump\t// out\n        /* \"#utility.yul\":8456:8666   */\n    tag_36:\n        /* \"#utility.yul\":8543:8547   */\n      0x00\n        /* \"#utility.yul\":8581:8583   */\n      0x20\n        /* \"#utility.yul\":8570:8579   */\n      dup3\n        /* \"#utility.yul\":8566:8584   */\n      add\n        /* \"#utility.yul\":8558:8584   */\n      swap1\n      pop\n        /* \"#utility.yul\":8594:8659   */\n      tag_321\n        /* \"#utility.yul\":8656:8657   */\n      0x00\n        /* \"#utility.yul\":8645:8654   */\n      dup4\n        /* \"#utility.yul\":8641:8658   */\n      add\n        /* \"#utility.yul\":8632:8638   */\n      dup5\n        /* \"#utility.yul\":8594:8659   */\n      tag_187\n      jump\t// in\n    tag_321:\n        /* \"#utility.yul\":8456:8666   */\n      swap3\n      swap2\n      pop\n      pop\n      jump\t// out\n        /* \"#utility.yul\":8672:8894   */\n    tag_40:\n        /* \"#utility.yul\":8765:8769   */\n      0x00\n        /* \"#utility.yul\":8803:8805   */\n      0x20\n        /* \"#utility.yul\":8792:8801   */\n      dup3\n        /* \"#utility.yul\":8788:8806   */\n      add\n        /* \"#utility.yul\":8780:8806   */\n      swap1\n      pop\n        /* \"#utility.yul\":8816:8887   */\n      tag_323\n        /* \"#utility.yul\":8884:8885   */\n      0x00\n        /* \"#utility.yul\":8873:8882   */\n      dup4\n        /* \"#utility.yul\":8869:8886   */\n      add\n        /* \"#utility.yul\":8860:8866   */\n      dup5\n        /* \"#utility.yul\":8816:8887   */\n      tag_181\n      jump\t// in\n    tag_323:\n        /* \"#utility.yul\":8672:8894   */\n      swap3\n      swap2\n      pop\n      pop\n      jump\t// out\n        /* \"#utility.yul\":8900:9122   */\n    tag_44:\n        /* \"#utility.yul\":8993:8997   */\n      0x00\n        /* \"#utility.yul\":9031:9033   */\n      0x20\n        /* \"#utility.yul\":9020:9029   */\n      dup3\n        /* \"#utility.yul\":9016:9034   */\n      add\n        /* \"#utility.yul\":9008:9034   */\n      swap1\n      pop\n        /* \"#utility.yul\":9044:9115   */\n      tag_325\n        /* \"#utility.yul\":9112:9113   */\n      0x00\n        /* \"#utility.yul\":9101:9110   */\n      dup4\n        /* \"#utility.yul\":9097:9114   */\n      add\n        /* \"#utility.yul\":9088:9094   */\n      dup5\n        /* \"#utility.yul\":9044:9115   */\n      tag_188\n      jump\t// in\n    tag_325:\n        /* \"#utility.yul\":8900:9122   */\n      swap3\n      swap2\n      pop\n      pop\n      jump\t// out\n        /* \"#utility.yul\":9128:9602   */\n    tag_47:\n        /* \"#utility.yul\":9196:9202   */\n      0x00\n        /* \"#utility.yul\":9204:9210   */\n      dup1\n        /* \"#utility.yul\":9253:9255   */\n      0x40\n        /* \"#utility.yul\":9241:9250   */\n      dup4\n        /* \"#utility.yul\":9232:9239   */\n      dup6\n        /* \"#utility.yul\":9228:9251   */\n      sub\n        /* \"#utility.yul\":9224:9256   */\n      slt\n        /* \"#utility.yul\":9221:9340   */\n      iszero\n      tag_327\n      jumpi\n        /* \"#utility.yul\":9259:9338   */\n      tag_328\n      tag_162\n      jump\t// in\n    tag_328:\n        /* \"#utility.yul\":9221:9340   */\n    tag_327:\n        /* \"#utility.yul\":9379:9380   */\n      0x00\n        /* \"#utility.yul\":9404:9457   */\n      tag_329\n        /* \"#utility.yul\":9449:9456   */\n      dup6\n        /* \"#utility.yul\":9440:9446   */\n      dup3\n        /* \"#utility.yul\":9429:9438   */\n      dup7\n        /* \"#utility.yul\":9425:9447   */\n      add\n        /* \"#utility.yul\":9404:9457   */\n      tag_166\n      jump\t// in\n    tag_329:\n        /* \"#utility.yul\":9394:9457   */\n      swap3\n      pop\n        /* \"#utility.yul\":9350:9467   */\n      pop\n        /* \"#utility.yul\":9506:9508   */\n      0x20\n        /* \"#utility.yul\":9532:9585   */\n      tag_330\n        /* \"#utility.yul\":9577:9584   */\n      dup6\n        /* \"#utility.yul\":9568:9574   */\n      dup3\n        /* \"#utility.yul\":9557:9566   */\n      dup7\n        /* \"#utility.yul\":9553:9575   */\n      add\n        /* \"#utility.yul\":9532:9585   */\n      tag_166\n      jump\t// in\n    tag_330:\n        /* \"#utility.yul\":9522:9585   */\n      swap2\n      pop\n        /* \"#utility.yul\":9477:9595   */\n      pop\n        /* \"#utility.yul\":9128:9602   */\n      swap3\n      pop\n      swap3\n      swap1\n      pop\n      jump\t// out\n        /* \"#utility.yul\":9608:9937   */\n    tag_52:\n        /* \"#utility.yul\":9667:9673   */\n      0x00\n        /* \"#utility.yul\":9716:9718   */\n      0x20\n        /* \"#utility.yul\":9704:9713   */\n      dup3\n        /* \"#utility.yul\":9695:9702   */\n      dup5\n        /* \"#utility.yul\":9691:9714   */\n      sub\n        /* \"#utility.yul\":9687:9719   */\n      slt\n        /* \"#utility.yul\":9684:9803   */\n      iszero\n      tag_332\n      jumpi\n        /* \"#utility.yul\":9722:9801   */\n      tag_333\n      tag_162\n      jump\t// in\n    tag_333:\n        /* \"#utility.yul\":9684:9803   */\n    tag_332:\n        /* \"#utility.yul\":9842:9843   */\n      0x00\n        /* \"#utility.yul\":9867:9920   */\n      tag_334\n        /* \"#utility.yul\":9912:9919   */\n      dup5\n        /* \"#utility.yul\":9903:9909   */\n      dup3\n        /* \"#utility.yul\":9892:9901   */\n      dup6\n        /* \"#utility.yul\":9888:9910   */\n      add\n        /* \"#utility.yul\":9867:9920   */\n      tag_166\n      jump\t// in\n    tag_334:\n        /* \"#utility.yul\":9857:9920   */\n      swap2\n      pop\n        /* \"#utility.yul\":9813:9930   */\n      pop\n        /* \"#utility.yul\":9608:9937   */\n      swap3\n      swap2\n      pop\n      pop\n      jump\t// out\n        /* \"#utility.yul\":9943:11110   */\n    tag_55:\n        /* \"#utility.yul\":10266:10270   */\n      0x00\n        /* \"#utility.yul\":10304:10307   */\n      0x0100\n        /* \"#utility.yul\":10293:10302   */\n      dup3\n        /* \"#utility.yul\":10289:10308   */\n      add\n        /* \"#utility.yul\":10281:10308   */\n      swap1\n      pop\n        /* \"#utility.yul\":10354:10363   */\n      dup2\n        /* \"#utility.yul\":10348:10352   */\n      dup2\n        /* \"#utility.yul\":10344:10364   */\n      sub\n        /* \"#utility.yul\":10340:10341   */\n      0x00\n        /* \"#utility.yul\":10329:10338   */\n      dup4\n        /* \"#utility.yul\":10325:10342   */\n      add\n        /* \"#utility.yul\":10318:10365   */\n      mstore\n        /* \"#utility.yul\":10382:10460   */\n      tag_336\n        /* \"#utility.yul\":10455:10459   */\n      dup2\n        /* \"#utility.yul\":10446:10452   */\n      dup12\n        /* \"#utility.yul\":10382:10460   */\n      tag_185\n      jump\t// in\n    tag_336:\n        /* \"#utility.yul\":10374:10460   */\n      swap1\n      pop\n        /* \"#utility.yul\":10507:10516   */\n      dup2\n        /* \"#utility.yul\":10501:10505   */\n      dup2\n        /* \"#utility.yul\":10497:10517   */\n      sub\n        /* \"#utility.yul\":10492:10494   */\n      0x20\n        /* \"#utility.yul\":10481:10490   */\n      dup4\n        /* \"#utility.yul\":10477:10495   */\n      add\n        /* \"#utility.yul\":10470:10518   */\n      mstore\n        /* \"#utility.yul\":10535:10613   */\n      tag_337\n        /* \"#utility.yul\":10608:10612   */\n      dup2\n        /* \"#utility.yul\":10599:10605   */\n      dup11\n        /* \"#utility.yul\":10535:10613   */\n      tag_185\n      jump\t// in\n    tag_337:\n        /* \"#utility.yul\":10527:10613   */\n      swap1\n      pop\n        /* \"#utility.yul\":10623:10689   */\n      tag_338\n        /* \"#utility.yul\":10685:10687   */\n      0x40\n        /* \"#utility.yul\":10674:10683   */\n      dup4\n        /* \"#utility.yul\":10670:10688   */\n      add\n        /* \"#utility.yul\":10661:10667   */\n      dup10\n        /* \"#utility.yul\":10623:10689   */\n      tag_187\n      jump\t// in\n    tag_338:\n        /* \"#utility.yul\":10699:10771   */\n      tag_339\n        /* \"#utility.yul\":10767:10769   */\n      0x60\n        /* \"#utility.yul\":10756:10765   */\n      dup4\n        /* \"#utility.yul\":10752:10770   */\n      add\n        /* \"#utility.yul\":10743:10749   */\n      dup9\n        /* \"#utility.yul\":10699:10771   */\n      tag_188\n      jump\t// in\n    tag_339:\n        /* \"#utility.yul\":10781:10854   */\n      tag_340\n        /* \"#utility.yul\":10849:10852   */\n      0x80\n        /* \"#utility.yul\":10838:10847   */\n      dup4\n        /* \"#utility.yul\":10834:10853   */\n      add\n        /* \"#utility.yul\":10825:10831   */\n      dup8\n        /* \"#utility.yul\":10781:10854   */\n      tag_188\n      jump\t// in\n    tag_340:\n        /* \"#utility.yul\":10864:10937   */\n      tag_341\n        /* \"#utility.yul\":10932:10935   */\n      0xa0\n        /* \"#utility.yul\":10921:10930   */\n      dup4\n        /* \"#utility.yul\":10917:10936   */\n      add\n        /* \"#utility.yul\":10908:10914   */\n      dup7\n        /* \"#utility.yul\":10864:10937   */\n      tag_188\n      jump\t// in\n    tag_341:\n        /* \"#utility.yul\":10947:11020   */\n      tag_342\n        /* \"#utility.yul\":11015:11018   */\n      0xc0\n        /* \"#utility.yul\":11004:11013   */\n      dup4\n        /* \"#utility.yul\":11000:11019   */\n      add\n        /* \"#utility.yul\":10991:10997   */\n      dup6\n        /* \"#utility.yul\":10947:11020   */\n      tag_188\n      jump\t// in\n    tag_342:\n        /* \"#utility.yul\":11030:11103   */\n      tag_343\n        /* \"#utility.yul\":11098:11101   */\n      0xe0\n        /* \"#utility.yul\":11087:11096   */\n      dup4\n        /* \"#utility.yul\":11083:11102   */\n      add\n        /* \"#utility.yul\":11074:11080   */\n      dup5\n        /* \"#utility.yul\":11030:11103   */\n      tag_181\n      jump\t// in\n    tag_343:\n        /* \"#utility.yul\":9943:11110   */\n      swap10\n      swap9\n      pop\n      pop\n      pop\n      pop\n      pop\n      pop\n      pop\n      pop\n      pop\n      jump\t// out\n        /* \"#utility.yul\":11116:11285   */\n    tag_189:\n        /* \"#utility.yul\":11256:11277   */\n      0x506f6c6c20646f6573206e6f7420657869737400000000000000000000000000\n        /* \"#utility.yul\":11252:11253   */\n      0x00\n        /* \"#utility.yul\":11244:11250   */\n      dup3\n        /* \"#utility.yul\":11240:11254   */\n      add\n        /* \"#utility.yul\":11233:11278   */\n      mstore\n        /* \"#utility.yul\":11116:11285   */\n      pop\n      jump\t// out\n        /* \"#utility.yul\":11291:11657   */\n    tag_190:\n        /* \"#utility.yul\":11433:11436   */\n      0x00\n        /* \"#utility.yul\":11454:11521   */\n      tag_346\n        /* \"#utility.yul\":11518:11520   */\n      0x13\n        /* \"#utility.yul\":11513:11516   */\n      dup4\n        /* \"#utility.yul\":11454:11521   */\n      tag_183\n      jump\t// in\n    tag_346:\n        /* \"#utility.yul\":11447:11521   */\n      swap2\n      pop\n        /* \"#utility.yul\":11530:11623   */\n      tag_347\n        /* \"#utility.yul\":11619:11622   */\n      dup3\n        /* \"#utility.yul\":11530:11623   */\n      tag_189\n      jump\t// in\n    tag_347:\n        /* \"#utility.yul\":11648:11650   */\n      0x20\n        /* \"#utility.yul\":11643:11646   */\n      dup3\n        /* \"#utility.yul\":11639:11651   */\n      add\n        /* \"#utility.yul\":11632:11651   */\n      swap1\n      pop\n        /* \"#utility.yul\":11291:11657   */\n      swap2\n      swap1\n      pop\n      jump\t// out\n        /* \"#utility.yul\":11663:12082   */\n    tag_63:\n        /* \"#utility.yul\":11829:11833   */\n      0x00\n        /* \"#utility.yul\":11867:11869   */\n      0x20\n        /* \"#utility.yul\":11856:11865   */\n      dup3\n        /* \"#utility.yul\":11852:11870   */\n      add\n        /* \"#utility.yul\":11844:11870   */\n      swap1\n      pop\n        /* \"#utility.yul\":11916:11925   */\n      dup2\n        /* \"#utility.yul\":11910:11914   */\n      dup2\n        /* \"#utility.yul\":11906:11926   */\n      sub\n        /* \"#utility.yul\":11902:11903   */\n      0x00\n        /* \"#utility.yul\":11891:11900   */\n      dup4\n        /* \"#utility.yul\":11887:11904   */\n      add\n        /* \"#utility.yul\":11880:11927   */\n      mstore\n        /* \"#utility.yul\":11944:12075   */\n      tag_349\n        /* \"#utility.yul\":12070:12074   */\n      dup2\n        /* \"#utility.yul\":11944:12075   */\n      tag_190\n      jump\t// in\n    tag_349:\n        /* \"#utility.yul\":11936:12075   */\n      swap1\n      pop\n        /* \"#utility.yul\":11663:12082   */\n      swap2\n      swap1\n      pop\n      jump\t// out\n        /* \"#utility.yul\":12088:12256   */\n    tag_191:\n        /* \"#utility.yul\":12228:12248   */\n      0x506f6c6c206973206e6f74206163746976650000000000000000000000000000\n        /* \"#utility.yul\":12224:12225   */\n      0x00\n        /* \"#utility.yul\":12216:12222   */\n      dup3\n        /* \"#utility.yul\":12212:12226   */\n      add\n        /* \"#utility.yul\":12205:12249   */\n      mstore\n        /* \"#utility.yul\":12088:12256   */\n      pop\n      jump\t// out\n        /* \"#utility.yul\":12262:12628   */\n    tag_192:\n        /* \"#utility.yul\":12404:12407   */\n      0x00\n        /* \"#utility.yul\":12425:12492   */\n      tag_352\n        /* \"#utility.yul\":12489:12491   */\n      0x12\n        /* \"#utility.yul\":12484:12487   */\n      dup4\n        /* \"#utility.yul\":12425:12492   */\n      tag_183\n      jump\t// in\n    tag_352:\n        /* \"#utility.yul\":12418:12492   */\n      swap2\n      pop\n        /* \"#utility.yul\":12501:12594   */\n      tag_353\n        /* \"#utility.yul\":12590:12593   */\n      dup3\n        /* \"#utility.yul\":12501:12594   */\n      tag_191\n      jump\t// in\n    tag_353:\n        /* \"#utility.yul\":12619:12621   */\n      0x20\n        /* \"#utility.yul\":12614:12617   */\n      dup3\n        /* \"#utility.yul\":12610:12622   */\n      add\n        /* \"#utility.yul\":12603:12622   */\n      swap1\n      pop\n        /* \"#utility.yul\":12262:12628   */\n      swap2\n      swap1\n      pop\n      jump\t// out\n        /* \"#utility.yul\":12634:13053   */\n    tag_67:\n        /* \"#utility.yul\":12800:12804   */\n      0x00\n        /* \"#utility.yul\":12838:12840   */\n      0x20\n        /* \"#utility.yul\":12827:12836   */\n      dup3\n        /* \"#utility.yul\":12823:12841   */\n      add\n        /* \"#utility.yul\":12815:12841   */\n      swap1\n      pop\n        /* \"#utility.yul\":12887:12896   */\n      dup2\n        /* \"#utility.yul\":12881:12885   */\n      dup2\n        /* \"#utility.yul\":12877:12897   */\n      sub\n        /* \"#utility.yul\":12873:12874   */\n      0x00\n        /* \"#utility.yul\":12862:12871   */\n      dup4\n        /* \"#utility.yul\":12858:12875   */\n      add\n        /* \"#utility.yul\":12851:12898   */\n      mstore\n        /* \"#utility.yul\":12915:13046   */\n      tag_355\n        /* \"#utility.yul\":13041:13045   */\n      dup2\n        /* \"#utility.yul\":12915:13046   */\n      tag_192\n      jump\t// in\n    tag_355:\n        /* \"#utility.yul\":12907:13046   */\n      swap1\n      pop\n        /* \"#utility.yul\":12634:13053   */\n      swap2\n      swap1\n      pop\n      jump\t// out\n        /* \"#utility.yul\":13059:13222   */\n    tag_193:\n        /* \"#utility.yul\":13199:13214   */\n      0x416c726561647920766f74656400000000000000000000000000000000000000\n        /* \"#utility.yul\":13195:13196   */\n      0x00\n        /* \"#utility.yul\":13187:13193   */\n      dup3\n        /* \"#utility.yul\":13183:13197   */\n      add\n        /* \"#utility.yul\":13176:13215   */\n      mstore\n        /* \"#utility.yul\":13059:13222   */\n      pop\n      jump\t// out\n        /* \"#utility.yul\":13228:13594   */\n    tag_194:\n        /* \"#utility.yul\":13370:13373   */\n      0x00\n        /* \"#utility.yul\":13391:13458   */\n      tag_358\n        /* \"#utility.yul\":13455:13457   */\n      0x0d\n        /* \"#utility.yul\":13450:13453   */\n      dup4\n        /* \"#utility.yul\":13391:13458   */\n      tag_183\n      jump\t// in\n    tag_358:\n        /* \"#utility.yul\":13384:13458   */\n      swap2\n      pop\n        /* \"#utility.yul\":13467:13560   */\n      tag_359\n        /* \"#utility.yul\":13556:13559   */\n      dup3\n        /* \"#utility.yul\":13467:13560   */\n      tag_193\n      jump\t// in\n    tag_359:\n        /* \"#utility.yul\":13585:13587   */\n      0x20\n        /* \"#utility.yul\":13580:13583   */\n      dup3\n        /* \"#utility.yul\":13576:13588   */\n      add\n        /* \"#utility.yul\":13569:13588   */\n      swap1\n      pop\n        /* \"#utility.yul\":13228:13594   */\n      swap2\n      swap1\n      pop\n      jump\t// out\n        /* \"#utility.yul\":13600:14019   */\n    tag_70:\n        /* \"#utility.yul\":13766:13770   */\n      0x00\n        /* \"#utility.yul\":13804:13806   */\n      0x20\n        /* \"#utility.yul\":13793:13802   */\n      dup3\n        /* \"#utility.yul\":13789:13807   */\n      add\n        /* \"#utility.yul\":13781:13807   */\n      swap1\n      pop\n        /* \"#utility.yul\":13853:13862   */\n      dup2\n        /* \"#utility.yul\":13847:13851   */\n      dup2\n        /* \"#utility.yul\":13843:13863   */\n      sub\n        /* \"#utility.yul\":13839:13840   */\n      0x00\n        /* \"#utility.yul\":13828:13837   */\n      dup4\n        /* \"#utility.yul\":13824:13841   */\n      add\n        /* \"#utility.yul\":13817:13864   */\n      mstore\n        /* \"#utility.yul\":13881:14012   */\n      tag_361\n        /* \"#utility.yul\":14007:14011   */\n      dup2\n        /* \"#utility.yul\":13881:14012   */\n      tag_194\n      jump\t// in\n    tag_361:\n        /* \"#utility.yul\":13873:14012   */\n      swap1\n      pop\n        /* \"#utility.yul\":13600:14019   */\n      swap2\n      swap1\n      pop\n      jump\t// out\n        /* \"#utility.yul\":14025:14197   */\n    tag_195:\n        /* \"#utility.yul\":14165:14189   */\n      0x43616e646964617465206e6f7420617070726f76656400000000000000000000\n        /* \"#utility.yul\":14161:14162   */\n      0x00\n        /* \"#utility.yul\":14153:14159   */\n      dup3\n        /* \"#utility.yul\":14149:14163   */\n      add\n        /* \"#utility.yul\":14142:14190   */\n      mstore\n        /* \"#utility.yul\":14025:14197   */\n      pop\n      jump\t// out\n        /* \"#utility.yul\":14203:14569   */\n    tag_196:\n        /* \"#utility.yul\":14345:14348   */\n      0x00\n        /* \"#utility.yul\":14366:14433   */\n      tag_364\n        /* \"#utility.yul\":14430:14432   */\n      0x16\n        /* \"#utility.yul\":14425:14428   */\n      dup4\n        /* \"#utility.yul\":14366:14433   */\n      tag_183\n      jump\t// in\n    tag_364:\n        /* \"#utility.yul\":14359:14433   */\n      swap2\n      pop\n        /* \"#utility.yul\":14442:14535   */\n      tag_365\n        /* \"#utility.yul\":14531:14534   */\n      dup3\n        /* \"#utility.yul\":14442:14535   */\n      tag_195\n      jump\t// in\n    tag_365:\n        /* \"#utility.yul\":14560:14562   */\n      0x20\n        /* \"#utility.yul\":14555:14558   */\n      dup3\n        /* \"#utility.yul\":14551:14563   */\n      add\n        /* \"#utility.yul\":14544:14563   */\n      swap1\n      pop\n        /* \"#utility.yul\":14203:14569   */\n      swap2\n      swap1\n      pop\n      jump\t// out\n        /* \"#utility.yul\":14575:14994   */\n    tag_73:\n        /* \"#utility.yul\":14741:14745   */\n      0x00\n        /* \"#utility.yul\":14779:14781   */\n      0x20\n        /* \"#utility.yul\":14768:14777   */\n      dup3\n        /* \"#utility.yul\":14764:14782   */\n      add\n        /* \"#utility.yul\":14756:14782   */\n      swap1\n      pop\n        /* \"#utility.yul\":14828:14837   */\n      dup2\n        /* \"#utility.yul\":14822:14826   */\n      dup2\n        /* \"#utility.yul\":14818:14838   */\n      sub\n        /* \"#utility.yul\":14814:14815   */\n      0x00\n        /* \"#utility.yul\":14803:14812   */\n      dup4\n        /* \"#utility.yul\":14799:14816   */\n      add\n        /* \"#utility.yul\":14792:14839   */\n      mstore\n        /* \"#utility.yul\":14856:14987   */\n      tag_367\n        /* \"#utility.yul\":14982:14986   */\n      dup2\n        /* \"#utility.yul\":14856:14987   */\n      tag_196\n      jump\t// in\n    tag_367:\n        /* \"#utility.yul\":14848:14987   */\n      swap1\n      pop\n        /* \"#utility.yul\":14575:14994   */\n      swap2\n      swap1\n      pop\n      jump\t// out\n        /* \"#utility.yul\":15000:15180   */\n    tag_197:\n        /* \"#utility.yul\":15048:15125   */\n      0x4e487b7100000000000000000000000000000000000000000000000000000000\n        /* \"#utility.yul\":15045:15046   */\n      0x00\n        /* \"#utility.yul\":15038:15126   */\n      mstore\n        /* \"#utility.yul\":15145:15149   */\n      0x11\n        /* \"#utility.yul\":15142:15143   */\n      0x04\n        /* \"#utility.yul\":15135:15150   */\n      mstore\n        /* \"#utility.yul\":15169:15173   */\n      0x24\n        /* \"#utility.yul\":15166:15167   */\n      0x00\n        /* \"#utility.yul\":15159:15174   */\n      revert\n        /* \"#utility.yul\":15186:15419   */\n    tag_75:\n        /* \"#utility.yul\":15225:15228   */\n      0x00\n        /* \"#utility.yul\":15248:15272   */\n      tag_370\n        /* \"#utility.yul\":15266:15271   */\n      dup3\n        /* \"#utility.yul\":15248:15272   */\n      tag_164\n      jump\t// in\n    tag_370:\n        /* \"#utility.yul\":15239:15272   */\n      swap2\n      pop\n        /* \"#utility.yul\":15294:15360   */\n      0xffffffffffffffffffffffffffffffffffffffffffffffffffffffffffffffff\n        /* \"#utility.yul\":15287:15292   */\n      dup3\n        /* \"#utility.yul\":15284:15361   */\n      sub\n        /* \"#utility.yul\":15281:15384   */\n      tag_371\n      jumpi\n        /* \"#utility.yul\":15364:15382   */\n      tag_372\n      tag_197\n      jump\t// in\n    tag_372:\n        /* \"#utility.yul\":15281:15384   */\n    tag_371:\n        /* \"#utility.yul\":15411:15412   */\n      0x01\n        /* \"#utility.yul\":15404:15409   */\n      dup3\n        /* \"#utility.yul\":15400:15413   */\n      add\n        /* \"#utility.yul\":15393:15413   */\n      swap1\n      pop\n        /* \"#utility.yul\":15186:15419   */\n      swap2\n      swap1\n      pop\n      jump\t// out\n        /* \"#utility.yul\":15425:15867   */\n    tag_80:\n        /* \"#utility.yul\":15574:15578   */\n      0x00\n        /* \"#utility.yul\":15612:15614   */\n      0x60\n        /* \"#utility.yul\":15601:15610   */\n      dup3\n        /* \"#utility.yul\":15597:15615   */\n      add\n        /* \"#utility.yul\":15589:15615   */\n      swap1\n      pop\n        /* \"#utility.yul\":15625:15696   */\n      tag_374\n        /* \"#utility.yul\":15693:15694   */\n      0x00\n        /* \"#utility.yul\":15682:15691   */\n      dup4\n        /* \"#utility.yul\":15678:15695   */\n      add\n        /* \"#utility.yul\":15669:15675   */\n      dup7\n        /* \"#utility.yul\":15625:15696   */\n      tag_188\n      jump\t// in\n    tag_374:\n        /* \"#utility.yul\":15706:15778   */\n      tag_375\n        /* \"#utility.yul\":15774:15776   */\n      0x20\n        /* \"#utility.yul\":15763:15772   */\n      dup4\n        /* \"#utility.yul\":15759:15777   */\n      add\n        /* \"#utility.yul\":15750:15756   */\n      dup6\n        /* \"#utility.yul\":15706:15778   */\n      tag_181\n      jump\t// in\n    tag_375:\n        /* \"#utility.yul\":15788:15860   */\n      tag_376\n        /* \"#utility.yul\":15856:15858   */\n      0x40\n        /* \"#utility.yul\":15845:15854   */\n      dup4\n        /* \"#utility.yul\":15841:15859   */\n      add\n        /* \"#utility.yul\":15832:15838   */\n      dup5\n        /* \"#utility.yul\":15788:15860   */\n      tag_181\n      jump\t// in\n    tag_376:\n        /* \"#utility.yul\":15425:15867   */\n      swap5\n      swap4\n      pop\n      pop\n      pop\n      pop\n      jump\t// out\n        /* \"#utility.yul\":15873:16098   */\n    tag_198:\n        /* \"#utility.yul\":16013:16047   */\n      0x4f6e6c7920746865206f776e65722063616e20706572666f726d207468697320\n        /* \"#utility.yul\":16009:16010   */\n      0x00\n        /* \"#utility.yul\":16001:16007   */\n      dup3\n        /* \"#utility.yul\":15997:16011   */\n      add\n        /* \"#utility.yul\":15990:16048   */\n      mstore\n        /* \"#utility.yul\":16082:16090   */\n      0x616374696f6e0000000000000000000000000000000000000000000000000000\n        /* \"#utility.yul\":16077:16079   */\n      0x20\n        /* \"#utility.yul\":16069:16075   */\n      dup3\n        /* \"#utility.yul\":16065:16080   */\n      add\n        /* \"#utility.yul\":16058:16091   */\n      mstore\n        /* \"#utility.yul\":15873:16098   */\n      pop\n      jump\t// out\n        /* \"#utility.yul\":16104:16470   */\n    tag_199:\n        /* \"#utility.yul\":16246:16249   */\n      0x00\n        /* \"#utility.yul\":16267:16334   */\n      tag_379\n        /* \"#utility.yul\":16331:16333   */\n      0x26\n        /* \"#utility.yul\":16326:16329   */\n      dup4\n        /* \"#utility.yul\":16267:16334   */\n      tag_183\n      jump\t// in\n    tag_379:\n        /* \"#utility.yul\":16260:16334   */\n      swap2\n      pop\n        /* \"#utility.yul\":16343:16436   */\n      tag_380\n        /* \"#utility.yul\":16432:16435   */\n      dup3\n        /* \"#utility.yul\":16343:16436   */\n      tag_198\n      jump\t// in\n    tag_380:\n        /* \"#utility.yul\":16461:16463   */\n      0x40\n        /* \"#utility.yul\":16456:16459   */\n      dup3\n        /* \"#utility.yul\":16452:16464   */\n      add\n        /* \"#utility.yul\":16445:16464   */\n      swap1\n      pop\n        /* \"#utility.yul\":16104:16470   */\n      swap2\n      swap1\n      pop\n      jump\t// out\n        /* \"#utility.yul\":16476:16895   */\n    tag_84:\n        /* \"#utility.yul\":16642:16646   */\n      0x00\n        /* \"#utility.yul\":16680:16682   */\n      0x20\n        /* \"#utility.yul\":16669:16678   */\n      dup3\n        /* \"#utility.yul\":16665:16683   */\n      add\n        /* \"#utility.yul\":16657:16683   */\n      swap1\n      pop\n        /* \"#utility.yul\":16729:16738   */\n      dup2\n        /* \"#utility.yul\":16723:16727   */\n      dup2\n        /* \"#utility.yul\":16719:16739   */\n      sub\n        /* \"#utility.yul\":16715:16716   */\n      0x00\n        /* \"#utility.yul\":16704:16713   */\n      dup4\n        /* \"#utility.yul\":16700:16717   */\n      add\n        /* \"#utility.yul\":16693:16740   */\n      mstore\n        /* \"#utility.yul\":16757:16888   */\n      tag_382\n        /* \"#utility.yul\":16883:16887   */\n      dup2\n        /* \"#utility.yul\":16757:16888   */\n      tag_199\n      jump\t// in\n    tag_382:\n        /* \"#utility.yul\":16749:16888   */\n      swap1\n      pop\n        /* \"#utility.yul\":16476:16895   */\n      swap2\n      swap1\n      pop\n      jump\t// out\n        /* \"#utility.yul\":16901:17072   */\n    tag_200:\n        /* \"#utility.yul\":17041:17064   */\n      0x496e76616c696420706f6c6c206475726174696f6e0000000000000000000000\n        /* \"#utility.yul\":17037:17038   */\n      0x00\n        /* \"#utility.yul\":17029:17035   */\n      dup3\n        /* \"#utility.yul\":17025:17039   */\n      add\n        /* \"#utility.yul\":17018:17065   */\n      mstore\n        /* \"#utility.yul\":16901:17072   */\n      pop\n      jump\t// out\n        /* \"#utility.yul\":17078:17444   */\n    tag_201:\n        /* \"#utility.yul\":17220:17223   */\n      0x00\n        /* \"#utility.yul\":17241:17308   */\n      tag_385\n        /* \"#utility.yul\":17305:17307   */\n      0x15\n        /* \"#utility.yul\":17300:17303   */\n      dup4\n        /* \"#utility.yul\":17241:17308   */\n      tag_183\n      jump\t// in\n    tag_385:\n        /* \"#utility.yul\":17234:17308   */\n      swap2\n      pop\n        /* \"#utility.yul\":17317:17410   */\n      tag_386\n        /* \"#utility.yul\":17406:17409   */\n      dup3\n        /* \"#utility.yul\":17317:17410   */\n      tag_200\n      jump\t// in\n    tag_386:\n        /* \"#utility.yul\":17435:17437   */\n      0x20\n        /* \"#utility.yul\":17430:17433   */\n      dup3\n        /* \"#utility.yul\":17426:17438   */\n      add\n        /* \"#utility.yul\":17419:17438   */\n      swap1\n      pop\n        /* \"#utility.yul\":17078:17444   */\n      swap2\n      swap1\n      pop\n      jump\t// out\n        /* \"#utility.yul\":17450:17869   */\n    tag_88:\n        /* \"#utility.yul\":17616:17620   */\n      0x00\n        /* \"#utility.yul\":17654:17656   */\n      0x20\n        /* \"#utility.yul\":17643:17652   */\n      dup3\n        /* \"#utility.yul\":17639:17657   */\n      add\n        /* \"#utility.yul\":17631:17657   */\n      swap1\n      pop\n        /* \"#utility.yul\":17703:17712   */\n      dup2\n        /* \"#utility.yul\":17697:17701   */\n      dup2\n        /* \"#utility.yul\":17693:17713   */\n      sub\n        /* \"#utility.yul\":17689:17690   */\n      0x00\n        /* \"#utility.yul\":17678:17687   */\n      dup4\n        /* \"#utility.yul\":17674:17691   */\n      add\n        /* \"#utility.yul\":17667:17714   */\n      mstore\n        /* \"#utility.yul\":17731:17862   */\n      tag_388\n        /* \"#utility.yul\":17857:17861   */\n      dup2\n        /* \"#utility.yul\":17731:17862   */\n      tag_201\n      jump\t// in\n    tag_388:\n        /* \"#utility.yul\":17723:17862   */\n      swap1\n      pop\n        /* \"#utility.yul\":17450:17869   */\n      swap2\n      swap1\n      pop\n      jump\t// out\n        /* \"#utility.yul\":17875:18055   */\n    tag_202:\n        /* \"#utility.yul\":17923:18000   */\n      0x4e487b7100000000000000000000000000000000000000000000000000000000\n        /* \"#utility.yul\":17920:17921   */\n      0x00\n        /* \"#utility.yul\":17913:18001   */\n      mstore\n        /* \"#utility.yul\":18020:18024   */\n      0x22\n        /* \"#utility.yul\":18017:18018   */\n      0x04\n        /* \"#utility.yul\":18010:18025   */\n      mstore\n        /* \"#utility.yul\":18044:18048   */\n      0x24\n        /* \"#utility.yul\":18041:18042   */\n      0x00\n        /* \"#utility.yul\":18034:18049   */\n      revert\n        /* \"#utility.yul\":18061:18381   */\n    tag_114:\n        /* \"#utility.yul\":18105:18111   */\n      0x00\n        /* \"#utility.yul\":18142:18143   */\n      0x02\n        /* \"#utility.yul\":18136:18140   */\n      dup3\n        /* \"#utility.yul\":18132:18144   */\n      div\n        /* \"#utility.yul\":18122:18144   */\n      swap1\n      pop\n        /* \"#utility.yul\":18189:18190   */\n      0x01\n        /* \"#utility.yul\":18183:18187   */\n      dup3\n        /* \"#utility.yul\":18179:18191   */\n      and\n        /* \"#utility.yul\":18210:18228   */\n      dup1\n        /* \"#utility.yul\":18200:18281   */\n      tag_391\n      jumpi\n        /* \"#utility.yul\":18266:18270   */\n      0x7f\n        /* \"#utility.yul\":18258:18264   */\n      dup3\n        /* \"#utility.yul\":18254:18271   */\n      and\n        /* \"#utility.yul\":18244:18271   */\n      swap2\n      pop\n        /* \"#utility.yul\":18200:18281   */\n    tag_391:\n        /* \"#utility.yul\":18328:18330   */\n      0x20\n        /* \"#utility.yul\":18320:18326   */\n      dup3\n        /* \"#utility.yul\":18317:18331   */\n      lt\n        /* \"#utility.yul\":18297:18315   */\n      dup2\n        /* \"#utility.yul\":18294:18332   */\n      sub\n        /* \"#utility.yul\":18291:18375   */\n      tag_392\n      jumpi\n        /* \"#utility.yul\":18347:18365   */\n      tag_393\n      tag_202\n      jump\t// in\n    tag_393:\n        /* \"#utility.yul\":18291:18375   */\n    tag_392:\n        /* \"#utility.yul\":18112:18381   */\n      pop\n        /* \"#utility.yul\":18061:18381   */\n      swap2\n      swap1\n      pop\n      jump\t// out\n        /* \"#utility.yul\":18387:18528   */\n    tag_203:\n        /* \"#utility.yul\":18436:18440   */\n      0x00\n        /* \"#utility.yul\":18459:18462   */\n      dup2\n        /* \"#utility.yul\":18451:18462   */\n      swap1\n      pop\n        /* \"#utility.yul\":18482:18485   */\n      dup2\n        /* \"#utility.yul\":18479:18480   */\n      0x00\n        /* \"#utility.yul\":18472:18486   */\n      mstore\n        /* \"#utility.yul\":18516:18520   */\n      0x20\n        /* \"#utility.yul\":18513:18514   */\n      0x00\n        /* \"#utility.yul\":18503:18521   */\n      keccak256\n        /* \"#utility.yul\":18495:18521   */\n      swap1\n      pop\n        /* \"#utility.yul\":18387:18528   */\n      swap2\n      swap1\n      pop\n      jump\t// out\n        /* \"#utility.yul\":18534:18627   */\n    tag_204:\n        /* \"#utility.yul\":18571:18577   */\n      0x00\n        /* \"#utility.yul\":18618:18620   */\n      0x20\n        /* \"#utility.yul\":18613:18615   */\n      0x1f\n        /* \"#utility.yul\":18606:18611   */\n      dup4\n        /* \"#utility.yul\":18602:18616   */\n      add\n        /* \"#utility.yul\":18598:18621   */\n      div\n        /* \"#utility.yul\":18588:18621   */\n      swap1\n      pop\n        /* \"#utility.yul\":18534:18627   */\n      swap2\n      swap1\n      pop\n      jump\t// out\n        /* \"#utility.yul\":18633:18740   */\n    tag_205:\n        /* \"#utility.yul\":18677:18685   */\n      0x00\n        /* \"#utility.yul\":18727:18732   */\n      dup3\n        /* \"#utility.yul\":18721:18725   */\n      dup3\n        /* \"#utility.yul\":18717:18733   */\n      shl\n        /* \"#utility.yul\":18696:18733   */\n      swap1\n      pop\n        /* \"#utility.yul\":18633:18740   */\n      swap3\n      swap2\n      pop\n      pop\n      jump\t// out\n        /* \"#utility.yul\":18746:19139   */\n    tag_206:\n        /* \"#utility.yul\":18815:18821   */\n      0x00\n        /* \"#utility.yul\":18865:18866   */\n      0x08\n        /* \"#utility.yul\":18853:18863   */\n      dup4\n        /* \"#utility.yul\":18849:18867   */\n      mul\n        /* \"#utility.yul\":18888:18985   */\n      tag_398\n        /* \"#utility.yul\":18918:18984   */\n      0xffffffffffffffffffffffffffffffffffffffffffffffffffffffffffffffff\n        /* \"#utility.yul\":18907:18916   */\n      dup3\n        /* \"#utility.yul\":18888:18985   */\n      tag_205\n      jump\t// in\n    tag_398:\n        /* \"#utility.yul\":19006:19045   */\n      tag_399\n        /* \"#utility.yul\":19036:19044   */\n      dup7\n        /* \"#utility.yul\":19025:19034   */\n      dup4\n        /* \"#utility.yul\":19006:19045   */\n      tag_205\n      jump\t// in\n    tag_399:\n        /* \"#utility.yul\":18994:19045   */\n      swap6\n      pop\n        /* \"#utility.yul\":19078:19082   */\n      dup1\n        /* \"#utility.yul\":19074:19083   */\n      not\n        /* \"#utility.yul\":19067:19072   */\n      dup5\n        /* \"#utility.yul\":19063:19084   */\n      and\n        /* \"#utility.yul\":19054:19084   */\n      swap4\n      pop\n        /* \"#utility.yul\":19127:19131   */\n      dup1\n        /* \"#utility.yul\":19117:19125   */\n      dup7\n        /* \"#utility.yul\":19113:19132   */\n      and\n        /* \"#utility.yul\":19106:19111   */\n      dup5\n        /* \"#utility.yul\":19103:19133   */\n      or\n        /* \"#utility.yul\":19093:19133   */\n      swap3\n      pop\n        /* \"#utility.yul\":18822:19139   */\n      pop\n      pop\n        /* \"#utility.yul\":18746:19139   */\n      swap4\n      swap3\n      pop\n      pop\n      pop\n      jump\t// out\n        /* \"#utility.yul\":19145:19205   */\n    tag_207:\n        /* \"#utility.yul\":19173:19176   */\n      0x00\n        /* \"#utility.yul\":19194:19199   */\n      dup2\n        /* \"#utility.yul\":19187:19199   */\n      swap1\n      pop\n        /* \"#utility.yul\":19145:19205   */\n      swap2\n      swap1\n      pop\n      jump\t// out\n        /* \"#utility.yul\":19211:19353   */\n    tag_208:\n        /* \"#utility.yul\":19261:19270   */\n      0x00\n        /* \"#utility.yul\":19294:19347   */\n      tag_402\n        /* \"#utility.yul\":19312:19346   */\n      tag_403\n        /* \"#utility.yul\":19321:19345   */\n      tag_404\n        /* \"#utility.yul\":19339:19344   */\n      dup5\n        /* \"#utility.yul\":19321:19345   */\n      tag_164\n      jump\t// in\n    tag_404:\n        /* \"#utility.yul\":19312:19346   */\n      tag_207\n      jump\t// in\n    tag_403:\n        /* \"#utility.yul\":19294:19347   */\n      tag_164\n      jump\t// in\n    tag_402:\n        /* \"#utility.yul\":19281:19347   */\n      swap1\n      pop\n        /* \"#utility.yul\":19211:19353   */\n      swap2\n      swap1\n      pop\n      jump\t// out\n        /* \"#utility.yul\":19359:19434   */\n    tag_209:\n        /* \"#utility.yul\":19402:19405   */\n      0x00\n        /* \"#utility.yul\":19423:19428   */\n      dup2\n        /* \"#utility.yul\":19416:19428   */\n      swap1\n      pop\n        /* \"#utility.yul\":19359:19434   */\n      swap2\n      swap1\n      pop\n      jump\t// out\n        /* \"#utility.yul\":19440:19709   */\n    tag_210:\n        /* \"#utility.yul\":19550:19589   */\n      tag_407\n        /* \"#utility.yul\":19581:19588   */\n      dup4\n        /* \"#utility.yul\":19550:19589   */\n      tag_208\n      jump\t// in\n    tag_407:\n        /* \"#utility.yul\":19611:19702   */\n      tag_408\n        /* \"#utility.yul\":19660:19701   */\n      tag_409\n        /* \"#utility.yul\":19684:19700   */\n      dup3\n        /* \"#utility.yul\":19660:19701   */\n      tag_209\n      jump\t// in\n    tag_409:\n        /* \"#utility.yul\":19652:19658   */\n      dup5\n        /* \"#utility.yul\":19645:19649   */\n      dup5\n        /* \"#utility.yul\":19639:19650   */\n      sload\n        /* \"#utility.yul\":19611:19702   */\n      tag_206\n      jump\t// in\n    tag_408:\n        /* \"#utility.yul\":19605:19609   */\n      dup3\n        /* \"#utility.yul\":19598:19703   */\n      sstore\n        /* \"#utility.yul\":19516:19709   */\n      pop\n        /* \"#utility.yul\":19440:19709   */\n      pop\n      pop\n      pop\n      jump\t// out\n        /* \"#utility.yul\":19715:19788   */\n    tag_211:\n        /* \"#utility.yul\":19760:19763   */\n      0x00\n        /* \"#utility.yul\":19715:19788   */\n      swap1\n      jump\t// out\n        /* \"#utility.yul\":19794:19983   */\n    tag_212:\n        /* \"#utility.yul\":19871:19903   */\n      tag_412\n      tag_211\n      jump\t// in\n    tag_412:\n        /* \"#utility.yul\":19912:19977   */\n      tag_413\n        /* \"#utility.yul\":19970:19976   */\n      dup2\n        /* \"#utility.yul\":19962:19968   */\n      dup5\n        /* \"#utility.yul\":19956:19960   */\n      dup5\n        /* \"#utility.yul\":19912:19977   */\n      tag_210\n      jump\t// in\n    tag_413:\n        /* \"#utility.yul\":19847:19983   */\n      pop\n        /* \"#utility.yul\":19794:19983   */\n      pop\n      pop\n      jump\t// out\n        /* \"#utility.yul\":19989:20175   */\n    tag_213:\n        /* \"#utility.yul\":20049:20169   */\n    tag_415:\n        /* \"#utility.yul\":20066:20069   */\n      dup2\n        /* \"#utility.yul\":20059:20064   */\n      dup2\n        /* \"#utility.yul\":20056:20070   */\n      lt\n        /* \"#utility.yul\":20049:20169   */\n      iszero\n      tag_417\n      jumpi\n        /* \"#utility.yul\":20120:20159   */\n      tag_418\n        /* \"#utility.yul\":20157:20158   */\n      0x00\n        /* \"#utility.yul\":20150:20155   */\n      dup3\n        /* \"#utility.yul\":20120:20159   */\n      tag_212\n      jump\t// in\n    tag_418:\n        /* \"#utility.yul\":20093:20094   */\n      0x01\n        /* \"#utility.yul\":20086:20091   */\n      dup2\n        /* \"#utility.yul\":20082:20095   */\n      add\n        /* \"#utility.yul\":20073:20095   */\n      swap1\n      pop\n        /* \"#utility.yul\":20049:20169   */\n      jump(tag_415)\n    tag_417:\n        /* \"#utility.yul\":19989:20175   */\n      pop\n      pop\n      jump\t// out\n        /* \"#utility.yul\":20181:20724   */\n    tag_214:\n        /* \"#utility.yul\":20282:20284   */\n      0x1f\n        /* \"#utility.yul\":20277:20280   */\n      dup3\n        /* \"#utility.yul\":20274:20285   */\n      gt\n        /* \"#utility.yul\":20271:20717   */\n      iszero\n      tag_420\n      jumpi\n        /* \"#utility.yul\":20316:20354   */\n      tag_421\n        /* \"#utility.yul\":20348:20353   */\n      dup2\n        /* \"#utility.yul\":20316:20354   */\n      tag_203\n      jump\t// in\n    tag_421:\n        /* \"#utility.yul\":20400:20429   */\n      tag_422\n        /* \"#utility.yul\":20418:20428   */\n      dup5\n        /* \"#utility.yul\":20400:20429   */\n      tag_204\n      jump\t// in\n    tag_422:\n        /* \"#utility.yul\":20390:20398   */\n      dup2\n        /* \"#utility.yul\":20386:20430   */\n      add\n        /* \"#utility.yul\":20583:20585   */\n      0x20\n        /* \"#utility.yul\":20571:20581   */\n      dup6\n        /* \"#utility.yul\":20568:20586   */\n      lt\n        /* \"#utility.yul\":20565:20614   */\n      iszero\n      tag_423\n      jumpi\n        /* \"#utility.yul\":20604:20612   */\n      dup2\n        /* \"#utility.yul\":20589:20612   */\n      swap1\n      pop\n        /* \"#utility.yul\":20565:20614   */\n    tag_423:\n        /* \"#utility.yul\":20627:20707   */\n      tag_424\n        /* \"#utility.yul\":20683:20705   */\n      tag_425\n        /* \"#utility.yul\":20701:20704   */\n      dup6\n        /* \"#utility.yul\":20683:20705   */\n      tag_204\n      jump\t// in\n    tag_425:\n        /* \"#utility.yul\":20673:20681   */\n      dup4\n        /* \"#utility.yul\":20669:20706   */\n      add\n        /* \"#utility.yul\":20656:20667   */\n      dup3\n        /* \"#utility.yul\":20627:20707   */\n      tag_213\n      jump\t// in\n    tag_424:\n        /* \"#utility.yul\":20286:20717   */\n      pop\n      pop\n        /* \"#utility.yul\":20271:20717   */\n    tag_420:\n        /* \"#utility.yul\":20181:20724   */\n      pop\n      pop\n      pop\n      jump\t// out\n        /* \"#utility.yul\":20730:20847   */\n    tag_215:\n        /* \"#utility.yul\":20784:20792   */\n      0x00\n        /* \"#utility.yul\":20834:20839   */\n      dup3\n        /* \"#utility.yul\":20828:20832   */\n      dup3\n        /* \"#utility.yul\":20824:20840   */\n      shr\n        /* \"#utility.yul\":20803:20840   */\n      swap1\n      pop\n        /* \"#utility.yul\":20730:20847   */\n      swap3\n      swap2\n      pop\n      pop\n      jump\t// out\n        /* \"#utility.yul\":20853:21022   */\n    tag_216:\n        /* \"#utility.yul\":20897:20903   */\n      0x00\n        /* \"#utility.yul\":20930:20981   */\n      tag_428\n        /* \"#utility.yul\":20978:20979   */\n      0x00\n        /* \"#utility.yul\":20974:20980   */\n      not\n        /* \"#utility.yul\":20966:20971   */\n      dup5\n        /* \"#utility.yul\":20963:20964   */\n      0x08\n        /* \"#utility.yul\":20959:20972   */\n      mul\n        /* \"#utility.yul\":20930:20981   */\n      tag_215\n      jump\t// in\n    tag_428:\n        /* \"#utility.yul\":20926:20982   */\n      not\n        /* \"#utility.yul\":21011:21015   */\n      dup1\n        /* \"#utility.yul\":21005:21009   */\n      dup4\n        /* \"#utility.yul\":21001:21016   */\n      and\n        /* \"#utility.yul\":20991:21016   */\n      swap2\n      pop\n        /* \"#utility.yul\":20904:21022   */\n      pop\n        /* \"#utility.yul\":20853:21022   */\n      swap3\n      swap2\n      pop\n      pop\n      jump\t// out\n        /* \"#utility.yul\":21027:21322   */\n    tag_217:\n        /* \"#utility.yul\":21103:21107   */\n      0x00\n        /* \"#utility.yul\":21249:21278   */\n      tag_430\n        /* \"#utility.yul\":21274:21277   */\n      dup4\n        /* \"#utility.yul\":21268:21272   */\n      dup4\n        /* \"#utility.yul\":21249:21278   */\n      tag_216\n      jump\t// in\n    tag_430:\n        /* \"#utility.yul\":21241:21278   */\n      swap2\n      pop\n        /* \"#utility.yul\":21311:21314   */\n      dup3\n        /* \"#utility.yul\":21308:21309   */\n      0x02\n        /* \"#utility.yul\":21304:21315   */\n      mul\n        /* \"#utility.yul\":21298:21302   */\n      dup3\n        /* \"#utility.yul\":21295:21316   */\n      or\n        /* \"#utility.yul\":21287:21316   */\n      swap1\n      pop\n        /* \"#utility.yul\":21027:21322   */\n      swap3\n      swap2\n      pop\n      pop\n      jump\t// out\n        /* \"#utility.yul\":21327:22722   */\n    tag_91:\n        /* \"#utility.yul\":21444:21481   */\n      tag_432\n        /* \"#utility.yul\":21477:21480   */\n      dup3\n        /* \"#utility.yul\":21444:21481   */\n      tag_182\n      jump\t// in\n    tag_432:\n        /* \"#utility.yul\":21546:21564   */\n      0xffffffffffffffff\n        /* \"#utility.yul\":21538:21544   */\n      dup2\n        /* \"#utility.yul\":21535:21565   */\n      gt\n        /* \"#utility.yul\":21532:21588   */\n      iszero\n      tag_433\n      jumpi\n        /* \"#utility.yul\":21568:21586   */\n      tag_434\n      tag_174\n      jump\t// in\n    tag_434:\n        /* \"#utility.yul\":21532:21588   */\n    tag_433:\n        /* \"#utility.yul\":21612:21650   */\n      tag_435\n        /* \"#utility.yul\":21644:21648   */\n      dup3\n        /* \"#utility.yul\":21638:21649   */\n      sload\n        /* \"#utility.yul\":21612:21650   */\n      tag_114\n      jump\t// in\n    tag_435:\n        /* \"#utility.yul\":21697:21764   */\n      tag_436\n        /* \"#utility.yul\":21757:21763   */\n      dup3\n        /* \"#utility.yul\":21749:21755   */\n      dup3\n        /* \"#utility.yul\":21743:21747   */\n      dup6\n        /* \"#utility.yul\":21697:21764   */\n      tag_214\n      jump\t// in\n    tag_436:\n        /* \"#utility.yul\":21791:21792   */\n      0x00\n        /* \"#utility.yul\":21815:21819   */\n      0x20\n        /* \"#utility.yul\":21802:21819   */\n      swap1\n      pop\n        /* \"#utility.yul\":21847:21849   */\n      0x1f\n        /* \"#utility.yul\":21839:21845   */\n      dup4\n        /* \"#utility.yul\":21836:21850   */\n      gt\n        /* \"#utility.yul\":21864:21865   */\n      0x01\n        /* \"#utility.yul\":21859:22477   */\n      dup2\n      eq\n      tag_438\n      jumpi\n        /* \"#utility.yul\":22521:22522   */\n      0x00\n        /* \"#utility.yul\":22538:22544   */\n      dup5\n        /* \"#utility.yul\":22535:22612   */\n      iszero\n      tag_439\n      jumpi\n        /* \"#utility.yul\":22587:22596   */\n      dup3\n        /* \"#utility.yul\":22582:22585   */\n      dup8\n        /* \"#utility.yul\":22578:22597   */\n      add\n        /* \"#utility.yul\":22572:22598   */\n      mload\n        /* \"#utility.yul\":22563:22598   */\n      swap1\n      pop\n        /* \"#utility.yul\":22535:22612   */\n    tag_439:\n        /* \"#utility.yul\":22638:22705   */\n      tag_440\n        /* \"#utility.yul\":22698:22704   */\n      dup6\n        /* \"#utility.yul\":22691:22696   */\n      dup3\n        /* \"#utility.yul\":22638:22705   */\n      tag_217\n      jump\t// in\n    tag_440:\n        /* \"#utility.yul\":22632:22636   */\n      dup7\n        /* \"#utility.yul\":22625:22706   */\n      sstore\n        /* \"#utility.yul\":22494:22716   */\n      pop\n        /* \"#utility.yul\":21829:22716   */\n      jump(tag_437)\n        /* \"#utility.yul\":21859:22477   */\n    tag_438:\n        /* \"#utility.yul\":21911:21915   */\n      0x1f\n        /* \"#utility.yul\":21907:21916   */\n      not\n        /* \"#utility.yul\":21899:21905   */\n      dup5\n        /* \"#utility.yul\":21895:21917   */\n      and\n        /* \"#utility.yul\":21945:21982   */\n      tag_441\n        /* \"#utility.yul\":21977:21981   */\n      dup7\n        /* \"#utility.yul\":21945:21982   */\n      tag_203\n      jump\t// in\n    tag_441:\n        /* \"#utility.yul\":22004:22005   */\n      0x00\n        /* \"#utility.yul\":22018:22226   */\n    tag_442:\n        /* \"#utility.yul\":22032:22039   */\n      dup3\n        /* \"#utility.yul\":22029:22030   */\n      dup2\n        /* \"#utility.yul\":22026:22040   */\n      lt\n        /* \"#utility.yul\":22018:22226   */\n      iszero\n      tag_444\n      jumpi\n        /* \"#utility.yul\":22111:22120   */\n      dup5\n        /* \"#utility.yul\":22106:22109   */\n      dup10\n        /* \"#utility.yul\":22102:22121   */\n      add\n        /* \"#utility.yul\":22096:22122   */\n      mload\n        /* \"#utility.yul\":22088:22094   */\n      dup3\n        /* \"#utility.yul\":22081:22123   */\n      sstore\n        /* \"#utility.yul\":22162:22163   */\n      0x01\n        /* \"#utility.yul\":22154:22160   */\n      dup3\n        /* \"#utility.yul\":22150:22164   */\n      add\n        /* \"#utility.yul\":22140:22164   */\n      swap2\n      pop\n        /* \"#utility.yul\":22209:22211   */\n      0x20\n        /* \"#utility.yul\":22198:22207   */\n      dup6\n        /* \"#utility.yul\":22194:22212   */\n      add\n        /* \"#utility.yul\":22181:22212   */\n      swap5\n      pop\n        /* \"#utility.yul\":22055:22059   */\n      0x20\n        /* \"#utility.yul\":22052:22053   */\n      dup2\n        /* \"#utility.yul\":22048:22060   */\n      add\n        /* \"#utility.yul\":22043:22060   */\n      swap1\n      pop\n        /* \"#utility.yul\":22018:22226   */\n      jump(tag_442)\n    tag_444:\n        /* \"#utility.yul\":22254:22260   */\n      dup7\n        /* \"#utility.yul\":22245:22252   */\n      dup4\n        /* \"#utility.yul\":22242:22261   */\n      lt\n        /* \"#utility.yul\":22239:22418   */\n      iszero\n      tag_445\n      jumpi\n        /* \"#utility.yul\":22312:22321   */\n      dup5\n        /* \"#utility.yul\":22307:22310   */\n      dup10\n        /* \"#utility.yul\":22303:22322   */\n      add\n        /* \"#utility.yul\":22297:22323   */\n      mload\n        /* \"#utility.yul\":22355:22403   */\n      tag_446\n        /* \"#utility.yul\":22397:22401   */\n      0x1f\n        /* \"#utility.yul\":22389:22395   */\n      dup10\n        /* \"#utility.yul\":22385:22402   */\n      and\n        /* \"#utility.yul\":22374:22383   */\n      dup3\n        /* \"#utility.yul\":22355:22403   */\n      tag_216\n      jump\t// in\n    tag_446:\n        /* \"#utility.yul\":22347:22353   */\n      dup4\n        /* \"#utility.yul\":22340:22404   */\n      sstore\n        /* \"#utility.yul\":22262:22418   */\n      pop\n        /* \"#utility.yul\":22239:22418   */\n    tag_445:\n        /* \"#utility.yul\":22464:22465   */\n      0x01\n        /* \"#utility.yul\":22460:22461   */\n      0x02\n        /* \"#utility.yul\":22452:22458   */\n      dup9\n        /* \"#utility.yul\":22448:22462   */\n      mul\n        /* \"#utility.yul\":22444:22466   */\n      add\n        /* \"#utility.yul\":22438:22442   */\n      dup9\n        /* \"#utility.yul\":22431:22467   */\n      sstore\n        /* \"#utility.yul\":21866:22477   */\n      pop\n      pop\n      pop\n        /* \"#utility.yul\":21829:22716   */\n    tag_437:\n      pop\n        /* \"#utility.yul\":21419:22722   */\n      pop\n      pop\n      pop\n        /* \"#utility.yul\":21327:22722   */\n      pop\n      pop\n      jump\t// out\n        /* \"#utility.yul\":22728:23574   */\n    tag_94:\n        /* \"#utility.yul\":22973:22977   */\n      0x00\n        /* \"#utility.yul\":23011:23014   */\n      0xa0\n        /* \"#utility.yul\":23000:23009   */\n      dup3\n        /* \"#utility.yul\":22996:23015   */\n      add\n        /* \"#utility.yul\":22988:23015   */\n      swap1\n      pop\n        /* \"#utility.yul\":23025:23096   */\n      tag_448\n        /* \"#utility.yul\":23093:23094   */\n      0x00\n        /* \"#utility.yul\":23082:23091   */\n      dup4\n        /* \"#utility.yul\":23078:23095   */\n      add\n        /* \"#utility.yul\":23069:23075   */\n      dup9\n        /* \"#utility.yul\":23025:23096   */\n      tag_188\n      jump\t// in\n    tag_448:\n        /* \"#utility.yul\":23143:23152   */\n      dup2\n        /* \"#utility.yul\":23137:23141   */\n      dup2\n        /* \"#utility.yul\":23133:23153   */\n      sub\n        /* \"#utility.yul\":23128:23130   */\n      0x20\n        /* \"#utility.yul\":23117:23126   */\n      dup4\n        /* \"#utility.yul\":23113:23131   */\n      add\n        /* \"#utility.yul\":23106:23154   */\n      mstore\n        /* \"#utility.yul\":23171:23249   */\n      tag_449\n        /* \"#utility.yul\":23244:23248   */\n      dup2\n        /* \"#utility.yul\":23235:23241   */\n      dup8\n        /* \"#utility.yul\":23171:23249   */\n      tag_185\n      jump\t// in\n    tag_449:\n        /* \"#utility.yul\":23163:23249   */\n      swap1\n      pop\n        /* \"#utility.yul\":23296:23305   */\n      dup2\n        /* \"#utility.yul\":23290:23294   */\n      dup2\n        /* \"#utility.yul\":23286:23306   */\n      sub\n        /* \"#utility.yul\":23281:23283   */\n      0x40\n        /* \"#utility.yul\":23270:23279   */\n      dup4\n        /* \"#utility.yul\":23266:23284   */\n      add\n        /* \"#utility.yul\":23259:23307   */\n      mstore\n        /* \"#utility.yul\":23324:23402   */\n      tag_450\n        /* \"#utility.yul\":23397:23401   */\n      dup2\n        /* \"#utility.yul\":23388:23394   */\n      dup7\n        /* \"#utility.yul\":23324:23402   */\n      tag_185\n      jump\t// in\n    tag_450:\n        /* \"#utility.yul\":23316:23402   */\n      swap1\n      pop\n        /* \"#utility.yul\":23412:23484   */\n      tag_451\n        /* \"#utility.yul\":23480:23482   */\n      0x60\n        /* \"#utility.yul\":23469:23478   */\n      dup4\n        /* \"#utility.yul\":23465:23483   */\n      add\n        /* \"#utility.yul\":23456:23462   */\n      dup6\n        /* \"#utility.yul\":23412:23484   */\n      tag_188\n      jump\t// in\n    tag_451:\n        /* \"#utility.yul\":23494:23567   */\n      tag_452\n        /* \"#utility.yul\":23562:23565   */\n      0x80\n        /* \"#utility.yul\":23551:23560   */\n      dup4\n        /* \"#utility.yul\":23547:23566   */\n      add\n        /* \"#utility.yul\":23538:23544   */\n      dup5\n        /* \"#utility.yul\":23494:23567   */\n      tag_188\n      jump\t// in\n    tag_452:\n        /* \"#utility.yul\":22728:23574   */\n      swap7\n      swap6\n      pop\n      pop\n      pop\n      pop\n      pop\n      pop\n      jump\t// out\n        /* \"#utility.yul\":23580:23800   */\n    tag_218:\n        /* \"#utility.yul\":23720:23754   */\n      0x416c7265616479207265676973746572656420617320612063616e6469646174\n        /* \"#utility.yul\":23716:23717   */\n      0x00\n        /* \"#utility.yul\":23708:23714   */\n      dup3\n        /* \"#utility.yul\":23704:23718   */\n      add\n        /* \"#utility.yul\":23697:23755   */\n      mstore\n        /* \"#utility.yul\":23789:23792   */\n      0x6500000000000000000000000000000000000000000000000000000000000000\n        /* \"#utility.yul\":23784:23786   */\n      0x20\n        /* \"#utility.yul\":23776:23782   */\n      dup3\n        /* \"#utility.yul\":23772:23787   */\n      add\n        /* \"#utility.yul\":23765:23793   */\n      mstore\n        /* \"#utility.yul\":23580:23800   */\n      pop\n      jump\t// out\n        /* \"#utility.yul\":23806:24172   */\n    tag_219:\n        /* \"#utility.yul\":23948:23951   */\n      0x00\n        /* \"#utility.yul\":23969:24036   */\n      tag_455\n        /* \"#utility.yul\":24033:24035   */\n      0x21\n        /* \"#utility.yul\":24028:24031   */\n      dup4\n        /* \"#utility.yul\":23969:24036   */\n      tag_183\n      jump\t// in\n    tag_455:\n        /* \"#utility.yul\":23962:24036   */\n      swap2\n      pop\n        /* \"#utility.yul\":24045:24138   */\n      tag_456\n        /* \"#utility.yul\":24134:24137   */\n      dup3\n        /* \"#utility.yul\":24045:24138   */\n      tag_218\n      jump\t// in\n    tag_456:\n        /* \"#utility.yul\":24163:24165   */\n      0x40\n        /* \"#utility.yul\":24158:24161   */\n      dup3\n        /* \"#utility.yul\":24154:24166   */\n      add\n        /* \"#utility.yul\":24147:24166   */\n      swap1\n      pop\n        /* \"#utility.yul\":23806:24172   */\n      swap2\n      swap1\n      pop\n      jump\t// out\n        /* \"#utility.yul\":24178:24597   */\n    tag_102:\n        /* \"#utility.yul\":24344:24348   */\n      0x00\n        /* \"#utility.yul\":24382:24384   */\n      0x20\n        /* \"#utility.yul\":24371:24380   */\n      dup3\n        /* \"#utility.yul\":24367:24385   */\n      add\n        /* \"#utility.yul\":24359:24385   */\n      swap1\n      pop\n        /* \"#utility.yul\":24431:24440   */\n      dup2\n        /* \"#utility.yul\":24425:24429   */\n      dup2\n        /* \"#utility.yul\":24421:24441   */\n      sub\n        /* \"#utility.yul\":24417:24418   */\n      0x00\n        /* \"#utility.yul\":24406:24415   */\n      dup4\n        /* \"#utility.yul\":24402:24419   */\n      add\n        /* \"#utility.yul\":24395:24442   */\n      mstore\n        /* \"#utility.yul\":24459:24590   */\n      tag_458\n        /* \"#utility.yul\":24585:24589   */\n      dup2\n        /* \"#utility.yul\":24459:24590   */\n      tag_219\n      jump\t// in\n    tag_458:\n        /* \"#utility.yul\":24451:24590   */\n      swap1\n      pop\n        /* \"#utility.yul\":24178:24597   */\n      swap2\n      swap1\n      pop\n      jump\t// out\n        /* \"#utility.yul\":24603:24781   */\n    tag_220:\n        /* \"#utility.yul\":24743:24773   */\n      0x43616e646964617465206e616d6520616c72656164792074616b656e00000000\n        /* \"#utility.yul\":24739:24740   */\n      0x00\n        /* \"#utility.yul\":24731:24737   */\n      dup3\n        /* \"#utility.yul\":24727:24741   */\n      add\n        /* \"#utility.yul\":24720:24774   */\n      mstore\n        /* \"#utility.yul\":24603:24781   */\n      pop\n      jump\t// out\n        /* \"#utility.yul\":24787:25153   */\n    tag_221:\n        /* \"#utility.yul\":24929:24932   */\n      0x00\n        /* \"#utility.yul\":24950:25017   */\n      tag_461\n        /* \"#utility.yul\":25014:25016   */\n      0x1c\n        /* \"#utility.yul\":25009:25012   */\n      dup4\n        /* \"#utility.yul\":24950:25017   */\n      tag_183\n      jump\t// in\n    tag_461:\n        /* \"#utility.yul\":24943:25017   */\n      swap2\n      pop\n        /* \"#utility.yul\":25026:25119   */\n      tag_462\n        /* \"#utility.yul\":25115:25118   */\n      dup3\n        /* \"#utility.yul\":25026:25119   */\n      tag_220\n      jump\t// in\n    tag_462:\n        /* \"#utility.yul\":25144:25146   */\n      0x20\n        /* \"#utility.yul\":25139:25142   */\n      dup3\n        /* \"#utility.yul\":25135:25147   */\n      add\n        /* \"#utility.yul\":25128:25147   */\n      swap1\n      pop\n        /* \"#utility.yul\":24787:25153   */\n      swap2\n      swap1\n      pop\n      jump\t// out\n        /* \"#utility.yul\":25159:25578   */\n    tag_107:\n        /* \"#utility.yul\":25325:25329   */\n      0x00\n        /* \"#utility.yul\":25363:25365   */\n      0x20\n        /* \"#utility.yul\":25352:25361   */\n      dup3\n        /* \"#utility.yul\":25348:25366   */\n      add\n        /* \"#utility.yul\":25340:25366   */\n      swap1\n      pop\n        /* \"#utility.yul\":25412:25421   */\n      dup2\n        /* \"#utility.yul\":25406:25410   */\n      dup2\n        /* \"#utility.yul\":25402:25422   */\n      sub\n        /* \"#utility.yul\":25398:25399   */\n      0x00\n        /* \"#utility.yul\":25387:25396   */\n      dup4\n        /* \"#utility.yul\":25383:25400   */\n      add\n        /* \"#utility.yul\":25376:25423   */\n      mstore\n        /* \"#utility.yul\":25440:25571   */\n      tag_464\n        /* \"#utility.yul\":25566:25570   */\n      dup2\n        /* \"#utility.yul\":25440:25571   */\n      tag_221\n      jump\t// in\n    tag_464:\n        /* \"#utility.yul\":25432:25571   */\n      swap1\n      pop\n        /* \"#utility.yul\":25159:25578   */\n      swap2\n      swap1\n      pop\n      jump\t// out\n        /* \"#utility.yul\":25584:26319   */\n    tag_112:\n        /* \"#utility.yul\":25801:25805   */\n      0x00\n        /* \"#utility.yul\":25839:25842   */\n      0x80\n        /* \"#utility.yul\":25828:25837   */\n      dup3\n        /* \"#utility.yul\":25824:25843   */\n      add\n        /* \"#utility.yul\":25816:25843   */\n      swap1\n      pop\n        /* \"#utility.yul\":25853:25924   */\n      tag_466\n        /* \"#utility.yul\":25921:25922   */\n      0x00\n        /* \"#utility.yul\":25910:25919   */\n      dup4\n        /* \"#utility.yul\":25906:25923   */\n      add\n        /* \"#utility.yul\":25897:25903   */\n      dup8\n        /* \"#utility.yul\":25853:25924   */\n      tag_188\n      jump\t// in\n    tag_466:\n        /* \"#utility.yul\":25934:26006   */\n      tag_467\n        /* \"#utility.yul\":26002:26004   */\n      0x20\n        /* \"#utility.yul\":25991:26000   */\n      dup4\n        /* \"#utility.yul\":25987:26005   */\n      add\n        /* \"#utility.yul\":25978:25984   */\n      dup7\n        /* \"#utility.yul\":25934:26006   */\n      tag_181\n      jump\t// in\n    tag_467:\n        /* \"#utility.yul\":26053:26062   */\n      dup2\n        /* \"#utility.yul\":26047:26051   */\n      dup2\n        /* \"#utility.yul\":26043:26063   */\n      sub\n        /* \"#utility.yul\":26038:26040   */\n      0x40\n        /* \"#utility.yul\":26027:26036   */\n      dup4\n        /* \"#utility.yul\":26023:26041   */\n      add\n        /* \"#utility.yul\":26016:26064   */\n      mstore\n        /* \"#utility.yul\":26081:26159   */\n      tag_468\n        /* \"#utility.yul\":26154:26158   */\n      dup2\n        /* \"#utility.yul\":26145:26151   */\n      dup6\n        /* \"#utility.yul\":26081:26159   */\n      tag_185\n      jump\t// in\n    tag_468:\n        /* \"#utility.yul\":26073:26159   */\n      swap1\n      pop\n        /* \"#utility.yul\":26206:26215   */\n      dup2\n        /* \"#utility.yul\":26200:26204   */\n      dup2\n        /* \"#utility.yul\":26196:26216   */\n      sub\n        /* \"#utility.yul\":26191:26193   */\n      0x60\n        /* \"#utility.yul\":26180:26189   */\n      dup4\n        /* \"#utility.yul\":26176:26194   */\n      add\n        /* \"#utility.yul\":26169:26217   */\n      mstore\n        /* \"#utility.yul\":26234:26312   */\n      tag_469\n        /* \"#utility.yul\":26307:26311   */\n      dup2\n        /* \"#utility.yul\":26298:26304   */\n      dup5\n        /* \"#utility.yul\":26234:26312   */\n      tag_185\n      jump\t// in\n    tag_469:\n        /* \"#utility.yul\":26226:26312   */\n      swap1\n      pop\n        /* \"#utility.yul\":25584:26319   */\n      swap6\n      swap5\n      pop\n      pop\n      pop\n      pop\n      pop\n      jump\t// out\n        /* \"#utility.yul\":26325:26657   */\n    tag_147:\n        /* \"#utility.yul\":26446:26450   */\n      0x00\n        /* \"#utility.yul\":26484:26486   */\n      0x40\n        /* \"#utility.yul\":26473:26482   */\n      dup3\n        /* \"#utility.yul\":26469:26487   */\n      add\n        /* \"#utility.yul\":26461:26487   */\n      swap1\n      pop\n        /* \"#utility.yul\":26497:26568   */\n      tag_471\n        /* \"#utility.yul\":26565:26566   */\n      0x00\n        /* \"#utility.yul\":26554:26563   */\n      dup4\n        /* \"#utility.yul\":26550:26567   */\n      add\n        /* \"#utility.yul\":26541:26547   */\n      dup6\n        /* \"#utility.yul\":26497:26568   */\n      tag_188\n      jump\t// in\n    tag_471:\n        /* \"#utility.yul\":26578:26650   */\n      tag_472\n        /* \"#utility.yul\":26646:26648   */\n      0x20\n        /* \"#utility.yul\":26635:26644   */\n      dup4\n        /* \"#utility.yul\":26631:26649   */\n      add\n        /* \"#utility.yul\":26622:26628   */\n      dup5\n        /* \"#utility.yul\":26578:26650   */\n      tag_181\n      jump\t// in\n    tag_472:\n        /* \"#utility.yul\":26325:26657   */\n      swap4\n      swap3\n      pop\n      pop\n      pop\n      jump\t// out\n        /* \"#utility.yul\":26663:26811   */\n    tag_222:\n        /* \"#utility.yul\":26765:26776   */\n      0x00\n        /* \"#utility.yul\":26802:26805   */\n      dup2\n        /* \"#utility.yul\":26787:26805   */\n      swap1\n      pop\n        /* \"#utility.yul\":26663:26811   */\n      swap3\n      swap2\n      pop\n      pop\n      jump\t// out\n        /* \"#utility.yul\":26817:27207   */\n    tag_223:\n        /* \"#utility.yul\":26923:26926   */\n      0x00\n        /* \"#utility.yul\":26951:26990   */\n      tag_475\n        /* \"#utility.yul\":26984:26989   */\n      dup3\n        /* \"#utility.yul\":26951:26990   */\n      tag_182\n      jump\t// in\n    tag_475:\n        /* \"#utility.yul\":27006:27095   */\n      tag_476\n        /* \"#utility.yul\":27088:27094   */\n      dup2\n        /* \"#utility.yul\":27083:27086   */\n      dup6\n        /* \"#utility.yul\":27006:27095   */\n      tag_222\n      jump\t// in\n    tag_476:\n        /* \"#utility.yul\":26999:27095   */\n      swap4\n      pop\n        /* \"#utility.yul\":27104:27169   */\n      tag_477\n        /* \"#utility.yul\":27162:27168   */\n      dup2\n        /* \"#utility.yul\":27157:27160   */\n      dup6\n        /* \"#utility.yul\":27150:27154   */\n      0x20\n        /* \"#utility.yul\":27143:27148   */\n      dup7\n        /* \"#utility.yul\":27139:27155   */\n      add\n        /* \"#utility.yul\":27104:27169   */\n      tag_184\n      jump\t// in\n    tag_477:\n        /* \"#utility.yul\":27194:27200   */\n      dup1\n        /* \"#utility.yul\":27189:27192   */\n      dup5\n        /* \"#utility.yul\":27185:27201   */\n      add\n        /* \"#utility.yul\":27178:27201   */\n      swap2\n      pop\n        /* \"#utility.yul\":26927:27207   */\n      pop\n        /* \"#utility.yul\":26817:27207   */\n      swap3\n      swap2\n      pop\n      pop\n      jump\t// out\n        /* \"#utility.yul\":27213:27488   */\n    tag_153:\n        /* \"#utility.yul\":27345:27348   */\n      0x00\n        /* \"#utility.yul\":27367:27462   */\n      tag_479\n        /* \"#utility.yul\":27458:27461   */\n      dup3\n        /* \"#utility.yul\":27449:27455   */\n      dup5\n        /* \"#utility.yul\":27367:27462   */\n      tag_223\n      jump\t// in\n    tag_479:\n        /* \"#utility.yul\":27360:27462   */\n      swap2\n      pop\n        /* \"#utility.yul\":27479:27482   */\n      dup2\n        /* \"#utility.yul\":27472:27482   */\n      swap1\n      pop\n        /* \"#utility.yul\":27213:27488   */\n      swap3\n      swap2\n      pop\n      pop\n      jump\t// out\n        /* \"#utility.yul\":27494:27674   */\n    tag_156:\n        /* \"#utility.yul\":27542:27619   */\n      0x4e487b7100000000000000000000000000000000000000000000000000000000\n        /* \"#utility.yul\":27539:27540   */\n      0x00\n        /* \"#utility.yul\":27532:27620   */\n      mstore\n        /* \"#utility.yul\":27639:27643   */\n      0x32\n        /* \"#utility.yul\":27636:27637   */\n      0x04\n        /* \"#utility.yul\":27629:27644   */\n      mstore\n        /* \"#utility.yul\":27663:27667   */\n      0x24\n        /* \"#utility.yul\":27660:27661   */\n      0x00\n        /* \"#utility.yul\":27653:27668   */\n      revert\n        /* \"#utility.yul\":27704:28578   */\n    tag_224:\n        /* \"#utility.yul\":27807:27810   */\n      0x00\n        /* \"#utility.yul\":27844:27849   */\n      dup2\n        /* \"#utility.yul\":27838:27850   */\n      sload\n        /* \"#utility.yul\":27873:27909   */\n      tag_482\n        /* \"#utility.yul\":27899:27908   */\n      dup2\n        /* \"#utility.yul\":27873:27909   */\n      tag_114\n      jump\t// in\n    tag_482:\n        /* \"#utility.yul\":27925:28014   */\n      tag_483\n        /* \"#utility.yul\":28007:28013   */\n      dup2\n        /* \"#utility.yul\":28002:28005   */\n      dup7\n        /* \"#utility.yul\":27925:28014   */\n      tag_222\n      jump\t// in\n    tag_483:\n        /* \"#utility.yul\":27918:28014   */\n      swap5\n      pop\n        /* \"#utility.yul\":28045:28046   */\n      0x01\n        /* \"#utility.yul\":28034:28043   */\n      dup3\n        /* \"#utility.yul\":28030:28047   */\n      and\n        /* \"#utility.yul\":28061:28062   */\n      0x00\n        /* \"#utility.yul\":28056:28222   */\n      dup2\n      eq\n      tag_485\n      jumpi\n        /* \"#utility.yul\":28236:28237   */\n      0x01\n        /* \"#utility.yul\":28231:28572   */\n      dup2\n      eq\n      tag_486\n      jumpi\n        /* \"#utility.yul\":28023:28572   */\n      jump(tag_484)\n        /* \"#utility.yul\":28056:28222   */\n    tag_485:\n        /* \"#utility.yul\":28140:28144   */\n      0xff\n        /* \"#utility.yul\":28136:28145   */\n      not\n        /* \"#utility.yul\":28125:28134   */\n      dup4\n        /* \"#utility.yul\":28121:28146   */\n      and\n        /* \"#utility.yul\":28116:28119   */\n      dup7\n        /* \"#utility.yul\":28109:28147   */\n      mstore\n        /* \"#utility.yul\":28202:28208   */\n      dup2\n        /* \"#utility.yul\":28195:28209   */\n      iszero\n        /* \"#utility.yul\":28188:28210   */\n      iszero\n        /* \"#utility.yul\":28180:28186   */\n      dup3\n        /* \"#utility.yul\":28176:28211   */\n      mul\n        /* \"#utility.yul\":28171:28174   */\n      dup7\n        /* \"#utility.yul\":28167:28212   */\n      add\n        /* \"#utility.yul\":28160:28212   */\n      swap4\n      pop\n        /* \"#utility.yul\":28056:28222   */\n      jump(tag_484)\n        /* \"#utility.yul\":28231:28572   */\n    tag_486:\n        /* \"#utility.yul\":28298:28336   */\n      tag_487\n        /* \"#utility.yul\":28330:28335   */\n      dup6\n        /* \"#utility.yul\":28298:28336   */\n      tag_203\n      jump\t// in\n    tag_487:\n        /* \"#utility.yul\":28358:28359   */\n      0x00\n        /* \"#utility.yul\":28372:28526   */\n    tag_488:\n        /* \"#utility.yul\":28386:28392   */\n      dup4\n        /* \"#utility.yul\":28383:28384   */\n      dup2\n        /* \"#utility.yul\":28380:28393   */\n      lt\n        /* \"#utility.yul\":28372:28526   */\n      iszero\n      tag_490\n      jumpi\n        /* \"#utility.yul\":28460:28467   */\n      dup2\n        /* \"#utility.yul\":28454:28468   */\n      sload\n        /* \"#utility.yul\":28450:28451   */\n      dup2\n        /* \"#utility.yul\":28445:28448   */\n      dup10\n        /* \"#utility.yul\":28441:28452   */\n      add\n        /* \"#utility.yul\":28434:28469   */\n      mstore\n        /* \"#utility.yul\":28510:28511   */\n      0x01\n        /* \"#utility.yul\":28501:28508   */\n      dup3\n        /* \"#utility.yul\":28497:28512   */\n      add\n        /* \"#utility.yul\":28486:28512   */\n      swap2\n      pop\n        /* \"#utility.yul\":28408:28412   */\n      0x20\n        /* \"#utility.yul\":28405:28406   */\n      dup2\n        /* \"#utility.yul\":28401:28413   */\n      add\n        /* \"#utility.yul\":28396:28413   */\n      swap1\n      pop\n        /* \"#utility.yul\":28372:28526   */\n      jump(tag_488)\n    tag_490:\n        /* \"#utility.yul\":28555:28561   */\n      dup4\n        /* \"#utility.yul\":28550:28553   */\n      dup9\n        /* \"#utility.yul\":28546:28562   */\n      add\n        /* \"#utility.yul\":28539:28562   */\n      swap6\n      pop\n        /* \"#utility.yul\":28238:28572   */\n      pop\n      pop\n        /* \"#utility.yul\":28023:28572   */\n    tag_484:\n      pop\n        /* \"#utility.yul\":27811:28578   */\n      pop\n      pop\n        /* \"#utility.yul\":27704:28578   */\n      swap3\n      swap2\n      pop\n      pop\n      jump\t// out\n        /* \"#utility.yul\":28584:28853   */\n    tag_159:\n        /* \"#utility.yul\":28713:28716   */\n      0x00\n        /* \"#utility.yul\":28735:28827   */\n      tag_492\n        /* \"#utility.yul\":28823:28826   */\n      dup3\n        /* \"#utility.yul\":28814:28820   */\n      dup5\n        /* \"#utility.yul\":28735:28827   */\n      tag_224\n      jump\t// in\n    tag_492:\n        /* \"#utility.yul\":28728:28827   */\n      swap2\n      pop\n        /* \"#utility.yul\":28844:28847   */\n      dup2\n        /* \"#utility.yul\":28837:28847   */\n      swap1\n      pop\n        /* \"#utility.yul\":28584:28853   */\n      swap3\n      swap2\n      pop\n      pop\n      jump\t// out\n\n    auxdata: 0xa2646970667358221220c33fa9bacae2d5f3c1774bf200bd141e191962f631530dbf7e8783d5c1fa138264736f6c634300081a0033\n}\n",
				"bytecode": {
					"linkReferences": {},
					"object": "6080604052348015600e575f80fd5b50335f806101000a81548173ffffffffffffffffffffffffffffffffffffffff021916908373ffffffffffffffffffffffffffffffffffffffff1602179055506120548061005b5f395ff3fe608060405234801561000f575f80fd5b506004361061009c575f3560e01c80638da5cb5b116100645780638da5cb5b146101585780639207891d1461017657806393264baa14610194578063ac2f0074146101c4578063f43b8778146101fb5761009c565b806302d947ef146100a057806306aceddc146100bc578063291d9569146100d85780634ea05fe0146100f45780635c1e7bec14610128575b5f80fd5b6100ba60048036038101906100b59190611238565b610217565b005b6100d660048036038101906100d191906113b2565b610632565b005b6100f260048036038101906100ed919061144e565b6107c6565b005b61010e60048036038101906101099190611238565b610b15565b60405161011f95949392919061156e565b60405180910390f35b610142600480360381019061013d91906115cd565b610c89565b60405161014f91906115f8565b60405180910390f35b610160610ca6565b60405161016d9190611611565b60405180910390f35b61017e610cc9565b60405161018b919061162a565b60405180910390f35b6101ae60048036038101906101a99190611643565b610ccf565b6040516101bb9190611611565b60405180910390f35b6101de60048036038101906101d99190611681565b610d17565b6040516101f29897969594939291906116ac565b60405180910390f35b61021560048036038101906102109190611681565b610e92565b005b815f8111801561022957506001548111155b610268576040517f08c379a000000000000000000000000000000000000000000000000000000000815260040161025f90611780565b60405180910390fd5b5f60025f8581526020019081526020015f209050806002015f9054906101000a900460ff166102cc576040517f08c379a00000000000000000000000000000000000000000000000000000000081526004016102c3906117e8565b60405180910390fd5b806005015f3373ffffffffffffffffffffffffffffffffffffffff1673ffffffffffffffffffffffffffffffffffffffff1681526020019081526020015f205f9054906101000a900460ff1615610358576040517f08c379a000000000000000000000000000000000000000000000000000000000815260040161034f90611850565b60405180910390fd5b60045f8581526020019081526020015f205f8473ffffffffffffffffffffffffffffffffffffffff1673ffffffffffffffffffffffffffffffffffffffff1681526020019081526020015f206003015f9054906101000a900460ff166103f3576040517f08c379a00000000000000000000000000000000000000000000000000000000081526004016103ea906118b8565b60405180910390fd5b6001816005015f3373ffffffffffffffffffffffffffffffffffffffff1673ffffffffffffffffffffffffffffffffffffffff1681526020019081526020015f205f6101000a81548160ff021916908315150217905550806006015f8473ffffffffffffffffffffffffffffffffffffffff1673ffffffffffffffffffffffffffffffffffffffff1681526020019081526020015f205f81548092919061049990611903565b9190505550806007015f8154809291906104b290611903565b919050555060045f8581526020019081526020015f205f8473ffffffffffffffffffffffffffffffffffffffff1673ffffffffffffffffffffffffffffffffffffffff1681526020019081526020015f206004015f81548092919061051690611903565b91905055508060080154816006015f8573ffffffffffffffffffffffffffffffffffffffff1673ffffffffffffffffffffffffffffffffffffffff1681526020019081526020015f205411156105f157806006015f8473ffffffffffffffffffffffffffffffffffffffff1673ffffffffffffffffffffffffffffffffffffffff1681526020019081526020015f2054816008018190555082816009015f6101000a81548173ffffffffffffffffffffffffffffffffffffffff021916908373ffffffffffffffffffffffffffffffffffffffff1602179055505b7f6bb852dd4b5b42efdae2712671afd5e0543546344271c4eaae3cff04329090648433856040516106249392919061194a565b60405180910390a150505050565b5f8054906101000a900473ffffffffffffffffffffffffffffffffffffffff1673ffffffffffffffffffffffffffffffffffffffff163373ffffffffffffffffffffffffffffffffffffffff16146106bf576040517f08c379a00000000000000000000000000000000000000000000000000000000081526004016106b6906119ef565b60405180910390fd5b808210610701576040517f08c379a00000000000000000000000000000000000000000000000000000000081526004016106f890611a57565b60405180910390fd5b60015f81548092919061071390611903565b91905055505f60025f60015481526020019081526020015f20905084815f01908161073e9190611c6f565b50838160010190816107509190611c6f565b505f816002015f6101000a81548160ff0219169083151502179055508281600301819055508181600401819055507fbdfea2c5fde3fa58c80eb0c5469e2934e50a8d40751384d5001668c4bcea5acb600154868686866040516107b7959493929190611d3e565b60405180910390a15050505050565b825f811180156107d857506001548111155b610817576040517f08c379a000000000000000000000000000000000000000000000000000000000815260040161080e90611780565b60405180910390fd5b5f73ffffffffffffffffffffffffffffffffffffffff1660045f8681526020019081526020015f205f3373ffffffffffffffffffffffffffffffffffffffff1673ffffffffffffffffffffffffffffffffffffffff1681526020019081526020015f205f015f9054906101000a900473ffffffffffffffffffffffffffffffffffffffff1673ffffffffffffffffffffffffffffffffffffffff16146108f2576040517f08c379a00000000000000000000000000000000000000000000000000000000081526004016108e990611e0d565b60405180910390fd5b6108fc848461106b565b1561093c576040517f08c379a000000000000000000000000000000000000000000000000000000000815260040161093390611e75565b60405180910390fd5b6040518060a001604052803373ffffffffffffffffffffffffffffffffffffffff1681526020018481526020018381526020015f151581526020015f81525060045f8681526020019081526020015f205f3373ffffffffffffffffffffffffffffffffffffffff1673ffffffffffffffffffffffffffffffffffffffff1681526020019081526020015f205f820151815f015f6101000a81548173ffffffffffffffffffffffffffffffffffffffff021916908373ffffffffffffffffffffffffffffffffffffffff1602179055506020820151816001019081610a209190611c6f565b506040820151816002019081610a369190611c6f565b506060820151816003015f6101000a81548160ff0219169083151502179055506080820151816004015590505060055f8581526020019081526020015f2033908060018154018082558091505060019003905f5260205f20015f9091909190916101000a81548173ffffffffffffffffffffffffffffffffffffffff021916908373ffffffffffffffffffffffffffffffffffffffff1602179055507fb9bf1e4934119a96dc7e3cd24118c4c07625b5606309b9c26c82573197abfaa284338585604051610b079493929190611e93565b60405180910390a150505050565b6004602052815f5260405f20602052805f5260405f205f9150915050805f015f9054906101000a900473ffffffffffffffffffffffffffffffffffffffff1690806001018054610b6490611aa2565b80601f0160208091040260200160405190810160405280929190818152602001828054610b9090611aa2565b8015610bdb5780601f10610bb257610100808354040283529160200191610bdb565b820191905f5260205f20905b815481529060010190602001808311610bbe57829003601f168201915b505050505090806002018054610bf090611aa2565b80601f0160208091040260200160405190810160405280929190818152602001828054610c1c90611aa2565b8015610c675780601f10610c3e57610100808354040283529160200191610c67565b820191905f5260205f20905b815481529060010190602001808311610c4a57829003601f168201915b505050505090806003015f9054906101000a900460ff16908060040154905085565b6003602052805f5260405f205f915054906101000a900460ff1681565b5f8054906101000a900473ffffffffffffffffffffffffffffffffffffffff1681565b60015481565b6005602052815f5260405f208181548110610ce8575f80fd5b905f5260205f20015f915091509054906101000a900473ffffffffffffffffffffffffffffffffffffffff1681565b6002602052805f5260405f205f91509050805f018054610d3690611aa2565b80601f0160208091040260200160405190810160405280929190818152602001828054610d6290611aa2565b8015610dad5780601f10610d8457610100808354040283529160200191610dad565b820191905f5260205f20905b815481529060010190602001808311610d9057829003601f168201915b505050505090806001018054610dc290611aa2565b80601f0160208091040260200160405190810160405280929190818152602001828054610dee90611aa2565b8015610e395780601f10610e1057610100808354040283529160200191610e39565b820191905f5260205f20905b815481529060010190602001808311610e1c57829003601f168201915b505050505090806002015f9054906101000a900460ff1690806003015490806004015490806007015490806008015490806009015f9054906101000a900473ffffffffffffffffffffffffffffffffffffffff16905088565b5f8054906101000a900473ffffffffffffffffffffffffffffffffffffffff1673ffffffffffffffffffffffffffffffffffffffff163373ffffffffffffffffffffffffffffffffffffffff1614610f1f576040517f08c379a0000000000000000000000000000000000000000000000000000000008152600401610f16906119ef565b60405180910390fd5b805f81118015610f3157506001548111155b610f70576040517f08c379a0000000000000000000000000000000000000000000000000000000008152600401610f6790611780565b60405180910390fd5b60025f8381526020019081526020015f206002015f9054906101000a900460ff16610fd0576040517f08c379a0000000000000000000000000000000000000000000000000000000008152600401610fc7906117e8565b60405180910390fd5b5f60025f8481526020019081526020015f206002015f6101000a81548160ff0219169083151502179055507fce994ead15e72a77a86ddf3b0184783c61c9af7e3aae02d7c0bdf3b4268fa1888260025f8581526020019081526020015f206009015f9054906101000a900473ffffffffffffffffffffffffffffffffffffffff1660405161105f929190611ee4565b60405180910390a15050565b5f805f90505b60055f8581526020019081526020015f208054905081101561118f578260405160200161109e9190611f45565b6040516020818303038152906040528051906020012060045f8681526020019081526020015f205f60055f8881526020019081526020015f2084815481106110e9576110e8611f5b565b5b905f5260205f20015f9054906101000a900473ffffffffffffffffffffffffffffffffffffffff1673ffffffffffffffffffffffffffffffffffffffff1673ffffffffffffffffffffffffffffffffffffffff1681526020019081526020015f2060010160405160200161115d9190612008565b6040516020818303038152906040528051906020012003611182576001915050611194565b8080600101915050611071565b505f90505b92915050565b5f604051905090565b5f80fd5b5f80fd5b5f819050919050565b6111bd816111ab565b81146111c7575f80fd5b50565b5f813590506111d8816111b4565b92915050565b5f73ffffffffffffffffffffffffffffffffffffffff82169050919050565b5f611207826111de565b9050919050565b611217816111fd565b8114611221575f80fd5b50565b5f813590506112328161120e565b92915050565b5f806040838503121561124e5761124d6111a3565b5b5f61125b858286016111ca565b925050602061126c85828601611224565b9150509250929050565b5f80fd5b5f80fd5b5f601f19601f8301169050919050565b7f4e487b71000000000000000000000000000000000000000000000000000000005f52604160045260245ffd5b6112c48261127e565b810181811067ffffffffffffffff821117156112e3576112e261128e565b5b80604052505050565b5f6112f561119a565b905061130182826112bb565b919050565b5f67ffffffffffffffff8211156113205761131f61128e565b5b6113298261127e565b9050602081019050919050565b828183375f83830152505050565b5f61135661135184611306565b6112ec565b9050828152602081018484840111156113725761137161127a565b5b61137d848285611336565b509392505050565b5f82601f83011261139957611398611276565b5b81356113a9848260208601611344565b91505092915050565b5f805f80608085870312156113ca576113c96111a3565b5b5f85013567ffffffffffffffff8111156113e7576113e66111a7565b5b6113f387828801611385565b945050602085013567ffffffffffffffff811115611414576114136111a7565b5b61142087828801611385565b9350506040611431878288016111ca565b9250506060611442878288016111ca565b91505092959194509250565b5f805f60608486031215611465576114646111a3565b5b5f611472868287016111ca565b935050602084013567ffffffffffffffff811115611493576114926111a7565b5b61149f86828701611385565b925050604084013567ffffffffffffffff8111156114c0576114bf6111a7565b5b6114cc86828701611385565b9150509250925092565b6114df816111fd565b82525050565b5f81519050919050565b5f82825260208201905092915050565b8281835e5f83830152505050565b5f611517826114e5565b61152181856114ef565b93506115318185602086016114ff565b61153a8161127e565b840191505092915050565b5f8115159050919050565b61155981611545565b82525050565b611568816111ab565b82525050565b5f60a0820190506115815f8301886114d6565b8181036020830152611593818761150d565b905081810360408301526115a7818661150d565b90506115b66060830185611550565b6115c3608083018461155f565b9695505050505050565b5f602082840312156115e2576115e16111a3565b5b5f6115ef84828501611224565b91505092915050565b5f60208201905061160b5f830184611550565b92915050565b5f6020820190506116245f8301846114d6565b92915050565b5f60208201905061163d5f83018461155f565b92915050565b5f8060408385031215611659576116586111a3565b5b5f611666858286016111ca565b9250506020611677858286016111ca565b9150509250929050565b5f60208284031215611696576116956111a3565b5b5f6116a3848285016111ca565b91505092915050565b5f610100820190508181035f8301526116c5818b61150d565b905081810360208301526116d9818a61150d565b90506116e86040830189611550565b6116f5606083018861155f565b611702608083018761155f565b61170f60a083018661155f565b61171c60c083018561155f565b61172960e08301846114d6565b9998505050505050505050565b7f506f6c6c20646f6573206e6f74206578697374000000000000000000000000005f82015250565b5f61176a6013836114ef565b915061177582611736565b602082019050919050565b5f6020820190508181035f8301526117978161175e565b9050919050565b7f506f6c6c206973206e6f742061637469766500000000000000000000000000005f82015250565b5f6117d26012836114ef565b91506117dd8261179e565b602082019050919050565b5f6020820190508181035f8301526117ff816117c6565b9050919050565b7f416c726561647920766f746564000000000000000000000000000000000000005f82015250565b5f61183a600d836114ef565b915061184582611806565b602082019050919050565b5f6020820190508181035f8301526118678161182e565b9050919050565b7f43616e646964617465206e6f7420617070726f766564000000000000000000005f82015250565b5f6118a26016836114ef565b91506118ad8261186e565b602082019050919050565b5f6020820190508181035f8301526118cf81611896565b9050919050565b7f4e487b71000000000000000000000000000000000000000000000000000000005f52601160045260245ffd5b5f61190d826111ab565b91507fffffffffffffffffffffffffffffffffffffffffffffffffffffffffffffffff820361193f5761193e6118d6565b5b600182019050919050565b5f60608201905061195d5f83018661155f565b61196a60208301856114d6565b61197760408301846114d6565b949350505050565b7f4f6e6c7920746865206f776e65722063616e20706572666f726d2074686973205f8201527f616374696f6e0000000000000000000000000000000000000000000000000000602082015250565b5f6119d96026836114ef565b91506119e48261197f565b604082019050919050565b5f6020820190508181035f830152611a06816119cd565b9050919050565b7f496e76616c696420706f6c6c206475726174696f6e00000000000000000000005f82015250565b5f611a416015836114ef565b9150611a4c82611a0d565b602082019050919050565b5f6020820190508181035f830152611a6e81611a35565b9050919050565b7f4e487b71000000000000000000000000000000000000000000000000000000005f52602260045260245ffd5b5f6002820490506001821680611ab957607f821691505b602082108103611acc57611acb611a75565b5b50919050565b5f819050815f5260205f209050919050565b5f6020601f8301049050919050565b5f82821b905092915050565b5f60088302611b2e7fffffffffffffffffffffffffffffffffffffffffffffffffffffffffffffffff82611af3565b611b388683611af3565b95508019841693508086168417925050509392505050565b5f819050919050565b5f611b73611b6e611b69846111ab565b611b50565b6111ab565b9050919050565b5f819050919050565b611b8c83611b59565b611ba0611b9882611b7a565b848454611aff565b825550505050565b5f90565b611bb4611ba8565b611bbf818484611b83565b505050565b5b81811015611be257611bd75f82611bac565b600181019050611bc5565b5050565b601f821115611c2757611bf881611ad2565b611c0184611ae4565b81016020851015611c10578190505b611c24611c1c85611ae4565b830182611bc4565b50505b505050565b5f82821c905092915050565b5f611c475f1984600802611c2c565b1980831691505092915050565b5f611c5f8383611c38565b9150826002028217905092915050565b611c78826114e5565b67ffffffffffffffff811115611c9157611c9061128e565b5b611c9b8254611aa2565b611ca6828285611be6565b5f60209050601f831160018114611cd7575f8415611cc5578287015190505b611ccf8582611c54565b865550611d36565b601f198416611ce586611ad2565b5f5b82811015611d0c57848901518255600182019150602085019450602081019050611ce7565b86831015611d295784890151611d25601f891682611c38565b8355505b6001600288020188555050505b505050505050565b5f60a082019050611d515f83018861155f565b8181036020830152611d63818761150d565b90508181036040830152611d77818661150d565b9050611d86606083018561155f565b611d93608083018461155f565b9695505050505050565b7f416c7265616479207265676973746572656420617320612063616e64696461745f8201527f6500000000000000000000000000000000000000000000000000000000000000602082015250565b5f611df76021836114ef565b9150611e0282611d9d565b604082019050919050565b5f6020820190508181035f830152611e2481611deb565b9050919050565b7f43616e646964617465206e616d6520616c72656164792074616b656e000000005f82015250565b5f611e5f601c836114ef565b9150611e6a82611e2b565b602082019050919050565b5f6020820190508181035f830152611e8c81611e53565b9050919050565b5f608082019050611ea65f83018761155f565b611eb360208301866114d6565b8181036040830152611ec5818561150d565b90508181036060830152611ed9818461150d565b905095945050505050565b5f604082019050611ef75f83018561155f565b611f0460208301846114d6565b9392505050565b5f81905092915050565b5f611f1f826114e5565b611f298185611f0b565b9350611f398185602086016114ff565b80840191505092915050565b5f611f508284611f15565b915081905092915050565b7f4e487b71000000000000000000000000000000000000000000000000000000005f52603260045260245ffd5b5f8154611f9481611aa2565b611f9e8186611f0b565b9450600182165f8114611fb85760018114611fcd57611fff565b60ff1983168652811515820286019350611fff565b611fd685611ad2565b5f5b83811015611ff757815481890152600182019150602081019050611fd8565b838801955050505b50505092915050565b5f6120138284611f88565b91508190509291505056fea2646970667358221220c33fa9bacae2d5f3c1774bf200bd141e191962f631530dbf7e8783d5c1fa138264736f6c634300081a0033",
					"opcodes": "PUSH1 0x80 PUSH1 0x40 MSTORE CALLVALUE DUP1 ISZERO PUSH1 0xE JUMPI PUSH0 DUP1 REVERT JUMPDEST POP CALLER PUSH0 DUP1 PUSH2 0x100 EXP DUP2 SLOAD DUP2 PUSH20 0xFFFFFFFFFFFFFFFFFFFFFFFFFFFFFFFFFFFFFFFF MUL NOT AND SWAP1 DUP4 PUSH20 0xFFFFFFFFFFFFFFFFFFFFFFFFFFFFFFFFFFFFFFFF AND MUL OR SWAP1 SSTORE POP PUSH2 0x2054 DUP1 PUSH2 0x5B PUSH0 CODECOPY PUSH0 RETURN INVALID PUSH1 0x80 PUSH1 0x40 MSTORE CALLVALUE DUP1 ISZERO PUSH2 0xF JUMPI PUSH0 DUP1 REVERT JUMPDEST POP PUSH1 0x4 CALLDATASIZE LT PUSH2 0x9C JUMPI PUSH0 CALLDATALOAD PUSH1 0xE0 SHR DUP1 PUSH4 0x8DA5CB5B GT PUSH2 0x64 JUMPI DUP1 PUSH4 0x8DA5CB5B EQ PUSH2 0x158 JUMPI DUP1 PUSH4 0x9207891D EQ PUSH2 0x176 JUMPI DUP1 PUSH4 0x93264BAA EQ PUSH2 0x194 JUMPI DUP1 PUSH4 0xAC2F0074 EQ PUSH2 0x1C4 JUMPI DUP1 PUSH4 0xF43B8778 EQ PUSH2 0x1FB JUMPI PUSH2 0x9C JUMP JUMPDEST DUP1 PUSH4 0x2D947EF EQ PUSH2 0xA0 JUMPI DUP1 PUSH4 0x6ACEDDC EQ PUSH2 0xBC JUMPI DUP1 PUSH4 0x291D9569 EQ PUSH2 0xD8 JUMPI DUP1 PUSH4 0x4EA05FE0 EQ PUSH2 0xF4 JUMPI DUP1 PUSH4 0x5C1E7BEC EQ PUSH2 0x128 JUMPI JUMPDEST PUSH0 DUP1 REVERT JUMPDEST PUSH2 0xBA PUSH1 0x4 DUP1 CALLDATASIZE SUB DUP2 ADD SWAP1 PUSH2 0xB5 SWAP2 SWAP1 PUSH2 0x1238 JUMP JUMPDEST PUSH2 0x217 JUMP JUMPDEST STOP JUMPDEST PUSH2 0xD6 PUSH1 0x4 DUP1 CALLDATASIZE SUB DUP2 ADD SWAP1 PUSH2 0xD1 SWAP2 SWAP1 PUSH2 0x13B2 JUMP JUMPDEST PUSH2 0x632 JUMP JUMPDEST STOP JUMPDEST PUSH2 0xF2 PUSH1 0x4 DUP1 CALLDATASIZE SUB DUP2 ADD SWAP1 PUSH2 0xED SWAP2 SWAP1 PUSH2 0x144E JUMP JUMPDEST PUSH2 0x7C6 JUMP JUMPDEST STOP JUMPDEST PUSH2 0x10E PUSH1 0x4 DUP1 CALLDATASIZE SUB DUP2 ADD SWAP1 PUSH2 0x109 SWAP2 SWAP1 PUSH2 0x1238 JUMP JUMPDEST PUSH2 0xB15 JUMP JUMPDEST PUSH1 0x40 MLOAD PUSH2 0x11F SWAP6 SWAP5 SWAP4 SWAP3 SWAP2 SWAP1 PUSH2 0x156E JUMP JUMPDEST PUSH1 0x40 MLOAD DUP1 SWAP2 SUB SWAP1 RETURN JUMPDEST PUSH2 0x142 PUSH1 0x4 DUP1 CALLDATASIZE SUB DUP2 ADD SWAP1 PUSH2 0x13D SWAP2 SWAP1 PUSH2 0x15CD JUMP JUMPDEST PUSH2 0xC89 JUMP JUMPDEST PUSH1 0x40 MLOAD PUSH2 0x14F SWAP2 SWAP1 PUSH2 0x15F8 JUMP JUMPDEST PUSH1 0x40 MLOAD DUP1 SWAP2 SUB SWAP1 RETURN JUMPDEST PUSH2 0x160 PUSH2 0xCA6 JUMP JUMPDEST PUSH1 0x40 MLOAD PUSH2 0x16D SWAP2 SWAP1 PUSH2 0x1611 JUMP JUMPDEST PUSH1 0x40 MLOAD DUP1 SWAP2 SUB SWAP1 RETURN JUMPDEST PUSH2 0x17E PUSH2 0xCC9 JUMP JUMPDEST PUSH1 0x40 MLOAD PUSH2 0x18B SWAP2 SWAP1 PUSH2 0x162A JUMP JUMPDEST PUSH1 0x40 MLOAD DUP1 SWAP2 SUB SWAP1 RETURN JUMPDEST PUSH2 0x1AE PUSH1 0x4 DUP1 CALLDATASIZE SUB DUP2 ADD SWAP1 PUSH2 0x1A9 SWAP2 SWAP1 PUSH2 0x1643 JUMP JUMPDEST PUSH2 0xCCF JUMP JUMPDEST PUSH1 0x40 MLOAD PUSH2 0x1BB SWAP2 SWAP1 PUSH2 0x1611 JUMP JUMPDEST PUSH1 0x40 MLOAD DUP1 SWAP2 SUB SWAP1 RETURN JUMPDEST PUSH2 0x1DE PUSH1 0x4 DUP1 CALLDATASIZE SUB DUP2 ADD SWAP1 PUSH2 0x1D9 SWAP2 SWAP1 PUSH2 0x1681 JUMP JUMPDEST PUSH2 0xD17 JUMP JUMPDEST PUSH1 0x40 MLOAD PUSH2 0x1F2 SWAP9 SWAP8 SWAP7 SWAP6 SWAP5 SWAP4 SWAP3 SWAP2 SWAP1 PUSH2 0x16AC JUMP JUMPDEST PUSH1 0x40 MLOAD DUP1 SWAP2 SUB SWAP1 RETURN JUMPDEST PUSH2 0x215 PUSH1 0x4 DUP1 CALLDATASIZE SUB DUP2 ADD SWAP1 PUSH2 0x210 SWAP2 SWAP1 PUSH2 0x1681 JUMP JUMPDEST PUSH2 0xE92 JUMP JUMPDEST STOP JUMPDEST DUP2 PUSH0 DUP2 GT DUP1 ISZERO PUSH2 0x229 JUMPI POP PUSH1 0x1 SLOAD DUP2 GT ISZERO JUMPDEST PUSH2 0x268 JUMPI PUSH1 0x40 MLOAD PUSH32 0x8C379A000000000000000000000000000000000000000000000000000000000 DUP2 MSTORE PUSH1 0x4 ADD PUSH2 0x25F SWAP1 PUSH2 0x1780 JUMP JUMPDEST PUSH1 0x40 MLOAD DUP1 SWAP2 SUB SWAP1 REVERT JUMPDEST PUSH0 PUSH1 0x2 PUSH0 DUP6 DUP2 MSTORE PUSH1 0x20 ADD SWAP1 DUP2 MSTORE PUSH1 0x20 ADD PUSH0 KECCAK256 SWAP1 POP DUP1 PUSH1 0x2 ADD PUSH0 SWAP1 SLOAD SWAP1 PUSH2 0x100 EXP SWAP1 DIV PUSH1 0xFF AND PUSH2 0x2CC JUMPI PUSH1 0x40 MLOAD PUSH32 0x8C379A000000000000000000000000000000000000000000000000000000000 DUP2 MSTORE PUSH1 0x4 ADD PUSH2 0x2C3 SWAP1 PUSH2 0x17E8 JUMP JUMPDEST PUSH1 0x40 MLOAD DUP1 SWAP2 SUB SWAP1 REVERT JUMPDEST DUP1 PUSH1 0x5 ADD PUSH0 CALLER PUSH20 0xFFFFFFFFFFFFFFFFFFFFFFFFFFFFFFFFFFFFFFFF AND PUSH20 0xFFFFFFFFFFFFFFFFFFFFFFFFFFFFFFFFFFFFFFFF AND DUP2 MSTORE PUSH1 0x20 ADD SWAP1 DUP2 MSTORE PUSH1 0x20 ADD PUSH0 KECCAK256 PUSH0 SWAP1 SLOAD SWAP1 PUSH2 0x100 EXP SWAP1 DIV PUSH1 0xFF AND ISZERO PUSH2 0x358 JUMPI PUSH1 0x40 MLOAD PUSH32 0x8C379A000000000000000000000000000000000000000000000000000000000 DUP2 MSTORE PUSH1 0x4 ADD PUSH2 0x34F SWAP1 PUSH2 0x1850 JUMP JUMPDEST PUSH1 0x40 MLOAD DUP1 SWAP2 SUB SWAP1 REVERT JUMPDEST PUSH1 0x4 PUSH0 DUP6 DUP2 MSTORE PUSH1 0x20 ADD SWAP1 DUP2 MSTORE PUSH1 0x20 ADD PUSH0 KECCAK256 PUSH0 DUP5 PUSH20 0xFFFFFFFFFFFFFFFFFFFFFFFFFFFFFFFFFFFFFFFF AND PUSH20 0xFFFFFFFFFFFFFFFFFFFFFFFFFFFFFFFFFFFFFFFF AND DUP2 MSTORE PUSH1 0x20 ADD SWAP1 DUP2 MSTORE PUSH1 0x20 ADD PUSH0 KECCAK256 PUSH1 0x3 ADD PUSH0 SWAP1 SLOAD SWAP1 PUSH2 0x100 EXP SWAP1 DIV PUSH1 0xFF AND PUSH2 0x3F3 JUMPI PUSH1 0x40 MLOAD PUSH32 0x8C379A000000000000000000000000000000000000000000000000000000000 DUP2 MSTORE PUSH1 0x4 ADD PUSH2 0x3EA SWAP1 PUSH2 0x18B8 JUMP JUMPDEST PUSH1 0x40 MLOAD DUP1 SWAP2 SUB SWAP1 REVERT JUMPDEST PUSH1 0x1 DUP2 PUSH1 0x5 ADD PUSH0 CALLER PUSH20 0xFFFFFFFFFFFFFFFFFFFFFFFFFFFFFFFFFFFFFFFF AND PUSH20 0xFFFFFFFFFFFFFFFFFFFFFFFFFFFFFFFFFFFFFFFF AND DUP2 MSTORE PUSH1 0x20 ADD SWAP1 DUP2 MSTORE PUSH1 0x20 ADD PUSH0 KECCAK256 PUSH0 PUSH2 0x100 EXP DUP2 SLOAD DUP2 PUSH1 0xFF MUL NOT AND SWAP1 DUP4 ISZERO ISZERO MUL OR SWAP1 SSTORE POP DUP1 PUSH1 0x6 ADD PUSH0 DUP5 PUSH20 0xFFFFFFFFFFFFFFFFFFFFFFFFFFFFFFFFFFFFFFFF AND PUSH20 0xFFFFFFFFFFFFFFFFFFFFFFFFFFFFFFFFFFFFFFFF AND DUP2 MSTORE PUSH1 0x20 ADD SWAP1 DUP2 MSTORE PUSH1 0x20 ADD PUSH0 KECCAK256 PUSH0 DUP2 SLOAD DUP1 SWAP3 SWAP2 SWAP1 PUSH2 0x499 SWAP1 PUSH2 0x1903 JUMP JUMPDEST SWAP2 SWAP1 POP SSTORE POP DUP1 PUSH1 0x7 ADD PUSH0 DUP2 SLOAD DUP1 SWAP3 SWAP2 SWAP1 PUSH2 0x4B2 SWAP1 PUSH2 0x1903 JUMP JUMPDEST SWAP2 SWAP1 POP SSTORE POP PUSH1 0x4 PUSH0 DUP6 DUP2 MSTORE PUSH1 0x20 ADD SWAP1 DUP2 MSTORE PUSH1 0x20 ADD PUSH0 KECCAK256 PUSH0 DUP5 PUSH20 0xFFFFFFFFFFFFFFFFFFFFFFFFFFFFFFFFFFFFFFFF AND PUSH20 0xFFFFFFFFFFFFFFFFFFFFFFFFFFFFFFFFFFFFFFFF AND DUP2 MSTORE PUSH1 0x20 ADD SWAP1 DUP2 MSTORE PUSH1 0x20 ADD PUSH0 KECCAK256 PUSH1 0x4 ADD PUSH0 DUP2 SLOAD DUP1 SWAP3 SWAP2 SWAP1 PUSH2 0x516 SWAP1 PUSH2 0x1903 JUMP JUMPDEST SWAP2 SWAP1 POP SSTORE POP DUP1 PUSH1 0x8 ADD SLOAD DUP2 PUSH1 0x6 ADD PUSH0 DUP6 PUSH20 0xFFFFFFFFFFFFFFFFFFFFFFFFFFFFFFFFFFFFFFFF AND PUSH20 0xFFFFFFFFFFFFFFFFFFFFFFFFFFFFFFFFFFFFFFFF AND DUP2 MSTORE PUSH1 0x20 ADD SWAP1 DUP2 MSTORE PUSH1 0x20 ADD PUSH0 KECCAK256 SLOAD GT ISZERO PUSH2 0x5F1 JUMPI DUP1 PUSH1 0x6 ADD PUSH0 DUP5 PUSH20 0xFFFFFFFFFFFFFFFFFFFFFFFFFFFFFFFFFFFFFFFF AND PUSH20 0xFFFFFFFFFFFFFFFFFFFFFFFFFFFFFFFFFFFFFFFF AND DUP2 MSTORE PUSH1 0x20 ADD SWAP1 DUP2 MSTORE PUSH1 0x20 ADD PUSH0 KECCAK256 SLOAD DUP2 PUSH1 0x8 ADD DUP2 SWAP1 SSTORE POP DUP3 DUP2 PUSH1 0x9 ADD PUSH0 PUSH2 0x100 EXP DUP2 SLOAD DUP2 PUSH20 0xFFFFFFFFFFFFFFFFFFFFFFFFFFFFFFFFFFFFFFFF MUL NOT AND SWAP1 DUP4 PUSH20 0xFFFFFFFFFFFFFFFFFFFFFFFFFFFFFFFFFFFFFFFF AND MUL OR SWAP1 SSTORE POP JUMPDEST PUSH32 0x6BB852DD4B5B42EFDAE2712671AFD5E0543546344271C4EAAE3CFF0432909064 DUP5 CALLER DUP6 PUSH1 0x40 MLOAD PUSH2 0x624 SWAP4 SWAP3 SWAP2 SWAP1 PUSH2 0x194A JUMP JUMPDEST PUSH1 0x40 MLOAD DUP1 SWAP2 SUB SWAP1 LOG1 POP POP POP POP JUMP JUMPDEST PUSH0 DUP1 SLOAD SWAP1 PUSH2 0x100 EXP SWAP1 DIV PUSH20 0xFFFFFFFFFFFFFFFFFFFFFFFFFFFFFFFFFFFFFFFF AND PUSH20 0xFFFFFFFFFFFFFFFFFFFFFFFFFFFFFFFFFFFFFFFF AND CALLER PUSH20 0xFFFFFFFFFFFFFFFFFFFFFFFFFFFFFFFFFFFFFFFF AND EQ PUSH2 0x6BF JUMPI PUSH1 0x40 MLOAD PUSH32 0x8C379A000000000000000000000000000000000000000000000000000000000 DUP2 MSTORE PUSH1 0x4 ADD PUSH2 0x6B6 SWAP1 PUSH2 0x19EF JUMP JUMPDEST PUSH1 0x40 MLOAD DUP1 SWAP2 SUB SWAP1 REVERT JUMPDEST DUP1 DUP3 LT PUSH2 0x701 JUMPI PUSH1 0x40 MLOAD PUSH32 0x8C379A000000000000000000000000000000000000000000000000000000000 DUP2 MSTORE PUSH1 0x4 ADD PUSH2 0x6F8 SWAP1 PUSH2 0x1A57 JUMP JUMPDEST PUSH1 0x40 MLOAD DUP1 SWAP2 SUB SWAP1 REVERT JUMPDEST PUSH1 0x1 PUSH0 DUP2 SLOAD DUP1 SWAP3 SWAP2 SWAP1 PUSH2 0x713 SWAP1 PUSH2 0x1903 JUMP JUMPDEST SWAP2 SWAP1 POP SSTORE POP PUSH0 PUSH1 0x2 PUSH0 PUSH1 0x1 SLOAD DUP2 MSTORE PUSH1 0x20 ADD SWAP1 DUP2 MSTORE PUSH1 0x20 ADD PUSH0 KECCAK256 SWAP1 POP DUP5 DUP2 PUSH0 ADD SWAP1 DUP2 PUSH2 0x73E SWAP2 SWAP1 PUSH2 0x1C6F JUMP JUMPDEST POP DUP4 DUP2 PUSH1 0x1 ADD SWAP1 DUP2 PUSH2 0x750 SWAP2 SWAP1 PUSH2 0x1C6F JUMP JUMPDEST POP PUSH0 DUP2 PUSH1 0x2 ADD PUSH0 PUSH2 0x100 EXP DUP2 SLOAD DUP2 PUSH1 0xFF MUL NOT AND SWAP1 DUP4 ISZERO ISZERO MUL OR SWAP1 SSTORE POP DUP3 DUP2 PUSH1 0x3 ADD DUP2 SWAP1 SSTORE POP DUP2 DUP2 PUSH1 0x4 ADD DUP2 SWAP1 SSTORE POP PUSH32 0xBDFEA2C5FDE3FA58C80EB0C5469E2934E50A8D40751384D5001668C4BCEA5ACB PUSH1 0x1 SLOAD DUP7 DUP7 DUP7 DUP7 PUSH1 0x40 MLOAD PUSH2 0x7B7 SWAP6 SWAP5 SWAP4 SWAP3 SWAP2 SWAP1 PUSH2 0x1D3E JUMP JUMPDEST PUSH1 0x40 MLOAD DUP1 SWAP2 SUB SWAP1 LOG1 POP POP POP POP POP JUMP JUMPDEST DUP3 PUSH0 DUP2 GT DUP1 ISZERO PUSH2 0x7D8 JUMPI POP PUSH1 0x1 SLOAD DUP2 GT ISZERO JUMPDEST PUSH2 0x817 JUMPI PUSH1 0x40 MLOAD PUSH32 0x8C379A000000000000000000000000000000000000000000000000000000000 DUP2 MSTORE PUSH1 0x4 ADD PUSH2 0x80E SWAP1 PUSH2 0x1780 JUMP JUMPDEST PUSH1 0x40 MLOAD DUP1 SWAP2 SUB SWAP1 REVERT JUMPDEST PUSH0 PUSH20 0xFFFFFFFFFFFFFFFFFFFFFFFFFFFFFFFFFFFFFFFF AND PUSH1 0x4 PUSH0 DUP7 DUP2 MSTORE PUSH1 0x20 ADD SWAP1 DUP2 MSTORE PUSH1 0x20 ADD PUSH0 KECCAK256 PUSH0 CALLER PUSH20 0xFFFFFFFFFFFFFFFFFFFFFFFFFFFFFFFFFFFFFFFF AND PUSH20 0xFFFFFFFFFFFFFFFFFFFFFFFFFFFFFFFFFFFFFFFF AND DUP2 MSTORE PUSH1 0x20 ADD SWAP1 DUP2 MSTORE PUSH1 0x20 ADD PUSH0 KECCAK256 PUSH0 ADD PUSH0 SWAP1 SLOAD SWAP1 PUSH2 0x100 EXP SWAP1 DIV PUSH20 0xFFFFFFFFFFFFFFFFFFFFFFFFFFFFFFFFFFFFFFFF AND PUSH20 0xFFFFFFFFFFFFFFFFFFFFFFFFFFFFFFFFFFFFFFFF AND EQ PUSH2 0x8F2 JUMPI PUSH1 0x40 MLOAD PUSH32 0x8C379A000000000000000000000000000000000000000000000000000000000 DUP2 MSTORE PUSH1 0x4 ADD PUSH2 0x8E9 SWAP1 PUSH2 0x1E0D JUMP JUMPDEST PUSH1 0x40 MLOAD DUP1 SWAP2 SUB SWAP1 REVERT JUMPDEST PUSH2 0x8FC DUP5 DUP5 PUSH2 0x106B JUMP JUMPDEST ISZERO PUSH2 0x93C JUMPI PUSH1 0x40 MLOAD PUSH32 0x8C379A000000000000000000000000000000000000000000000000000000000 DUP2 MSTORE PUSH1 0x4 ADD PUSH2 0x933 SWAP1 PUSH2 0x1E75 JUMP JUMPDEST PUSH1 0x40 MLOAD DUP1 SWAP2 SUB SWAP1 REVERT JUMPDEST PUSH1 0x40 MLOAD DUP1 PUSH1 0xA0 ADD PUSH1 0x40 MSTORE DUP1 CALLER PUSH20 0xFFFFFFFFFFFFFFFFFFFFFFFFFFFFFFFFFFFFFFFF AND DUP2 MSTORE PUSH1 0x20 ADD DUP5 DUP2 MSTORE PUSH1 0x20 ADD DUP4 DUP2 MSTORE PUSH1 0x20 ADD PUSH0 ISZERO ISZERO DUP2 MSTORE PUSH1 0x20 ADD PUSH0 DUP2 MSTORE POP PUSH1 0x4 PUSH0 DUP7 DUP2 MSTORE PUSH1 0x20 ADD SWAP1 DUP2 MSTORE PUSH1 0x20 ADD PUSH0 KECCAK256 PUSH0 CALLER PUSH20 0xFFFFFFFFFFFFFFFFFFFFFFFFFFFFFFFFFFFFFFFF AND PUSH20 0xFFFFFFFFFFFFFFFFFFFFFFFFFFFFFFFFFFFFFFFF AND DUP2 MSTORE PUSH1 0x20 ADD SWAP1 DUP2 MSTORE PUSH1 0x20 ADD PUSH0 KECCAK256 PUSH0 DUP3 ADD MLOAD DUP2 PUSH0 ADD PUSH0 PUSH2 0x100 EXP DUP2 SLOAD DUP2 PUSH20 0xFFFFFFFFFFFFFFFFFFFFFFFFFFFFFFFFFFFFFFFF MUL NOT AND SWAP1 DUP4 PUSH20 0xFFFFFFFFFFFFFFFFFFFFFFFFFFFFFFFFFFFFFFFF AND MUL OR SWAP1 SSTORE POP PUSH1 0x20 DUP3 ADD MLOAD DUP2 PUSH1 0x1 ADD SWAP1 DUP2 PUSH2 0xA20 SWAP2 SWAP1 PUSH2 0x1C6F JUMP JUMPDEST POP PUSH1 0x40 DUP3 ADD MLOAD DUP2 PUSH1 0x2 ADD SWAP1 DUP2 PUSH2 0xA36 SWAP2 SWAP1 PUSH2 0x1C6F JUMP JUMPDEST POP PUSH1 0x60 DUP3 ADD MLOAD DUP2 PUSH1 0x3 ADD PUSH0 PUSH2 0x100 EXP DUP2 SLOAD DUP2 PUSH1 0xFF MUL NOT AND SWAP1 DUP4 ISZERO ISZERO MUL OR SWAP1 SSTORE POP PUSH1 0x80 DUP3 ADD MLOAD DUP2 PUSH1 0x4 ADD SSTORE SWAP1 POP POP PUSH1 0x5 PUSH0 DUP6 DUP2 MSTORE PUSH1 0x20 ADD SWAP1 DUP2 MSTORE PUSH1 0x20 ADD PUSH0 KECCAK256 CALLER SWAP1 DUP1 PUSH1 0x1 DUP2 SLOAD ADD DUP1 DUP3 SSTORE DUP1 SWAP2 POP POP PUSH1 0x1 SWAP1 SUB SWAP1 PUSH0 MSTORE PUSH1 0x20 PUSH0 KECCAK256 ADD PUSH0 SWAP1 SWAP2 SWAP1 SWAP2 SWAP1 SWAP2 PUSH2 0x100 EXP DUP2 SLOAD DUP2 PUSH20 0xFFFFFFFFFFFFFFFFFFFFFFFFFFFFFFFFFFFFFFFF MUL NOT AND SWAP1 DUP4 PUSH20 0xFFFFFFFFFFFFFFFFFFFFFFFFFFFFFFFFFFFFFFFF AND MUL OR SWAP1 SSTORE POP PUSH32 0xB9BF1E4934119A96DC7E3CD24118C4C07625B5606309B9C26C82573197ABFAA2 DUP5 CALLER DUP6 DUP6 PUSH1 0x40 MLOAD PUSH2 0xB07 SWAP5 SWAP4 SWAP3 SWAP2 SWAP1 PUSH2 0x1E93 JUMP JUMPDEST PUSH1 0x40 MLOAD DUP1 SWAP2 SUB SWAP1 LOG1 POP POP POP POP JUMP JUMPDEST PUSH1 0x4 PUSH1 0x20 MSTORE DUP2 PUSH0 MSTORE PUSH1 0x40 PUSH0 KECCAK256 PUSH1 0x20 MSTORE DUP1 PUSH0 MSTORE PUSH1 0x40 PUSH0 KECCAK256 PUSH0 SWAP2 POP SWAP2 POP POP DUP1 PUSH0 ADD PUSH0 SWAP1 SLOAD SWAP1 PUSH2 0x100 EXP SWAP1 DIV PUSH20 0xFFFFFFFFFFFFFFFFFFFFFFFFFFFFFFFFFFFFFFFF AND SWAP1 DUP1 PUSH1 0x1 ADD DUP1 SLOAD PUSH2 0xB64 SWAP1 PUSH2 0x1AA2 JUMP JUMPDEST DUP1 PUSH1 0x1F ADD PUSH1 0x20 DUP1 SWAP2 DIV MUL PUSH1 0x20 ADD PUSH1 0x40 MLOAD SWAP1 DUP2 ADD PUSH1 0x40 MSTORE DUP1 SWAP3 SWAP2 SWAP1 DUP2 DUP2 MSTORE PUSH1 0x20 ADD DUP3 DUP1 SLOAD PUSH2 0xB90 SWAP1 PUSH2 0x1AA2 JUMP JUMPDEST DUP1 ISZERO PUSH2 0xBDB JUMPI DUP1 PUSH1 0x1F LT PUSH2 0xBB2 JUMPI PUSH2 0x100 DUP1 DUP4 SLOAD DIV MUL DUP4 MSTORE SWAP2 PUSH1 0x20 ADD SWAP2 PUSH2 0xBDB JUMP JUMPDEST DUP3 ADD SWAP2 SWAP1 PUSH0 MSTORE PUSH1 0x20 PUSH0 KECCAK256 SWAP1 JUMPDEST DUP2 SLOAD DUP2 MSTORE SWAP1 PUSH1 0x1 ADD SWAP1 PUSH1 0x20 ADD DUP1 DUP4 GT PUSH2 0xBBE JUMPI DUP3 SWAP1 SUB PUSH1 0x1F AND DUP3 ADD SWAP2 JUMPDEST POP POP POP POP POP SWAP1 DUP1 PUSH1 0x2 ADD DUP1 SLOAD PUSH2 0xBF0 SWAP1 PUSH2 0x1AA2 JUMP JUMPDEST DUP1 PUSH1 0x1F ADD PUSH1 0x20 DUP1 SWAP2 DIV MUL PUSH1 0x20 ADD PUSH1 0x40 MLOAD SWAP1 DUP2 ADD PUSH1 0x40 MSTORE DUP1 SWAP3 SWAP2 SWAP1 DUP2 DUP2 MSTORE PUSH1 0x20 ADD DUP3 DUP1 SLOAD PUSH2 0xC1C SWAP1 PUSH2 0x1AA2 JUMP JUMPDEST DUP1 ISZERO PUSH2 0xC67 JUMPI DUP1 PUSH1 0x1F LT PUSH2 0xC3E JUMPI PUSH2 0x100 DUP1 DUP4 SLOAD DIV MUL DUP4 MSTORE SWAP2 PUSH1 0x20 ADD SWAP2 PUSH2 0xC67 JUMP JUMPDEST DUP3 ADD SWAP2 SWAP1 PUSH0 MSTORE PUSH1 0x20 PUSH0 KECCAK256 SWAP1 JUMPDEST DUP2 SLOAD DUP2 MSTORE SWAP1 PUSH1 0x1 ADD SWAP1 PUSH1 0x20 ADD DUP1 DUP4 GT PUSH2 0xC4A JUMPI DUP3 SWAP1 SUB PUSH1 0x1F AND DUP3 ADD SWAP2 JUMPDEST POP POP POP POP POP SWAP1 DUP1 PUSH1 0x3 ADD PUSH0 SWAP1 SLOAD SWAP1 PUSH2 0x100 EXP SWAP1 DIV PUSH1 0xFF AND SWAP1 DUP1 PUSH1 0x4 ADD SLOAD SWAP1 POP DUP6 JUMP JUMPDEST PUSH1 0x3 PUSH1 0x20 MSTORE DUP1 PUSH0 MSTORE PUSH1 0x40 PUSH0 KECCAK256 PUSH0 SWAP2 POP SLOAD SWAP1 PUSH2 0x100 EXP SWAP1 DIV PUSH1 0xFF AND DUP2 JUMP JUMPDEST PUSH0 DUP1 SLOAD SWAP1 PUSH2 0x100 EXP SWAP1 DIV PUSH20 0xFFFFFFFFFFFFFFFFFFFFFFFFFFFFFFFFFFFFFFFF AND DUP2 JUMP JUMPDEST PUSH1 0x1 SLOAD DUP2 JUMP JUMPDEST PUSH1 0x5 PUSH1 0x20 MSTORE DUP2 PUSH0 MSTORE PUSH1 0x40 PUSH0 KECCAK256 DUP2 DUP2 SLOAD DUP2 LT PUSH2 0xCE8 JUMPI PUSH0 DUP1 REVERT JUMPDEST SWAP1 PUSH0 MSTORE PUSH1 0x20 PUSH0 KECCAK256 ADD PUSH0 SWAP2 POP SWAP2 POP SWAP1 SLOAD SWAP1 PUSH2 0x100 EXP SWAP1 DIV PUSH20 0xFFFFFFFFFFFFFFFFFFFFFFFFFFFFFFFFFFFFFFFF AND DUP2 JUMP JUMPDEST PUSH1 0x2 PUSH1 0x20 MSTORE DUP1 PUSH0 MSTORE PUSH1 0x40 PUSH0 KECCAK256 PUSH0 SWAP2 POP SWAP1 POP DUP1 PUSH0 ADD DUP1 SLOAD PUSH2 0xD36 SWAP1 PUSH2 0x1AA2 JUMP JUMPDEST DUP1 PUSH1 0x1F ADD PUSH1 0x20 DUP1 SWAP2 DIV MUL PUSH1 0x20 ADD PUSH1 0x40 MLOAD SWAP1 DUP2 ADD PUSH1 0x40 MSTORE DUP1 SWAP3 SWAP2 SWAP1 DUP2 DUP2 MSTORE PUSH1 0x20 ADD DUP3 DUP1 SLOAD PUSH2 0xD62 SWAP1 PUSH2 0x1AA2 JUMP JUMPDEST DUP1 ISZERO PUSH2 0xDAD JUMPI DUP1 PUSH1 0x1F LT PUSH2 0xD84 JUMPI PUSH2 0x100 DUP1 DUP4 SLOAD DIV MUL DUP4 MSTORE SWAP2 PUSH1 0x20 ADD SWAP2 PUSH2 0xDAD JUMP JUMPDEST DUP3 ADD SWAP2 SWAP1 PUSH0 MSTORE PUSH1 0x20 PUSH0 KECCAK256 SWAP1 JUMPDEST DUP2 SLOAD DUP2 MSTORE SWAP1 PUSH1 0x1 ADD SWAP1 PUSH1 0x20 ADD DUP1 DUP4 GT PUSH2 0xD90 JUMPI DUP3 SWAP1 SUB PUSH1 0x1F AND DUP3 ADD SWAP2 JUMPDEST POP POP POP POP POP SWAP1 DUP1 PUSH1 0x1 ADD DUP1 SLOAD PUSH2 0xDC2 SWAP1 PUSH2 0x1AA2 JUMP JUMPDEST DUP1 PUSH1 0x1F ADD PUSH1 0x20 DUP1 SWAP2 DIV MUL PUSH1 0x20 ADD PUSH1 0x40 MLOAD SWAP1 DUP2 ADD PUSH1 0x40 MSTORE DUP1 SWAP3 SWAP2 SWAP1 DUP2 DUP2 MSTORE PUSH1 0x20 ADD DUP3 DUP1 SLOAD PUSH2 0xDEE SWAP1 PUSH2 0x1AA2 JUMP JUMPDEST DUP1 ISZERO PUSH2 0xE39 JUMPI DUP1 PUSH1 0x1F LT PUSH2 0xE10 JUMPI PUSH2 0x100 DUP1 DUP4 SLOAD DIV MUL DUP4 MSTORE SWAP2 PUSH1 0x20 ADD SWAP2 PUSH2 0xE39 JUMP JUMPDEST DUP3 ADD SWAP2 SWAP1 PUSH0 MSTORE PUSH1 0x20 PUSH0 KECCAK256 SWAP1 JUMPDEST DUP2 SLOAD DUP2 MSTORE SWAP1 PUSH1 0x1 ADD SWAP1 PUSH1 0x20 ADD DUP1 DUP4 GT PUSH2 0xE1C JUMPI DUP3 SWAP1 SUB PUSH1 0x1F AND DUP3 ADD SWAP2 JUMPDEST POP POP POP POP POP SWAP1 DUP1 PUSH1 0x2 ADD PUSH0 SWAP1 SLOAD SWAP1 PUSH2 0x100 EXP SWAP1 DIV PUSH1 0xFF AND SWAP1 DUP1 PUSH1 0x3 ADD SLOAD SWAP1 DUP1 PUSH1 0x4 ADD SLOAD SWAP1 DUP1 PUSH1 0x7 ADD SLOAD SWAP1 DUP1 PUSH1 0x8 ADD SLOAD SWAP1 DUP1 PUSH1 0x9 ADD PUSH0 SWAP1 SLOAD SWAP1 PUSH2 0x100 EXP SWAP1 DIV PUSH20 0xFFFFFFFFFFFFFFFFFFFFFFFFFFFFFFFFFFFFFFFF AND SWAP1 POP DUP9 JUMP JUMPDEST PUSH0 DUP1 SLOAD SWAP1 PUSH2 0x100 EXP SWAP1 DIV PUSH20 0xFFFFFFFFFFFFFFFFFFFFFFFFFFFFFFFFFFFFFFFF AND PUSH20 0xFFFFFFFFFFFFFFFFFFFFFFFFFFFFFFFFFFFFFFFF AND CALLER PUSH20 0xFFFFFFFFFFFFFFFFFFFFFFFFFFFFFFFFFFFFFFFF AND EQ PUSH2 0xF1F JUMPI PUSH1 0x40 MLOAD PUSH32 0x8C379A000000000000000000000000000000000000000000000000000000000 DUP2 MSTORE PUSH1 0x4 ADD PUSH2 0xF16 SWAP1 PUSH2 0x19EF JUMP JUMPDEST PUSH1 0x40 MLOAD DUP1 SWAP2 SUB SWAP1 REVERT JUMPDEST DUP1 PUSH0 DUP2 GT DUP1 ISZERO PUSH2 0xF31 JUMPI POP PUSH1 0x1 SLOAD DUP2 GT ISZERO JUMPDEST PUSH2 0xF70 JUMPI PUSH1 0x40 MLOAD PUSH32 0x8C379A000000000000000000000000000000000000000000000000000000000 DUP2 MSTORE PUSH1 0x4 ADD PUSH2 0xF67 SWAP1 PUSH2 0x1780 JUMP JUMPDEST PUSH1 0x40 MLOAD DUP1 SWAP2 SUB SWAP1 REVERT JUMPDEST PUSH1 0x2 PUSH0 DUP4 DUP2 MSTORE PUSH1 0x20 ADD SWAP1 DUP2 MSTORE PUSH1 0x20 ADD PUSH0 KECCAK256 PUSH1 0x2 ADD PUSH0 SWAP1 SLOAD SWAP1 PUSH2 0x100 EXP SWAP1 DIV PUSH1 0xFF AND PUSH2 0xFD0 JUMPI PUSH1 0x40 MLOAD PUSH32 0x8C379A000000000000000000000000000000000000000000000000000000000 DUP2 MSTORE PUSH1 0x4 ADD PUSH2 0xFC7 SWAP1 PUSH2 0x17E8 JUMP JUMPDEST PUSH1 0x40 MLOAD DUP1 SWAP2 SUB SWAP1 REVERT JUMPDEST PUSH0 PUSH1 0x2 PUSH0 DUP5 DUP2 MSTORE PUSH1 0x20 ADD SWAP1 DUP2 MSTORE PUSH1 0x20 ADD PUSH0 KECCAK256 PUSH1 0x2 ADD PUSH0 PUSH2 0x100 EXP DUP2 SLOAD DUP2 PUSH1 0xFF MUL NOT AND SWAP1 DUP4 ISZERO ISZERO MUL OR SWAP1 SSTORE POP PUSH32 0xCE994EAD15E72A77A86DDF3B0184783C61C9AF7E3AAE02D7C0BDF3B4268FA188 DUP3 PUSH1 0x2 PUSH0 DUP6 DUP2 MSTORE PUSH1 0x20 ADD SWAP1 DUP2 MSTORE PUSH1 0x20 ADD PUSH0 KECCAK256 PUSH1 0x9 ADD PUSH0 SWAP1 SLOAD SWAP1 PUSH2 0x100 EXP SWAP1 DIV PUSH20 0xFFFFFFFFFFFFFFFFFFFFFFFFFFFFFFFFFFFFFFFF AND PUSH1 0x40 MLOAD PUSH2 0x105F SWAP3 SWAP2 SWAP1 PUSH2 0x1EE4 JUMP JUMPDEST PUSH1 0x40 MLOAD DUP1 SWAP2 SUB SWAP1 LOG1 POP POP JUMP JUMPDEST PUSH0 DUP1 PUSH0 SWAP1 POP JUMPDEST PUSH1 0x5 PUSH0 DUP6 DUP2 MSTORE PUSH1 0x20 ADD SWAP1 DUP2 MSTORE PUSH1 0x20 ADD PUSH0 KECCAK256 DUP1 SLOAD SWAP1 POP DUP2 LT ISZERO PUSH2 0x118F JUMPI DUP3 PUSH1 0x40 MLOAD PUSH1 0x20 ADD PUSH2 0x109E SWAP2 SWAP1 PUSH2 0x1F45 JUMP JUMPDEST PUSH1 0x40 MLOAD PUSH1 0x20 DUP2 DUP4 SUB SUB DUP2 MSTORE SWAP1 PUSH1 0x40 MSTORE DUP1 MLOAD SWAP1 PUSH1 0x20 ADD KECCAK256 PUSH1 0x4 PUSH0 DUP7 DUP2 MSTORE PUSH1 0x20 ADD SWAP1 DUP2 MSTORE PUSH1 0x20 ADD PUSH0 KECCAK256 PUSH0 PUSH1 0x5 PUSH0 DUP9 DUP2 MSTORE PUSH1 0x20 ADD SWAP1 DUP2 MSTORE PUSH1 0x20 ADD PUSH0 KECCAK256 DUP5 DUP2 SLOAD DUP2 LT PUSH2 0x10E9 JUMPI PUSH2 0x10E8 PUSH2 0x1F5B JUMP JUMPDEST JUMPDEST SWAP1 PUSH0 MSTORE PUSH1 0x20 PUSH0 KECCAK256 ADD PUSH0 SWAP1 SLOAD SWAP1 PUSH2 0x100 EXP SWAP1 DIV PUSH20 0xFFFFFFFFFFFFFFFFFFFFFFFFFFFFFFFFFFFFFFFF AND PUSH20 0xFFFFFFFFFFFFFFFFFFFFFFFFFFFFFFFFFFFFFFFF AND PUSH20 0xFFFFFFFFFFFFFFFFFFFFFFFFFFFFFFFFFFFFFFFF AND DUP2 MSTORE PUSH1 0x20 ADD SWAP1 DUP2 MSTORE PUSH1 0x20 ADD PUSH0 KECCAK256 PUSH1 0x1 ADD PUSH1 0x40 MLOAD PUSH1 0x20 ADD PUSH2 0x115D SWAP2 SWAP1 PUSH2 0x2008 JUMP JUMPDEST PUSH1 0x40 MLOAD PUSH1 0x20 DUP2 DUP4 SUB SUB DUP2 MSTORE SWAP1 PUSH1 0x40 MSTORE DUP1 MLOAD SWAP1 PUSH1 0x20 ADD KECCAK256 SUB PUSH2 0x1182 JUMPI PUSH1 0x1 SWAP2 POP POP PUSH2 0x1194 JUMP JUMPDEST DUP1 DUP1 PUSH1 0x1 ADD SWAP2 POP POP PUSH2 0x1071 JUMP JUMPDEST POP PUSH0 SWAP1 POP JUMPDEST SWAP3 SWAP2 POP POP JUMP JUMPDEST PUSH0 PUSH1 0x40 MLOAD SWAP1 POP SWAP1 JUMP JUMPDEST PUSH0 DUP1 REVERT JUMPDEST PUSH0 DUP1 REVERT JUMPDEST PUSH0 DUP2 SWAP1 POP SWAP2 SWAP1 POP JUMP JUMPDEST PUSH2 0x11BD DUP2 PUSH2 0x11AB JUMP JUMPDEST DUP2 EQ PUSH2 0x11C7 JUMPI PUSH0 DUP1 REVERT JUMPDEST POP JUMP JUMPDEST PUSH0 DUP2 CALLDATALOAD SWAP1 POP PUSH2 0x11D8 DUP2 PUSH2 0x11B4 JUMP JUMPDEST SWAP3 SWAP2 POP POP JUMP JUMPDEST PUSH0 PUSH20 0xFFFFFFFFFFFFFFFFFFFFFFFFFFFFFFFFFFFFFFFF DUP3 AND SWAP1 POP SWAP2 SWAP1 POP JUMP JUMPDEST PUSH0 PUSH2 0x1207 DUP3 PUSH2 0x11DE JUMP JUMPDEST SWAP1 POP SWAP2 SWAP1 POP JUMP JUMPDEST PUSH2 0x1217 DUP2 PUSH2 0x11FD JUMP JUMPDEST DUP2 EQ PUSH2 0x1221 JUMPI PUSH0 DUP1 REVERT JUMPDEST POP JUMP JUMPDEST PUSH0 DUP2 CALLDATALOAD SWAP1 POP PUSH2 0x1232 DUP2 PUSH2 0x120E JUMP JUMPDEST SWAP3 SWAP2 POP POP JUMP JUMPDEST PUSH0 DUP1 PUSH1 0x40 DUP4 DUP6 SUB SLT ISZERO PUSH2 0x124E JUMPI PUSH2 0x124D PUSH2 0x11A3 JUMP JUMPDEST JUMPDEST PUSH0 PUSH2 0x125B DUP6 DUP3 DUP7 ADD PUSH2 0x11CA JUMP JUMPDEST SWAP3 POP POP PUSH1 0x20 PUSH2 0x126C DUP6 DUP3 DUP7 ADD PUSH2 0x1224 JUMP JUMPDEST SWAP2 POP POP SWAP3 POP SWAP3 SWAP1 POP JUMP JUMPDEST PUSH0 DUP1 REVERT JUMPDEST PUSH0 DUP1 REVERT JUMPDEST PUSH0 PUSH1 0x1F NOT PUSH1 0x1F DUP4 ADD AND SWAP1 POP SWAP2 SWAP1 POP JUMP JUMPDEST PUSH32 0x4E487B7100000000000000000000000000000000000000000000000000000000 PUSH0 MSTORE PUSH1 0x41 PUSH1 0x4 MSTORE PUSH1 0x24 PUSH0 REVERT JUMPDEST PUSH2 0x12C4 DUP3 PUSH2 0x127E JUMP JUMPDEST DUP2 ADD DUP2 DUP2 LT PUSH8 0xFFFFFFFFFFFFFFFF DUP3 GT OR ISZERO PUSH2 0x12E3 JUMPI PUSH2 0x12E2 PUSH2 0x128E JUMP JUMPDEST JUMPDEST DUP1 PUSH1 0x40 MSTORE POP POP POP JUMP JUMPDEST PUSH0 PUSH2 0x12F5 PUSH2 0x119A JUMP JUMPDEST SWAP1 POP PUSH2 0x1301 DUP3 DUP3 PUSH2 0x12BB JUMP JUMPDEST SWAP2 SWAP1 POP JUMP JUMPDEST PUSH0 PUSH8 0xFFFFFFFFFFFFFFFF DUP3 GT ISZERO PUSH2 0x1320 JUMPI PUSH2 0x131F PUSH2 0x128E JUMP JUMPDEST JUMPDEST PUSH2 0x1329 DUP3 PUSH2 0x127E JUMP JUMPDEST SWAP1 POP PUSH1 0x20 DUP2 ADD SWAP1 POP SWAP2 SWAP1 POP JUMP JUMPDEST DUP3 DUP2 DUP4 CALLDATACOPY PUSH0 DUP4 DUP4 ADD MSTORE POP POP POP JUMP JUMPDEST PUSH0 PUSH2 0x1356 PUSH2 0x1351 DUP5 PUSH2 0x1306 JUMP JUMPDEST PUSH2 0x12EC JUMP JUMPDEST SWAP1 POP DUP3 DUP2 MSTORE PUSH1 0x20 DUP2 ADD DUP5 DUP5 DUP5 ADD GT ISZERO PUSH2 0x1372 JUMPI PUSH2 0x1371 PUSH2 0x127A JUMP JUMPDEST JUMPDEST PUSH2 0x137D DUP5 DUP3 DUP6 PUSH2 0x1336 JUMP JUMPDEST POP SWAP4 SWAP3 POP POP POP JUMP JUMPDEST PUSH0 DUP3 PUSH1 0x1F DUP4 ADD SLT PUSH2 0x1399 JUMPI PUSH2 0x1398 PUSH2 0x1276 JUMP JUMPDEST JUMPDEST DUP2 CALLDATALOAD PUSH2 0x13A9 DUP5 DUP3 PUSH1 0x20 DUP7 ADD PUSH2 0x1344 JUMP JUMPDEST SWAP2 POP POP SWAP3 SWAP2 POP POP JUMP JUMPDEST PUSH0 DUP1 PUSH0 DUP1 PUSH1 0x80 DUP6 DUP8 SUB SLT ISZERO PUSH2 0x13CA JUMPI PUSH2 0x13C9 PUSH2 0x11A3 JUMP JUMPDEST JUMPDEST PUSH0 DUP6 ADD CALLDATALOAD PUSH8 0xFFFFFFFFFFFFFFFF DUP2 GT ISZERO PUSH2 0x13E7 JUMPI PUSH2 0x13E6 PUSH2 0x11A7 JUMP JUMPDEST JUMPDEST PUSH2 0x13F3 DUP8 DUP3 DUP9 ADD PUSH2 0x1385 JUMP JUMPDEST SWAP5 POP POP PUSH1 0x20 DUP6 ADD CALLDATALOAD PUSH8 0xFFFFFFFFFFFFFFFF DUP2 GT ISZERO PUSH2 0x1414 JUMPI PUSH2 0x1413 PUSH2 0x11A7 JUMP JUMPDEST JUMPDEST PUSH2 0x1420 DUP8 DUP3 DUP9 ADD PUSH2 0x1385 JUMP JUMPDEST SWAP4 POP POP PUSH1 0x40 PUSH2 0x1431 DUP8 DUP3 DUP9 ADD PUSH2 0x11CA JUMP JUMPDEST SWAP3 POP POP PUSH1 0x60 PUSH2 0x1442 DUP8 DUP3 DUP9 ADD PUSH2 0x11CA JUMP JUMPDEST SWAP2 POP POP SWAP3 SWAP6 SWAP2 SWAP5 POP SWAP3 POP JUMP JUMPDEST PUSH0 DUP1 PUSH0 PUSH1 0x60 DUP5 DUP7 SUB SLT ISZERO PUSH2 0x1465 JUMPI PUSH2 0x1464 PUSH2 0x11A3 JUMP JUMPDEST JUMPDEST PUSH0 PUSH2 0x1472 DUP7 DUP3 DUP8 ADD PUSH2 0x11CA JUMP JUMPDEST SWAP4 POP POP PUSH1 0x20 DUP5 ADD CALLDATALOAD PUSH8 0xFFFFFFFFFFFFFFFF DUP2 GT ISZERO PUSH2 0x1493 JUMPI PUSH2 0x1492 PUSH2 0x11A7 JUMP JUMPDEST JUMPDEST PUSH2 0x149F DUP7 DUP3 DUP8 ADD PUSH2 0x1385 JUMP JUMPDEST SWAP3 POP POP PUSH1 0x40 DUP5 ADD CALLDATALOAD PUSH8 0xFFFFFFFFFFFFFFFF DUP2 GT ISZERO PUSH2 0x14C0 JUMPI PUSH2 0x14BF PUSH2 0x11A7 JUMP JUMPDEST JUMPDEST PUSH2 0x14CC DUP7 DUP3 DUP8 ADD PUSH2 0x1385 JUMP JUMPDEST SWAP2 POP POP SWAP3 POP SWAP3 POP SWAP3 JUMP JUMPDEST PUSH2 0x14DF DUP2 PUSH2 0x11FD JUMP JUMPDEST DUP3 MSTORE POP POP JUMP JUMPDEST PUSH0 DUP2 MLOAD SWAP1 POP SWAP2 SWAP1 POP JUMP JUMPDEST PUSH0 DUP3 DUP3 MSTORE PUSH1 0x20 DUP3 ADD SWAP1 POP SWAP3 SWAP2 POP POP JUMP JUMPDEST DUP3 DUP2 DUP4 MCOPY PUSH0 DUP4 DUP4 ADD MSTORE POP POP POP JUMP JUMPDEST PUSH0 PUSH2 0x1517 DUP3 PUSH2 0x14E5 JUMP JUMPDEST PUSH2 0x1521 DUP2 DUP6 PUSH2 0x14EF JUMP JUMPDEST SWAP4 POP PUSH2 0x1531 DUP2 DUP6 PUSH1 0x20 DUP7 ADD PUSH2 0x14FF JUMP JUMPDEST PUSH2 0x153A DUP2 PUSH2 0x127E JUMP JUMPDEST DUP5 ADD SWAP2 POP POP SWAP3 SWAP2 POP POP JUMP JUMPDEST PUSH0 DUP2 ISZERO ISZERO SWAP1 POP SWAP2 SWAP1 POP JUMP JUMPDEST PUSH2 0x1559 DUP2 PUSH2 0x1545 JUMP JUMPDEST DUP3 MSTORE POP POP JUMP JUMPDEST PUSH2 0x1568 DUP2 PUSH2 0x11AB JUMP JUMPDEST DUP3 MSTORE POP POP JUMP JUMPDEST PUSH0 PUSH1 0xA0 DUP3 ADD SWAP1 POP PUSH2 0x1581 PUSH0 DUP4 ADD DUP9 PUSH2 0x14D6 JUMP JUMPDEST DUP2 DUP2 SUB PUSH1 0x20 DUP4 ADD MSTORE PUSH2 0x1593 DUP2 DUP8 PUSH2 0x150D JUMP JUMPDEST SWAP1 POP DUP2 DUP2 SUB PUSH1 0x40 DUP4 ADD MSTORE PUSH2 0x15A7 DUP2 DUP7 PUSH2 0x150D JUMP JUMPDEST SWAP1 POP PUSH2 0x15B6 PUSH1 0x60 DUP4 ADD DUP6 PUSH2 0x1550 JUMP JUMPDEST PUSH2 0x15C3 PUSH1 0x80 DUP4 ADD DUP5 PUSH2 0x155F JUMP JUMPDEST SWAP7 SWAP6 POP POP POP POP POP POP JUMP JUMPDEST PUSH0 PUSH1 0x20 DUP3 DUP5 SUB SLT ISZERO PUSH2 0x15E2 JUMPI PUSH2 0x15E1 PUSH2 0x11A3 JUMP JUMPDEST JUMPDEST PUSH0 PUSH2 0x15EF DUP5 DUP3 DUP6 ADD PUSH2 0x1224 JUMP JUMPDEST SWAP2 POP POP SWAP3 SWAP2 POP POP JUMP JUMPDEST PUSH0 PUSH1 0x20 DUP3 ADD SWAP1 POP PUSH2 0x160B PUSH0 DUP4 ADD DUP5 PUSH2 0x1550 JUMP JUMPDEST SWAP3 SWAP2 POP POP JUMP JUMPDEST PUSH0 PUSH1 0x20 DUP3 ADD SWAP1 POP PUSH2 0x1624 PUSH0 DUP4 ADD DUP5 PUSH2 0x14D6 JUMP JUMPDEST SWAP3 SWAP2 POP POP JUMP JUMPDEST PUSH0 PUSH1 0x20 DUP3 ADD SWAP1 POP PUSH2 0x163D PUSH0 DUP4 ADD DUP5 PUSH2 0x155F JUMP JUMPDEST SWAP3 SWAP2 POP POP JUMP JUMPDEST PUSH0 DUP1 PUSH1 0x40 DUP4 DUP6 SUB SLT ISZERO PUSH2 0x1659 JUMPI PUSH2 0x1658 PUSH2 0x11A3 JUMP JUMPDEST JUMPDEST PUSH0 PUSH2 0x1666 DUP6 DUP3 DUP7 ADD PUSH2 0x11CA JUMP JUMPDEST SWAP3 POP POP PUSH1 0x20 PUSH2 0x1677 DUP6 DUP3 DUP7 ADD PUSH2 0x11CA JUMP JUMPDEST SWAP2 POP POP SWAP3 POP SWAP3 SWAP1 POP JUMP JUMPDEST PUSH0 PUSH1 0x20 DUP3 DUP5 SUB SLT ISZERO PUSH2 0x1696 JUMPI PUSH2 0x1695 PUSH2 0x11A3 JUMP JUMPDEST JUMPDEST PUSH0 PUSH2 0x16A3 DUP5 DUP3 DUP6 ADD PUSH2 0x11CA JUMP JUMPDEST SWAP2 POP POP SWAP3 SWAP2 POP POP JUMP JUMPDEST PUSH0 PUSH2 0x100 DUP3 ADD SWAP1 POP DUP2 DUP2 SUB PUSH0 DUP4 ADD MSTORE PUSH2 0x16C5 DUP2 DUP12 PUSH2 0x150D JUMP JUMPDEST SWAP1 POP DUP2 DUP2 SUB PUSH1 0x20 DUP4 ADD MSTORE PUSH2 0x16D9 DUP2 DUP11 PUSH2 0x150D JUMP JUMPDEST SWAP1 POP PUSH2 0x16E8 PUSH1 0x40 DUP4 ADD DUP10 PUSH2 0x1550 JUMP JUMPDEST PUSH2 0x16F5 PUSH1 0x60 DUP4 ADD DUP9 PUSH2 0x155F JUMP JUMPDEST PUSH2 0x1702 PUSH1 0x80 DUP4 ADD DUP8 PUSH2 0x155F JUMP JUMPDEST PUSH2 0x170F PUSH1 0xA0 DUP4 ADD DUP7 PUSH2 0x155F JUMP JUMPDEST PUSH2 0x171C PUSH1 0xC0 DUP4 ADD DUP6 PUSH2 0x155F JUMP JUMPDEST PUSH2 0x1729 PUSH1 0xE0 DUP4 ADD DUP5 PUSH2 0x14D6 JUMP JUMPDEST SWAP10 SWAP9 POP POP POP POP POP POP POP POP POP JUMP JUMPDEST PUSH32 0x506F6C6C20646F6573206E6F7420657869737400000000000000000000000000 PUSH0 DUP3 ADD MSTORE POP JUMP JUMPDEST PUSH0 PUSH2 0x176A PUSH1 0x13 DUP4 PUSH2 0x14EF JUMP JUMPDEST SWAP2 POP PUSH2 0x1775 DUP3 PUSH2 0x1736 JUMP JUMPDEST PUSH1 0x20 DUP3 ADD SWAP1 POP SWAP2 SWAP1 POP JUMP JUMPDEST PUSH0 PUSH1 0x20 DUP3 ADD SWAP1 POP DUP2 DUP2 SUB PUSH0 DUP4 ADD MSTORE PUSH2 0x1797 DUP2 PUSH2 0x175E JUMP JUMPDEST SWAP1 POP SWAP2 SWAP1 POP JUMP JUMPDEST PUSH32 0x506F6C6C206973206E6F74206163746976650000000000000000000000000000 PUSH0 DUP3 ADD MSTORE POP JUMP JUMPDEST PUSH0 PUSH2 0x17D2 PUSH1 0x12 DUP4 PUSH2 0x14EF JUMP JUMPDEST SWAP2 POP PUSH2 0x17DD DUP3 PUSH2 0x179E JUMP JUMPDEST PUSH1 0x20 DUP3 ADD SWAP1 POP SWAP2 SWAP1 POP JUMP JUMPDEST PUSH0 PUSH1 0x20 DUP3 ADD SWAP1 POP DUP2 DUP2 SUB PUSH0 DUP4 ADD MSTORE PUSH2 0x17FF DUP2 PUSH2 0x17C6 JUMP JUMPDEST SWAP1 POP SWAP2 SWAP1 POP JUMP JUMPDEST PUSH32 0x416C726561647920766F74656400000000000000000000000000000000000000 PUSH0 DUP3 ADD MSTORE POP JUMP JUMPDEST PUSH0 PUSH2 0x183A PUSH1 0xD DUP4 PUSH2 0x14EF JUMP JUMPDEST SWAP2 POP PUSH2 0x1845 DUP3 PUSH2 0x1806 JUMP JUMPDEST PUSH1 0x20 DUP3 ADD SWAP1 POP SWAP2 SWAP1 POP JUMP JUMPDEST PUSH0 PUSH1 0x20 DUP3 ADD SWAP1 POP DUP2 DUP2 SUB PUSH0 DUP4 ADD MSTORE PUSH2 0x1867 DUP2 PUSH2 0x182E JUMP JUMPDEST SWAP1 POP SWAP2 SWAP1 POP JUMP JUMPDEST PUSH32 0x43616E646964617465206E6F7420617070726F76656400000000000000000000 PUSH0 DUP3 ADD MSTORE POP JUMP JUMPDEST PUSH0 PUSH2 0x18A2 PUSH1 0x16 DUP4 PUSH2 0x14EF JUMP JUMPDEST SWAP2 POP PUSH2 0x18AD DUP3 PUSH2 0x186E JUMP JUMPDEST PUSH1 0x20 DUP3 ADD SWAP1 POP SWAP2 SWAP1 POP JUMP JUMPDEST PUSH0 PUSH1 0x20 DUP3 ADD SWAP1 POP DUP2 DUP2 SUB PUSH0 DUP4 ADD MSTORE PUSH2 0x18CF DUP2 PUSH2 0x1896 JUMP JUMPDEST SWAP1 POP SWAP2 SWAP1 POP JUMP JUMPDEST PUSH32 0x4E487B7100000000000000000000000000000000000000000000000000000000 PUSH0 MSTORE PUSH1 0x11 PUSH1 0x4 MSTORE PUSH1 0x24 PUSH0 REVERT JUMPDEST PUSH0 PUSH2 0x190D DUP3 PUSH2 0x11AB JUMP JUMPDEST SWAP2 POP PUSH32 0xFFFFFFFFFFFFFFFFFFFFFFFFFFFFFFFFFFFFFFFFFFFFFFFFFFFFFFFFFFFFFFFF DUP3 SUB PUSH2 0x193F JUMPI PUSH2 0x193E PUSH2 0x18D6 JUMP JUMPDEST JUMPDEST PUSH1 0x1 DUP3 ADD SWAP1 POP SWAP2 SWAP1 POP JUMP JUMPDEST PUSH0 PUSH1 0x60 DUP3 ADD SWAP1 POP PUSH2 0x195D PUSH0 DUP4 ADD DUP7 PUSH2 0x155F JUMP JUMPDEST PUSH2 0x196A PUSH1 0x20 DUP4 ADD DUP6 PUSH2 0x14D6 JUMP JUMPDEST PUSH2 0x1977 PUSH1 0x40 DUP4 ADD DUP5 PUSH2 0x14D6 JUMP JUMPDEST SWAP5 SWAP4 POP POP POP POP JUMP JUMPDEST PUSH32 0x4F6E6C7920746865206F776E65722063616E20706572666F726D207468697320 PUSH0 DUP3 ADD MSTORE PUSH32 0x616374696F6E0000000000000000000000000000000000000000000000000000 PUSH1 0x20 DUP3 ADD MSTORE POP JUMP JUMPDEST PUSH0 PUSH2 0x19D9 PUSH1 0x26 DUP4 PUSH2 0x14EF JUMP JUMPDEST SWAP2 POP PUSH2 0x19E4 DUP3 PUSH2 0x197F JUMP JUMPDEST PUSH1 0x40 DUP3 ADD SWAP1 POP SWAP2 SWAP1 POP JUMP JUMPDEST PUSH0 PUSH1 0x20 DUP3 ADD SWAP1 POP DUP2 DUP2 SUB PUSH0 DUP4 ADD MSTORE PUSH2 0x1A06 DUP2 PUSH2 0x19CD JUMP JUMPDEST SWAP1 POP SWAP2 SWAP1 POP JUMP JUMPDEST PUSH32 0x496E76616C696420706F6C6C206475726174696F6E0000000000000000000000 PUSH0 DUP3 ADD MSTORE POP JUMP JUMPDEST PUSH0 PUSH2 0x1A41 PUSH1 0x15 DUP4 PUSH2 0x14EF JUMP JUMPDEST SWAP2 POP PUSH2 0x1A4C DUP3 PUSH2 0x1A0D JUMP JUMPDEST PUSH1 0x20 DUP3 ADD SWAP1 POP SWAP2 SWAP1 POP JUMP JUMPDEST PUSH0 PUSH1 0x20 DUP3 ADD SWAP1 POP DUP2 DUP2 SUB PUSH0 DUP4 ADD MSTORE PUSH2 0x1A6E DUP2 PUSH2 0x1A35 JUMP JUMPDEST SWAP1 POP SWAP2 SWAP1 POP JUMP JUMPDEST PUSH32 0x4E487B7100000000000000000000000000000000000000000000000000000000 PUSH0 MSTORE PUSH1 0x22 PUSH1 0x4 MSTORE PUSH1 0x24 PUSH0 REVERT JUMPDEST PUSH0 PUSH1 0x2 DUP3 DIV SWAP1 POP PUSH1 0x1 DUP3 AND DUP1 PUSH2 0x1AB9 JUMPI PUSH1 0x7F DUP3 AND SWAP2 POP JUMPDEST PUSH1 0x20 DUP3 LT DUP2 SUB PUSH2 0x1ACC JUMPI PUSH2 0x1ACB PUSH2 0x1A75 JUMP JUMPDEST JUMPDEST POP SWAP2 SWAP1 POP JUMP JUMPDEST PUSH0 DUP2 SWAP1 POP DUP2 PUSH0 MSTORE PUSH1 0x20 PUSH0 KECCAK256 SWAP1 POP SWAP2 SWAP1 POP JUMP JUMPDEST PUSH0 PUSH1 0x20 PUSH1 0x1F DUP4 ADD DIV SWAP1 POP SWAP2 SWAP1 POP JUMP JUMPDEST PUSH0 DUP3 DUP3 SHL SWAP1 POP SWAP3 SWAP2 POP POP JUMP JUMPDEST PUSH0 PUSH1 0x8 DUP4 MUL PUSH2 0x1B2E PUSH32 0xFFFFFFFFFFFFFFFFFFFFFFFFFFFFFFFFFFFFFFFFFFFFFFFFFFFFFFFFFFFFFFFF DUP3 PUSH2 0x1AF3 JUMP JUMPDEST PUSH2 0x1B38 DUP7 DUP4 PUSH2 0x1AF3 JUMP JUMPDEST SWAP6 POP DUP1 NOT DUP5 AND SWAP4 POP DUP1 DUP7 AND DUP5 OR SWAP3 POP POP POP SWAP4 SWAP3 POP POP POP JUMP JUMPDEST PUSH0 DUP2 SWAP1 POP SWAP2 SWAP1 POP JUMP JUMPDEST PUSH0 PUSH2 0x1B73 PUSH2 0x1B6E PUSH2 0x1B69 DUP5 PUSH2 0x11AB JUMP JUMPDEST PUSH2 0x1B50 JUMP JUMPDEST PUSH2 0x11AB JUMP JUMPDEST SWAP1 POP SWAP2 SWAP1 POP JUMP JUMPDEST PUSH0 DUP2 SWAP1 POP SWAP2 SWAP1 POP JUMP JUMPDEST PUSH2 0x1B8C DUP4 PUSH2 0x1B59 JUMP JUMPDEST PUSH2 0x1BA0 PUSH2 0x1B98 DUP3 PUSH2 0x1B7A JUMP JUMPDEST DUP5 DUP5 SLOAD PUSH2 0x1AFF JUMP JUMPDEST DUP3 SSTORE POP POP POP POP JUMP JUMPDEST PUSH0 SWAP1 JUMP JUMPDEST PUSH2 0x1BB4 PUSH2 0x1BA8 JUMP JUMPDEST PUSH2 0x1BBF DUP2 DUP5 DUP5 PUSH2 0x1B83 JUMP JUMPDEST POP POP POP JUMP JUMPDEST JUMPDEST DUP2 DUP2 LT ISZERO PUSH2 0x1BE2 JUMPI PUSH2 0x1BD7 PUSH0 DUP3 PUSH2 0x1BAC JUMP JUMPDEST PUSH1 0x1 DUP2 ADD SWAP1 POP PUSH2 0x1BC5 JUMP JUMPDEST POP POP JUMP JUMPDEST PUSH1 0x1F DUP3 GT ISZERO PUSH2 0x1C27 JUMPI PUSH2 0x1BF8 DUP2 PUSH2 0x1AD2 JUMP JUMPDEST PUSH2 0x1C01 DUP5 PUSH2 0x1AE4 JUMP JUMPDEST DUP2 ADD PUSH1 0x20 DUP6 LT ISZERO PUSH2 0x1C10 JUMPI DUP2 SWAP1 POP JUMPDEST PUSH2 0x1C24 PUSH2 0x1C1C DUP6 PUSH2 0x1AE4 JUMP JUMPDEST DUP4 ADD DUP3 PUSH2 0x1BC4 JUMP JUMPDEST POP POP JUMPDEST POP POP POP JUMP JUMPDEST PUSH0 DUP3 DUP3 SHR SWAP1 POP SWAP3 SWAP2 POP POP JUMP JUMPDEST PUSH0 PUSH2 0x1C47 PUSH0 NOT DUP5 PUSH1 0x8 MUL PUSH2 0x1C2C JUMP JUMPDEST NOT DUP1 DUP4 AND SWAP2 POP POP SWAP3 SWAP2 POP POP JUMP JUMPDEST PUSH0 PUSH2 0x1C5F DUP4 DUP4 PUSH2 0x1C38 JUMP JUMPDEST SWAP2 POP DUP3 PUSH1 0x2 MUL DUP3 OR SWAP1 POP SWAP3 SWAP2 POP POP JUMP JUMPDEST PUSH2 0x1C78 DUP3 PUSH2 0x14E5 JUMP JUMPDEST PUSH8 0xFFFFFFFFFFFFFFFF DUP2 GT ISZERO PUSH2 0x1C91 JUMPI PUSH2 0x1C90 PUSH2 0x128E JUMP JUMPDEST JUMPDEST PUSH2 0x1C9B DUP3 SLOAD PUSH2 0x1AA2 JUMP JUMPDEST PUSH2 0x1CA6 DUP3 DUP3 DUP6 PUSH2 0x1BE6 JUMP JUMPDEST PUSH0 PUSH1 0x20 SWAP1 POP PUSH1 0x1F DUP4 GT PUSH1 0x1 DUP2 EQ PUSH2 0x1CD7 JUMPI PUSH0 DUP5 ISZERO PUSH2 0x1CC5 JUMPI DUP3 DUP8 ADD MLOAD SWAP1 POP JUMPDEST PUSH2 0x1CCF DUP6 DUP3 PUSH2 0x1C54 JUMP JUMPDEST DUP7 SSTORE POP PUSH2 0x1D36 JUMP JUMPDEST PUSH1 0x1F NOT DUP5 AND PUSH2 0x1CE5 DUP7 PUSH2 0x1AD2 JUMP JUMPDEST PUSH0 JUMPDEST DUP3 DUP2 LT ISZERO PUSH2 0x1D0C JUMPI DUP5 DUP10 ADD MLOAD DUP3 SSTORE PUSH1 0x1 DUP3 ADD SWAP2 POP PUSH1 0x20 DUP6 ADD SWAP5 POP PUSH1 0x20 DUP2 ADD SWAP1 POP PUSH2 0x1CE7 JUMP JUMPDEST DUP7 DUP4 LT ISZERO PUSH2 0x1D29 JUMPI DUP5 DUP10 ADD MLOAD PUSH2 0x1D25 PUSH1 0x1F DUP10 AND DUP3 PUSH2 0x1C38 JUMP JUMPDEST DUP4 SSTORE POP JUMPDEST PUSH1 0x1 PUSH1 0x2 DUP9 MUL ADD DUP9 SSTORE POP POP POP JUMPDEST POP POP POP POP POP POP JUMP JUMPDEST PUSH0 PUSH1 0xA0 DUP3 ADD SWAP1 POP PUSH2 0x1D51 PUSH0 DUP4 ADD DUP9 PUSH2 0x155F JUMP JUMPDEST DUP2 DUP2 SUB PUSH1 0x20 DUP4 ADD MSTORE PUSH2 0x1D63 DUP2 DUP8 PUSH2 0x150D JUMP JUMPDEST SWAP1 POP DUP2 DUP2 SUB PUSH1 0x40 DUP4 ADD MSTORE PUSH2 0x1D77 DUP2 DUP7 PUSH2 0x150D JUMP JUMPDEST SWAP1 POP PUSH2 0x1D86 PUSH1 0x60 DUP4 ADD DUP6 PUSH2 0x155F JUMP JUMPDEST PUSH2 0x1D93 PUSH1 0x80 DUP4 ADD DUP5 PUSH2 0x155F JUMP JUMPDEST SWAP7 SWAP6 POP POP POP POP POP POP JUMP JUMPDEST PUSH32 0x416C7265616479207265676973746572656420617320612063616E6469646174 PUSH0 DUP3 ADD MSTORE PUSH32 0x6500000000000000000000000000000000000000000000000000000000000000 PUSH1 0x20 DUP3 ADD MSTORE POP JUMP JUMPDEST PUSH0 PUSH2 0x1DF7 PUSH1 0x21 DUP4 PUSH2 0x14EF JUMP JUMPDEST SWAP2 POP PUSH2 0x1E02 DUP3 PUSH2 0x1D9D JUMP JUMPDEST PUSH1 0x40 DUP3 ADD SWAP1 POP SWAP2 SWAP1 POP JUMP JUMPDEST PUSH0 PUSH1 0x20 DUP3 ADD SWAP1 POP DUP2 DUP2 SUB PUSH0 DUP4 ADD MSTORE PUSH2 0x1E24 DUP2 PUSH2 0x1DEB JUMP JUMPDEST SWAP1 POP SWAP2 SWAP1 POP JUMP JUMPDEST PUSH32 0x43616E646964617465206E616D6520616C72656164792074616B656E00000000 PUSH0 DUP3 ADD MSTORE POP JUMP JUMPDEST PUSH0 PUSH2 0x1E5F PUSH1 0x1C DUP4 PUSH2 0x14EF JUMP JUMPDEST SWAP2 POP PUSH2 0x1E6A DUP3 PUSH2 0x1E2B JUMP JUMPDEST PUSH1 0x20 DUP3 ADD SWAP1 POP SWAP2 SWAP1 POP JUMP JUMPDEST PUSH0 PUSH1 0x20 DUP3 ADD SWAP1 POP DUP2 DUP2 SUB PUSH0 DUP4 ADD MSTORE PUSH2 0x1E8C DUP2 PUSH2 0x1E53 JUMP JUMPDEST SWAP1 POP SWAP2 SWAP1 POP JUMP JUMPDEST PUSH0 PUSH1 0x80 DUP3 ADD SWAP1 POP PUSH2 0x1EA6 PUSH0 DUP4 ADD DUP8 PUSH2 0x155F JUMP JUMPDEST PUSH2 0x1EB3 PUSH1 0x20 DUP4 ADD DUP7 PUSH2 0x14D6 JUMP JUMPDEST DUP2 DUP2 SUB PUSH1 0x40 DUP4 ADD MSTORE PUSH2 0x1EC5 DUP2 DUP6 PUSH2 0x150D JUMP JUMPDEST SWAP1 POP DUP2 DUP2 SUB PUSH1 0x60 DUP4 ADD MSTORE PUSH2 0x1ED9 DUP2 DUP5 PUSH2 0x150D JUMP JUMPDEST SWAP1 POP SWAP6 SWAP5 POP POP POP POP POP JUMP JUMPDEST PUSH0 PUSH1 0x40 DUP3 ADD SWAP1 POP PUSH2 0x1EF7 PUSH0 DUP4 ADD DUP6 PUSH2 0x155F JUMP JUMPDEST PUSH2 0x1F04 PUSH1 0x20 DUP4 ADD DUP5 PUSH2 0x14D6 JUMP JUMPDEST SWAP4 SWAP3 POP POP POP JUMP JUMPDEST PUSH0 DUP2 SWAP1 POP SWAP3 SWAP2 POP POP JUMP JUMPDEST PUSH0 PUSH2 0x1F1F DUP3 PUSH2 0x14E5 JUMP JUMPDEST PUSH2 0x1F29 DUP2 DUP6 PUSH2 0x1F0B JUMP JUMPDEST SWAP4 POP PUSH2 0x1F39 DUP2 DUP6 PUSH1 0x20 DUP7 ADD PUSH2 0x14FF JUMP JUMPDEST DUP1 DUP5 ADD SWAP2 POP POP SWAP3 SWAP2 POP POP JUMP JUMPDEST PUSH0 PUSH2 0x1F50 DUP3 DUP5 PUSH2 0x1F15 JUMP JUMPDEST SWAP2 POP DUP2 SWAP1 POP SWAP3 SWAP2 POP POP JUMP JUMPDEST PUSH32 0x4E487B7100000000000000000000000000000000000000000000000000000000 PUSH0 MSTORE PUSH1 0x32 PUSH1 0x4 MSTORE PUSH1 0x24 PUSH0 REVERT JUMPDEST PUSH0 DUP2 SLOAD PUSH2 0x1F94 DUP2 PUSH2 0x1AA2 JUMP JUMPDEST PUSH2 0x1F9E DUP2 DUP7 PUSH2 0x1F0B JUMP JUMPDEST SWAP5 POP PUSH1 0x1 DUP3 AND PUSH0 DUP2 EQ PUSH2 0x1FB8 JUMPI PUSH1 0x1 DUP2 EQ PUSH2 0x1FCD JUMPI PUSH2 0x1FFF JUMP JUMPDEST PUSH1 0xFF NOT DUP4 AND DUP7 MSTORE DUP2 ISZERO ISZERO DUP3 MUL DUP7 ADD SWAP4 POP PUSH2 0x1FFF JUMP JUMPDEST PUSH2 0x1FD6 DUP6 PUSH2 0x1AD2 JUMP JUMPDEST PUSH0 JUMPDEST DUP4 DUP2 LT ISZERO PUSH2 0x1FF7 JUMPI DUP2 SLOAD DUP2 DUP10 ADD MSTORE PUSH1 0x1 DUP3 ADD SWAP2 POP PUSH1 0x20 DUP2 ADD SWAP1 POP PUSH2 0x1FD8 JUMP JUMPDEST DUP4 DUP9 ADD SWAP6 POP POP POP JUMPDEST POP POP POP SWAP3 SWAP2 POP POP JUMP JUMPDEST PUSH0 PUSH2 0x2013 DUP3 DUP5 PUSH2 0x1F88 JUMP JUMPDEST SWAP2 POP DUP2 SWAP1 POP SWAP3 SWAP2 POP POP JUMP INVALID LOG2 PUSH5 0x6970667358 0x22 SLT KECCAK256 0xC3 EXTCODEHASH 0xA9 0xBA 0xCA 0xE2 0xD5 RETURN 0xC1 PUSH24 0x4BF200BD141E191962F631530DBF7E8783D5C1FA13826473 PUSH16 0x6C634300081A00330000000000000000 "
				},
				"gasEstimates": {
					"creation": {
						"codeDepositCost": "1655200",
						"executionCost": "25999",
						"totalCost": "1681199"
					},
					"external": {
						"allCandidates(uint256,uint256)": "infinite",
						"createPoll(string,string,uint256,uint256)": "infinite",
						"endPoll(uint256)": "infinite",
						"owner()": "2505",
						"pollCandidates(uint256,address)": "infinite",
						"pollCount()": "2447",
						"polls(uint256)": "infinite",
						"registerAsCandidate(uint256,string,string)": "infinite",
						"registeredCandidates(address)": "2922",
						"vote(uint256,address)": "infinite"
					},
					"internal": {
						"isCandidateNameTaken(uint256,string memory)": "infinite"
					}
				},
				"methodIdentifiers": {
					"allCandidates(uint256,uint256)": "93264baa",
					"createPoll(string,string,uint256,uint256)": "06aceddc",
					"endPoll(uint256)": "f43b8778",
					"owner()": "8da5cb5b",
					"pollCandidates(uint256,address)": "4ea05fe0",
					"pollCount()": "9207891d",
					"polls(uint256)": "ac2f0074",
					"registerAsCandidate(uint256,string,string)": "291d9569",
					"registeredCandidates(address)": "5c1e7bec",
					"vote(uint256,address)": "02d947ef"
				}
			},
			"storageLayout": {
				"storage": [
					{
						"astId": 3,
						"contract": "storage.sol:VotingDApp",
						"label": "owner",
						"offset": 0,
						"slot": "0",
						"type": "t_address"
					},
					{
						"astId": 5,
						"contract": "storage.sol:VotingDApp",
						"label": "pollCount",
						"offset": 0,
						"slot": "1",
						"type": "t_uint256"
					},
					{
						"astId": 46,
						"contract": "storage.sol:VotingDApp",
						"label": "polls",
						"offset": 0,
						"slot": "2",
						"type": "t_mapping(t_uint256,t_struct(Poll)41_storage)"
					},
					{
						"astId": 50,
						"contract": "storage.sol:VotingDApp",
						"label": "registeredCandidates",
						"offset": 0,
						"slot": "3",
						"type": "t_mapping(t_address,t_bool)"
					},
					{
						"astId": 57,
						"contract": "storage.sol:VotingDApp",
						"label": "pollCandidates",
						"offset": 0,
						"slot": "4",
						"type": "t_mapping(t_uint256,t_mapping(t_address,t_struct(Candidate)16_storage))"
					},
					{
						"astId": 62,
						"contract": "storage.sol:VotingDApp",
						"label": "allCandidates",
						"offset": 0,
						"slot": "5",
						"type": "t_mapping(t_uint256,t_array(t_address)dyn_storage)"
					}
				],
				"types": {
					"t_address": {
						"encoding": "inplace",
						"label": "address",
						"numberOfBytes": "20"
					},
					"t_array(t_address)dyn_storage": {
						"base": "t_address",
						"encoding": "dynamic_array",
						"label": "address[]",
						"numberOfBytes": "32"
					},
					"t_bool": {
						"encoding": "inplace",
						"label": "bool",
						"numberOfBytes": "1"
					},
					"t_mapping(t_address,t_bool)": {
						"encoding": "mapping",
						"key": "t_address",
						"label": "mapping(address => bool)",
						"numberOfBytes": "32",
						"value": "t_bool"
					},
					"t_mapping(t_address,t_struct(Candidate)16_storage)": {
						"encoding": "mapping",
						"key": "t_address",
						"label": "mapping(address => struct VotingDApp.Candidate)",
						"numberOfBytes": "32",
						"value": "t_struct(Candidate)16_storage"
					},
					"t_mapping(t_address,t_uint256)": {
						"encoding": "mapping",
						"key": "t_address",
						"label": "mapping(address => uint256)",
						"numberOfBytes": "32",
						"value": "t_uint256"
					},
					"t_mapping(t_uint256,t_array(t_address)dyn_storage)": {
						"encoding": "mapping",
						"key": "t_uint256",
						"label": "mapping(uint256 => address[])",
						"numberOfBytes": "32",
						"value": "t_array(t_address)dyn_storage"
					},
					"t_mapping(t_uint256,t_mapping(t_address,t_struct(Candidate)16_storage))": {
						"encoding": "mapping",
						"key": "t_uint256",
						"label": "mapping(uint256 => mapping(address => struct VotingDApp.Candidate))",
						"numberOfBytes": "32",
						"value": "t_mapping(t_address,t_struct(Candidate)16_storage)"
					},
					"t_mapping(t_uint256,t_struct(Poll)41_storage)": {
						"encoding": "mapping",
						"key": "t_uint256",
						"label": "mapping(uint256 => struct VotingDApp.Poll)",
						"numberOfBytes": "32",
						"value": "t_struct(Poll)41_storage"
					},
					"t_string_storage": {
						"encoding": "bytes",
						"label": "string",
						"numberOfBytes": "32"
					},
					"t_struct(Candidate)16_storage": {
						"encoding": "inplace",
						"label": "struct VotingDApp.Candidate",
						"members": [
							{
								"astId": 7,
								"contract": "storage.sol:VotingDApp",
								"label": "candidateAddress",
								"offset": 0,
								"slot": "0",
								"type": "t_address"
							},
							{
								"astId": 9,
								"contract": "storage.sol:VotingDApp",
								"label": "name",
								"offset": 0,
								"slot": "1",
								"type": "t_string_storage"
							},
							{
								"astId": 11,
								"contract": "storage.sol:VotingDApp",
								"label": "imageUrl",
								"offset": 0,
								"slot": "2",
								"type": "t_string_storage"
							},
							{
								"astId": 13,
								"contract": "storage.sol:VotingDApp",
								"label": "approved",
								"offset": 0,
								"slot": "3",
								"type": "t_bool"
							},
							{
								"astId": 15,
								"contract": "storage.sol:VotingDApp",
								"label": "votesReceived",
								"offset": 0,
								"slot": "4",
								"type": "t_uint256"
							}
						],
						"numberOfBytes": "160"
					},
					"t_struct(Poll)41_storage": {
						"encoding": "inplace",
						"label": "struct VotingDApp.Poll",
						"members": [
							{
								"astId": 18,
								"contract": "storage.sol:VotingDApp",
								"label": "name",
								"offset": 0,
								"slot": "0",
								"type": "t_string_storage"
							},
							{
								"astId": 20,
								"contract": "storage.sol:VotingDApp",
								"label": "imageUrl",
								"offset": 0,
								"slot": "1",
								"type": "t_string_storage"
							},
							{
								"astId": 22,
								"contract": "storage.sol:VotingDApp",
								"label": "active",
								"offset": 0,
								"slot": "2",
								"type": "t_bool"
							},
							{
								"astId": 24,
								"contract": "storage.sol:VotingDApp",
								"label": "startTime",
								"offset": 0,
								"slot": "3",
								"type": "t_uint256"
							},
							{
								"astId": 26,
								"contract": "storage.sol:VotingDApp",
								"label": "endTime",
								"offset": 0,
								"slot": "4",
								"type": "t_uint256"
							},
							{
								"astId": 30,
								"contract": "storage.sol:VotingDApp",
								"label": "hasVoted",
								"offset": 0,
								"slot": "5",
								"type": "t_mapping(t_address,t_bool)"
							},
							{
								"astId": 34,
								"contract": "storage.sol:VotingDApp",
								"label": "votes",
								"offset": 0,
								"slot": "6",
								"type": "t_mapping(t_address,t_uint256)"
							},
							{
								"astId": 36,
								"contract": "storage.sol:VotingDApp",
								"label": "totalVotes",
								"offset": 0,
								"slot": "7",
								"type": "t_uint256"
							},
							{
								"astId": 38,
								"contract": "storage.sol:VotingDApp",
								"label": "highestVotes",
								"offset": 0,
								"slot": "8",
								"type": "t_uint256"
							},
							{
								"astId": 40,
								"contract": "storage.sol:VotingDApp",
								"label": "winner",
								"offset": 0,
								"slot": "9",
								"type": "t_address"
							}
						],
						"numberOfBytes": "320"
					},
					"t_uint256": {
						"encoding": "inplace",
						"label": "uint256",
						"numberOfBytes": "32"
					}
				}
			},
			"userdoc": {
				"kind": "user",
				"methods": {},
				"version": 1
			}
		}
	}
}