{
	"vote.sol": {
		"DecentralizedVoting": {
			"abi": [
				{
					"inputs": [
						{
							"internalType": "bytes32",
							"name": "_topic",
							"type": "bytes32"
						}
					],
					"stateMutability": "nonpayable",
					"type": "constructor"
				},
				{
					"anonymous": false,
					"inputs": [
						{
							"indexed": false,
							"internalType": "address",
							"name": "voter",
							"type": "address"
						},
						{
							"indexed": false,
							"internalType": "bytes32",
							"name": "choice",
							"type": "bytes32"
						}
					],
					"name": "VoteCasted",
					"type": "event"
				},
				{
					"anonymous": false,
					"inputs": [
						{
							"indexed": false,
							"internalType": "address",
							"name": "voter",
							"type": "address"
						}
					],
					"name": "VoterRegistered",
					"type": "event"
				},
				{
					"anonymous": false,
					"inputs": [],
					"name": "VotingEnded",
					"type": "event"
				},
				{
					"inputs": [],
					"name": "admin",
					"outputs": [
						{
							"internalType": "address",
							"name": "",
							"type": "address"
						}
					],
					"stateMutability": "view",
					"type": "function"
				},
				{
					"inputs": [
						{
							"internalType": "bytes32",
							"name": "_choice",
							"type": "bytes32"
						}
					],
					"name": "castVote",
					"outputs": [],
					"stateMutability": "nonpayable",
					"type": "function"
				},
				{
					"inputs": [],
					"name": "endVoting",
					"outputs": [],
					"stateMutability": "nonpayable",
					"type": "function"
				},
				{
					"inputs": [
						{
							"internalType": "bytes32",
							"name": "_choice",
							"type": "bytes32"
						}
					],
					"name": "getResult",
					"outputs": [
						{
							"internalType": "uint256",
							"name": "",
							"type": "uint256"
						}
					],
					"stateMutability": "view",
					"type": "function"
				},
				{
					"inputs": [],
					"name": "getWinner",
					"outputs": [
						{
							"internalType": "bytes32",
							"name": "",
							"type": "bytes32"
						}
					],
					"stateMutability": "view",
					"type": "function"
				},
				{
					"inputs": [
						{
							"internalType": "address",
							"name": "_voter",
							"type": "address"
						}
					],
					"name": "registerVoter",
					"outputs": [],
					"stateMutability": "nonpayable",
					"type": "function"
				},
				{
					"inputs": [],
					"name": "startVoting",
					"outputs": [],
					"stateMutability": "nonpayable",
					"type": "function"
				},
				{
					"inputs": [],
					"name": "topic",
					"outputs": [
						{
							"internalType": "bytes32",
							"name": "",
							"type": "bytes32"
						}
					],
					"stateMutability": "view",
					"type": "function"
				},
				{
					"inputs": [
						{
							"internalType": "bytes32",
							"name": "",
							"type": "bytes32"
						}
					],
					"name": "voteCount",
					"outputs": [
						{
							"internalType": "uint256",
							"name": "",
							"type": "uint256"
						}
					],
					"stateMutability": "view",
					"type": "function"
				},
				{
					"inputs": [
						{
							"internalType": "address",
							"name": "",
							"type": "address"
						}
					],
					"name": "voters",
					"outputs": [
						{
							"internalType": "bool",
							"name": "isRegistered",
							"type": "bool"
						},
						{
							"internalType": "bool",
							"name": "hasVoted",
							"type": "bool"
						}
					],
					"stateMutability": "view",
					"type": "function"
				},
				{
					"inputs": [],
					"name": "votingActive",
					"outputs": [
						{
							"internalType": "bool",
							"name": "",
							"type": "bool"
						}
					],
					"stateMutability": "view",
					"type": "function"
				}
			],
			"devdoc": {
				"kind": "dev",
				"methods": {},
				"version": 1
			},
			"evm": {
				"assembly": "    /* \"vote.sol\":57:2441  contract DecentralizedVoting {... */\n  mstore(0x40, 0x80)\n    /* \"vote.sol\":817:933  constructor(bytes32 _topic) {... */\n  callvalue\n  dup1\n  iszero\n  tag_1\n  jumpi\n  0x00\n  dup1\n  revert\ntag_1:\n  pop\n  mload(0x40)\n  sub(codesize, bytecodeSize)\n  dup1\n  bytecodeSize\n  dup4\n  codecopy\n  dup2\n  dup2\n  add\n  0x40\n  mstore\n  dup2\n  add\n  swap1\n  tag_2\n  swap2\n  swap1\n  tag_3\n  jump\t// in\ntag_2:\n    /* \"vote.sol\":863:873  msg.sender */\n  caller\n    /* \"vote.sol\":855:860  admin */\n  0x02\n  0x00\n    /* \"vote.sol\":855:873  admin = msg.sender */\n  0x0100\n  exp\n  dup2\n  sload\n  dup2\n  0xffffffffffffffffffffffffffffffffffffffff\n  mul\n  not\n  and\n  swap1\n  dup4\n  0xffffffffffffffffffffffffffffffffffffffff\n  and\n  mul\n  or\n  swap1\n  sstore\n  pop\n    /* \"vote.sol\":891:897  _topic */\n  dup1\n    /* \"vote.sol\":883:888  topic */\n  0x03\n    /* \"vote.sol\":883:897  topic = _topic */\n  dup2\n  swap1\n  sstore\n  pop\n    /* \"vote.sol\":922:926  true */\n  0x01\n    /* \"vote.sol\":907:919  votingActive */\n  0x04\n  0x00\n    /* \"vote.sol\":907:926  votingActive = true */\n  0x0100\n  exp\n  dup2\n  sload\n  dup2\n  0xff\n  mul\n  not\n  and\n  swap1\n  dup4\n  iszero\n  iszero\n  mul\n  or\n  swap1\n  sstore\n  pop\n    /* \"vote.sol\":817:933  constructor(bytes32 _topic) {... */\n  pop\n    /* \"vote.sol\":57:2441  contract DecentralizedVoting {... */\n  jump(tag_6)\n    /* \"#utility.yul\":88:205   */\ntag_8:\n    /* \"#utility.yul\":197:198   */\n  0x00\n    /* \"#utility.yul\":194:195   */\n  dup1\n    /* \"#utility.yul\":187:199   */\n  revert\n    /* \"#utility.yul\":334:411   */\ntag_10:\n    /* \"#utility.yul\":371:378   */\n  0x00\n    /* \"#utility.yul\":400:405   */\n  dup2\n    /* \"#utility.yul\":389:405   */\n  swap1\n  pop\n    /* \"#utility.yul\":334:411   */\n  swap2\n  swap1\n  pop\n  jump\t// out\n    /* \"#utility.yul\":417:539   */\ntag_11:\n    /* \"#utility.yul\":490:514   */\n  tag_19\n    /* \"#utility.yul\":508:513   */\n  dup2\n    /* \"#utility.yul\":490:514   */\n  tag_10\n  jump\t// in\ntag_19:\n    /* \"#utility.yul\":483:488   */\n  dup2\n    /* \"#utility.yul\":480:515   */\n  eq\n    /* \"#utility.yul\":470:533   */\n  tag_20\n  jumpi\n    /* \"#utility.yul\":529:530   */\n  0x00\n    /* \"#utility.yul\":526:527   */\n  dup1\n    /* \"#utility.yul\":519:531   */\n  revert\n    /* \"#utility.yul\":470:533   */\ntag_20:\n    /* \"#utility.yul\":417:539   */\n  pop\n  jump\t// out\n    /* \"#utility.yul\":545:688   */\ntag_12:\n    /* \"#utility.yul\":602:607   */\n  0x00\n    /* \"#utility.yul\":633:639   */\n  dup2\n    /* \"#utility.yul\":627:640   */\n  mload\n    /* \"#utility.yul\":618:640   */\n  swap1\n  pop\n    /* \"#utility.yul\":649:682   */\n  tag_22\n    /* \"#utility.yul\":676:681   */\n  dup2\n    /* \"#utility.yul\":649:682   */\n  tag_11\n  jump\t// in\ntag_22:\n    /* \"#utility.yul\":545:688   */\n  swap3\n  swap2\n  pop\n  pop\n  jump\t// out\n    /* \"#utility.yul\":694:1045   */\ntag_3:\n    /* \"#utility.yul\":764:770   */\n  0x00\n    /* \"#utility.yul\":813:815   */\n  0x20\n    /* \"#utility.yul\":801:810   */\n  dup3\n    /* \"#utility.yul\":792:799   */\n  dup5\n    /* \"#utility.yul\":788:811   */\n  sub\n    /* \"#utility.yul\":784:816   */\n  slt\n    /* \"#utility.yul\":781:900   */\n  iszero\n  tag_24\n  jumpi\n    /* \"#utility.yul\":819:898   */\n  tag_25\n  tag_8\n  jump\t// in\ntag_25:\n    /* \"#utility.yul\":781:900   */\ntag_24:\n    /* \"#utility.yul\":939:940   */\n  0x00\n    /* \"#utility.yul\":964:1028   */\n  tag_26\n    /* \"#utility.yul\":1020:1027   */\n  dup5\n    /* \"#utility.yul\":1011:1017   */\n  dup3\n    /* \"#utility.yul\":1000:1009   */\n  dup6\n    /* \"#utility.yul\":996:1018   */\n  add\n    /* \"#utility.yul\":964:1028   */\n  tag_12\n  jump\t// in\ntag_26:\n    /* \"#utility.yul\":954:1028   */\n  swap2\n  pop\n    /* \"#utility.yul\":910:1038   */\n  pop\n    /* \"#utility.yul\":694:1045   */\n  swap3\n  swap2\n  pop\n  pop\n  jump\t// out\n    /* \"vote.sol\":57:2441  contract DecentralizedVoting {... */\ntag_6:\n  dataSize(sub_0)\n  dup1\n  dataOffset(sub_0)\n  0x00\n  codecopy\n  0x00\n  return\nstop\n\nsub_0: assembly {\n        /* \"vote.sol\":57:2441  contract DecentralizedVoting {... */\n      mstore(0x40, 0x80)\n      callvalue\n      dup1\n      iszero\n      tag_1\n      jumpi\n      0x00\n      dup1\n      revert\n    tag_1:\n      pop\n      jumpi(tag_2, lt(calldatasize, 0x04))\n      shr(0xe0, calldataload(0x00))\n      dup1\n      0xa3ec138d\n      gt\n      tag_14\n      jumpi\n      dup1\n      0xa3ec138d\n      eq\n      tag_8\n      jumpi\n      dup1\n      0xadd4c784\n      eq\n      tag_9\n      jumpi\n      dup1\n      0xbf63a577\n      eq\n      tag_10\n      jumpi\n      dup1\n      0xc3403ddf\n      eq\n      tag_11\n      jumpi\n      dup1\n      0xf28bddf6\n      eq\n      tag_12\n      jumpi\n      dup1\n      0xf851a440\n      eq\n      tag_13\n      jumpi\n      jump(tag_2)\n    tag_14:\n      dup1\n      0x1ec6b60a\n      eq\n      tag_3\n      jumpi\n      dup1\n      0x38db6dd3\n      eq\n      tag_4\n      jumpi\n      dup1\n      0x3efafb6e\n      eq\n      tag_5\n      jumpi\n      dup1\n      0x408e2727\n      eq\n      tag_6\n      jumpi\n      dup1\n      0x8e7ea5b2\n      eq\n      tag_7\n      jumpi\n    tag_2:\n      0x00\n      dup1\n      revert\n        /* \"vote.sol\":1170:1308  function startVoting() external onlyAdmin {... */\n    tag_3:\n      tag_15\n      tag_16\n      jump\t// in\n    tag_15:\n      stop\n        /* \"vote.sol\":939:1164  function registerVoter(address _voter) external onlyAdmin {... */\n    tag_4:\n      tag_17\n      0x04\n      dup1\n      calldatasize\n      sub\n      dup2\n      add\n      swap1\n      tag_18\n      swap2\n      swap1\n      tag_19\n      jump\t// in\n    tag_18:\n      tag_20\n      jump\t// in\n    tag_17:\n      stop\n        /* \"vote.sol\":1480:1751  function castVote(bytes32 _choice) external onlyRegistered onlyActive {... */\n    tag_5:\n      tag_21\n      0x04\n      dup1\n      calldatasize\n      sub\n      dup2\n      add\n      swap1\n      tag_22\n      swap2\n      swap1\n      tag_23\n      jump\t// in\n    tag_22:\n      tag_24\n      jump\t// in\n    tag_21:\n      stop\n        /* \"vote.sol\":317:341  bool public votingActive */\n    tag_6:\n      tag_25\n      tag_26\n      jump\t// in\n    tag_25:\n      mload(0x40)\n      tag_27\n      swap2\n      swap1\n      tag_28\n      jump\t// in\n    tag_27:\n      mload(0x40)\n      dup1\n      swap2\n      sub\n      swap1\n      return\n        /* \"vote.sol\":1931:2439  function getWinner() external view returns (bytes32) {... */\n    tag_7:\n      tag_29\n      tag_30\n      jump\t// in\n    tag_29:\n      mload(0x40)\n      tag_31\n      swap2\n      swap1\n      tag_32\n      jump\t// in\n    tag_31:\n      mload(0x40)\n      dup1\n      swap2\n      sub\n      swap1\n      return\n        /* \"vote.sol\":169:208  mapping(address => Voter) public voters */\n    tag_8:\n      tag_33\n      0x04\n      dup1\n      calldatasize\n      sub\n      dup2\n      add\n      swap1\n      tag_34\n      swap2\n      swap1\n      tag_19\n      jump\t// in\n    tag_34:\n      tag_35\n      jump\t// in\n    tag_33:\n      mload(0x40)\n      tag_36\n      swap3\n      swap2\n      swap1\n      tag_37\n      jump\t// in\n    tag_36:\n      mload(0x40)\n      dup1\n      swap2\n      sub\n      swap1\n      return\n        /* \"vote.sol\":1757:1925  function getResult(bytes32 _choice) external view returns (uint256) {... */\n    tag_9:\n      tag_38\n      0x04\n      dup1\n      calldatasize\n      sub\n      dup2\n      add\n      swap1\n      tag_39\n      swap2\n      swap1\n      tag_23\n      jump\t// in\n    tag_39:\n      tag_40\n      jump\t// in\n    tag_38:\n      mload(0x40)\n      tag_41\n      swap2\n      swap1\n      tag_42\n      jump\t// in\n    tag_41:\n      mload(0x40)\n      dup1\n      swap2\n      sub\n      swap1\n      return\n        /* \"vote.sol\":291:311  bytes32 public topic */\n    tag_10:\n      tag_43\n      tag_44\n      jump\t// in\n    tag_43:\n      mload(0x40)\n      tag_45\n      swap2\n      swap1\n      tag_32\n      jump\t// in\n    tag_45:\n      mload(0x40)\n      dup1\n      swap2\n      sub\n      swap1\n      return\n        /* \"vote.sol\":1314:1474  function endVoting() external onlyAdmin {... */\n    tag_11:\n      tag_46\n      tag_47\n      jump\t// in\n    tag_46:\n      stop\n        /* \"vote.sol\":214:258  mapping(bytes32 => uint256) public voteCount */\n    tag_12:\n      tag_48\n      0x04\n      dup1\n      calldatasize\n      sub\n      dup2\n      add\n      swap1\n      tag_49\n      swap2\n      swap1\n      tag_23\n      jump\t// in\n    tag_49:\n      tag_50\n      jump\t// in\n    tag_48:\n      mload(0x40)\n      tag_51\n      swap2\n      swap1\n      tag_42\n      jump\t// in\n    tag_51:\n      mload(0x40)\n      dup1\n      swap2\n      sub\n      swap1\n      return\n        /* \"vote.sol\":265:285  address public admin */\n    tag_13:\n      tag_52\n      tag_53\n      jump\t// in\n    tag_52:\n      mload(0x40)\n      tag_54\n      swap2\n      swap1\n      tag_55\n      jump\t// in\n    tag_54:\n      mload(0x40)\n      dup1\n      swap2\n      sub\n      swap1\n      return\n        /* \"vote.sol\":1170:1308  function startVoting() external onlyAdmin {... */\n    tag_16:\n        /* \"vote.sol\":522:527  admin */\n      0x02\n      0x00\n      swap1\n      sload\n      swap1\n      0x0100\n      exp\n      swap1\n      div\n      0xffffffffffffffffffffffffffffffffffffffff\n      and\n        /* \"vote.sol\":508:527  msg.sender == admin */\n      0xffffffffffffffffffffffffffffffffffffffff\n      and\n        /* \"vote.sol\":508:518  msg.sender */\n      caller\n        /* \"vote.sol\":508:527  msg.sender == admin */\n      0xffffffffffffffffffffffffffffffffffffffff\n      and\n      eq\n        /* \"vote.sol\":500:565  require(msg.sender == admin, \"Only admin can call this function\") */\n      tag_57\n      jumpi\n      mload(0x40)\n      0x08c379a000000000000000000000000000000000000000000000000000000000\n      dup2\n      mstore\n      0x04\n      add\n      tag_58\n      swap1\n      tag_59\n      jump\t// in\n    tag_58:\n      mload(0x40)\n      dup1\n      swap2\n      sub\n      swap1\n      revert\n    tag_57:\n        /* \"vote.sol\":1231:1243  votingActive */\n      0x04\n      0x00\n      swap1\n      sload\n      swap1\n      0x0100\n      exp\n      swap1\n      div\n      0xff\n      and\n        /* \"vote.sol\":1230:1243  !votingActive */\n      iszero\n        /* \"vote.sol\":1222:1272  require(!votingActive, \"Voting is already active\") */\n      tag_61\n      jumpi\n      mload(0x40)\n      0x08c379a000000000000000000000000000000000000000000000000000000000\n      dup2\n      mstore\n      0x04\n      add\n      tag_62\n      swap1\n      tag_63\n      jump\t// in\n    tag_62:\n      mload(0x40)\n      dup1\n      swap2\n      sub\n      swap1\n      revert\n    tag_61:\n        /* \"vote.sol\":1297:1301  true */\n      0x01\n        /* \"vote.sol\":1282:1294  votingActive */\n      0x04\n      0x00\n        /* \"vote.sol\":1282:1301  votingActive = true */\n      0x0100\n      exp\n      dup2\n      sload\n      dup2\n      0xff\n      mul\n      not\n      and\n      swap1\n      dup4\n      iszero\n      iszero\n      mul\n      or\n      swap1\n      sstore\n      pop\n        /* \"vote.sol\":1170:1308  function startVoting() external onlyAdmin {... */\n      jump\t// out\n        /* \"vote.sol\":939:1164  function registerVoter(address _voter) external onlyAdmin {... */\n    tag_20:\n        /* \"vote.sol\":522:527  admin */\n      0x02\n      0x00\n      swap1\n      sload\n      swap1\n      0x0100\n      exp\n      swap1\n      div\n      0xffffffffffffffffffffffffffffffffffffffff\n      and\n        /* \"vote.sol\":508:527  msg.sender == admin */\n      0xffffffffffffffffffffffffffffffffffffffff\n      and\n        /* \"vote.sol\":508:518  msg.sender */\n      caller\n        /* \"vote.sol\":508:527  msg.sender == admin */\n      0xffffffffffffffffffffffffffffffffffffffff\n      and\n      eq\n        /* \"vote.sol\":500:565  require(msg.sender == admin, \"Only admin can call this function\") */\n      tag_65\n      jumpi\n      mload(0x40)\n      0x08c379a000000000000000000000000000000000000000000000000000000000\n      dup2\n      mstore\n      0x04\n      add\n      tag_66\n      swap1\n      tag_59\n      jump\t// in\n    tag_66:\n      mload(0x40)\n      dup1\n      swap2\n      sub\n      swap1\n      revert\n    tag_65:\n        /* \"vote.sol\":1016:1022  voters */\n      0x00\n        /* \"vote.sol\":1016:1030  voters[_voter] */\n      dup1\n        /* \"vote.sol\":1023:1029  _voter */\n      dup3\n        /* \"vote.sol\":1016:1030  voters[_voter] */\n      0xffffffffffffffffffffffffffffffffffffffff\n      and\n      0xffffffffffffffffffffffffffffffffffffffff\n      and\n      dup2\n      mstore\n      0x20\n      add\n      swap1\n      dup2\n      mstore\n      0x20\n      add\n      0x00\n      keccak256\n        /* \"vote.sol\":1016:1043  voters[_voter].isRegistered */\n      0x00\n      add\n      0x00\n      swap1\n      sload\n      swap1\n      0x0100\n      exp\n      swap1\n      div\n      0xff\n      and\n        /* \"vote.sol\":1015:1043  !voters[_voter].isRegistered */\n      iszero\n        /* \"vote.sol\":1007:1075  require(!voters[_voter].isRegistered, \"Voter is already registered\") */\n      tag_68\n      jumpi\n      mload(0x40)\n      0x08c379a000000000000000000000000000000000000000000000000000000000\n      dup2\n      mstore\n      0x04\n      add\n      tag_69\n      swap1\n      tag_70\n      jump\t// in\n    tag_69:\n      mload(0x40)\n      dup1\n      swap2\n      sub\n      swap1\n      revert\n    tag_68:\n        /* \"vote.sol\":1115:1119  true */\n      0x01\n        /* \"vote.sol\":1085:1091  voters */\n      0x00\n        /* \"vote.sol\":1085:1099  voters[_voter] */\n      dup1\n        /* \"vote.sol\":1092:1098  _voter */\n      dup4\n        /* \"vote.sol\":1085:1099  voters[_voter] */\n      0xffffffffffffffffffffffffffffffffffffffff\n      and\n      0xffffffffffffffffffffffffffffffffffffffff\n      and\n      dup2\n      mstore\n      0x20\n      add\n      swap1\n      dup2\n      mstore\n      0x20\n      add\n      0x00\n      keccak256\n        /* \"vote.sol\":1085:1112  voters[_voter].isRegistered */\n      0x00\n      add\n      0x00\n        /* \"vote.sol\":1085:1119  voters[_voter].isRegistered = true */\n      0x0100\n      exp\n      dup2\n      sload\n      dup2\n      0xff\n      mul\n      not\n      and\n      swap1\n      dup4\n      iszero\n      iszero\n      mul\n      or\n      swap1\n      sstore\n      pop\n        /* \"vote.sol\":1134:1157  VoterRegistered(_voter) */\n      0xb6be2187d059cc2a55fe29e0e503b566e1e0f8c8780096e185429350acffd3dd\n        /* \"vote.sol\":1150:1156  _voter */\n      dup2\n        /* \"vote.sol\":1134:1157  VoterRegistered(_voter) */\n      mload(0x40)\n      tag_71\n      swap2\n      swap1\n      tag_55\n      jump\t// in\n    tag_71:\n      mload(0x40)\n      dup1\n      swap2\n      sub\n      swap1\n      log1\n        /* \"vote.sol\":939:1164  function registerVoter(address _voter) external onlyAdmin {... */\n      pop\n      jump\t// out\n        /* \"vote.sol\":1480:1751  function castVote(bytes32 _choice) external onlyRegistered onlyActive {... */\n    tag_24:\n        /* \"vote.sol\":633:639  voters */\n      0x00\n        /* \"vote.sol\":633:651  voters[msg.sender] */\n      dup1\n        /* \"vote.sol\":640:650  msg.sender */\n      caller\n        /* \"vote.sol\":633:651  voters[msg.sender] */\n      0xffffffffffffffffffffffffffffffffffffffff\n      and\n      0xffffffffffffffffffffffffffffffffffffffff\n      and\n      dup2\n      mstore\n      0x20\n      add\n      swap1\n      dup2\n      mstore\n      0x20\n      add\n      0x00\n      keccak256\n        /* \"vote.sol\":633:664  voters[msg.sender].isRegistered */\n      0x00\n      add\n      0x00\n      swap1\n      sload\n      swap1\n      0x0100\n      exp\n      swap1\n      div\n      0xff\n      and\n        /* \"vote.sol\":625:692  require(voters[msg.sender].isRegistered, \"Voter is not registered\") */\n      tag_73\n      jumpi\n      mload(0x40)\n      0x08c379a000000000000000000000000000000000000000000000000000000000\n      dup2\n      mstore\n      0x04\n      add\n      tag_74\n      swap1\n      tag_75\n      jump\t// in\n    tag_74:\n      mload(0x40)\n      dup1\n      swap2\n      sub\n      swap1\n      revert\n    tag_73:\n        /* \"vote.sol\":756:768  votingActive */\n      0x04\n      0x00\n      swap1\n      sload\n      swap1\n      0x0100\n      exp\n      swap1\n      div\n      0xff\n      and\n        /* \"vote.sol\":748:793  require(votingActive, \"Voting is not active\") */\n      tag_77\n      jumpi\n      mload(0x40)\n      0x08c379a000000000000000000000000000000000000000000000000000000000\n      dup2\n      mstore\n      0x04\n      add\n      tag_78\n      swap1\n      tag_79\n      jump\t// in\n    tag_78:\n      mload(0x40)\n      dup1\n      swap2\n      sub\n      swap1\n      revert\n    tag_77:\n        /* \"vote.sol\":1569:1575  voters */\n      0x00\n        /* \"vote.sol\":1569:1587  voters[msg.sender] */\n      dup1\n        /* \"vote.sol\":1576:1586  msg.sender */\n      caller\n        /* \"vote.sol\":1569:1587  voters[msg.sender] */\n      0xffffffffffffffffffffffffffffffffffffffff\n      and\n      0xffffffffffffffffffffffffffffffffffffffff\n      and\n      dup2\n      mstore\n      0x20\n      add\n      swap1\n      dup2\n      mstore\n      0x20\n      add\n      0x00\n      keccak256\n        /* \"vote.sol\":1569:1596  voters[msg.sender].hasVoted */\n      0x00\n      add\n      0x01\n      swap1\n      sload\n      swap1\n      0x0100\n      exp\n      swap1\n      div\n      0xff\n      and\n        /* \"vote.sol\":1568:1596  !voters[msg.sender].hasVoted */\n      iszero\n        /* \"vote.sol\":1560:1624  require(!voters[msg.sender].hasVoted, \"Voter has already voted\") */\n      tag_81\n      jumpi\n      mload(0x40)\n      0x08c379a000000000000000000000000000000000000000000000000000000000\n      dup2\n      mstore\n      0x04\n      add\n      tag_82\n      swap1\n      tag_83\n      jump\t// in\n    tag_82:\n      mload(0x40)\n      dup1\n      swap2\n      sub\n      swap1\n      revert\n    tag_81:\n        /* \"vote.sol\":1664:1668  true */\n      0x01\n        /* \"vote.sol\":1634:1640  voters */\n      0x00\n        /* \"vote.sol\":1634:1652  voters[msg.sender] */\n      dup1\n        /* \"vote.sol\":1641:1651  msg.sender */\n      caller\n        /* \"vote.sol\":1634:1652  voters[msg.sender] */\n      0xffffffffffffffffffffffffffffffffffffffff\n      and\n      0xffffffffffffffffffffffffffffffffffffffff\n      and\n      dup2\n      mstore\n      0x20\n      add\n      swap1\n      dup2\n      mstore\n      0x20\n      add\n      0x00\n      keccak256\n        /* \"vote.sol\":1634:1661  voters[msg.sender].hasVoted */\n      0x00\n      add\n      0x01\n        /* \"vote.sol\":1634:1668  voters[msg.sender].hasVoted = true */\n      0x0100\n      exp\n      dup2\n      sload\n      dup2\n      0xff\n      mul\n      not\n      and\n      swap1\n      dup4\n      iszero\n      iszero\n      mul\n      or\n      swap1\n      sstore\n      pop\n        /* \"vote.sol\":1678:1687  voteCount */\n      0x01\n        /* \"vote.sol\":1678:1696  voteCount[_choice] */\n      0x00\n        /* \"vote.sol\":1688:1695  _choice */\n      dup3\n        /* \"vote.sol\":1678:1696  voteCount[_choice] */\n      dup2\n      mstore\n      0x20\n      add\n      swap1\n      dup2\n      mstore\n      0x20\n      add\n      0x00\n      keccak256\n      0x00\n        /* \"vote.sol\":1678:1698  voteCount[_choice]++ */\n      dup2\n      sload\n      dup1\n      swap3\n      swap2\n      swap1\n      tag_84\n      swap1\n      tag_85\n      jump\t// in\n    tag_84:\n      swap2\n      swap1\n      pop\n      sstore\n      pop\n        /* \"vote.sol\":1713:1744  VoteCasted(msg.sender, _choice) */\n      0x50218651145bac920efccd62901c5dd1dafde34b5ff1ac66474a4cd58c42dfe9\n        /* \"vote.sol\":1724:1734  msg.sender */\n      caller\n        /* \"vote.sol\":1736:1743  _choice */\n      dup3\n        /* \"vote.sol\":1713:1744  VoteCasted(msg.sender, _choice) */\n      mload(0x40)\n      tag_86\n      swap3\n      swap2\n      swap1\n      tag_87\n      jump\t// in\n    tag_86:\n      mload(0x40)\n      dup1\n      swap2\n      sub\n      swap1\n      log1\n        /* \"vote.sol\":1480:1751  function castVote(bytes32 _choice) external onlyRegistered onlyActive {... */\n      pop\n      jump\t// out\n        /* \"vote.sol\":317:341  bool public votingActive */\n    tag_26:\n      0x04\n      0x00\n      swap1\n      sload\n      swap1\n      0x0100\n      exp\n      swap1\n      div\n      0xff\n      and\n      dup2\n      jump\t// out\n        /* \"vote.sol\":1931:2439  function getWinner() external view returns (bytes32) {... */\n    tag_30:\n        /* \"vote.sol\":1975:1982  bytes32 */\n      0x00\n        /* \"vote.sol\":2003:2015  votingActive */\n      0x04\n      0x00\n      swap1\n      sload\n      swap1\n      0x0100\n      exp\n      swap1\n      div\n      0xff\n      and\n        /* \"vote.sol\":2002:2015  !votingActive */\n      iszero\n        /* \"vote.sol\":1994:2042  require(!votingActive, \"Voting is still active\") */\n      tag_89\n      jumpi\n      mload(0x40)\n      0x08c379a000000000000000000000000000000000000000000000000000000000\n      dup2\n      mstore\n      0x04\n      add\n      tag_90\n      swap1\n      tag_91\n      jump\t// in\n    tag_90:\n      mload(0x40)\n      dup1\n      swap2\n      sub\n      swap1\n      revert\n    tag_89:\n        /* \"vote.sol\":2052:2066  bytes32 winner */\n      0x00\n        /* \"vote.sol\":2076:2092  uint256 maxVotes */\n      dup1\n        /* \"vote.sol\":2095:2096  0 */\n      0x00\n        /* \"vote.sol\":2076:2096  uint256 maxVotes = 0 */\n      swap1\n      pop\n        /* \"vote.sol\":2187:2196  uint256 i */\n      0x00\n        /* \"vote.sol\":2182:2409  for (uint256 i = 0; i < 256; i++) {... */\n    tag_92:\n        /* \"vote.sol\":2206:2209  256 */\n      0x0100\n        /* \"vote.sol\":2202:2203  i */\n      dup2\n        /* \"vote.sol\":2202:2209  i < 256 */\n      lt\n        /* \"vote.sol\":2182:2409  for (uint256 i = 0; i < 256; i++) {... */\n      iszero\n      tag_93\n      jumpi\n        /* \"vote.sol\":2230:2244  bytes32 choice */\n      0x00\n        /* \"vote.sol\":2255:2256  i */\n      dup2\n        /* \"vote.sol\":2247:2257  bytes32(i) */\n      0x00\n      shl\n        /* \"vote.sol\":2230:2257  bytes32 choice = bytes32(i) */\n      swap1\n      pop\n        /* \"vote.sol\":2295:2303  maxVotes */\n      dup3\n        /* \"vote.sol\":2275:2284  voteCount */\n      0x01\n        /* \"vote.sol\":2275:2292  voteCount[choice] */\n      0x00\n        /* \"vote.sol\":2285:2291  choice */\n      dup4\n        /* \"vote.sol\":2275:2292  voteCount[choice] */\n      dup2\n      mstore\n      0x20\n      add\n      swap1\n      dup2\n      mstore\n      0x20\n      add\n      0x00\n      keccak256\n      sload\n        /* \"vote.sol\":2275:2303  voteCount[choice] > maxVotes */\n      gt\n        /* \"vote.sol\":2271:2399  if (voteCount[choice] > maxVotes) {... */\n      iszero\n      tag_95\n      jumpi\n        /* \"vote.sol\":2334:2343  voteCount */\n      0x01\n        /* \"vote.sol\":2334:2351  voteCount[choice] */\n      0x00\n        /* \"vote.sol\":2344:2350  choice */\n      dup3\n        /* \"vote.sol\":2334:2351  voteCount[choice] */\n      dup2\n      mstore\n      0x20\n      add\n      swap1\n      dup2\n      mstore\n      0x20\n      add\n      0x00\n      keccak256\n      sload\n        /* \"vote.sol\":2323:2351  maxVotes = voteCount[choice] */\n      swap3\n      pop\n        /* \"vote.sol\":2378:2384  choice */\n      dup1\n        /* \"vote.sol\":2369:2384  winner = choice */\n      swap4\n      pop\n        /* \"vote.sol\":2271:2399  if (voteCount[choice] > maxVotes) {... */\n    tag_95:\n        /* \"vote.sol\":2216:2409  {... */\n      pop\n        /* \"vote.sol\":2211:2214  i++ */\n      dup1\n      dup1\n      0x01\n      add\n      swap2\n      pop\n      pop\n        /* \"vote.sol\":2182:2409  for (uint256 i = 0; i < 256; i++) {... */\n      jump(tag_92)\n    tag_93:\n      pop\n        /* \"vote.sol\":2426:2432  winner */\n      dup2\n        /* \"vote.sol\":2419:2432  return winner */\n      swap3\n      pop\n      pop\n      pop\n        /* \"vote.sol\":1931:2439  function getWinner() external view returns (bytes32) {... */\n      swap1\n      jump\t// out\n        /* \"vote.sol\":169:208  mapping(address => Voter) public voters */\n    tag_35:\n      mstore(0x20, 0x00)\n      dup1\n      0x00\n      mstore\n      keccak256(0x00, 0x40)\n      0x00\n      swap2\n      pop\n      swap1\n      pop\n      dup1\n      0x00\n      add\n      0x00\n      swap1\n      sload\n      swap1\n      0x0100\n      exp\n      swap1\n      div\n      0xff\n      and\n      swap1\n      dup1\n      0x00\n      add\n      0x01\n      swap1\n      sload\n      swap1\n      0x0100\n      exp\n      swap1\n      div\n      0xff\n      and\n      swap1\n      pop\n      dup3\n      jump\t// out\n        /* \"vote.sol\":1757:1925  function getResult(bytes32 _choice) external view returns (uint256) {... */\n    tag_40:\n        /* \"vote.sol\":1816:1823  uint256 */\n      0x00\n        /* \"vote.sol\":1844:1856  votingActive */\n      0x04\n      0x00\n      swap1\n      sload\n      swap1\n      0x0100\n      exp\n      swap1\n      div\n      0xff\n      and\n        /* \"vote.sol\":1843:1856  !votingActive */\n      iszero\n        /* \"vote.sol\":1835:1883  require(!votingActive, \"Voting is still active\") */\n      tag_97\n      jumpi\n      mload(0x40)\n      0x08c379a000000000000000000000000000000000000000000000000000000000\n      dup2\n      mstore\n      0x04\n      add\n      tag_98\n      swap1\n      tag_91\n      jump\t// in\n    tag_98:\n      mload(0x40)\n      dup1\n      swap2\n      sub\n      swap1\n      revert\n    tag_97:\n        /* \"vote.sol\":1900:1909  voteCount */\n      0x01\n        /* \"vote.sol\":1900:1918  voteCount[_choice] */\n      0x00\n        /* \"vote.sol\":1910:1917  _choice */\n      dup4\n        /* \"vote.sol\":1900:1918  voteCount[_choice] */\n      dup2\n      mstore\n      0x20\n      add\n      swap1\n      dup2\n      mstore\n      0x20\n      add\n      0x00\n      keccak256\n      sload\n        /* \"vote.sol\":1893:1918  return voteCount[_choice] */\n      swap1\n      pop\n        /* \"vote.sol\":1757:1925  function getResult(bytes32 _choice) external view returns (uint256) {... */\n      swap2\n      swap1\n      pop\n      jump\t// out\n        /* \"vote.sol\":291:311  bytes32 public topic */\n    tag_44:\n      sload(0x03)\n      dup2\n      jump\t// out\n        /* \"vote.sol\":1314:1474  function endVoting() external onlyAdmin {... */\n    tag_47:\n        /* \"vote.sol\":522:527  admin */\n      0x02\n      0x00\n      swap1\n      sload\n      swap1\n      0x0100\n      exp\n      swap1\n      div\n      0xffffffffffffffffffffffffffffffffffffffff\n      and\n        /* \"vote.sol\":508:527  msg.sender == admin */\n      0xffffffffffffffffffffffffffffffffffffffff\n      and\n        /* \"vote.sol\":508:518  msg.sender */\n      caller\n        /* \"vote.sol\":508:527  msg.sender == admin */\n      0xffffffffffffffffffffffffffffffffffffffff\n      and\n      eq\n        /* \"vote.sol\":500:565  require(msg.sender == admin, \"Only admin can call this function\") */\n      tag_100\n      jumpi\n      mload(0x40)\n      0x08c379a000000000000000000000000000000000000000000000000000000000\n      dup2\n      mstore\n      0x04\n      add\n      tag_101\n      swap1\n      tag_59\n      jump\t// in\n    tag_101:\n      mload(0x40)\n      dup1\n      swap2\n      sub\n      swap1\n      revert\n    tag_100:\n        /* \"vote.sol\":1372:1384  votingActive */\n      0x04\n      0x00\n      swap1\n      sload\n      swap1\n      0x0100\n      exp\n      swap1\n      div\n      0xff\n      and\n        /* \"vote.sol\":1364:1409  require(votingActive, \"Voting is not active\") */\n      tag_103\n      jumpi\n      mload(0x40)\n      0x08c379a000000000000000000000000000000000000000000000000000000000\n      dup2\n      mstore\n      0x04\n      add\n      tag_104\n      swap1\n      tag_79\n      jump\t// in\n    tag_104:\n      mload(0x40)\n      dup1\n      swap2\n      sub\n      swap1\n      revert\n    tag_103:\n        /* \"vote.sol\":1434:1439  false */\n      0x00\n        /* \"vote.sol\":1419:1431  votingActive */\n      0x04\n      0x00\n        /* \"vote.sol\":1419:1439  votingActive = false */\n      0x0100\n      exp\n      dup2\n      sload\n      dup2\n      0xff\n      mul\n      not\n      and\n      swap1\n      dup4\n      iszero\n      iszero\n      mul\n      or\n      swap1\n      sstore\n      pop\n        /* \"vote.sol\":1454:1467  VotingEnded() */\n      0x7a19ed057db79e3c2fa0b97a54b43bef4fce74b31bb6c01af514b9a18a7f70ab\n      mload(0x40)\n      mload(0x40)\n      dup1\n      swap2\n      sub\n      swap1\n      log1\n        /* \"vote.sol\":1314:1474  function endVoting() external onlyAdmin {... */\n      jump\t// out\n        /* \"vote.sol\":214:258  mapping(bytes32 => uint256) public voteCount */\n    tag_50:\n      mstore(0x20, 0x01)\n      dup1\n      0x00\n      mstore\n      keccak256(0x00, 0x40)\n      0x00\n      swap2\n      pop\n      swap1\n      pop\n      sload\n      dup2\n      jump\t// out\n        /* \"vote.sol\":265:285  address public admin */\n    tag_53:\n      0x02\n      0x00\n      swap1\n      sload\n      swap1\n      0x0100\n      exp\n      swap1\n      div\n      0xffffffffffffffffffffffffffffffffffffffff\n      and\n      dup2\n      jump\t// out\n        /* \"#utility.yul\":88:205   */\n    tag_106:\n        /* \"#utility.yul\":197:198   */\n      0x00\n        /* \"#utility.yul\":194:195   */\n      dup1\n        /* \"#utility.yul\":187:199   */\n      revert\n        /* \"#utility.yul\":334:460   */\n    tag_108:\n        /* \"#utility.yul\":371:378   */\n      0x00\n        /* \"#utility.yul\":411:453   */\n      0xffffffffffffffffffffffffffffffffffffffff\n        /* \"#utility.yul\":404:409   */\n      dup3\n        /* \"#utility.yul\":400:454   */\n      and\n        /* \"#utility.yul\":389:454   */\n      swap1\n      pop\n        /* \"#utility.yul\":334:460   */\n      swap2\n      swap1\n      pop\n      jump\t// out\n        /* \"#utility.yul\":466:562   */\n    tag_109:\n        /* \"#utility.yul\":503:510   */\n      0x00\n        /* \"#utility.yul\":532:556   */\n      tag_143\n        /* \"#utility.yul\":550:555   */\n      dup3\n        /* \"#utility.yul\":532:556   */\n      tag_108\n      jump\t// in\n    tag_143:\n        /* \"#utility.yul\":521:556   */\n      swap1\n      pop\n        /* \"#utility.yul\":466:562   */\n      swap2\n      swap1\n      pop\n      jump\t// out\n        /* \"#utility.yul\":568:690   */\n    tag_110:\n        /* \"#utility.yul\":641:665   */\n      tag_145\n        /* \"#utility.yul\":659:664   */\n      dup2\n        /* \"#utility.yul\":641:665   */\n      tag_109\n      jump\t// in\n    tag_145:\n        /* \"#utility.yul\":634:639   */\n      dup2\n        /* \"#utility.yul\":631:666   */\n      eq\n        /* \"#utility.yul\":621:684   */\n      tag_146\n      jumpi\n        /* \"#utility.yul\":680:681   */\n      0x00\n        /* \"#utility.yul\":677:678   */\n      dup1\n        /* \"#utility.yul\":670:682   */\n      revert\n        /* \"#utility.yul\":621:684   */\n    tag_146:\n        /* \"#utility.yul\":568:690   */\n      pop\n      jump\t// out\n        /* \"#utility.yul\":696:835   */\n    tag_111:\n        /* \"#utility.yul\":742:747   */\n      0x00\n        /* \"#utility.yul\":780:786   */\n      dup2\n        /* \"#utility.yul\":767:787   */\n      calldataload\n        /* \"#utility.yul\":758:787   */\n      swap1\n      pop\n        /* \"#utility.yul\":796:829   */\n      tag_148\n        /* \"#utility.yul\":823:828   */\n      dup2\n        /* \"#utility.yul\":796:829   */\n      tag_110\n      jump\t// in\n    tag_148:\n        /* \"#utility.yul\":696:835   */\n      swap3\n      swap2\n      pop\n      pop\n      jump\t// out\n        /* \"#utility.yul\":841:1170   */\n    tag_19:\n        /* \"#utility.yul\":900:906   */\n      0x00\n        /* \"#utility.yul\":949:951   */\n      0x20\n        /* \"#utility.yul\":937:946   */\n      dup3\n        /* \"#utility.yul\":928:935   */\n      dup5\n        /* \"#utility.yul\":924:947   */\n      sub\n        /* \"#utility.yul\":920:952   */\n      slt\n        /* \"#utility.yul\":917:1036   */\n      iszero\n      tag_150\n      jumpi\n        /* \"#utility.yul\":955:1034   */\n      tag_151\n      tag_106\n      jump\t// in\n    tag_151:\n        /* \"#utility.yul\":917:1036   */\n    tag_150:\n        /* \"#utility.yul\":1075:1076   */\n      0x00\n        /* \"#utility.yul\":1100:1153   */\n      tag_152\n        /* \"#utility.yul\":1145:1152   */\n      dup5\n        /* \"#utility.yul\":1136:1142   */\n      dup3\n        /* \"#utility.yul\":1125:1134   */\n      dup6\n        /* \"#utility.yul\":1121:1143   */\n      add\n        /* \"#utility.yul\":1100:1153   */\n      tag_111\n      jump\t// in\n    tag_152:\n        /* \"#utility.yul\":1090:1153   */\n      swap2\n      pop\n        /* \"#utility.yul\":1046:1163   */\n      pop\n        /* \"#utility.yul\":841:1170   */\n      swap3\n      swap2\n      pop\n      pop\n      jump\t// out\n        /* \"#utility.yul\":1176:1253   */\n    tag_112:\n        /* \"#utility.yul\":1213:1220   */\n      0x00\n        /* \"#utility.yul\":1242:1247   */\n      dup2\n        /* \"#utility.yul\":1231:1247   */\n      swap1\n      pop\n        /* \"#utility.yul\":1176:1253   */\n      swap2\n      swap1\n      pop\n      jump\t// out\n        /* \"#utility.yul\":1259:1381   */\n    tag_113:\n        /* \"#utility.yul\":1332:1356   */\n      tag_155\n        /* \"#utility.yul\":1350:1355   */\n      dup2\n        /* \"#utility.yul\":1332:1356   */\n      tag_112\n      jump\t// in\n    tag_155:\n        /* \"#utility.yul\":1325:1330   */\n      dup2\n        /* \"#utility.yul\":1322:1357   */\n      eq\n        /* \"#utility.yul\":1312:1375   */\n      tag_156\n      jumpi\n        /* \"#utility.yul\":1371:1372   */\n      0x00\n        /* \"#utility.yul\":1368:1369   */\n      dup1\n        /* \"#utility.yul\":1361:1373   */\n      revert\n        /* \"#utility.yul\":1312:1375   */\n    tag_156:\n        /* \"#utility.yul\":1259:1381   */\n      pop\n      jump\t// out\n        /* \"#utility.yul\":1387:1526   */\n    tag_114:\n        /* \"#utility.yul\":1433:1438   */\n      0x00\n        /* \"#utility.yul\":1471:1477   */\n      dup2\n        /* \"#utility.yul\":1458:1478   */\n      calldataload\n        /* \"#utility.yul\":1449:1478   */\n      swap1\n      pop\n        /* \"#utility.yul\":1487:1520   */\n      tag_158\n        /* \"#utility.yul\":1514:1519   */\n      dup2\n        /* \"#utility.yul\":1487:1520   */\n      tag_113\n      jump\t// in\n    tag_158:\n        /* \"#utility.yul\":1387:1526   */\n      swap3\n      swap2\n      pop\n      pop\n      jump\t// out\n        /* \"#utility.yul\":1532:1861   */\n    tag_23:\n        /* \"#utility.yul\":1591:1597   */\n      0x00\n        /* \"#utility.yul\":1640:1642   */\n      0x20\n        /* \"#utility.yul\":1628:1637   */\n      dup3\n        /* \"#utility.yul\":1619:1626   */\n      dup5\n        /* \"#utility.yul\":1615:1638   */\n      sub\n        /* \"#utility.yul\":1611:1643   */\n      slt\n        /* \"#utility.yul\":1608:1727   */\n      iszero\n      tag_160\n      jumpi\n        /* \"#utility.yul\":1646:1725   */\n      tag_161\n      tag_106\n      jump\t// in\n    tag_161:\n        /* \"#utility.yul\":1608:1727   */\n    tag_160:\n        /* \"#utility.yul\":1766:1767   */\n      0x00\n        /* \"#utility.yul\":1791:1844   */\n      tag_162\n        /* \"#utility.yul\":1836:1843   */\n      dup5\n        /* \"#utility.yul\":1827:1833   */\n      dup3\n        /* \"#utility.yul\":1816:1825   */\n      dup6\n        /* \"#utility.yul\":1812:1834   */\n      add\n        /* \"#utility.yul\":1791:1844   */\n      tag_114\n      jump\t// in\n    tag_162:\n        /* \"#utility.yul\":1781:1844   */\n      swap2\n      pop\n        /* \"#utility.yul\":1737:1854   */\n      pop\n        /* \"#utility.yul\":1532:1861   */\n      swap3\n      swap2\n      pop\n      pop\n      jump\t// out\n        /* \"#utility.yul\":1867:1957   */\n    tag_115:\n        /* \"#utility.yul\":1901:1908   */\n      0x00\n        /* \"#utility.yul\":1944:1949   */\n      dup2\n        /* \"#utility.yul\":1937:1950   */\n      iszero\n        /* \"#utility.yul\":1930:1951   */\n      iszero\n        /* \"#utility.yul\":1919:1951   */\n      swap1\n      pop\n        /* \"#utility.yul\":1867:1957   */\n      swap2\n      swap1\n      pop\n      jump\t// out\n        /* \"#utility.yul\":1963:2072   */\n    tag_116:\n        /* \"#utility.yul\":2044:2065   */\n      tag_165\n        /* \"#utility.yul\":2059:2064   */\n      dup2\n        /* \"#utility.yul\":2044:2065   */\n      tag_115\n      jump\t// in\n    tag_165:\n        /* \"#utility.yul\":2039:2042   */\n      dup3\n        /* \"#utility.yul\":2032:2066   */\n      mstore\n        /* \"#utility.yul\":1963:2072   */\n      pop\n      pop\n      jump\t// out\n        /* \"#utility.yul\":2078:2288   */\n    tag_28:\n        /* \"#utility.yul\":2165:2169   */\n      0x00\n        /* \"#utility.yul\":2203:2205   */\n      0x20\n        /* \"#utility.yul\":2192:2201   */\n      dup3\n        /* \"#utility.yul\":2188:2206   */\n      add\n        /* \"#utility.yul\":2180:2206   */\n      swap1\n      pop\n        /* \"#utility.yul\":2216:2281   */\n      tag_167\n        /* \"#utility.yul\":2278:2279   */\n      0x00\n        /* \"#utility.yul\":2267:2276   */\n      dup4\n        /* \"#utility.yul\":2263:2280   */\n      add\n        /* \"#utility.yul\":2254:2260   */\n      dup5\n        /* \"#utility.yul\":2216:2281   */\n      tag_116\n      jump\t// in\n    tag_167:\n        /* \"#utility.yul\":2078:2288   */\n      swap3\n      swap2\n      pop\n      pop\n      jump\t// out\n        /* \"#utility.yul\":2294:2412   */\n    tag_117:\n        /* \"#utility.yul\":2381:2405   */\n      tag_169\n        /* \"#utility.yul\":2399:2404   */\n      dup2\n        /* \"#utility.yul\":2381:2405   */\n      tag_112\n      jump\t// in\n    tag_169:\n        /* \"#utility.yul\":2376:2379   */\n      dup3\n        /* \"#utility.yul\":2369:2406   */\n      mstore\n        /* \"#utility.yul\":2294:2412   */\n      pop\n      pop\n      jump\t// out\n        /* \"#utility.yul\":2418:2640   */\n    tag_32:\n        /* \"#utility.yul\":2511:2515   */\n      0x00\n        /* \"#utility.yul\":2549:2551   */\n      0x20\n        /* \"#utility.yul\":2538:2547   */\n      dup3\n        /* \"#utility.yul\":2534:2552   */\n      add\n        /* \"#utility.yul\":2526:2552   */\n      swap1\n      pop\n        /* \"#utility.yul\":2562:2633   */\n      tag_171\n        /* \"#utility.yul\":2630:2631   */\n      0x00\n        /* \"#utility.yul\":2619:2628   */\n      dup4\n        /* \"#utility.yul\":2615:2632   */\n      add\n        /* \"#utility.yul\":2606:2612   */\n      dup5\n        /* \"#utility.yul\":2562:2633   */\n      tag_117\n      jump\t// in\n    tag_171:\n        /* \"#utility.yul\":2418:2640   */\n      swap3\n      swap2\n      pop\n      pop\n      jump\t// out\n        /* \"#utility.yul\":2646:2954   */\n    tag_37:\n        /* \"#utility.yul\":2755:2759   */\n      0x00\n        /* \"#utility.yul\":2793:2795   */\n      0x40\n        /* \"#utility.yul\":2782:2791   */\n      dup3\n        /* \"#utility.yul\":2778:2796   */\n      add\n        /* \"#utility.yul\":2770:2796   */\n      swap1\n      pop\n        /* \"#utility.yul\":2806:2871   */\n      tag_173\n        /* \"#utility.yul\":2868:2869   */\n      0x00\n        /* \"#utility.yul\":2857:2866   */\n      dup4\n        /* \"#utility.yul\":2853:2870   */\n      add\n        /* \"#utility.yul\":2844:2850   */\n      dup6\n        /* \"#utility.yul\":2806:2871   */\n      tag_116\n      jump\t// in\n    tag_173:\n        /* \"#utility.yul\":2881:2947   */\n      tag_174\n        /* \"#utility.yul\":2943:2945   */\n      0x20\n        /* \"#utility.yul\":2932:2941   */\n      dup4\n        /* \"#utility.yul\":2928:2946   */\n      add\n        /* \"#utility.yul\":2919:2925   */\n      dup5\n        /* \"#utility.yul\":2881:2947   */\n      tag_116\n      jump\t// in\n    tag_174:\n        /* \"#utility.yul\":2646:2954   */\n      swap4\n      swap3\n      pop\n      pop\n      pop\n      jump\t// out\n        /* \"#utility.yul\":2960:3037   */\n    tag_118:\n        /* \"#utility.yul\":2997:3004   */\n      0x00\n        /* \"#utility.yul\":3026:3031   */\n      dup2\n        /* \"#utility.yul\":3015:3031   */\n      swap1\n      pop\n        /* \"#utility.yul\":2960:3037   */\n      swap2\n      swap1\n      pop\n      jump\t// out\n        /* \"#utility.yul\":3043:3161   */\n    tag_119:\n        /* \"#utility.yul\":3130:3154   */\n      tag_177\n        /* \"#utility.yul\":3148:3153   */\n      dup2\n        /* \"#utility.yul\":3130:3154   */\n      tag_118\n      jump\t// in\n    tag_177:\n        /* \"#utility.yul\":3125:3128   */\n      dup3\n        /* \"#utility.yul\":3118:3155   */\n      mstore\n        /* \"#utility.yul\":3043:3161   */\n      pop\n      pop\n      jump\t// out\n        /* \"#utility.yul\":3167:3389   */\n    tag_42:\n        /* \"#utility.yul\":3260:3264   */\n      0x00\n        /* \"#utility.yul\":3298:3300   */\n      0x20\n        /* \"#utility.yul\":3287:3296   */\n      dup3\n        /* \"#utility.yul\":3283:3301   */\n      add\n        /* \"#utility.yul\":3275:3301   */\n      swap1\n      pop\n        /* \"#utility.yul\":3311:3382   */\n      tag_179\n        /* \"#utility.yul\":3379:3380   */\n      0x00\n        /* \"#utility.yul\":3368:3377   */\n      dup4\n        /* \"#utility.yul\":3364:3381   */\n      add\n        /* \"#utility.yul\":3355:3361   */\n      dup5\n        /* \"#utility.yul\":3311:3382   */\n      tag_119\n      jump\t// in\n    tag_179:\n        /* \"#utility.yul\":3167:3389   */\n      swap3\n      swap2\n      pop\n      pop\n      jump\t// out\n        /* \"#utility.yul\":3395:3513   */\n    tag_120:\n        /* \"#utility.yul\":3482:3506   */\n      tag_181\n        /* \"#utility.yul\":3500:3505   */\n      dup2\n        /* \"#utility.yul\":3482:3506   */\n      tag_109\n      jump\t// in\n    tag_181:\n        /* \"#utility.yul\":3477:3480   */\n      dup3\n        /* \"#utility.yul\":3470:3507   */\n      mstore\n        /* \"#utility.yul\":3395:3513   */\n      pop\n      pop\n      jump\t// out\n        /* \"#utility.yul\":3519:3741   */\n    tag_55:\n        /* \"#utility.yul\":3612:3616   */\n      0x00\n        /* \"#utility.yul\":3650:3652   */\n      0x20\n        /* \"#utility.yul\":3639:3648   */\n      dup3\n        /* \"#utility.yul\":3635:3653   */\n      add\n        /* \"#utility.yul\":3627:3653   */\n      swap1\n      pop\n        /* \"#utility.yul\":3663:3734   */\n      tag_183\n        /* \"#utility.yul\":3731:3732   */\n      0x00\n        /* \"#utility.yul\":3720:3729   */\n      dup4\n        /* \"#utility.yul\":3716:3733   */\n      add\n        /* \"#utility.yul\":3707:3713   */\n      dup5\n        /* \"#utility.yul\":3663:3734   */\n      tag_120\n      jump\t// in\n    tag_183:\n        /* \"#utility.yul\":3519:3741   */\n      swap3\n      swap2\n      pop\n      pop\n      jump\t// out\n        /* \"#utility.yul\":3747:3916   */\n    tag_121:\n        /* \"#utility.yul\":3831:3842   */\n      0x00\n        /* \"#utility.yul\":3865:3871   */\n      dup3\n        /* \"#utility.yul\":3860:3863   */\n      dup3\n        /* \"#utility.yul\":3853:3872   */\n      mstore\n        /* \"#utility.yul\":3905:3909   */\n      0x20\n        /* \"#utility.yul\":3900:3903   */\n      dup3\n        /* \"#utility.yul\":3896:3910   */\n      add\n        /* \"#utility.yul\":3881:3910   */\n      swap1\n      pop\n        /* \"#utility.yul\":3747:3916   */\n      swap3\n      swap2\n      pop\n      pop\n      jump\t// out\n        /* \"#utility.yul\":3922:4142   */\n    tag_122:\n        /* \"#utility.yul\":4062:4096   */\n      0x4f6e6c792061646d696e2063616e2063616c6c20746869732066756e6374696f\n        /* \"#utility.yul\":4058:4059   */\n      0x00\n        /* \"#utility.yul\":4050:4056   */\n      dup3\n        /* \"#utility.yul\":4046:4060   */\n      add\n        /* \"#utility.yul\":4039:4097   */\n      mstore\n        /* \"#utility.yul\":4131:4134   */\n      0x6e00000000000000000000000000000000000000000000000000000000000000\n        /* \"#utility.yul\":4126:4128   */\n      0x20\n        /* \"#utility.yul\":4118:4124   */\n      dup3\n        /* \"#utility.yul\":4114:4129   */\n      add\n        /* \"#utility.yul\":4107:4135   */\n      mstore\n        /* \"#utility.yul\":3922:4142   */\n      pop\n      jump\t// out\n        /* \"#utility.yul\":4148:4514   */\n    tag_123:\n        /* \"#utility.yul\":4290:4293   */\n      0x00\n        /* \"#utility.yul\":4311:4378   */\n      tag_187\n        /* \"#utility.yul\":4375:4377   */\n      0x21\n        /* \"#utility.yul\":4370:4373   */\n      dup4\n        /* \"#utility.yul\":4311:4378   */\n      tag_121\n      jump\t// in\n    tag_187:\n        /* \"#utility.yul\":4304:4378   */\n      swap2\n      pop\n        /* \"#utility.yul\":4387:4480   */\n      tag_188\n        /* \"#utility.yul\":4476:4479   */\n      dup3\n        /* \"#utility.yul\":4387:4480   */\n      tag_122\n      jump\t// in\n    tag_188:\n        /* \"#utility.yul\":4505:4507   */\n      0x40\n        /* \"#utility.yul\":4500:4503   */\n      dup3\n        /* \"#utility.yul\":4496:4508   */\n      add\n        /* \"#utility.yul\":4489:4508   */\n      swap1\n      pop\n        /* \"#utility.yul\":4148:4514   */\n      swap2\n      swap1\n      pop\n      jump\t// out\n        /* \"#utility.yul\":4520:4939   */\n    tag_59:\n        /* \"#utility.yul\":4686:4690   */\n      0x00\n        /* \"#utility.yul\":4724:4726   */\n      0x20\n        /* \"#utility.yul\":4713:4722   */\n      dup3\n        /* \"#utility.yul\":4709:4727   */\n      add\n        /* \"#utility.yul\":4701:4727   */\n      swap1\n      pop\n        /* \"#utility.yul\":4773:4782   */\n      dup2\n        /* \"#utility.yul\":4767:4771   */\n      dup2\n        /* \"#utility.yul\":4763:4783   */\n      sub\n        /* \"#utility.yul\":4759:4760   */\n      0x00\n        /* \"#utility.yul\":4748:4757   */\n      dup4\n        /* \"#utility.yul\":4744:4761   */\n      add\n        /* \"#utility.yul\":4737:4784   */\n      mstore\n        /* \"#utility.yul\":4801:4932   */\n      tag_190\n        /* \"#utility.yul\":4927:4931   */\n      dup2\n        /* \"#utility.yul\":4801:4932   */\n      tag_123\n      jump\t// in\n    tag_190:\n        /* \"#utility.yul\":4793:4932   */\n      swap1\n      pop\n        /* \"#utility.yul\":4520:4939   */\n      swap2\n      swap1\n      pop\n      jump\t// out\n        /* \"#utility.yul\":4945:5119   */\n    tag_124:\n        /* \"#utility.yul\":5085:5111   */\n      0x566f74696e6720697320616c7265616479206163746976650000000000000000\n        /* \"#utility.yul\":5081:5082   */\n      0x00\n        /* \"#utility.yul\":5073:5079   */\n      dup3\n        /* \"#utility.yul\":5069:5083   */\n      add\n        /* \"#utility.yul\":5062:5112   */\n      mstore\n        /* \"#utility.yul\":4945:5119   */\n      pop\n      jump\t// out\n        /* \"#utility.yul\":5125:5491   */\n    tag_125:\n        /* \"#utility.yul\":5267:5270   */\n      0x00\n        /* \"#utility.yul\":5288:5355   */\n      tag_193\n        /* \"#utility.yul\":5352:5354   */\n      0x18\n        /* \"#utility.yul\":5347:5350   */\n      dup4\n        /* \"#utility.yul\":5288:5355   */\n      tag_121\n      jump\t// in\n    tag_193:\n        /* \"#utility.yul\":5281:5355   */\n      swap2\n      pop\n        /* \"#utility.yul\":5364:5457   */\n      tag_194\n        /* \"#utility.yul\":5453:5456   */\n      dup3\n        /* \"#utility.yul\":5364:5457   */\n      tag_124\n      jump\t// in\n    tag_194:\n        /* \"#utility.yul\":5482:5484   */\n      0x20\n        /* \"#utility.yul\":5477:5480   */\n      dup3\n        /* \"#utility.yul\":5473:5485   */\n      add\n        /* \"#utility.yul\":5466:5485   */\n      swap1\n      pop\n        /* \"#utility.yul\":5125:5491   */\n      swap2\n      swap1\n      pop\n      jump\t// out\n        /* \"#utility.yul\":5497:5916   */\n    tag_63:\n        /* \"#utility.yul\":5663:5667   */\n      0x00\n        /* \"#utility.yul\":5701:5703   */\n      0x20\n        /* \"#utility.yul\":5690:5699   */\n      dup3\n        /* \"#utility.yul\":5686:5704   */\n      add\n        /* \"#utility.yul\":5678:5704   */\n      swap1\n      pop\n        /* \"#utility.yul\":5750:5759   */\n      dup2\n        /* \"#utility.yul\":5744:5748   */\n      dup2\n        /* \"#utility.yul\":5740:5760   */\n      sub\n        /* \"#utility.yul\":5736:5737   */\n      0x00\n        /* \"#utility.yul\":5725:5734   */\n      dup4\n        /* \"#utility.yul\":5721:5738   */\n      add\n        /* \"#utility.yul\":5714:5761   */\n      mstore\n        /* \"#utility.yul\":5778:5909   */\n      tag_196\n        /* \"#utility.yul\":5904:5908   */\n      dup2\n        /* \"#utility.yul\":5778:5909   */\n      tag_125\n      jump\t// in\n    tag_196:\n        /* \"#utility.yul\":5770:5909   */\n      swap1\n      pop\n        /* \"#utility.yul\":5497:5916   */\n      swap2\n      swap1\n      pop\n      jump\t// out\n        /* \"#utility.yul\":5922:6099   */\n    tag_126:\n        /* \"#utility.yul\":6062:6091   */\n      0x566f74657220697320616c726561647920726567697374657265640000000000\n        /* \"#utility.yul\":6058:6059   */\n      0x00\n        /* \"#utility.yul\":6050:6056   */\n      dup3\n        /* \"#utility.yul\":6046:6060   */\n      add\n        /* \"#utility.yul\":6039:6092   */\n      mstore\n        /* \"#utility.yul\":5922:6099   */\n      pop\n      jump\t// out\n        /* \"#utility.yul\":6105:6471   */\n    tag_127:\n        /* \"#utility.yul\":6247:6250   */\n      0x00\n        /* \"#utility.yul\":6268:6335   */\n      tag_199\n        /* \"#utility.yul\":6332:6334   */\n      0x1b\n        /* \"#utility.yul\":6327:6330   */\n      dup4\n        /* \"#utility.yul\":6268:6335   */\n      tag_121\n      jump\t// in\n    tag_199:\n        /* \"#utility.yul\":6261:6335   */\n      swap2\n      pop\n        /* \"#utility.yul\":6344:6437   */\n      tag_200\n        /* \"#utility.yul\":6433:6436   */\n      dup3\n        /* \"#utility.yul\":6344:6437   */\n      tag_126\n      jump\t// in\n    tag_200:\n        /* \"#utility.yul\":6462:6464   */\n      0x20\n        /* \"#utility.yul\":6457:6460   */\n      dup3\n        /* \"#utility.yul\":6453:6465   */\n      add\n        /* \"#utility.yul\":6446:6465   */\n      swap1\n      pop\n        /* \"#utility.yul\":6105:6471   */\n      swap2\n      swap1\n      pop\n      jump\t// out\n        /* \"#utility.yul\":6477:6896   */\n    tag_70:\n        /* \"#utility.yul\":6643:6647   */\n      0x00\n        /* \"#utility.yul\":6681:6683   */\n      0x20\n        /* \"#utility.yul\":6670:6679   */\n      dup3\n        /* \"#utility.yul\":6666:6684   */\n      add\n        /* \"#utility.yul\":6658:6684   */\n      swap1\n      pop\n        /* \"#utility.yul\":6730:6739   */\n      dup2\n        /* \"#utility.yul\":6724:6728   */\n      dup2\n        /* \"#utility.yul\":6720:6740   */\n      sub\n        /* \"#utility.yul\":6716:6717   */\n      0x00\n        /* \"#utility.yul\":6705:6714   */\n      dup4\n        /* \"#utility.yul\":6701:6718   */\n      add\n        /* \"#utility.yul\":6694:6741   */\n      mstore\n        /* \"#utility.yul\":6758:6889   */\n      tag_202\n        /* \"#utility.yul\":6884:6888   */\n      dup2\n        /* \"#utility.yul\":6758:6889   */\n      tag_127\n      jump\t// in\n    tag_202:\n        /* \"#utility.yul\":6750:6889   */\n      swap1\n      pop\n        /* \"#utility.yul\":6477:6896   */\n      swap2\n      swap1\n      pop\n      jump\t// out\n        /* \"#utility.yul\":6902:7075   */\n    tag_128:\n        /* \"#utility.yul\":7042:7067   */\n      0x566f746572206973206e6f742072656769737465726564000000000000000000\n        /* \"#utility.yul\":7038:7039   */\n      0x00\n        /* \"#utility.yul\":7030:7036   */\n      dup3\n        /* \"#utility.yul\":7026:7040   */\n      add\n        /* \"#utility.yul\":7019:7068   */\n      mstore\n        /* \"#utility.yul\":6902:7075   */\n      pop\n      jump\t// out\n        /* \"#utility.yul\":7081:7447   */\n    tag_129:\n        /* \"#utility.yul\":7223:7226   */\n      0x00\n        /* \"#utility.yul\":7244:7311   */\n      tag_205\n        /* \"#utility.yul\":7308:7310   */\n      0x17\n        /* \"#utility.yul\":7303:7306   */\n      dup4\n        /* \"#utility.yul\":7244:7311   */\n      tag_121\n      jump\t// in\n    tag_205:\n        /* \"#utility.yul\":7237:7311   */\n      swap2\n      pop\n        /* \"#utility.yul\":7320:7413   */\n      tag_206\n        /* \"#utility.yul\":7409:7412   */\n      dup3\n        /* \"#utility.yul\":7320:7413   */\n      tag_128\n      jump\t// in\n    tag_206:\n        /* \"#utility.yul\":7438:7440   */\n      0x20\n        /* \"#utility.yul\":7433:7436   */\n      dup3\n        /* \"#utility.yul\":7429:7441   */\n      add\n        /* \"#utility.yul\":7422:7441   */\n      swap1\n      pop\n        /* \"#utility.yul\":7081:7447   */\n      swap2\n      swap1\n      pop\n      jump\t// out\n        /* \"#utility.yul\":7453:7872   */\n    tag_75:\n        /* \"#utility.yul\":7619:7623   */\n      0x00\n        /* \"#utility.yul\":7657:7659   */\n      0x20\n        /* \"#utility.yul\":7646:7655   */\n      dup3\n        /* \"#utility.yul\":7642:7660   */\n      add\n        /* \"#utility.yul\":7634:7660   */\n      swap1\n      pop\n        /* \"#utility.yul\":7706:7715   */\n      dup2\n        /* \"#utility.yul\":7700:7704   */\n      dup2\n        /* \"#utility.yul\":7696:7716   */\n      sub\n        /* \"#utility.yul\":7692:7693   */\n      0x00\n        /* \"#utility.yul\":7681:7690   */\n      dup4\n        /* \"#utility.yul\":7677:7694   */\n      add\n        /* \"#utility.yul\":7670:7717   */\n      mstore\n        /* \"#utility.yul\":7734:7865   */\n      tag_208\n        /* \"#utility.yul\":7860:7864   */\n      dup2\n        /* \"#utility.yul\":7734:7865   */\n      tag_129\n      jump\t// in\n    tag_208:\n        /* \"#utility.yul\":7726:7865   */\n      swap1\n      pop\n        /* \"#utility.yul\":7453:7872   */\n      swap2\n      swap1\n      pop\n      jump\t// out\n        /* \"#utility.yul\":7878:8048   */\n    tag_130:\n        /* \"#utility.yul\":8018:8040   */\n      0x566f74696e67206973206e6f7420616374697665000000000000000000000000\n        /* \"#utility.yul\":8014:8015   */\n      0x00\n        /* \"#utility.yul\":8006:8012   */\n      dup3\n        /* \"#utility.yul\":8002:8016   */\n      add\n        /* \"#utility.yul\":7995:8041   */\n      mstore\n        /* \"#utility.yul\":7878:8048   */\n      pop\n      jump\t// out\n        /* \"#utility.yul\":8054:8420   */\n    tag_131:\n        /* \"#utility.yul\":8196:8199   */\n      0x00\n        /* \"#utility.yul\":8217:8284   */\n      tag_211\n        /* \"#utility.yul\":8281:8283   */\n      0x14\n        /* \"#utility.yul\":8276:8279   */\n      dup4\n        /* \"#utility.yul\":8217:8284   */\n      tag_121\n      jump\t// in\n    tag_211:\n        /* \"#utility.yul\":8210:8284   */\n      swap2\n      pop\n        /* \"#utility.yul\":8293:8386   */\n      tag_212\n        /* \"#utility.yul\":8382:8385   */\n      dup3\n        /* \"#utility.yul\":8293:8386   */\n      tag_130\n      jump\t// in\n    tag_212:\n        /* \"#utility.yul\":8411:8413   */\n      0x20\n        /* \"#utility.yul\":8406:8409   */\n      dup3\n        /* \"#utility.yul\":8402:8414   */\n      add\n        /* \"#utility.yul\":8395:8414   */\n      swap1\n      pop\n        /* \"#utility.yul\":8054:8420   */\n      swap2\n      swap1\n      pop\n      jump\t// out\n        /* \"#utility.yul\":8426:8845   */\n    tag_79:\n        /* \"#utility.yul\":8592:8596   */\n      0x00\n        /* \"#utility.yul\":8630:8632   */\n      0x20\n        /* \"#utility.yul\":8619:8628   */\n      dup3\n        /* \"#utility.yul\":8615:8633   */\n      add\n        /* \"#utility.yul\":8607:8633   */\n      swap1\n      pop\n        /* \"#utility.yul\":8679:8688   */\n      dup2\n        /* \"#utility.yul\":8673:8677   */\n      dup2\n        /* \"#utility.yul\":8669:8689   */\n      sub\n        /* \"#utility.yul\":8665:8666   */\n      0x00\n        /* \"#utility.yul\":8654:8663   */\n      dup4\n        /* \"#utility.yul\":8650:8667   */\n      add\n        /* \"#utility.yul\":8643:8690   */\n      mstore\n        /* \"#utility.yul\":8707:8838   */\n      tag_214\n        /* \"#utility.yul\":8833:8837   */\n      dup2\n        /* \"#utility.yul\":8707:8838   */\n      tag_131\n      jump\t// in\n    tag_214:\n        /* \"#utility.yul\":8699:8838   */\n      swap1\n      pop\n        /* \"#utility.yul\":8426:8845   */\n      swap2\n      swap1\n      pop\n      jump\t// out\n        /* \"#utility.yul\":8851:9024   */\n    tag_132:\n        /* \"#utility.yul\":8991:9016   */\n      0x566f7465722068617320616c726561647920766f746564000000000000000000\n        /* \"#utility.yul\":8987:8988   */\n      0x00\n        /* \"#utility.yul\":8979:8985   */\n      dup3\n        /* \"#utility.yul\":8975:8989   */\n      add\n        /* \"#utility.yul\":8968:9017   */\n      mstore\n        /* \"#utility.yul\":8851:9024   */\n      pop\n      jump\t// out\n        /* \"#utility.yul\":9030:9396   */\n    tag_133:\n        /* \"#utility.yul\":9172:9175   */\n      0x00\n        /* \"#utility.yul\":9193:9260   */\n      tag_217\n        /* \"#utility.yul\":9257:9259   */\n      0x17\n        /* \"#utility.yul\":9252:9255   */\n      dup4\n        /* \"#utility.yul\":9193:9260   */\n      tag_121\n      jump\t// in\n    tag_217:\n        /* \"#utility.yul\":9186:9260   */\n      swap2\n      pop\n        /* \"#utility.yul\":9269:9362   */\n      tag_218\n        /* \"#utility.yul\":9358:9361   */\n      dup3\n        /* \"#utility.yul\":9269:9362   */\n      tag_132\n      jump\t// in\n    tag_218:\n        /* \"#utility.yul\":9387:9389   */\n      0x20\n        /* \"#utility.yul\":9382:9385   */\n      dup3\n        /* \"#utility.yul\":9378:9390   */\n      add\n        /* \"#utility.yul\":9371:9390   */\n      swap1\n      pop\n        /* \"#utility.yul\":9030:9396   */\n      swap2\n      swap1\n      pop\n      jump\t// out\n        /* \"#utility.yul\":9402:9821   */\n    tag_83:\n        /* \"#utility.yul\":9568:9572   */\n      0x00\n        /* \"#utility.yul\":9606:9608   */\n      0x20\n        /* \"#utility.yul\":9595:9604   */\n      dup3\n        /* \"#utility.yul\":9591:9609   */\n      add\n        /* \"#utility.yul\":9583:9609   */\n      swap1\n      pop\n        /* \"#utility.yul\":9655:9664   */\n      dup2\n        /* \"#utility.yul\":9649:9653   */\n      dup2\n        /* \"#utility.yul\":9645:9665   */\n      sub\n        /* \"#utility.yul\":9641:9642   */\n      0x00\n        /* \"#utility.yul\":9630:9639   */\n      dup4\n        /* \"#utility.yul\":9626:9643   */\n      add\n        /* \"#utility.yul\":9619:9666   */\n      mstore\n        /* \"#utility.yul\":9683:9814   */\n      tag_220\n        /* \"#utility.yul\":9809:9813   */\n      dup2\n        /* \"#utility.yul\":9683:9814   */\n      tag_133\n      jump\t// in\n    tag_220:\n        /* \"#utility.yul\":9675:9814   */\n      swap1\n      pop\n        /* \"#utility.yul\":9402:9821   */\n      swap2\n      swap1\n      pop\n      jump\t// out\n        /* \"#utility.yul\":9827:10007   */\n    tag_134:\n        /* \"#utility.yul\":9875:9952   */\n      0x4e487b7100000000000000000000000000000000000000000000000000000000\n        /* \"#utility.yul\":9872:9873   */\n      0x00\n        /* \"#utility.yul\":9865:9953   */\n      mstore\n        /* \"#utility.yul\":9972:9976   */\n      0x11\n        /* \"#utility.yul\":9969:9970   */\n      0x04\n        /* \"#utility.yul\":9962:9977   */\n      mstore\n        /* \"#utility.yul\":9996:10000   */\n      0x24\n        /* \"#utility.yul\":9993:9994   */\n      0x00\n        /* \"#utility.yul\":9986:10001   */\n      revert\n        /* \"#utility.yul\":10013:10246   */\n    tag_85:\n        /* \"#utility.yul\":10052:10055   */\n      0x00\n        /* \"#utility.yul\":10075:10099   */\n      tag_223\n        /* \"#utility.yul\":10093:10098   */\n      dup3\n        /* \"#utility.yul\":10075:10099   */\n      tag_118\n      jump\t// in\n    tag_223:\n        /* \"#utility.yul\":10066:10099   */\n      swap2\n      pop\n        /* \"#utility.yul\":10121:10187   */\n      0xffffffffffffffffffffffffffffffffffffffffffffffffffffffffffffffff\n        /* \"#utility.yul\":10114:10119   */\n      dup3\n        /* \"#utility.yul\":10111:10188   */\n      sub\n        /* \"#utility.yul\":10108:10211   */\n      tag_224\n      jumpi\n        /* \"#utility.yul\":10191:10209   */\n      tag_225\n      tag_134\n      jump\t// in\n    tag_225:\n        /* \"#utility.yul\":10108:10211   */\n    tag_224:\n        /* \"#utility.yul\":10238:10239   */\n      0x01\n        /* \"#utility.yul\":10231:10236   */\n      dup3\n        /* \"#utility.yul\":10227:10240   */\n      add\n        /* \"#utility.yul\":10220:10240   */\n      swap1\n      pop\n        /* \"#utility.yul\":10013:10246   */\n      swap2\n      swap1\n      pop\n      jump\t// out\n        /* \"#utility.yul\":10252:10584   */\n    tag_87:\n        /* \"#utility.yul\":10373:10377   */\n      0x00\n        /* \"#utility.yul\":10411:10413   */\n      0x40\n        /* \"#utility.yul\":10400:10409   */\n      dup3\n        /* \"#utility.yul\":10396:10414   */\n      add\n        /* \"#utility.yul\":10388:10414   */\n      swap1\n      pop\n        /* \"#utility.yul\":10424:10495   */\n      tag_227\n        /* \"#utility.yul\":10492:10493   */\n      0x00\n        /* \"#utility.yul\":10481:10490   */\n      dup4\n        /* \"#utility.yul\":10477:10494   */\n      add\n        /* \"#utility.yul\":10468:10474   */\n      dup6\n        /* \"#utility.yul\":10424:10495   */\n      tag_120\n      jump\t// in\n    tag_227:\n        /* \"#utility.yul\":10505:10577   */\n      tag_228\n        /* \"#utility.yul\":10573:10575   */\n      0x20\n        /* \"#utility.yul\":10562:10571   */\n      dup4\n        /* \"#utility.yul\":10558:10576   */\n      add\n        /* \"#utility.yul\":10549:10555   */\n      dup5\n        /* \"#utility.yul\":10505:10577   */\n      tag_117\n      jump\t// in\n    tag_228:\n        /* \"#utility.yul\":10252:10584   */\n      swap4\n      swap3\n      pop\n      pop\n      pop\n      jump\t// out\n        /* \"#utility.yul\":10590:10762   */\n    tag_135:\n        /* \"#utility.yul\":10730:10754   */\n      0x566f74696e67206973207374696c6c2061637469766500000000000000000000\n        /* \"#utility.yul\":10726:10727   */\n      0x00\n        /* \"#utility.yul\":10718:10724   */\n      dup3\n        /* \"#utility.yul\":10714:10728   */\n      add\n        /* \"#utility.yul\":10707:10755   */\n      mstore\n        /* \"#utility.yul\":10590:10762   */\n      pop\n      jump\t// out\n        /* \"#utility.yul\":10768:11134   */\n    tag_136:\n        /* \"#utility.yul\":10910:10913   */\n      0x00\n        /* \"#utility.yul\":10931:10998   */\n      tag_231\n        /* \"#utility.yul\":10995:10997   */\n      0x16\n        /* \"#utility.yul\":10990:10993   */\n      dup4\n        /* \"#utility.yul\":10931:10998   */\n      tag_121\n      jump\t// in\n    tag_231:\n        /* \"#utility.yul\":10924:10998   */\n      swap2\n      pop\n        /* \"#utility.yul\":11007:11100   */\n      tag_232\n        /* \"#utility.yul\":11096:11099   */\n      dup3\n        /* \"#utility.yul\":11007:11100   */\n      tag_135\n      jump\t// in\n    tag_232:\n        /* \"#utility.yul\":11125:11127   */\n      0x20\n        /* \"#utility.yul\":11120:11123   */\n      dup3\n        /* \"#utility.yul\":11116:11128   */\n      add\n        /* \"#utility.yul\":11109:11128   */\n      swap1\n      pop\n        /* \"#utility.yul\":10768:11134   */\n      swap2\n      swap1\n      pop\n      jump\t// out\n        /* \"#utility.yul\":11140:11559   */\n    tag_91:\n        /* \"#utility.yul\":11306:11310   */\n      0x00\n        /* \"#utility.yul\":11344:11346   */\n      0x20\n        /* \"#utility.yul\":11333:11342   */\n      dup3\n        /* \"#utility.yul\":11329:11347   */\n      add\n        /* \"#utility.yul\":11321:11347   */\n      swap1\n      pop\n        /* \"#utility.yul\":11393:11402   */\n      dup2\n        /* \"#utility.yul\":11387:11391   */\n      dup2\n        /* \"#utility.yul\":11383:11403   */\n      sub\n        /* \"#utility.yul\":11379:11380   */\n      0x00\n        /* \"#utility.yul\":11368:11377   */\n      dup4\n        /* \"#utility.yul\":11364:11381   */\n      add\n        /* \"#utility.yul\":11357:11404   */\n      mstore\n        /* \"#utility.yul\":11421:11552   */\n      tag_234\n        /* \"#utility.yul\":11547:11551   */\n      dup2\n        /* \"#utility.yul\":11421:11552   */\n      tag_136\n      jump\t// in\n    tag_234:\n        /* \"#utility.yul\":11413:11552   */\n      swap1\n      pop\n        /* \"#utility.yul\":11140:11559   */\n      swap2\n      swap1\n      pop\n      jump\t// out\n\n    auxdata: 0xa264697066735822122041b4ae2f2f6d498a7aa55f7fe9047bf5c604f4f18544c8eee763f1f0f287e8ae64736f6c634300081a0033\n}\n",
				"bytecode": {
					"linkReferences": {},
					"object": "608060405234801561000f575f80fd5b5060405161102e38038061102e833981810160405281019061003191906100cf565b3360025f6101000a81548173ffffffffffffffffffffffffffffffffffffffff021916908373ffffffffffffffffffffffffffffffffffffffff16021790555080600381905550600160045f6101000a81548160ff021916908315150217905550506100fa565b5f80fd5b5f819050919050565b6100ae8161009c565b81146100b8575f80fd5b50565b5f815190506100c9816100a5565b92915050565b5f602082840312156100e4576100e3610098565b5b5f6100f1848285016100bb565b91505092915050565b610f27806101075f395ff3fe608060405234801561000f575f80fd5b50600436106100a7575f3560e01c8063a3ec138d1161006f578063a3ec138d14610129578063add4c7841461015a578063bf63a5771461018a578063c3403ddf146101a8578063f28bddf6146101b2578063f851a440146101e2576100a7565b80631ec6b60a146100ab57806338db6dd3146100b55780633efafb6e146100d1578063408e2727146100ed5780638e7ea5b21461010b575b5f80fd5b6100b3610200565b005b6100cf60048036038101906100ca91906109e4565b6102fa565b005b6100eb60048036038101906100e69190610a42565b6104a4565b005b6100f56106c1565b6040516101029190610a87565b60405180910390f35b6101136106d3565b6040516101209190610aaf565b60405180910390f35b610143600480360381019061013e91906109e4565b610782565b604051610151929190610ac8565b60405180910390f35b610174600480360381019061016f9190610a42565b6107b9565b6040516101819190610b07565b60405180910390f35b610192610822565b60405161019f9190610aaf565b60405180910390f35b6101b0610828565b005b6101cc60048036038101906101c79190610a42565b61094c565b6040516101d99190610b07565b60405180910390f35b6101ea610961565b6040516101f79190610b2f565b60405180910390f35b60025f9054906101000a900473ffffffffffffffffffffffffffffffffffffffff1673ffffffffffffffffffffffffffffffffffffffff163373ffffffffffffffffffffffffffffffffffffffff161461028f576040517f08c379a000000000000000000000000000000000000000000000000000000000815260040161028690610bc8565b60405180910390fd5b60045f9054906101000a900460ff16156102de576040517f08c379a00000000000000000000000000000000000000000000000000000000081526004016102d590610c30565b60405180910390fd5b600160045f6101000a81548160ff021916908315150217905550565b60025f9054906101000a900473ffffffffffffffffffffffffffffffffffffffff1673ffffffffffffffffffffffffffffffffffffffff163373ffffffffffffffffffffffffffffffffffffffff1614610389576040517f08c379a000000000000000000000000000000000000000000000000000000000815260040161038090610bc8565b60405180910390fd5b5f808273ffffffffffffffffffffffffffffffffffffffff1673ffffffffffffffffffffffffffffffffffffffff1681526020019081526020015f205f015f9054906101000a900460ff1615610414576040517f08c379a000000000000000000000000000000000000000000000000000000000815260040161040b90610c98565b60405180910390fd5b60015f808373ffffffffffffffffffffffffffffffffffffffff1673ffffffffffffffffffffffffffffffffffffffff1681526020019081526020015f205f015f6101000a81548160ff0219169083151502179055507fb6be2187d059cc2a55fe29e0e503b566e1e0f8c8780096e185429350acffd3dd816040516104999190610b2f565b60405180910390a150565b5f803373ffffffffffffffffffffffffffffffffffffffff1673ffffffffffffffffffffffffffffffffffffffff1681526020019081526020015f205f015f9054906101000a900460ff1661052e576040517f08c379a000000000000000000000000000000000000000000000000000000000815260040161052590610d00565b60405180910390fd5b60045f9054906101000a900460ff1661057c576040517f08c379a000000000000000000000000000000000000000000000000000000000815260040161057390610d68565b60405180910390fd5b5f803373ffffffffffffffffffffffffffffffffffffffff1673ffffffffffffffffffffffffffffffffffffffff1681526020019081526020015f205f0160019054906101000a900460ff1615610608576040517f08c379a00000000000000000000000000000000000000000000000000000000081526004016105ff90610dd0565b60405180910390fd5b60015f803373ffffffffffffffffffffffffffffffffffffffff1673ffffffffffffffffffffffffffffffffffffffff1681526020019081526020015f205f0160016101000a81548160ff02191690831515021790555060015f8281526020019081526020015f205f81548092919061068090610e1b565b91905055507f50218651145bac920efccd62901c5dd1dafde34b5ff1ac66474a4cd58c42dfe933826040516106b6929190610e62565b60405180910390a150565b60045f9054906101000a900460ff1681565b5f60045f9054906101000a900460ff1615610723576040517f08c379a000000000000000000000000000000000000000000000000000000000815260040161071a90610ed3565b60405180910390fd5b5f805f90505f5b610100811015610779575f815f1b90508260015f8381526020019081526020015f2054111561076b5760015f8281526020019081526020015f205492508093505b50808060010191505061072a565b50819250505090565b5f602052805f5260405f205f91509050805f015f9054906101000a900460ff1690805f0160019054906101000a900460ff16905082565b5f60045f9054906101000a900460ff1615610809576040517f08c379a000000000000000000000000000000000000000000000000000000000815260040161080090610ed3565b60405180910390fd5b60015f8381526020019081526020015f20549050919050565b60035481565b60025f9054906101000a900473ffffffffffffffffffffffffffffffffffffffff1673ffffffffffffffffffffffffffffffffffffffff163373ffffffffffffffffffffffffffffffffffffffff16146108b7576040517f08c379a00000000000000000000000000000000000000000000000000000000081526004016108ae90610bc8565b60405180910390fd5b60045f9054906101000a900460ff16610905576040517f08c379a00000000000000000000000000000000000000000000000000000000081526004016108fc90610d68565b60405180910390fd5b5f60045f6101000a81548160ff0219169083151502179055507f7a19ed057db79e3c2fa0b97a54b43bef4fce74b31bb6c01af514b9a18a7f70ab60405160405180910390a1565b6001602052805f5260405f205f915090505481565b60025f9054906101000a900473ffffffffffffffffffffffffffffffffffffffff1681565b5f80fd5b5f73ffffffffffffffffffffffffffffffffffffffff82169050919050565b5f6109b38261098a565b9050919050565b6109c3816109a9565b81146109cd575f80fd5b50565b5f813590506109de816109ba565b92915050565b5f602082840312156109f9576109f8610986565b5b5f610a06848285016109d0565b91505092915050565b5f819050919050565b610a2181610a0f565b8114610a2b575f80fd5b50565b5f81359050610a3c81610a18565b92915050565b5f60208284031215610a5757610a56610986565b5b5f610a6484828501610a2e565b91505092915050565b5f8115159050919050565b610a8181610a6d565b82525050565b5f602082019050610a9a5f830184610a78565b92915050565b610aa981610a0f565b82525050565b5f602082019050610ac25f830184610aa0565b92915050565b5f604082019050610adb5f830185610a78565b610ae86020830184610a78565b9392505050565b5f819050919050565b610b0181610aef565b82525050565b5f602082019050610b1a5f830184610af8565b92915050565b610b29816109a9565b82525050565b5f602082019050610b425f830184610b20565b92915050565b5f82825260208201905092915050565b7f4f6e6c792061646d696e2063616e2063616c6c20746869732066756e6374696f5f8201527f6e00000000000000000000000000000000000000000000000000000000000000602082015250565b5f610bb2602183610b48565b9150610bbd82610b58565b604082019050919050565b5f6020820190508181035f830152610bdf81610ba6565b9050919050565b7f566f74696e6720697320616c72656164792061637469766500000000000000005f82015250565b5f610c1a601883610b48565b9150610c2582610be6565b602082019050919050565b5f6020820190508181035f830152610c4781610c0e565b9050919050565b7f566f74657220697320616c7265616479207265676973746572656400000000005f82015250565b5f610c82601b83610b48565b9150610c8d82610c4e565b602082019050919050565b5f6020820190508181035f830152610caf81610c76565b9050919050565b7f566f746572206973206e6f7420726567697374657265640000000000000000005f82015250565b5f610cea601783610b48565b9150610cf582610cb6565b602082019050919050565b5f6020820190508181035f830152610d1781610cde565b9050919050565b7f566f74696e67206973206e6f74206163746976650000000000000000000000005f82015250565b5f610d52601483610b48565b9150610d5d82610d1e565b602082019050919050565b5f6020820190508181035f830152610d7f81610d46565b9050919050565b7f566f7465722068617320616c726561647920766f7465640000000000000000005f82015250565b5f610dba601783610b48565b9150610dc582610d86565b602082019050919050565b5f6020820190508181035f830152610de781610dae565b9050919050565b7f4e487b71000000000000000000000000000000000000000000000000000000005f52601160045260245ffd5b5f610e2582610aef565b91507fffffffffffffffffffffffffffffffffffffffffffffffffffffffffffffffff8203610e5757610e56610dee565b5b600182019050919050565b5f604082019050610e755f830185610b20565b610e826020830184610aa0565b9392505050565b7f566f74696e67206973207374696c6c20616374697665000000000000000000005f82015250565b5f610ebd601683610b48565b9150610ec882610e89565b602082019050919050565b5f6020820190508181035f830152610eea81610eb1565b905091905056fea264697066735822122041b4ae2f2f6d498a7aa55f7fe9047bf5c604f4f18544c8eee763f1f0f287e8ae64736f6c634300081a0033",
					"opcodes": "PUSH1 0x80 PUSH1 0x40 MSTORE CALLVALUE DUP1 ISZERO PUSH2 0xF JUMPI PUSH0 DUP1 REVERT JUMPDEST POP PUSH1 0x40 MLOAD PUSH2 0x102E CODESIZE SUB DUP1 PUSH2 0x102E DUP4 CODECOPY DUP2 DUP2 ADD PUSH1 0x40 MSTORE DUP2 ADD SWAP1 PUSH2 0x31 SWAP2 SWAP1 PUSH2 0xCF JUMP JUMPDEST CALLER PUSH1 0x2 PUSH0 PUSH2 0x100 EXP DUP2 SLOAD DUP2 PUSH20 0xFFFFFFFFFFFFFFFFFFFFFFFFFFFFFFFFFFFFFFFF MUL NOT AND SWAP1 DUP4 PUSH20 0xFFFFFFFFFFFFFFFFFFFFFFFFFFFFFFFFFFFFFFFF AND MUL OR SWAP1 SSTORE POP DUP1 PUSH1 0x3 DUP2 SWAP1 SSTORE POP PUSH1 0x1 PUSH1 0x4 PUSH0 PUSH2 0x100 EXP DUP2 SLOAD DUP2 PUSH1 0xFF MUL NOT AND SWAP1 DUP4 ISZERO ISZERO MUL OR SWAP1 SSTORE POP POP PUSH2 0xFA JUMP JUMPDEST PUSH0 DUP1 REVERT JUMPDEST PUSH0 DUP2 SWAP1 POP SWAP2 SWAP1 POP JUMP JUMPDEST PUSH2 0xAE DUP2 PUSH2 0x9C JUMP JUMPDEST DUP2 EQ PUSH2 0xB8 JUMPI PUSH0 DUP1 REVERT JUMPDEST POP JUMP JUMPDEST PUSH0 DUP2 MLOAD SWAP1 POP PUSH2 0xC9 DUP2 PUSH2 0xA5 JUMP JUMPDEST SWAP3 SWAP2 POP POP JUMP JUMPDEST PUSH0 PUSH1 0x20 DUP3 DUP5 SUB SLT ISZERO PUSH2 0xE4 JUMPI PUSH2 0xE3 PUSH2 0x98 JUMP JUMPDEST JUMPDEST PUSH0 PUSH2 0xF1 DUP5 DUP3 DUP6 ADD PUSH2 0xBB JUMP JUMPDEST SWAP2 POP POP SWAP3 SWAP2 POP POP JUMP JUMPDEST PUSH2 0xF27 DUP1 PUSH2 0x107 PUSH0 CODECOPY PUSH0 RETURN INVALID PUSH1 0x80 PUSH1 0x40 MSTORE CALLVALUE DUP1 ISZERO PUSH2 0xF JUMPI PUSH0 DUP1 REVERT JUMPDEST POP PUSH1 0x4 CALLDATASIZE LT PUSH2 0xA7 JUMPI PUSH0 CALLDATALOAD PUSH1 0xE0 SHR DUP1 PUSH4 0xA3EC138D GT PUSH2 0x6F JUMPI DUP1 PUSH4 0xA3EC138D EQ PUSH2 0x129 JUMPI DUP1 PUSH4 0xADD4C784 EQ PUSH2 0x15A JUMPI DUP1 PUSH4 0xBF63A577 EQ PUSH2 0x18A JUMPI DUP1 PUSH4 0xC3403DDF EQ PUSH2 0x1A8 JUMPI DUP1 PUSH4 0xF28BDDF6 EQ PUSH2 0x1B2 JUMPI DUP1 PUSH4 0xF851A440 EQ PUSH2 0x1E2 JUMPI PUSH2 0xA7 JUMP JUMPDEST DUP1 PUSH4 0x1EC6B60A EQ PUSH2 0xAB JUMPI DUP1 PUSH4 0x38DB6DD3 EQ PUSH2 0xB5 JUMPI DUP1 PUSH4 0x3EFAFB6E EQ PUSH2 0xD1 JUMPI DUP1 PUSH4 0x408E2727 EQ PUSH2 0xED JUMPI DUP1 PUSH4 0x8E7EA5B2 EQ PUSH2 0x10B JUMPI JUMPDEST PUSH0 DUP1 REVERT JUMPDEST PUSH2 0xB3 PUSH2 0x200 JUMP JUMPDEST STOP JUMPDEST PUSH2 0xCF PUSH1 0x4 DUP1 CALLDATASIZE SUB DUP2 ADD SWAP1 PUSH2 0xCA SWAP2 SWAP1 PUSH2 0x9E4 JUMP JUMPDEST PUSH2 0x2FA JUMP JUMPDEST STOP JUMPDEST PUSH2 0xEB PUSH1 0x4 DUP1 CALLDATASIZE SUB DUP2 ADD SWAP1 PUSH2 0xE6 SWAP2 SWAP1 PUSH2 0xA42 JUMP JUMPDEST PUSH2 0x4A4 JUMP JUMPDEST STOP JUMPDEST PUSH2 0xF5 PUSH2 0x6C1 JUMP JUMPDEST PUSH1 0x40 MLOAD PUSH2 0x102 SWAP2 SWAP1 PUSH2 0xA87 JUMP JUMPDEST PUSH1 0x40 MLOAD DUP1 SWAP2 SUB SWAP1 RETURN JUMPDEST PUSH2 0x113 PUSH2 0x6D3 JUMP JUMPDEST PUSH1 0x40 MLOAD PUSH2 0x120 SWAP2 SWAP1 PUSH2 0xAAF JUMP JUMPDEST PUSH1 0x40 MLOAD DUP1 SWAP2 SUB SWAP1 RETURN JUMPDEST PUSH2 0x143 PUSH1 0x4 DUP1 CALLDATASIZE SUB DUP2 ADD SWAP1 PUSH2 0x13E SWAP2 SWAP1 PUSH2 0x9E4 JUMP JUMPDEST PUSH2 0x782 JUMP JUMPDEST PUSH1 0x40 MLOAD PUSH2 0x151 SWAP3 SWAP2 SWAP1 PUSH2 0xAC8 JUMP JUMPDEST PUSH1 0x40 MLOAD DUP1 SWAP2 SUB SWAP1 RETURN JUMPDEST PUSH2 0x174 PUSH1 0x4 DUP1 CALLDATASIZE SUB DUP2 ADD SWAP1 PUSH2 0x16F SWAP2 SWAP1 PUSH2 0xA42 JUMP JUMPDEST PUSH2 0x7B9 JUMP JUMPDEST PUSH1 0x40 MLOAD PUSH2 0x181 SWAP2 SWAP1 PUSH2 0xB07 JUMP JUMPDEST PUSH1 0x40 MLOAD DUP1 SWAP2 SUB SWAP1 RETURN JUMPDEST PUSH2 0x192 PUSH2 0x822 JUMP JUMPDEST PUSH1 0x40 MLOAD PUSH2 0x19F SWAP2 SWAP1 PUSH2 0xAAF JUMP JUMPDEST PUSH1 0x40 MLOAD DUP1 SWAP2 SUB SWAP1 RETURN JUMPDEST PUSH2 0x1B0 PUSH2 0x828 JUMP JUMPDEST STOP JUMPDEST PUSH2 0x1CC PUSH1 0x4 DUP1 CALLDATASIZE SUB DUP2 ADD SWAP1 PUSH2 0x1C7 SWAP2 SWAP1 PUSH2 0xA42 JUMP JUMPDEST PUSH2 0x94C JUMP JUMPDEST PUSH1 0x40 MLOAD PUSH2 0x1D9 SWAP2 SWAP1 PUSH2 0xB07 JUMP JUMPDEST PUSH1 0x40 MLOAD DUP1 SWAP2 SUB SWAP1 RETURN JUMPDEST PUSH2 0x1EA PUSH2 0x961 JUMP JUMPDEST PUSH1 0x40 MLOAD PUSH2 0x1F7 SWAP2 SWAP1 PUSH2 0xB2F JUMP JUMPDEST PUSH1 0x40 MLOAD DUP1 SWAP2 SUB SWAP1 RETURN JUMPDEST PUSH1 0x2 PUSH0 SWAP1 SLOAD SWAP1 PUSH2 0x100 EXP SWAP1 DIV PUSH20 0xFFFFFFFFFFFFFFFFFFFFFFFFFFFFFFFFFFFFFFFF AND PUSH20 0xFFFFFFFFFFFFFFFFFFFFFFFFFFFFFFFFFFFFFFFF AND CALLER PUSH20 0xFFFFFFFFFFFFFFFFFFFFFFFFFFFFFFFFFFFFFFFF AND EQ PUSH2 0x28F JUMPI PUSH1 0x40 MLOAD PUSH32 0x8C379A000000000000000000000000000000000000000000000000000000000 DUP2 MSTORE PUSH1 0x4 ADD PUSH2 0x286 SWAP1 PUSH2 0xBC8 JUMP JUMPDEST PUSH1 0x40 MLOAD DUP1 SWAP2 SUB SWAP1 REVERT JUMPDEST PUSH1 0x4 PUSH0 SWAP1 SLOAD SWAP1 PUSH2 0x100 EXP SWAP1 DIV PUSH1 0xFF AND ISZERO PUSH2 0x2DE JUMPI PUSH1 0x40 MLOAD PUSH32 0x8C379A000000000000000000000000000000000000000000000000000000000 DUP2 MSTORE PUSH1 0x4 ADD PUSH2 0x2D5 SWAP1 PUSH2 0xC30 JUMP JUMPDEST PUSH1 0x40 MLOAD DUP1 SWAP2 SUB SWAP1 REVERT JUMPDEST PUSH1 0x1 PUSH1 0x4 PUSH0 PUSH2 0x100 EXP DUP2 SLOAD DUP2 PUSH1 0xFF MUL NOT AND SWAP1 DUP4 ISZERO ISZERO MUL OR SWAP1 SSTORE POP JUMP JUMPDEST PUSH1 0x2 PUSH0 SWAP1 SLOAD SWAP1 PUSH2 0x100 EXP SWAP1 DIV PUSH20 0xFFFFFFFFFFFFFFFFFFFFFFFFFFFFFFFFFFFFFFFF AND PUSH20 0xFFFFFFFFFFFFFFFFFFFFFFFFFFFFFFFFFFFFFFFF AND CALLER PUSH20 0xFFFFFFFFFFFFFFFFFFFFFFFFFFFFFFFFFFFFFFFF AND EQ PUSH2 0x389 JUMPI PUSH1 0x40 MLOAD PUSH32 0x8C379A000000000000000000000000000000000000000000000000000000000 DUP2 MSTORE PUSH1 0x4 ADD PUSH2 0x380 SWAP1 PUSH2 0xBC8 JUMP JUMPDEST PUSH1 0x40 MLOAD DUP1 SWAP2 SUB SWAP1 REVERT JUMPDEST PUSH0 DUP1 DUP3 PUSH20 0xFFFFFFFFFFFFFFFFFFFFFFFFFFFFFFFFFFFFFFFF AND PUSH20 0xFFFFFFFFFFFFFFFFFFFFFFFFFFFFFFFFFFFFFFFF AND DUP2 MSTORE PUSH1 0x20 ADD SWAP1 DUP2 MSTORE PUSH1 0x20 ADD PUSH0 KECCAK256 PUSH0 ADD PUSH0 SWAP1 SLOAD SWAP1 PUSH2 0x100 EXP SWAP1 DIV PUSH1 0xFF AND ISZERO PUSH2 0x414 JUMPI PUSH1 0x40 MLOAD PUSH32 0x8C379A000000000000000000000000000000000000000000000000000000000 DUP2 MSTORE PUSH1 0x4 ADD PUSH2 0x40B SWAP1 PUSH2 0xC98 JUMP JUMPDEST PUSH1 0x40 MLOAD DUP1 SWAP2 SUB SWAP1 REVERT JUMPDEST PUSH1 0x1 PUSH0 DUP1 DUP4 PUSH20 0xFFFFFFFFFFFFFFFFFFFFFFFFFFFFFFFFFFFFFFFF AND PUSH20 0xFFFFFFFFFFFFFFFFFFFFFFFFFFFFFFFFFFFFFFFF AND DUP2 MSTORE PUSH1 0x20 ADD SWAP1 DUP2 MSTORE PUSH1 0x20 ADD PUSH0 KECCAK256 PUSH0 ADD PUSH0 PUSH2 0x100 EXP DUP2 SLOAD DUP2 PUSH1 0xFF MUL NOT AND SWAP1 DUP4 ISZERO ISZERO MUL OR SWAP1 SSTORE POP PUSH32 0xB6BE2187D059CC2A55FE29E0E503B566E1E0F8C8780096E185429350ACFFD3DD DUP2 PUSH1 0x40 MLOAD PUSH2 0x499 SWAP2 SWAP1 PUSH2 0xB2F JUMP JUMPDEST PUSH1 0x40 MLOAD DUP1 SWAP2 SUB SWAP1 LOG1 POP JUMP JUMPDEST PUSH0 DUP1 CALLER PUSH20 0xFFFFFFFFFFFFFFFFFFFFFFFFFFFFFFFFFFFFFFFF AND PUSH20 0xFFFFFFFFFFFFFFFFFFFFFFFFFFFFFFFFFFFFFFFF AND DUP2 MSTORE PUSH1 0x20 ADD SWAP1 DUP2 MSTORE PUSH1 0x20 ADD PUSH0 KECCAK256 PUSH0 ADD PUSH0 SWAP1 SLOAD SWAP1 PUSH2 0x100 EXP SWAP1 DIV PUSH1 0xFF AND PUSH2 0x52E JUMPI PUSH1 0x40 MLOAD PUSH32 0x8C379A000000000000000000000000000000000000000000000000000000000 DUP2 MSTORE PUSH1 0x4 ADD PUSH2 0x525 SWAP1 PUSH2 0xD00 JUMP JUMPDEST PUSH1 0x40 MLOAD DUP1 SWAP2 SUB SWAP1 REVERT JUMPDEST PUSH1 0x4 PUSH0 SWAP1 SLOAD SWAP1 PUSH2 0x100 EXP SWAP1 DIV PUSH1 0xFF AND PUSH2 0x57C JUMPI PUSH1 0x40 MLOAD PUSH32 0x8C379A000000000000000000000000000000000000000000000000000000000 DUP2 MSTORE PUSH1 0x4 ADD PUSH2 0x573 SWAP1 PUSH2 0xD68 JUMP JUMPDEST PUSH1 0x40 MLOAD DUP1 SWAP2 SUB SWAP1 REVERT JUMPDEST PUSH0 DUP1 CALLER PUSH20 0xFFFFFFFFFFFFFFFFFFFFFFFFFFFFFFFFFFFFFFFF AND PUSH20 0xFFFFFFFFFFFFFFFFFFFFFFFFFFFFFFFFFFFFFFFF AND DUP2 MSTORE PUSH1 0x20 ADD SWAP1 DUP2 MSTORE PUSH1 0x20 ADD PUSH0 KECCAK256 PUSH0 ADD PUSH1 0x1 SWAP1 SLOAD SWAP1 PUSH2 0x100 EXP SWAP1 DIV PUSH1 0xFF AND ISZERO PUSH2 0x608 JUMPI PUSH1 0x40 MLOAD PUSH32 0x8C379A000000000000000000000000000000000000000000000000000000000 DUP2 MSTORE PUSH1 0x4 ADD PUSH2 0x5FF SWAP1 PUSH2 0xDD0 JUMP JUMPDEST PUSH1 0x40 MLOAD DUP1 SWAP2 SUB SWAP1 REVERT JUMPDEST PUSH1 0x1 PUSH0 DUP1 CALLER PUSH20 0xFFFFFFFFFFFFFFFFFFFFFFFFFFFFFFFFFFFFFFFF AND PUSH20 0xFFFFFFFFFFFFFFFFFFFFFFFFFFFFFFFFFFFFFFFF AND DUP2 MSTORE PUSH1 0x20 ADD SWAP1 DUP2 MSTORE PUSH1 0x20 ADD PUSH0 KECCAK256 PUSH0 ADD PUSH1 0x1 PUSH2 0x100 EXP DUP2 SLOAD DUP2 PUSH1 0xFF MUL NOT AND SWAP1 DUP4 ISZERO ISZERO MUL OR SWAP1 SSTORE POP PUSH1 0x1 PUSH0 DUP3 DUP2 MSTORE PUSH1 0x20 ADD SWAP1 DUP2 MSTORE PUSH1 0x20 ADD PUSH0 KECCAK256 PUSH0 DUP2 SLOAD DUP1 SWAP3 SWAP2 SWAP1 PUSH2 0x680 SWAP1 PUSH2 0xE1B JUMP JUMPDEST SWAP2 SWAP1 POP SSTORE POP PUSH32 0x50218651145BAC920EFCCD62901C5DD1DAFDE34B5FF1AC66474A4CD58C42DFE9 CALLER DUP3 PUSH1 0x40 MLOAD PUSH2 0x6B6 SWAP3 SWAP2 SWAP1 PUSH2 0xE62 JUMP JUMPDEST PUSH1 0x40 MLOAD DUP1 SWAP2 SUB SWAP1 LOG1 POP JUMP JUMPDEST PUSH1 0x4 PUSH0 SWAP1 SLOAD SWAP1 PUSH2 0x100 EXP SWAP1 DIV PUSH1 0xFF AND DUP2 JUMP JUMPDEST PUSH0 PUSH1 0x4 PUSH0 SWAP1 SLOAD SWAP1 PUSH2 0x100 EXP SWAP1 DIV PUSH1 0xFF AND ISZERO PUSH2 0x723 JUMPI PUSH1 0x40 MLOAD PUSH32 0x8C379A000000000000000000000000000000000000000000000000000000000 DUP2 MSTORE PUSH1 0x4 ADD PUSH2 0x71A SWAP1 PUSH2 0xED3 JUMP JUMPDEST PUSH1 0x40 MLOAD DUP1 SWAP2 SUB SWAP1 REVERT JUMPDEST PUSH0 DUP1 PUSH0 SWAP1 POP PUSH0 JUMPDEST PUSH2 0x100 DUP2 LT ISZERO PUSH2 0x779 JUMPI PUSH0 DUP2 PUSH0 SHL SWAP1 POP DUP3 PUSH1 0x1 PUSH0 DUP4 DUP2 MSTORE PUSH1 0x20 ADD SWAP1 DUP2 MSTORE PUSH1 0x20 ADD PUSH0 KECCAK256 SLOAD GT ISZERO PUSH2 0x76B JUMPI PUSH1 0x1 PUSH0 DUP3 DUP2 MSTORE PUSH1 0x20 ADD SWAP1 DUP2 MSTORE PUSH1 0x20 ADD PUSH0 KECCAK256 SLOAD SWAP3 POP DUP1 SWAP4 POP JUMPDEST POP DUP1 DUP1 PUSH1 0x1 ADD SWAP2 POP POP PUSH2 0x72A JUMP JUMPDEST POP DUP2 SWAP3 POP POP POP SWAP1 JUMP JUMPDEST PUSH0 PUSH1 0x20 MSTORE DUP1 PUSH0 MSTORE PUSH1 0x40 PUSH0 KECCAK256 PUSH0 SWAP2 POP SWAP1 POP DUP1 PUSH0 ADD PUSH0 SWAP1 SLOAD SWAP1 PUSH2 0x100 EXP SWAP1 DIV PUSH1 0xFF AND SWAP1 DUP1 PUSH0 ADD PUSH1 0x1 SWAP1 SLOAD SWAP1 PUSH2 0x100 EXP SWAP1 DIV PUSH1 0xFF AND SWAP1 POP DUP3 JUMP JUMPDEST PUSH0 PUSH1 0x4 PUSH0 SWAP1 SLOAD SWAP1 PUSH2 0x100 EXP SWAP1 DIV PUSH1 0xFF AND ISZERO PUSH2 0x809 JUMPI PUSH1 0x40 MLOAD PUSH32 0x8C379A000000000000000000000000000000000000000000000000000000000 DUP2 MSTORE PUSH1 0x4 ADD PUSH2 0x800 SWAP1 PUSH2 0xED3 JUMP JUMPDEST PUSH1 0x40 MLOAD DUP1 SWAP2 SUB SWAP1 REVERT JUMPDEST PUSH1 0x1 PUSH0 DUP4 DUP2 MSTORE PUSH1 0x20 ADD SWAP1 DUP2 MSTORE PUSH1 0x20 ADD PUSH0 KECCAK256 SLOAD SWAP1 POP SWAP2 SWAP1 POP JUMP JUMPDEST PUSH1 0x3 SLOAD DUP2 JUMP JUMPDEST PUSH1 0x2 PUSH0 SWAP1 SLOAD SWAP1 PUSH2 0x100 EXP SWAP1 DIV PUSH20 0xFFFFFFFFFFFFFFFFFFFFFFFFFFFFFFFFFFFFFFFF AND PUSH20 0xFFFFFFFFFFFFFFFFFFFFFFFFFFFFFFFFFFFFFFFF AND CALLER PUSH20 0xFFFFFFFFFFFFFFFFFFFFFFFFFFFFFFFFFFFFFFFF AND EQ PUSH2 0x8B7 JUMPI PUSH1 0x40 MLOAD PUSH32 0x8C379A000000000000000000000000000000000000000000000000000000000 DUP2 MSTORE PUSH1 0x4 ADD PUSH2 0x8AE SWAP1 PUSH2 0xBC8 JUMP JUMPDEST PUSH1 0x40 MLOAD DUP1 SWAP2 SUB SWAP1 REVERT JUMPDEST PUSH1 0x4 PUSH0 SWAP1 SLOAD SWAP1 PUSH2 0x100 EXP SWAP1 DIV PUSH1 0xFF AND PUSH2 0x905 JUMPI PUSH1 0x40 MLOAD PUSH32 0x8C379A000000000000000000000000000000000000000000000000000000000 DUP2 MSTORE PUSH1 0x4 ADD PUSH2 0x8FC SWAP1 PUSH2 0xD68 JUMP JUMPDEST PUSH1 0x40 MLOAD DUP1 SWAP2 SUB SWAP1 REVERT JUMPDEST PUSH0 PUSH1 0x4 PUSH0 PUSH2 0x100 EXP DUP2 SLOAD DUP2 PUSH1 0xFF MUL NOT AND SWAP1 DUP4 ISZERO ISZERO MUL OR SWAP1 SSTORE POP PUSH32 0x7A19ED057DB79E3C2FA0B97A54B43BEF4FCE74B31BB6C01AF514B9A18A7F70AB PUSH1 0x40 MLOAD PUSH1 0x40 MLOAD DUP1 SWAP2 SUB SWAP1 LOG1 JUMP JUMPDEST PUSH1 0x1 PUSH1 0x20 MSTORE DUP1 PUSH0 MSTORE PUSH1 0x40 PUSH0 KECCAK256 PUSH0 SWAP2 POP SWAP1 POP SLOAD DUP2 JUMP JUMPDEST PUSH1 0x2 PUSH0 SWAP1 SLOAD SWAP1 PUSH2 0x100 EXP SWAP1 DIV PUSH20 0xFFFFFFFFFFFFFFFFFFFFFFFFFFFFFFFFFFFFFFFF AND DUP2 JUMP JUMPDEST PUSH0 DUP1 REVERT JUMPDEST PUSH0 PUSH20 0xFFFFFFFFFFFFFFFFFFFFFFFFFFFFFFFFFFFFFFFF DUP3 AND SWAP1 POP SWAP2 SWAP1 POP JUMP JUMPDEST PUSH0 PUSH2 0x9B3 DUP3 PUSH2 0x98A JUMP JUMPDEST SWAP1 POP SWAP2 SWAP1 POP JUMP JUMPDEST PUSH2 0x9C3 DUP2 PUSH2 0x9A9 JUMP JUMPDEST DUP2 EQ PUSH2 0x9CD JUMPI PUSH0 DUP1 REVERT JUMPDEST POP JUMP JUMPDEST PUSH0 DUP2 CALLDATALOAD SWAP1 POP PUSH2 0x9DE DUP2 PUSH2 0x9BA JUMP JUMPDEST SWAP3 SWAP2 POP POP JUMP JUMPDEST PUSH0 PUSH1 0x20 DUP3 DUP5 SUB SLT ISZERO PUSH2 0x9F9 JUMPI PUSH2 0x9F8 PUSH2 0x986 JUMP JUMPDEST JUMPDEST PUSH0 PUSH2 0xA06 DUP5 DUP3 DUP6 ADD PUSH2 0x9D0 JUMP JUMPDEST SWAP2 POP POP SWAP3 SWAP2 POP POP JUMP JUMPDEST PUSH0 DUP2 SWAP1 POP SWAP2 SWAP1 POP JUMP JUMPDEST PUSH2 0xA21 DUP2 PUSH2 0xA0F JUMP JUMPDEST DUP2 EQ PUSH2 0xA2B JUMPI PUSH0 DUP1 REVERT JUMPDEST POP JUMP JUMPDEST PUSH0 DUP2 CALLDATALOAD SWAP1 POP PUSH2 0xA3C DUP2 PUSH2 0xA18 JUMP JUMPDEST SWAP3 SWAP2 POP POP JUMP JUMPDEST PUSH0 PUSH1 0x20 DUP3 DUP5 SUB SLT ISZERO PUSH2 0xA57 JUMPI PUSH2 0xA56 PUSH2 0x986 JUMP JUMPDEST JUMPDEST PUSH0 PUSH2 0xA64 DUP5 DUP3 DUP6 ADD PUSH2 0xA2E JUMP JUMPDEST SWAP2 POP POP SWAP3 SWAP2 POP POP JUMP JUMPDEST PUSH0 DUP2 ISZERO ISZERO SWAP1 POP SWAP2 SWAP1 POP JUMP JUMPDEST PUSH2 0xA81 DUP2 PUSH2 0xA6D JUMP JUMPDEST DUP3 MSTORE POP POP JUMP JUMPDEST PUSH0 PUSH1 0x20 DUP3 ADD SWAP1 POP PUSH2 0xA9A PUSH0 DUP4 ADD DUP5 PUSH2 0xA78 JUMP JUMPDEST SWAP3 SWAP2 POP POP JUMP JUMPDEST PUSH2 0xAA9 DUP2 PUSH2 0xA0F JUMP JUMPDEST DUP3 MSTORE POP POP JUMP JUMPDEST PUSH0 PUSH1 0x20 DUP3 ADD SWAP1 POP PUSH2 0xAC2 PUSH0 DUP4 ADD DUP5 PUSH2 0xAA0 JUMP JUMPDEST SWAP3 SWAP2 POP POP JUMP JUMPDEST PUSH0 PUSH1 0x40 DUP3 ADD SWAP1 POP PUSH2 0xADB PUSH0 DUP4 ADD DUP6 PUSH2 0xA78 JUMP JUMPDEST PUSH2 0xAE8 PUSH1 0x20 DUP4 ADD DUP5 PUSH2 0xA78 JUMP JUMPDEST SWAP4 SWAP3 POP POP POP JUMP JUMPDEST PUSH0 DUP2 SWAP1 POP SWAP2 SWAP1 POP JUMP JUMPDEST PUSH2 0xB01 DUP2 PUSH2 0xAEF JUMP JUMPDEST DUP3 MSTORE POP POP JUMP JUMPDEST PUSH0 PUSH1 0x20 DUP3 ADD SWAP1 POP PUSH2 0xB1A PUSH0 DUP4 ADD DUP5 PUSH2 0xAF8 JUMP JUMPDEST SWAP3 SWAP2 POP POP JUMP JUMPDEST PUSH2 0xB29 DUP2 PUSH2 0x9A9 JUMP JUMPDEST DUP3 MSTORE POP POP JUMP JUMPDEST PUSH0 PUSH1 0x20 DUP3 ADD SWAP1 POP PUSH2 0xB42 PUSH0 DUP4 ADD DUP5 PUSH2 0xB20 JUMP JUMPDEST SWAP3 SWAP2 POP POP JUMP JUMPDEST PUSH0 DUP3 DUP3 MSTORE PUSH1 0x20 DUP3 ADD SWAP1 POP SWAP3 SWAP2 POP POP JUMP JUMPDEST PUSH32 0x4F6E6C792061646D696E2063616E2063616C6C20746869732066756E6374696F PUSH0 DUP3 ADD MSTORE PUSH32 0x6E00000000000000000000000000000000000000000000000000000000000000 PUSH1 0x20 DUP3 ADD MSTORE POP JUMP JUMPDEST PUSH0 PUSH2 0xBB2 PUSH1 0x21 DUP4 PUSH2 0xB48 JUMP JUMPDEST SWAP2 POP PUSH2 0xBBD DUP3 PUSH2 0xB58 JUMP JUMPDEST PUSH1 0x40 DUP3 ADD SWAP1 POP SWAP2 SWAP1 POP JUMP JUMPDEST PUSH0 PUSH1 0x20 DUP3 ADD SWAP1 POP DUP2 DUP2 SUB PUSH0 DUP4 ADD MSTORE PUSH2 0xBDF DUP2 PUSH2 0xBA6 JUMP JUMPDEST SWAP1 POP SWAP2 SWAP1 POP JUMP JUMPDEST PUSH32 0x566F74696E6720697320616C7265616479206163746976650000000000000000 PUSH0 DUP3 ADD MSTORE POP JUMP JUMPDEST PUSH0 PUSH2 0xC1A PUSH1 0x18 DUP4 PUSH2 0xB48 JUMP JUMPDEST SWAP2 POP PUSH2 0xC25 DUP3 PUSH2 0xBE6 JUMP JUMPDEST PUSH1 0x20 DUP3 ADD SWAP1 POP SWAP2 SWAP1 POP JUMP JUMPDEST PUSH0 PUSH1 0x20 DUP3 ADD SWAP1 POP DUP2 DUP2 SUB PUSH0 DUP4 ADD MSTORE PUSH2 0xC47 DUP2 PUSH2 0xC0E JUMP JUMPDEST SWAP1 POP SWAP2 SWAP1 POP JUMP JUMPDEST PUSH32 0x566F74657220697320616C726561647920726567697374657265640000000000 PUSH0 DUP3 ADD MSTORE POP JUMP JUMPDEST PUSH0 PUSH2 0xC82 PUSH1 0x1B DUP4 PUSH2 0xB48 JUMP JUMPDEST SWAP2 POP PUSH2 0xC8D DUP3 PUSH2 0xC4E JUMP JUMPDEST PUSH1 0x20 DUP3 ADD SWAP1 POP SWAP2 SWAP1 POP JUMP JUMPDEST PUSH0 PUSH1 0x20 DUP3 ADD SWAP1 POP DUP2 DUP2 SUB PUSH0 DUP4 ADD MSTORE PUSH2 0xCAF DUP2 PUSH2 0xC76 JUMP JUMPDEST SWAP1 POP SWAP2 SWAP1 POP JUMP JUMPDEST PUSH32 0x566F746572206973206E6F742072656769737465726564000000000000000000 PUSH0 DUP3 ADD MSTORE POP JUMP JUMPDEST PUSH0 PUSH2 0xCEA PUSH1 0x17 DUP4 PUSH2 0xB48 JUMP JUMPDEST SWAP2 POP PUSH2 0xCF5 DUP3 PUSH2 0xCB6 JUMP JUMPDEST PUSH1 0x20 DUP3 ADD SWAP1 POP SWAP2 SWAP1 POP JUMP JUMPDEST PUSH0 PUSH1 0x20 DUP3 ADD SWAP1 POP DUP2 DUP2 SUB PUSH0 DUP4 ADD MSTORE PUSH2 0xD17 DUP2 PUSH2 0xCDE JUMP JUMPDEST SWAP1 POP SWAP2 SWAP1 POP JUMP JUMPDEST PUSH32 0x566F74696E67206973206E6F7420616374697665000000000000000000000000 PUSH0 DUP3 ADD MSTORE POP JUMP JUMPDEST PUSH0 PUSH2 0xD52 PUSH1 0x14 DUP4 PUSH2 0xB48 JUMP JUMPDEST SWAP2 POP PUSH2 0xD5D DUP3 PUSH2 0xD1E JUMP JUMPDEST PUSH1 0x20 DUP3 ADD SWAP1 POP SWAP2 SWAP1 POP JUMP JUMPDEST PUSH0 PUSH1 0x20 DUP3 ADD SWAP1 POP DUP2 DUP2 SUB PUSH0 DUP4 ADD MSTORE PUSH2 0xD7F DUP2 PUSH2 0xD46 JUMP JUMPDEST SWAP1 POP SWAP2 SWAP1 POP JUMP JUMPDEST PUSH32 0x566F7465722068617320616C726561647920766F746564000000000000000000 PUSH0 DUP3 ADD MSTORE POP JUMP JUMPDEST PUSH0 PUSH2 0xDBA PUSH1 0x17 DUP4 PUSH2 0xB48 JUMP JUMPDEST SWAP2 POP PUSH2 0xDC5 DUP3 PUSH2 0xD86 JUMP JUMPDEST PUSH1 0x20 DUP3 ADD SWAP1 POP SWAP2 SWAP1 POP JUMP JUMPDEST PUSH0 PUSH1 0x20 DUP3 ADD SWAP1 POP DUP2 DUP2 SUB PUSH0 DUP4 ADD MSTORE PUSH2 0xDE7 DUP2 PUSH2 0xDAE JUMP JUMPDEST SWAP1 POP SWAP2 SWAP1 POP JUMP JUMPDEST PUSH32 0x4E487B7100000000000000000000000000000000000000000000000000000000 PUSH0 MSTORE PUSH1 0x11 PUSH1 0x4 MSTORE PUSH1 0x24 PUSH0 REVERT JUMPDEST PUSH0 PUSH2 0xE25 DUP3 PUSH2 0xAEF JUMP JUMPDEST SWAP2 POP PUSH32 0xFFFFFFFFFFFFFFFFFFFFFFFFFFFFFFFFFFFFFFFFFFFFFFFFFFFFFFFFFFFFFFFF DUP3 SUB PUSH2 0xE57 JUMPI PUSH2 0xE56 PUSH2 0xDEE JUMP JUMPDEST JUMPDEST PUSH1 0x1 DUP3 ADD SWAP1 POP SWAP2 SWAP1 POP JUMP JUMPDEST PUSH0 PUSH1 0x40 DUP3 ADD SWAP1 POP PUSH2 0xE75 PUSH0 DUP4 ADD DUP6 PUSH2 0xB20 JUMP JUMPDEST PUSH2 0xE82 PUSH1 0x20 DUP4 ADD DUP5 PUSH2 0xAA0 JUMP JUMPDEST SWAP4 SWAP3 POP POP POP JUMP JUMPDEST PUSH32 0x566F74696E67206973207374696C6C2061637469766500000000000000000000 PUSH0 DUP3 ADD MSTORE POP JUMP JUMPDEST PUSH0 PUSH2 0xEBD PUSH1 0x16 DUP4 PUSH2 0xB48 JUMP JUMPDEST SWAP2 POP PUSH2 0xEC8 DUP3 PUSH2 0xE89 JUMP JUMPDEST PUSH1 0x20 DUP3 ADD SWAP1 POP SWAP2 SWAP1 POP JUMP JUMPDEST PUSH0 PUSH1 0x20 DUP3 ADD SWAP1 POP DUP2 DUP2 SUB PUSH0 DUP4 ADD MSTORE PUSH2 0xEEA DUP2 PUSH2 0xEB1 JUMP JUMPDEST SWAP1 POP SWAP2 SWAP1 POP JUMP INVALID LOG2 PUSH5 0x6970667358 0x22 SLT KECCAK256 COINBASE 0xB4 0xAE 0x2F 0x2F PUSH14 0x498A7AA55F7FE9047BF5C604F4F1 DUP6 PREVRANDAO 0xC8 0xEE 0xE7 PUSH4 0xF1F0F287 0xE8 0xAE PUSH5 0x736F6C6343 STOP ADDMOD BYTE STOP CALLER "
				},
				"gasEstimates": {
					"creation": {
						"codeDepositCost": "775800",
						"executionCost": "infinite",
						"totalCost": "infinite"
					},
					"external": {
						"admin()": "2618",
						"castVote(bytes32)": "infinite",
						"endVoting()": "29572",
						"getResult(bytes32)": "4946",
						"getWinner()": "infinite",
						"registerVoter(address)": "infinite",
						"startVoting()": "28734",
						"topic()": "2469",
						"voteCount(bytes32)": "2842",
						"voters(address)": "infinite",
						"votingActive()": "2533"
					}
				},
				"methodIdentifiers": {
					"admin()": "f851a440",
					"castVote(bytes32)": "3efafb6e",
					"endVoting()": "c3403ddf",
					"getResult(bytes32)": "add4c784",
					"getWinner()": "8e7ea5b2",
					"registerVoter(address)": "38db6dd3",
					"startVoting()": "1ec6b60a",
					"topic()": "bf63a577",
					"voteCount(bytes32)": "f28bddf6",
					"voters(address)": "a3ec138d",
					"votingActive()": "408e2727"
				}
			},
			"storageLayout": {
				"storage": [
					{
						"astId": 11,
						"contract": "vote.sol:DecentralizedVoting",
						"label": "voters",
						"offset": 0,
						"slot": "0",
						"type": "t_mapping(t_address,t_struct(Voter)6_storage)"
					},
					{
						"astId": 15,
						"contract": "vote.sol:DecentralizedVoting",
						"label": "voteCount",
						"offset": 0,
						"slot": "1",
						"type": "t_mapping(t_bytes32,t_uint256)"
					},
					{
						"astId": 17,
						"contract": "vote.sol:DecentralizedVoting",
						"label": "admin",
						"offset": 0,
						"slot": "2",
						"type": "t_address"
					},
					{
						"astId": 19,
						"contract": "vote.sol:DecentralizedVoting",
						"label": "topic",
						"offset": 0,
						"slot": "3",
						"type": "t_bytes32"
					},
					{
						"astId": 21,
						"contract": "vote.sol:DecentralizedVoting",
						"label": "votingActive",
						"offset": 0,
						"slot": "4",
						"type": "t_bool"
					}
				],
				"types": {
					"t_address": {
						"encoding": "inplace",
						"label": "address",
						"numberOfBytes": "20"
					},
					"t_bool": {
						"encoding": "inplace",
						"label": "bool",
						"numberOfBytes": "1"
					},
					"t_bytes32": {
						"encoding": "inplace",
						"label": "bytes32",
						"numberOfBytes": "32"
					},
					"t_mapping(t_address,t_struct(Voter)6_storage)": {
						"encoding": "mapping",
						"key": "t_address",
						"label": "mapping(address => struct DecentralizedVoting.Voter)",
						"numberOfBytes": "32",
						"value": "t_struct(Voter)6_storage"
					},
					"t_mapping(t_bytes32,t_uint256)": {
						"encoding": "mapping",
						"key": "t_bytes32",
						"label": "mapping(bytes32 => uint256)",
						"numberOfBytes": "32",
						"value": "t_uint256"
					},
					"t_struct(Voter)6_storage": {
						"encoding": "inplace",
						"label": "struct DecentralizedVoting.Voter",
						"members": [
							{
								"astId": 3,
								"contract": "vote.sol:DecentralizedVoting",
								"label": "isRegistered",
								"offset": 0,
								"slot": "0",
								"type": "t_bool"
							},
							{
								"astId": 5,
								"contract": "vote.sol:DecentralizedVoting",
								"label": "hasVoted",
								"offset": 1,
								"slot": "0",
								"type": "t_bool"
							}
						],
						"numberOfBytes": "32"
					},
					"t_uint256": {
						"encoding": "inplace",
						"label": "uint256",
						"numberOfBytes": "32"
					}
				}
			},
			"userdoc": {
				"kind": "user",
				"methods": {},
				"version": 1
			}
		}
	}
}