{
	"data": {
		"bytecode": {
			"linkReferences": {},
			"object": "60806040525f80553480156011575f80fd5b50610c588061001f5f395ff3fe608060405234801561000f575f80fd5b506004361061003f575f3560e01c80635396dd7a1461004357806361bc221a1461005f578063c8b3d5ac1461007d575b5f80fd5b61005d60048036038101906100589190610645565b6100ad565b005b610067610144565b60405161007491906106f0565b60405180910390f35b61009760048036038101906100929190610709565b610149565b6040516100a491906108c5565b60405180910390f35b60405180608001604052808581526020018481526020018381526020018281525060015f805481526020019081526020015f205f820151815f0190816100f39190610adf565b5060208201518160010190805190602001906101109291906102eb565b5060408201518160020155606082015181600301559050505f8081548092919061013990610bdb565b919050555050505050565b5f5481565b610151610342565b60015f8381526020019081526020015f206040518060800160405290815f8201805461017c90610912565b80601f01602080910402602001604051908101604052809291908181526020018280546101a890610912565b80156101f35780601f106101ca576101008083540402835291602001916101f3565b820191905f5260205f20905b8154815290600101906020018083116101d657829003601f168201915b5050505050815260200160018201805480602002602001604051908101604052809291908181526020015f905b828210156102c8578382905f5260205f2001805461023d90610912565b80601f016020809104026020016040519081016040528092919081815260200182805461026990610912565b80156102b45780601f1061028b576101008083540402835291602001916102b4565b820191905f5260205f20905b81548152906001019060200180831161029757829003601f168201915b505050505081526020019060010190610220565b505050508152602001600282015481526020016003820154815250509050919050565b828054828255905f5260205f20908101928215610331579160200282015b828111156103305782518290816103209190610adf565b5091602001919060010190610309565b5b50905061033e9190610368565b5090565b604051806080016040528060608152602001606081526020015f81526020015f81525090565b5b80821115610387575f818161037e919061038b565b50600101610369565b5090565b50805461039790610912565b5f825580601f106103a857506103c5565b601f0160209004905f5260205f20908101906103c491906103c8565b5b50565b5b808211156103df575f815f9055506001016103c9565b5090565b5f604051905090565b5f80fd5b5f80fd5b5f80fd5b5f80fd5b5f601f19601f8301169050919050565b7f4e487b71000000000000000000000000000000000000000000000000000000005f52604160045260245ffd5b610442826103fc565b810181811067ffffffffffffffff821117156104615761046061040c565b5b80604052505050565b5f6104736103e3565b905061047f8282610439565b919050565b5f67ffffffffffffffff82111561049e5761049d61040c565b5b6104a7826103fc565b9050602081019050919050565b828183375f83830152505050565b5f6104d46104cf84610484565b61046a565b9050828152602081018484840111156104f0576104ef6103f8565b5b6104fb8482856104b4565b509392505050565b5f82601f830112610517576105166103f4565b5b81356105278482602086016104c2565b91505092915050565b5f67ffffffffffffffff82111561054a5761054961040c565b5b602082029050602081019050919050565b5f80fd5b5f61057161056c84610530565b61046a565b905080838252602082019050602084028301858111156105945761059361055b565b5b835b818110156105db57803567ffffffffffffffff8111156105b9576105b86103f4565b5b8086016105c68982610503565b85526020850194505050602081019050610596565b5050509392505050565b5f82601f8301126105f9576105f86103f4565b5b813561060984826020860161055f565b91505092915050565b5f819050919050565b61062481610612565b811461062e575f80fd5b50565b5f8135905061063f8161061b565b92915050565b5f805f806080858703121561065d5761065c6103ec565b5b5f85013567ffffffffffffffff81111561067a576106796103f0565b5b61068687828801610503565b945050602085013567ffffffffffffffff8111156106a7576106a66103f0565b5b6106b3878288016105e5565b93505060406106c487828801610631565b92505060606106d587828801610631565b91505092959194509250565b6106ea81610612565b82525050565b5f6020820190506107035f8301846106e1565b92915050565b5f6020828403121561071e5761071d6103ec565b5b5f61072b84828501610631565b91505092915050565b5f81519050919050565b5f82825260208201905092915050565b8281835e5f83830152505050565b5f61076682610734565b610770818561073e565b935061078081856020860161074e565b610789816103fc565b840191505092915050565b5f81519050919050565b5f82825260208201905092915050565b5f819050602082019050919050565b5f6107c8838361075c565b905092915050565b5f602082019050919050565b5f6107e682610794565b6107f0818561079e565b935083602082028501610802856107ae565b805f5b8581101561083d578484038952815161081e85826107bd565b9450610829836107d0565b925060208a01995050600181019050610805565b50829750879550505050505092915050565b61085881610612565b82525050565b5f608083015f8301518482035f860152610878828261075c565b9150506020830151848203602086015261089282826107dc565b91505060408301516108a7604086018261084f565b5060608301516108ba606086018261084f565b508091505092915050565b5f6020820190508181035f8301526108dd818461085e565b905092915050565b7f4e487b71000000000000000000000000000000000000000000000000000000005f52602260045260245ffd5b5f600282049050600182168061092957607f821691505b60208210810361093c5761093b6108e5565b5b50919050565b5f819050815f5260205f209050919050565b5f6020601f8301049050919050565b5f82821b905092915050565b5f6008830261099e7fffffffffffffffffffffffffffffffffffffffffffffffffffffffffffffffff82610963565b6109a88683610963565b95508019841693508086168417925050509392505050565b5f819050919050565b5f6109e36109de6109d984610612565b6109c0565b610612565b9050919050565b5f819050919050565b6109fc836109c9565b610a10610a08826109ea565b84845461096f565b825550505050565b5f90565b610a24610a18565b610a2f8184846109f3565b505050565b5b81811015610a5257610a475f82610a1c565b600181019050610a35565b5050565b601f821115610a9757610a6881610942565b610a7184610954565b81016020851015610a80578190505b610a94610a8c85610954565b830182610a34565b50505b505050565b5f82821c905092915050565b5f610ab75f1984600802610a9c565b1980831691505092915050565b5f610acf8383610aa8565b9150826002028217905092915050565b610ae882610734565b67ffffffffffffffff811115610b0157610b0061040c565b5b610b0b8254610912565b610b16828285610a56565b5f60209050601f831160018114610b47575f8415610b35578287015190505b610b3f8582610ac4565b865550610ba6565b601f198416610b5586610942565b5f5b82811015610b7c57848901518255600182019150602085019450602081019050610b57565b86831015610b995784890151610b95601f891682610aa8565b8355505b6001600288020188555050505b505050505050565b7f4e487b71000000000000000000000000000000000000000000000000000000005f52601160045260245ffd5b5f610be582610612565b91507fffffffffffffffffffffffffffffffffffffffffffffffffffffffffffffffff8203610c1757610c16610bae565b5b60018201905091905056fea2646970667358221220f4ff849f129ae387d33ed00a2c47991de0017f09926076a0f17ab20841cc3abb64736f6c634300081a0033",
			"opcodes": "PUSH1 0x80 PUSH1 0x40 MSTORE PUSH0 DUP1 SSTORE CALLVALUE DUP1 ISZERO PUSH1 0x11 JUMPI PUSH0 DUP1 REVERT JUMPDEST POP PUSH2 0xC58 DUP1 PUSH2 0x1F PUSH0 CODECOPY PUSH0 RETURN INVALID PUSH1 0x80 PUSH1 0x40 MSTORE CALLVALUE DUP1 ISZERO PUSH2 0xF JUMPI PUSH0 DUP1 REVERT JUMPDEST POP PUSH1 0x4 CALLDATASIZE LT PUSH2 0x3F JUMPI PUSH0 CALLDATALOAD PUSH1 0xE0 SHR DUP1 PUSH4 0x5396DD7A EQ PUSH2 0x43 JUMPI DUP1 PUSH4 0x61BC221A EQ PUSH2 0x5F JUMPI DUP1 PUSH4 0xC8B3D5AC EQ PUSH2 0x7D JUMPI JUMPDEST PUSH0 DUP1 REVERT JUMPDEST PUSH2 0x5D PUSH1 0x4 DUP1 CALLDATASIZE SUB DUP2 ADD SWAP1 PUSH2 0x58 SWAP2 SWAP1 PUSH2 0x645 JUMP JUMPDEST PUSH2 0xAD JUMP JUMPDEST STOP JUMPDEST PUSH2 0x67 PUSH2 0x144 JUMP JUMPDEST PUSH1 0x40 MLOAD PUSH2 0x74 SWAP2 SWAP1 PUSH2 0x6F0 JUMP JUMPDEST PUSH1 0x40 MLOAD DUP1 SWAP2 SUB SWAP1 RETURN JUMPDEST PUSH2 0x97 PUSH1 0x4 DUP1 CALLDATASIZE SUB DUP2 ADD SWAP1 PUSH2 0x92 SWAP2 SWAP1 PUSH2 0x709 JUMP JUMPDEST PUSH2 0x149 JUMP JUMPDEST PUSH1 0x40 MLOAD PUSH2 0xA4 SWAP2 SWAP1 PUSH2 0x8C5 JUMP JUMPDEST PUSH1 0x40 MLOAD DUP1 SWAP2 SUB SWAP1 RETURN JUMPDEST PUSH1 0x40 MLOAD DUP1 PUSH1 0x80 ADD PUSH1 0x40 MSTORE DUP1 DUP6 DUP2 MSTORE PUSH1 0x20 ADD DUP5 DUP2 MSTORE PUSH1 0x20 ADD DUP4 DUP2 MSTORE PUSH1 0x20 ADD DUP3 DUP2 MSTORE POP PUSH1 0x1 PUSH0 DUP1 SLOAD DUP2 MSTORE PUSH1 0x20 ADD SWAP1 DUP2 MSTORE PUSH1 0x20 ADD PUSH0 KECCAK256 PUSH0 DUP3 ADD MLOAD DUP2 PUSH0 ADD SWAP1 DUP2 PUSH2 0xF3 SWAP2 SWAP1 PUSH2 0xADF JUMP JUMPDEST POP PUSH1 0x20 DUP3 ADD MLOAD DUP2 PUSH1 0x1 ADD SWAP1 DUP1 MLOAD SWAP1 PUSH1 0x20 ADD SWAP1 PUSH2 0x110 SWAP3 SWAP2 SWAP1 PUSH2 0x2EB JUMP JUMPDEST POP PUSH1 0x40 DUP3 ADD MLOAD DUP2 PUSH1 0x2 ADD SSTORE PUSH1 0x60 DUP3 ADD MLOAD DUP2 PUSH1 0x3 ADD SSTORE SWAP1 POP POP PUSH0 DUP1 DUP2 SLOAD DUP1 SWAP3 SWAP2 SWAP1 PUSH2 0x139 SWAP1 PUSH2 0xBDB JUMP JUMPDEST SWAP2 SWAP1 POP SSTORE POP POP POP POP POP JUMP JUMPDEST PUSH0 SLOAD DUP2 JUMP JUMPDEST PUSH2 0x151 PUSH2 0x342 JUMP JUMPDEST PUSH1 0x1 PUSH0 DUP4 DUP2 MSTORE PUSH1 0x20 ADD SWAP1 DUP2 MSTORE PUSH1 0x20 ADD PUSH0 KECCAK256 PUSH1 0x40 MLOAD DUP1 PUSH1 0x80 ADD PUSH1 0x40 MSTORE SWAP1 DUP2 PUSH0 DUP3 ADD DUP1 SLOAD PUSH2 0x17C SWAP1 PUSH2 0x912 JUMP JUMPDEST DUP1 PUSH1 0x1F ADD PUSH1 0x20 DUP1 SWAP2 DIV MUL PUSH1 0x20 ADD PUSH1 0x40 MLOAD SWAP1 DUP2 ADD PUSH1 0x40 MSTORE DUP1 SWAP3 SWAP2 SWAP1 DUP2 DUP2 MSTORE PUSH1 0x20 ADD DUP3 DUP1 SLOAD PUSH2 0x1A8 SWAP1 PUSH2 0x912 JUMP JUMPDEST DUP1 ISZERO PUSH2 0x1F3 JUMPI DUP1 PUSH1 0x1F LT PUSH2 0x1CA JUMPI PUSH2 0x100 DUP1 DUP4 SLOAD DIV MUL DUP4 MSTORE SWAP2 PUSH1 0x20 ADD SWAP2 PUSH2 0x1F3 JUMP JUMPDEST DUP3 ADD SWAP2 SWAP1 PUSH0 MSTORE PUSH1 0x20 PUSH0 KECCAK256 SWAP1 JUMPDEST DUP2 SLOAD DUP2 MSTORE SWAP1 PUSH1 0x1 ADD SWAP1 PUSH1 0x20 ADD DUP1 DUP4 GT PUSH2 0x1D6 JUMPI DUP3 SWAP1 SUB PUSH1 0x1F AND DUP3 ADD SWAP2 JUMPDEST POP POP POP POP POP DUP2 MSTORE PUSH1 0x20 ADD PUSH1 0x1 DUP3 ADD DUP1 SLOAD DUP1 PUSH1 0x20 MUL PUSH1 0x20 ADD PUSH1 0x40 MLOAD SWAP1 DUP2 ADD PUSH1 0x40 MSTORE DUP1 SWAP3 SWAP2 SWAP1 DUP2 DUP2 MSTORE PUSH1 0x20 ADD PUSH0 SWAP1 JUMPDEST DUP3 DUP3 LT ISZERO PUSH2 0x2C8 JUMPI DUP4 DUP3 SWAP1 PUSH0 MSTORE PUSH1 0x20 PUSH0 KECCAK256 ADD DUP1 SLOAD PUSH2 0x23D SWAP1 PUSH2 0x912 JUMP JUMPDEST DUP1 PUSH1 0x1F ADD PUSH1 0x20 DUP1 SWAP2 DIV MUL PUSH1 0x20 ADD PUSH1 0x40 MLOAD SWAP1 DUP2 ADD PUSH1 0x40 MSTORE DUP1 SWAP3 SWAP2 SWAP1 DUP2 DUP2 MSTORE PUSH1 0x20 ADD DUP3 DUP1 SLOAD PUSH2 0x269 SWAP1 PUSH2 0x912 JUMP JUMPDEST DUP1 ISZERO PUSH2 0x2B4 JUMPI DUP1 PUSH1 0x1F LT PUSH2 0x28B JUMPI PUSH2 0x100 DUP1 DUP4 SLOAD DIV MUL DUP4 MSTORE SWAP2 PUSH1 0x20 ADD SWAP2 PUSH2 0x2B4 JUMP JUMPDEST DUP3 ADD SWAP2 SWAP1 PUSH0 MSTORE PUSH1 0x20 PUSH0 KECCAK256 SWAP1 JUMPDEST DUP2 SLOAD DUP2 MSTORE SWAP1 PUSH1 0x1 ADD SWAP1 PUSH1 0x20 ADD DUP1 DUP4 GT PUSH2 0x297 JUMPI DUP3 SWAP1 SUB PUSH1 0x1F AND DUP3 ADD SWAP2 JUMPDEST POP POP POP POP POP DUP2 MSTORE PUSH1 0x20 ADD SWAP1 PUSH1 0x1 ADD SWAP1 PUSH2 0x220 JUMP JUMPDEST POP POP POP POP DUP2 MSTORE PUSH1 0x20 ADD PUSH1 0x2 DUP3 ADD SLOAD DUP2 MSTORE PUSH1 0x20 ADD PUSH1 0x3 DUP3 ADD SLOAD DUP2 MSTORE POP POP SWAP1 POP SWAP2 SWAP1 POP JUMP JUMPDEST DUP3 DUP1 SLOAD DUP3 DUP3 SSTORE SWAP1 PUSH0 MSTORE PUSH1 0x20 PUSH0 KECCAK256 SWAP1 DUP2 ADD SWAP3 DUP3 ISZERO PUSH2 0x331 JUMPI SWAP2 PUSH1 0x20 MUL DUP3 ADD JUMPDEST DUP3 DUP2 GT ISZERO PUSH2 0x330 JUMPI DUP3 MLOAD DUP3 SWAP1 DUP2 PUSH2 0x320 SWAP2 SWAP1 PUSH2 0xADF JUMP JUMPDEST POP SWAP2 PUSH1 0x20 ADD SWAP2 SWAP1 PUSH1 0x1 ADD SWAP1 PUSH2 0x309 JUMP JUMPDEST JUMPDEST POP SWAP1 POP PUSH2 0x33E SWAP2 SWAP1 PUSH2 0x368 JUMP JUMPDEST POP SWAP1 JUMP JUMPDEST PUSH1 0x40 MLOAD DUP1 PUSH1 0x80 ADD PUSH1 0x40 MSTORE DUP1 PUSH1 0x60 DUP2 MSTORE PUSH1 0x20 ADD PUSH1 0x60 DUP2 MSTORE PUSH1 0x20 ADD PUSH0 DUP2 MSTORE PUSH1 0x20 ADD PUSH0 DUP2 MSTORE POP SWAP1 JUMP JUMPDEST JUMPDEST DUP1 DUP3 GT ISZERO PUSH2 0x387 JUMPI PUSH0 DUP2 DUP2 PUSH2 0x37E SWAP2 SWAP1 PUSH2 0x38B JUMP JUMPDEST POP PUSH1 0x1 ADD PUSH2 0x369 JUMP JUMPDEST POP SWAP1 JUMP JUMPDEST POP DUP1 SLOAD PUSH2 0x397 SWAP1 PUSH2 0x912 JUMP JUMPDEST PUSH0 DUP3 SSTORE DUP1 PUSH1 0x1F LT PUSH2 0x3A8 JUMPI POP PUSH2 0x3C5 JUMP JUMPDEST PUSH1 0x1F ADD PUSH1 0x20 SWAP1 DIV SWAP1 PUSH0 MSTORE PUSH1 0x20 PUSH0 KECCAK256 SWAP1 DUP2 ADD SWAP1 PUSH2 0x3C4 SWAP2 SWAP1 PUSH2 0x3C8 JUMP JUMPDEST JUMPDEST POP JUMP JUMPDEST JUMPDEST DUP1 DUP3 GT ISZERO PUSH2 0x3DF JUMPI PUSH0 DUP2 PUSH0 SWAP1 SSTORE POP PUSH1 0x1 ADD PUSH2 0x3C9 JUMP JUMPDEST POP SWAP1 JUMP JUMPDEST PUSH0 PUSH1 0x40 MLOAD SWAP1 POP SWAP1 JUMP JUMPDEST PUSH0 DUP1 REVERT JUMPDEST PUSH0 DUP1 REVERT JUMPDEST PUSH0 DUP1 REVERT JUMPDEST PUSH0 DUP1 REVERT JUMPDEST PUSH0 PUSH1 0x1F NOT PUSH1 0x1F DUP4 ADD AND SWAP1 POP SWAP2 SWAP1 POP JUMP JUMPDEST PUSH32 0x4E487B7100000000000000000000000000000000000000000000000000000000 PUSH0 MSTORE PUSH1 0x41 PUSH1 0x4 MSTORE PUSH1 0x24 PUSH0 REVERT JUMPDEST PUSH2 0x442 DUP3 PUSH2 0x3FC JUMP JUMPDEST DUP2 ADD DUP2 DUP2 LT PUSH8 0xFFFFFFFFFFFFFFFF DUP3 GT OR ISZERO PUSH2 0x461 JUMPI PUSH2 0x460 PUSH2 0x40C JUMP JUMPDEST JUMPDEST DUP1 PUSH1 0x40 MSTORE POP POP POP JUMP JUMPDEST PUSH0 PUSH2 0x473 PUSH2 0x3E3 JUMP JUMPDEST SWAP1 POP PUSH2 0x47F DUP3 DUP3 PUSH2 0x439 JUMP JUMPDEST SWAP2 SWAP1 POP JUMP JUMPDEST PUSH0 PUSH8 0xFFFFFFFFFFFFFFFF DUP3 GT ISZERO PUSH2 0x49E JUMPI PUSH2 0x49D PUSH2 0x40C JUMP JUMPDEST JUMPDEST PUSH2 0x4A7 DUP3 PUSH2 0x3FC JUMP JUMPDEST SWAP1 POP PUSH1 0x20 DUP2 ADD SWAP1 POP SWAP2 SWAP1 POP JUMP JUMPDEST DUP3 DUP2 DUP4 CALLDATACOPY PUSH0 DUP4 DUP4 ADD MSTORE POP POP POP JUMP JUMPDEST PUSH0 PUSH2 0x4D4 PUSH2 0x4CF DUP5 PUSH2 0x484 JUMP JUMPDEST PUSH2 0x46A JUMP JUMPDEST SWAP1 POP DUP3 DUP2 MSTORE PUSH1 0x20 DUP2 ADD DUP5 DUP5 DUP5 ADD GT ISZERO PUSH2 0x4F0 JUMPI PUSH2 0x4EF PUSH2 0x3F8 JUMP JUMPDEST JUMPDEST PUSH2 0x4FB DUP5 DUP3 DUP6 PUSH2 0x4B4 JUMP JUMPDEST POP SWAP4 SWAP3 POP POP POP JUMP JUMPDEST PUSH0 DUP3 PUSH1 0x1F DUP4 ADD SLT PUSH2 0x517 JUMPI PUSH2 0x516 PUSH2 0x3F4 JUMP JUMPDEST JUMPDEST DUP2 CALLDATALOAD PUSH2 0x527 DUP5 DUP3 PUSH1 0x20 DUP7 ADD PUSH2 0x4C2 JUMP JUMPDEST SWAP2 POP POP SWAP3 SWAP2 POP POP JUMP JUMPDEST PUSH0 PUSH8 0xFFFFFFFFFFFFFFFF DUP3 GT ISZERO PUSH2 0x54A JUMPI PUSH2 0x549 PUSH2 0x40C JUMP JUMPDEST JUMPDEST PUSH1 0x20 DUP3 MUL SWAP1 POP PUSH1 0x20 DUP2 ADD SWAP1 POP SWAP2 SWAP1 POP JUMP JUMPDEST PUSH0 DUP1 REVERT JUMPDEST PUSH0 PUSH2 0x571 PUSH2 0x56C DUP5 PUSH2 0x530 JUMP JUMPDEST PUSH2 0x46A JUMP JUMPDEST SWAP1 POP DUP1 DUP4 DUP3 MSTORE PUSH1 0x20 DUP3 ADD SWAP1 POP PUSH1 0x20 DUP5 MUL DUP4 ADD DUP6 DUP2 GT ISZERO PUSH2 0x594 JUMPI PUSH2 0x593 PUSH2 0x55B JUMP JUMPDEST JUMPDEST DUP4 JUMPDEST DUP2 DUP2 LT ISZERO PUSH2 0x5DB JUMPI DUP1 CALLDATALOAD PUSH8 0xFFFFFFFFFFFFFFFF DUP2 GT ISZERO PUSH2 0x5B9 JUMPI PUSH2 0x5B8 PUSH2 0x3F4 JUMP JUMPDEST JUMPDEST DUP1 DUP7 ADD PUSH2 0x5C6 DUP10 DUP3 PUSH2 0x503 JUMP JUMPDEST DUP6 MSTORE PUSH1 0x20 DUP6 ADD SWAP5 POP POP POP PUSH1 0x20 DUP2 ADD SWAP1 POP PUSH2 0x596 JUMP JUMPDEST POP POP POP SWAP4 SWAP3 POP POP POP JUMP JUMPDEST PUSH0 DUP3 PUSH1 0x1F DUP4 ADD SLT PUSH2 0x5F9 JUMPI PUSH2 0x5F8 PUSH2 0x3F4 JUMP JUMPDEST JUMPDEST DUP2 CALLDATALOAD PUSH2 0x609 DUP5 DUP3 PUSH1 0x20 DUP7 ADD PUSH2 0x55F JUMP JUMPDEST SWAP2 POP POP SWAP3 SWAP2 POP POP JUMP JUMPDEST PUSH0 DUP2 SWAP1 POP SWAP2 SWAP1 POP JUMP JUMPDEST PUSH2 0x624 DUP2 PUSH2 0x612 JUMP JUMPDEST DUP2 EQ PUSH2 0x62E JUMPI PUSH0 DUP1 REVERT JUMPDEST POP JUMP JUMPDEST PUSH0 DUP2 CALLDATALOAD SWAP1 POP PUSH2 0x63F DUP2 PUSH2 0x61B JUMP JUMPDEST SWAP3 SWAP2 POP POP JUMP JUMPDEST PUSH0 DUP1 PUSH0 DUP1 PUSH1 0x80 DUP6 DUP8 SUB SLT ISZERO PUSH2 0x65D JUMPI PUSH2 0x65C PUSH2 0x3EC JUMP JUMPDEST JUMPDEST PUSH0 DUP6 ADD CALLDATALOAD PUSH8 0xFFFFFFFFFFFFFFFF DUP2 GT ISZERO PUSH2 0x67A JUMPI PUSH2 0x679 PUSH2 0x3F0 JUMP JUMPDEST JUMPDEST PUSH2 0x686 DUP8 DUP3 DUP9 ADD PUSH2 0x503 JUMP JUMPDEST SWAP5 POP POP PUSH1 0x20 DUP6 ADD CALLDATALOAD PUSH8 0xFFFFFFFFFFFFFFFF DUP2 GT ISZERO PUSH2 0x6A7 JUMPI PUSH2 0x6A6 PUSH2 0x3F0 JUMP JUMPDEST JUMPDEST PUSH2 0x6B3 DUP8 DUP3 DUP9 ADD PUSH2 0x5E5 JUMP JUMPDEST SWAP4 POP POP PUSH1 0x40 PUSH2 0x6C4 DUP8 DUP3 DUP9 ADD PUSH2 0x631 JUMP JUMPDEST SWAP3 POP POP PUSH1 0x60 PUSH2 0x6D5 DUP8 DUP3 DUP9 ADD PUSH2 0x631 JUMP JUMPDEST SWAP2 POP POP SWAP3 SWAP6 SWAP2 SWAP5 POP SWAP3 POP JUMP JUMPDEST PUSH2 0x6EA DUP2 PUSH2 0x612 JUMP JUMPDEST DUP3 MSTORE POP POP JUMP JUMPDEST PUSH0 PUSH1 0x20 DUP3 ADD SWAP1 POP PUSH2 0x703 PUSH0 DUP4 ADD DUP5 PUSH2 0x6E1 JUMP JUMPDEST SWAP3 SWAP2 POP POP JUMP JUMPDEST PUSH0 PUSH1 0x20 DUP3 DUP5 SUB SLT ISZERO PUSH2 0x71E JUMPI PUSH2 0x71D PUSH2 0x3EC JUMP JUMPDEST JUMPDEST PUSH0 PUSH2 0x72B DUP5 DUP3 DUP6 ADD PUSH2 0x631 JUMP JUMPDEST SWAP2 POP POP SWAP3 SWAP2 POP POP JUMP JUMPDEST PUSH0 DUP2 MLOAD SWAP1 POP SWAP2 SWAP1 POP JUMP JUMPDEST PUSH0 DUP3 DUP3 MSTORE PUSH1 0x20 DUP3 ADD SWAP1 POP SWAP3 SWAP2 POP POP JUMP JUMPDEST DUP3 DUP2 DUP4 MCOPY PUSH0 DUP4 DUP4 ADD MSTORE POP POP POP JUMP JUMPDEST PUSH0 PUSH2 0x766 DUP3 PUSH2 0x734 JUMP JUMPDEST PUSH2 0x770 DUP2 DUP6 PUSH2 0x73E JUMP JUMPDEST SWAP4 POP PUSH2 0x780 DUP2 DUP6 PUSH1 0x20 DUP7 ADD PUSH2 0x74E JUMP JUMPDEST PUSH2 0x789 DUP2 PUSH2 0x3FC JUMP JUMPDEST DUP5 ADD SWAP2 POP POP SWAP3 SWAP2 POP POP JUMP JUMPDEST PUSH0 DUP2 MLOAD SWAP1 POP SWAP2 SWAP1 POP JUMP JUMPDEST PUSH0 DUP3 DUP3 MSTORE PUSH1 0x20 DUP3 ADD SWAP1 POP SWAP3 SWAP2 POP POP JUMP JUMPDEST PUSH0 DUP2 SWAP1 POP PUSH1 0x20 DUP3 ADD SWAP1 POP SWAP2 SWAP1 POP JUMP JUMPDEST PUSH0 PUSH2 0x7C8 DUP4 DUP4 PUSH2 0x75C JUMP JUMPDEST SWAP1 POP SWAP3 SWAP2 POP POP JUMP JUMPDEST PUSH0 PUSH1 0x20 DUP3 ADD SWAP1 POP SWAP2 SWAP1 POP JUMP JUMPDEST PUSH0 PUSH2 0x7E6 DUP3 PUSH2 0x794 JUMP JUMPDEST PUSH2 0x7F0 DUP2 DUP6 PUSH2 0x79E JUMP JUMPDEST SWAP4 POP DUP4 PUSH1 0x20 DUP3 MUL DUP6 ADD PUSH2 0x802 DUP6 PUSH2 0x7AE JUMP JUMPDEST DUP1 PUSH0 JUMPDEST DUP6 DUP2 LT ISZERO PUSH2 0x83D JUMPI DUP5 DUP5 SUB DUP10 MSTORE DUP2 MLOAD PUSH2 0x81E DUP6 DUP3 PUSH2 0x7BD JUMP JUMPDEST SWAP5 POP PUSH2 0x829 DUP4 PUSH2 0x7D0 JUMP JUMPDEST SWAP3 POP PUSH1 0x20 DUP11 ADD SWAP10 POP POP PUSH1 0x1 DUP2 ADD SWAP1 POP PUSH2 0x805 JUMP JUMPDEST POP DUP3 SWAP8 POP DUP8 SWAP6 POP POP POP POP POP POP SWAP3 SWAP2 POP POP JUMP JUMPDEST PUSH2 0x858 DUP2 PUSH2 0x612 JUMP JUMPDEST DUP3 MSTORE POP POP JUMP JUMPDEST PUSH0 PUSH1 0x80 DUP4 ADD PUSH0 DUP4 ADD MLOAD DUP5 DUP3 SUB PUSH0 DUP7 ADD MSTORE PUSH2 0x878 DUP3 DUP3 PUSH2 0x75C JUMP JUMPDEST SWAP2 POP POP PUSH1 0x20 DUP4 ADD MLOAD DUP5 DUP3 SUB PUSH1 0x20 DUP7 ADD MSTORE PUSH2 0x892 DUP3 DUP3 PUSH2 0x7DC JUMP JUMPDEST SWAP2 POP POP PUSH1 0x40 DUP4 ADD MLOAD PUSH2 0x8A7 PUSH1 0x40 DUP7 ADD DUP3 PUSH2 0x84F JUMP JUMPDEST POP PUSH1 0x60 DUP4 ADD MLOAD PUSH2 0x8BA PUSH1 0x60 DUP7 ADD DUP3 PUSH2 0x84F JUMP JUMPDEST POP DUP1 SWAP2 POP POP SWAP3 SWAP2 POP POP JUMP JUMPDEST PUSH0 PUSH1 0x20 DUP3 ADD SWAP1 POP DUP2 DUP2 SUB PUSH0 DUP4 ADD MSTORE PUSH2 0x8DD DUP2 DUP5 PUSH2 0x85E JUMP JUMPDEST SWAP1 POP SWAP3 SWAP2 POP POP JUMP JUMPDEST PUSH32 0x4E487B7100000000000000000000000000000000000000000000000000000000 PUSH0 MSTORE PUSH1 0x22 PUSH1 0x4 MSTORE PUSH1 0x24 PUSH0 REVERT JUMPDEST PUSH0 PUSH1 0x2 DUP3 DIV SWAP1 POP PUSH1 0x1 DUP3 AND DUP1 PUSH2 0x929 JUMPI PUSH1 0x7F DUP3 AND SWAP2 POP JUMPDEST PUSH1 0x20 DUP3 LT DUP2 SUB PUSH2 0x93C JUMPI PUSH2 0x93B PUSH2 0x8E5 JUMP JUMPDEST JUMPDEST POP SWAP2 SWAP1 POP JUMP JUMPDEST PUSH0 DUP2 SWAP1 POP DUP2 PUSH0 MSTORE PUSH1 0x20 PUSH0 KECCAK256 SWAP1 POP SWAP2 SWAP1 POP JUMP JUMPDEST PUSH0 PUSH1 0x20 PUSH1 0x1F DUP4 ADD DIV SWAP1 POP SWAP2 SWAP1 POP JUMP JUMPDEST PUSH0 DUP3 DUP3 SHL SWAP1 POP SWAP3 SWAP2 POP POP JUMP JUMPDEST PUSH0 PUSH1 0x8 DUP4 MUL PUSH2 0x99E PUSH32 0xFFFFFFFFFFFFFFFFFFFFFFFFFFFFFFFFFFFFFFFFFFFFFFFFFFFFFFFFFFFFFFFF DUP3 PUSH2 0x963 JUMP JUMPDEST PUSH2 0x9A8 DUP7 DUP4 PUSH2 0x963 JUMP JUMPDEST SWAP6 POP DUP1 NOT DUP5 AND SWAP4 POP DUP1 DUP7 AND DUP5 OR SWAP3 POP POP POP SWAP4 SWAP3 POP POP POP JUMP JUMPDEST PUSH0 DUP2 SWAP1 POP SWAP2 SWAP1 POP JUMP JUMPDEST PUSH0 PUSH2 0x9E3 PUSH2 0x9DE PUSH2 0x9D9 DUP5 PUSH2 0x612 JUMP JUMPDEST PUSH2 0x9C0 JUMP JUMPDEST PUSH2 0x612 JUMP JUMPDEST SWAP1 POP SWAP2 SWAP1 POP JUMP JUMPDEST PUSH0 DUP2 SWAP1 POP SWAP2 SWAP1 POP JUMP JUMPDEST PUSH2 0x9FC DUP4 PUSH2 0x9C9 JUMP JUMPDEST PUSH2 0xA10 PUSH2 0xA08 DUP3 PUSH2 0x9EA JUMP JUMPDEST DUP5 DUP5 SLOAD PUSH2 0x96F JUMP JUMPDEST DUP3 SSTORE POP POP POP POP JUMP JUMPDEST PUSH0 SWAP1 JUMP JUMPDEST PUSH2 0xA24 PUSH2 0xA18 JUMP JUMPDEST PUSH2 0xA2F DUP2 DUP5 DUP5 PUSH2 0x9F3 JUMP JUMPDEST POP POP POP JUMP JUMPDEST JUMPDEST DUP2 DUP2 LT ISZERO PUSH2 0xA52 JUMPI PUSH2 0xA47 PUSH0 DUP3 PUSH2 0xA1C JUMP JUMPDEST PUSH1 0x1 DUP2 ADD SWAP1 POP PUSH2 0xA35 JUMP JUMPDEST POP POP JUMP JUMPDEST PUSH1 0x1F DUP3 GT ISZERO PUSH2 0xA97 JUMPI PUSH2 0xA68 DUP2 PUSH2 0x942 JUMP JUMPDEST PUSH2 0xA71 DUP5 PUSH2 0x954 JUMP JUMPDEST DUP2 ADD PUSH1 0x20 DUP6 LT ISZERO PUSH2 0xA80 JUMPI DUP2 SWAP1 POP JUMPDEST PUSH2 0xA94 PUSH2 0xA8C DUP6 PUSH2 0x954 JUMP JUMPDEST DUP4 ADD DUP3 PUSH2 0xA34 JUMP JUMPDEST POP POP JUMPDEST POP POP POP JUMP JUMPDEST PUSH0 DUP3 DUP3 SHR SWAP1 POP SWAP3 SWAP2 POP POP JUMP JUMPDEST PUSH0 PUSH2 0xAB7 PUSH0 NOT DUP5 PUSH1 0x8 MUL PUSH2 0xA9C JUMP JUMPDEST NOT DUP1 DUP4 AND SWAP2 POP POP SWAP3 SWAP2 POP POP JUMP JUMPDEST PUSH0 PUSH2 0xACF DUP4 DUP4 PUSH2 0xAA8 JUMP JUMPDEST SWAP2 POP DUP3 PUSH1 0x2 MUL DUP3 OR SWAP1 POP SWAP3 SWAP2 POP POP JUMP JUMPDEST PUSH2 0xAE8 DUP3 PUSH2 0x734 JUMP JUMPDEST PUSH8 0xFFFFFFFFFFFFFFFF DUP2 GT ISZERO PUSH2 0xB01 JUMPI PUSH2 0xB00 PUSH2 0x40C JUMP JUMPDEST JUMPDEST PUSH2 0xB0B DUP3 SLOAD PUSH2 0x912 JUMP JUMPDEST PUSH2 0xB16 DUP3 DUP3 DUP6 PUSH2 0xA56 JUMP JUMPDEST PUSH0 PUSH1 0x20 SWAP1 POP PUSH1 0x1F DUP4 GT PUSH1 0x1 DUP2 EQ PUSH2 0xB47 JUMPI PUSH0 DUP5 ISZERO PUSH2 0xB35 JUMPI DUP3 DUP8 ADD MLOAD SWAP1 POP JUMPDEST PUSH2 0xB3F DUP6 DUP3 PUSH2 0xAC4 JUMP JUMPDEST DUP7 SSTORE POP PUSH2 0xBA6 JUMP JUMPDEST PUSH1 0x1F NOT DUP5 AND PUSH2 0xB55 DUP7 PUSH2 0x942 JUMP JUMPDEST PUSH0 JUMPDEST DUP3 DUP2 LT ISZERO PUSH2 0xB7C JUMPI DUP5 DUP10 ADD MLOAD DUP3 SSTORE PUSH1 0x1 DUP3 ADD SWAP2 POP PUSH1 0x20 DUP6 ADD SWAP5 POP PUSH1 0x20 DUP2 ADD SWAP1 POP PUSH2 0xB57 JUMP JUMPDEST DUP7 DUP4 LT ISZERO PUSH2 0xB99 JUMPI DUP5 DUP10 ADD MLOAD PUSH2 0xB95 PUSH1 0x1F DUP10 AND DUP3 PUSH2 0xAA8 JUMP JUMPDEST DUP4 SSTORE POP JUMPDEST PUSH1 0x1 PUSH1 0x2 DUP9 MUL ADD DUP9 SSTORE POP POP POP JUMPDEST POP POP POP POP POP POP JUMP JUMPDEST PUSH32 0x4E487B7100000000000000000000000000000000000000000000000000000000 PUSH0 MSTORE PUSH1 0x11 PUSH1 0x4 MSTORE PUSH1 0x24 PUSH0 REVERT JUMPDEST PUSH0 PUSH2 0xBE5 DUP3 PUSH2 0x612 JUMP JUMPDEST SWAP2 POP PUSH32 0xFFFFFFFFFFFFFFFFFFFFFFFFFFFFFFFFFFFFFFFFFFFFFFFFFFFFFFFFFFFFFFFF DUP3 SUB PUSH2 0xC17 JUMPI PUSH2 0xC16 PUSH2 0xBAE JUMP JUMPDEST JUMPDEST PUSH1 0x1 DUP3 ADD SWAP1 POP SWAP2 SWAP1 POP JUMP INVALID LOG2 PUSH5 0x6970667358 0x22 SLT KECCAK256 DELEGATECALL SELFDESTRUCT DUP5 SWAP16 SLT SWAP11 0xE3 DUP8 0xD3 RETURNDATACOPY 0xD0 EXP 0x2C SELFBALANCE SWAP10 SAR 0xE0 ADD PUSH32 0x9926076A0F17AB20841CC3ABB64736F6C634300081A00330000000000000000 "
		},
		"gasEstimates": {
			"creation": {
				"codeDepositCost": "632000",
				"executionCost": "5667",
				"totalCost": "637667"
			},
			"external": {
				"counter()": "2424",
				"createBallot(string,string[],uint256,uint256)": "infinite",
				"getBallotByIndex(uint256)": "infinite"
			}
		},
		"methodIdentifiers": {
			"counter()": "61bc221a",
			"createBallot(string,string[],uint256,uint256)": "5396dd7a",
			"getBallotByIndex(uint256)": "c8b3d5ac"
		}
	},
	"abi": [
		{
			"inputs": [],
			"name": "counter",
			"outputs": [
				{
					"internalType": "uint256",
					"name": "",
					"type": "uint256"
				}
			],
			"stateMutability": "view",
			"type": "function"
		},
		{
			"inputs": [
				{
					"internalType": "string",
					"name": "question_",
					"type": "string"
				},
				{
					"internalType": "string[]",
					"name": "options_",
					"type": "string[]"
				},
				{
					"internalType": "uint256",
					"name": "startTime_",
					"type": "uint256"
				},
				{
					"internalType": "uint256",
					"name": "duration_",
					"type": "uint256"
				}
			],
			"name": "createBallot",
			"outputs": [],
			"stateMutability": "nonpayable",
			"type": "function"
		},
		{
			"inputs": [
				{
					"internalType": "uint256",
					"name": "index_",
					"type": "uint256"
				}
			],
			"name": "getBallotByIndex",
			"outputs": [
				{
					"components": [
						{
							"internalType": "string",
							"name": "question",
							"type": "string"
						},
						{
							"internalType": "string[]",
							"name": "options",
							"type": "string[]"
						},
						{
							"internalType": "uint256",
							"name": "startTime",
							"type": "uint256"
						},
						{
							"internalType": "uint256",
							"name": "duration",
							"type": "uint256"
						}
					],
					"internalType": "struct SimpleVoting.Ballot",
					"name": "ballot",
					"type": "tuple"
				}
			],
			"stateMutability": "view",
			"type": "function"
		}
	]
}